{"contracts/DisputeResolver.sol":{"DisputeResolver":{"abi":[{"inputs":[{"internalType":"address","name":"_taskLedger","type":"address"},{"internalType":"address","name":"_vault","type":"address"},{"internalType":"address","name":"_registry","type":"address"}],"stateMutability":"nonpayable","type":"constructor"},{"inputs":[{"internalType":"address","name":"owner","type":"address"}],"name":"OwnableInvalidOwner","type":"error"},{"inputs":[{"internalType":"address","name":"account","type":"address"}],"name":"OwnableUnauthorizedAccount","type":"error"},{"anonymous":false,"inputs":[{"indexed":true,"internalType":"uint256","name":"taskId","type":"uint256"},{"indexed":true,"internalType":"address","name":"user","type":"address"},{"indexed":true,"internalType":"uint256","name":"agentId","type":"uint256"}],"name":"DisputeOpened","type":"event"},{"anonymous":false,"inputs":[{"indexed":true,"internalType":"uint256","name":"taskId","type":"uint256"},{"indexed":false,"internalType":"enum DisputeResolver.DisputeOutcome","name":"outcome","type":"uint8"}],"name":"DisputeResolved","type":"event"},{"anonymous":false,"inputs":[{"indexed":true,"internalType":"uint256","name":"taskId","type":"uint256"},{"indexed":true,"internalType":"uint256","name":"agentId","type":"uint256"}],"name":"DisputeResponse","type":"event"},{"anonymous":false,"inputs":[{"indexed":true,"internalType":"address","name":"previousOwner","type":"address"},{"indexed":true,"internalType":"address","name":"newOwner","type":"address"}],"name":"OwnershipTransferred","type":"event"},{"inputs":[{"internalType":"uint256","name":"","type":"uint256"}],"name":"disputes","outputs":[{"internalType":"uint256","name":"taskId","type":"uint256"},{"internalType":"address","name":"user","type":"address"},{"internalType":"uint256","name":"agentId","type":"uint256"},{"internalType":"string","name":"userEvidence","type":"string"},{"internalType":"string","name":"agentResponse","type":"string"},{"internalType":"enum DisputeResolver.DisputeStatus","name":"status","type":"uint8"},{"internalType":"enum DisputeResolver.DisputeOutcome","name":"outcome","type":"uint8"},{"internalType":"uint256","name":"openedAt","type":"uint256"},{"internalType":"uint256","name":"resolvedAt","type":"uint256"}],"stateMutability":"view","type":"function"},{"inputs":[{"internalType":"uint256","name":"_taskId","type":"uint256"}],"name":"getDispute","outputs":[{"components":[{"internalType":"uint256","name":"taskId","type":"uint256"},{"internalType":"address","name":"user","type":"address"},{"internalType":"uint256","name":"agentId","type":"uint256"},{"internalType":"string","name":"userEvidence","type":"string"},{"internalType":"string","name":"agentResponse","type":"string"},{"internalType":"enum DisputeResolver.DisputeStatus","name":"status","type":"uint8"},{"internalType":"enum DisputeResolver.DisputeOutcome","name":"outcome","type":"uint8"},{"internalType":"uint256","name":"openedAt","type":"uint256"},{"internalType":"uint256","name":"resolvedAt","type":"uint256"}],"internalType":"struct DisputeResolver.Dispute","name":"","type":"tuple"}],"stateMutability":"view","type":"function"},{"inputs":[],"name":"getOpenDisputes","outputs":[{"components":[{"internalType":"uint256","name":"taskId","type":"uint256"},{"internalType":"address","name":"user","type":"address"},{"internalType":"uint256","name":"agentId","type":"uint256"},{"internalType":"string","name":"userEvidence","type":"string"},{"internalType":"string","name":"agentResponse","type":"string"},{"internalType":"enum DisputeResolver.DisputeStatus","name":"status","type":"uint8"},{"internalType":"enum DisputeResolver.DisputeOutcome","name":"outcome","type":"uint8"},{"internalType":"uint256","name":"openedAt","type":"uint256"},{"internalType":"uint256","name":"resolvedAt","type":"uint256"}],"internalType":"struct DisputeResolver.Dispute[]","name":"","type":"tuple[]"}],"stateMutability":"view","type":"function"},{"inputs":[{"internalType":"uint256","name":"","type":"uint256"}],"name":"hasDispute","outputs":[{"internalType":"bool","name":"","type":"bool"}],"stateMutability":"view","type":"function"},{"inputs":[{"internalType":"uint256","name":"_taskId","type":"uint256"},{"internalType":"string","name":"_evidence","type":"string"}],"name":"openDispute","outputs":[],"stateMutability":"nonpayable","type":"function"},{"inputs":[{"internalType":"uint256","name":"","type":"uint256"}],"name":"openDisputeIds","outputs":[{"internalType":"uint256","name":"","type":"uint256"}],"stateMutability":"view","type":"function"},{"inputs":[],"name":"owner","outputs":[{"internalType":"address","name":"","type":"address"}],"stateMutability":"view","type":"function"},{"inputs":[],"name":"registry","outputs":[{"internalType":"contract IAgentRegistryForDispute","name":"","type":"address"}],"stateMutability":"view","type":"function"},{"inputs":[],"name":"renounceOwnership","outputs":[],"stateMutability":"nonpayable","type":"function"},{"inputs":[{"internalType":"uint256","name":"_taskId","type":"uint256"},{"internalType":"bool","name":"_userWins","type":"bool"}],"name":"resolveDispute","outputs":[],"stateMutability":"nonpayable","type":"function"},{"inputs":[{"internalType":"uint256","name":"_taskId","type":"uint256"},{"internalType":"string","name":"_response","type":"string"}],"name":"respondToDispute","outputs":[],"stateMutability":"nonpayable","type":"function"},{"inputs":[],"name":"taskLedger","outputs":[{"internalType":"contract ITaskLedgerForDispute","name":"","type":"address"}],"stateMutability":"view","type":"function"},{"inputs":[{"internalType":"address","name":"newOwner","type":"address"}],"name":"transferOwnership","outputs":[],"stateMutability":"nonpayable","type":"function"},{"inputs":[],"name":"vault","outputs":[{"internalType":"contract IAgentVaultForDispute","name":"","type":"address"}],"stateMutability":"view","type":"function"}],"evm":{"bytecode":{"linkReferences":{},"object":"6080346200010957601f620017c338819003918201601f19168301916001600160401b038311848410176200010e5780849260609460405283398101031262000109576200004d8162000124565b620000696040620000616020850162000124565b930162000124565b903315620000f057600080546001600160a01b03198082163390811784556040519691956001600160a01b039590948694859391908416907f8be0079c531659141344cd1fd0a4f28419497f9722a3daafe3b4186f6b6457e09080a316856004541617600455168360055416176005551690600654161760065561168990816200013a8239f35b604051631e4fbdf760e01b815260006004820152602490fd5b600080fd5b634e487b7160e01b600052604160045260246000fd5b51906001600160a01b0382168203620001095756fe6080604052600436101561001257600080fd5b600060e08135811c90816334b25ee214610f7057816336f691c4146109c65781635243a9241461098c578163564a565d146108bd578163715018a6146108635781637b1039991461083a5781637ea62c871461080b578163857dbac9146104fb5781638da5cb5b146104d45781639c0912fe146104ab5781639d28c0261461025f578163e3a96cbd1461017b57508063f2fde38b146100e55763fbfa77cf146100ba57600080fd5b346100e257806003193601126100e2576005546040516001600160a01b039091168152602090f35b80fd5b50346100e25760203660031901126100e2576004356001600160a01b038181169182900361017757610115611551565b811561015e57600054826bffffffffffffffffffffffff60a01b821617600055167f8be0079c531659141344cd1fd0a4f28419497f9722a3daafe3b4186f6b6457e0600080a380f35b604051631e4fbdf760e01b815260048101849052602490fd5b8280fd5b82346100e257602090816003193601126100e257604060079160043561019f6115bc565b50808252600285526101b660ff848420541661157d565b81526001845220604051936101ca8561127d565b8154855260018201546001600160a01b031684860152600282015460408601526101f6600383016113be565b6060860152610207600483016113be565b608086015260ff600583015481811661021f816114a4565b60a088015260081c16610231816114a4565b60c0860152600682015490850152015461010083015261025b6040519282849384528301906114c4565b0390f35b9050346104a757816003193601126104a7578190829060038054925b838110610452575061028c84611627565b9361029a604051958661129a565b8085526102a9601f1991611627565b01855b81811061043b5750508491855b84811061031e5760408051602080825288518183018190528a93600582901b8401810192808c01929185015b8287106102f25785850386f35b90919293828061030e600193603f198a820301865288516114c4565b96019201960195929190926102e5565b61032781611337565b905490841b1c87526001602081815260ff6005818160408d2001541661034c816114a4565b8b600280920361036b575b50505050505061036690611602565b6102b9565b92600792879a9592604061042f98968c6103876103669c611337565b9054911b1c81528786522093604051966103a08861127d565b855488528501546001600160a01b03169087015283015460408601526103c78a84016113be565b60608601526103d8600484016113be565b60808601528201548181166103ec816114a4565b60a086015260081c166103fe816114a4565b60c0840152600681015487840152015461010082015261041e828a61163f565b52610429818961163f565b50611602565b9390388080808b610357565b6020906104466115bc565b828289010152016102ac565b61045b81611337565b905490831b1c86526001602052600260ff60056040892001541661047e816114a4565b03610492575b61048d90611602565b61027b565b9361049f61048d91611602565b949050610484565b5080fd5b82346100e257806003193601126100e2576004546040516001600160a01b039091168152602090f35b82346100e257806003193601126100e257546040516001600160a01b039091168152602090f35b82346100e25761050a366112bc565b81835260019060209180835260408520926002815261052f60ff60408820541661157d565b600584019260ff845416610542816114a4565b6107d35760018060a01b039485600654169560028201968488546024604051809481936233950960e01b835260048301525afa9081156107c8578a9161078e575b5016330361075757600681015461a8c081018091116107435742116106fe576004019181519167ffffffffffffffff83116106ea579082916105c58554611384565b601f8111610697575b5081601f841160011461063457508992610629575b5050600019600383901b1c191690831b1790555b815460ff191617905554907f58fe1c607de48a89e09bfc7d3edb66c4ce93ac612db3b0838b98a096ff5b17478380a380f35b0151905088806105e3565b9190869450601f198416868c52838c20938c905b82821061067e5750508411610665575b505050811b0190556105f7565b015160001960f88460031b161c19169055888080610658565b8484015186558997909501949384019390810190610648565b90919250848a52828a20601f850160051c8101918486106106e0575b8594939291601f89920160051c01915b8281106106d15750506105ce565b600081558695508891016106c3565b90915081906106b3565b634e487b7160e01b89526041600452602489fd5b60405162461bcd60e51b815260048101849052601760248201527f526573706f6e73652077696e646f7720657870697265640000000000000000006044820152606490fd5b634e487b7160e01b89526011600452602489fd5b60405162461bcd60e51b815260048101849052600f60248201526e2737ba1030b3b2b73a1037bbb732b960891b6044820152606490fd5b90508481813d83116107c1575b6107a5818361129a565b810103126107bd575181811681036107bd578a610583565b8980fd5b503d61079b565b6040513d8c823e3d90fd5b60405162461bcd60e51b815260048101839052601060248201526f2234b9b83aba32903737ba1037b832b760811b6044820152606490fd5b82346100e25760203660031901126100e25760ff60406020926004358152600284522054166040519015158152f35b82346100e257806003193601126100e2576006546040516001600160a01b039091168152602090f35b82346100e257806003193601126100e25761087c611551565b600080546001600160a01b0319811682556001600160a01b03167f8be0079c531659141344cd1fd0a4f28419497f9722a3daafe3b4186f6b6457e08280a380f35b82346100e25760203660031901126100e25760409060043581526001602052209081549060018060a01b0360018401541692600281015490610901600382016113be565b9261090e600483016113be565b9361096260058401549561095460ff8089169860081c169360076006880154970154976040519b8c9b8c5260208c015260408b01526101208060608c01528a0190611464565b9088820360808a0152611464565b9461096c816114a4565b60a087015261097a816114a4565b60c08601528401526101008301520390f35b82346100e25760203660031901126100e257600435906003548210156100e25760206109b783611337565b90549060031b1c604051908152f35b9050346104a7576109d6366112bc565b60048054604051633bfd281160e01b81529182018490526001600160a01b0316939190602081602481885afa908115610f65578691610f1f575b506001600160a01b03163303610ee957828552600260205260ff604086205416610eab57602060249460405195868092631f5c479b60e01b82528760048301525afa938415610ea0578594610e68575b5060405190610a6e8261127d565b83825233602083015284604083015260608201526040516020810181811067ffffffffffffffff821117610e525760405285815260808201528460a08201528460c082015242828201528461010082015282855260016020526040852091815183556001830160018060a01b036020840151166bffffffffffffffffffffffff60a01b82541617905560408201516002840155606082015180519067ffffffffffffffff8211610d73578190610b276003870154611384565b601f8111610e01575b50602090601f8311600114610d92578992610d87575b50508160011b916000199060031b1c19161760038401555b608082015180519067ffffffffffffffff8211610d7357610b826004860154611384565b601f8111610d2e575b50602090601f8311600114610cba5791806101009492600796948b92610caf575b50508160011b916000199060031b1c19161760048601555b6005850160a0830151610bd6816114a4565b610bdf816114a4565b815460ff61ff0060c0870151610bf4816114a4565b610bfd816114a4565b60081b1692169061ffff19161717905581015160068501550151910155808352600260205260408320600160ff1982541617905560035468010000000000000000811015610c9b5781610c59826001610c729401600355611337565b90919082549060031b91821b91600019901b1916179055565b33907f45c6ef09865025319c9f2a574b08ae087defce1c8b3640347d830c463909ce7b8480a480f35b634e487b7160e01b84526041600452602484fd5b015190503880610bac565b906004860189526020892091895b601f1985168110610d1657509261010094926001926007979583601f19811610610cfd575b505050811b016004860155610bc4565b015160001960f88460031b161c19169055388080610ced565b91926020600181928685015181550194019201610cc8565b60048601895260208920601f840160051c810160208510610d6c575b601f830160051c82018110610d60575050610b8b565b60008155600101610d4a565b5080610d4a565b634e487b7160e01b88526041600452602488fd5b015190503880610b46565b9250600386018952602089209089935b601f1984168510610de6576001945083601f19811610610dcd575b505050811b016003840155610b5e565b015160001960f88460031b161c19169055388080610dbd565b81810151835560209485019460019093019290910190610da2565b90915060038601895260208920601f840160051c810160208510610e4b575b90849392915b601f830160051c82018110610e3c575050610b30565b60008155859450600101610e26565b5080610e20565b634e487b7160e01b600052604160045260246000fd5b9093506020813d602011610e98575b81610e846020938361129a565b81010312610e9457519238610a60565b8480fd5b3d9150610e77565b6040513d87823e3d90fd5b60405162461bcd60e51b81526020600482015260166024820152754469737075746520616c72656164792065786973747360501b6044820152606490fd5b60405162461bcd60e51b815260206004820152600e60248201526d2737ba103a30b9b59037bbb732b960911b6044820152606490fd5b90506020813d602011610f5d575b81610f3a6020938361129a565b81010312610f5957516001600160a01b0381168103610f595738610a10565b8580fd5b3d9150610f2d565b6040513d88823e3d90fd5b82346100e25760403660031901126100e2576024600435813580151581036111ae57610f9a611551565b81845260019283602052604085206002602052610fbd60ff60408820541661157d565b600581019283549060ff8216610fd2816114a4565b878115918215611255575b50501561121e5742600784015560ff198216600217855587929190156111b25750835461ff0019166101001784556005546002820154918701546001600160a01b03918216929116823b156111ae576064849283604051958694859363f018558160e01b855260048501528b8a85015260448401525af180156111a35761118f575b50505b84845b6110aa575b85847f2ffcfee146bc0d5ff304c6b65111a0d485af9456dc64eee7d66ebdcc90b223ea602060ff875460081c16604051906110a4816114a4565b8152a280f35b60038054908183101561118857856110c184611337565b905490831b1c146110dd5750506110d790611602565b84611065565b92919093949550600019938481019081116111755790610c5961110261110e93611337565b905490861b1c91611337565b81549081156111635750928260ff926020947f2ffcfee146bc0d5ff304c6b65111a0d485af9456dc64eee7d66ebdcc90b223ea96019161114d83611337565b9091825491841b1b19169055559184935061106a565b634e487b7160e01b8752603160045286fd5b634e487b7160e01b885260116004528288fd5b505061106a565b61119890611269565b610e9457848661105f565b6040513d84823e3d90fd5b8380fd5b61ffff191661020217845560055460029190910154906001600160a01b0316803b156101775760448392604051948593849263012fd33560e71b84528a6004850152888401525af18015610f655761120b575b50611062565b61121790959195611269565b9385611205565b60405162461bcd60e51b8152602060048201526010818601526f105b1c9958591e481c995cdbdb1d995960821b6044820152606490fd5b909150611261816114a4565b14878a610fdd565b67ffffffffffffffff8111610e5257604052565b610120810190811067ffffffffffffffff821117610e5257604052565b90601f8019910116810190811067ffffffffffffffff821117610e5257604052565b906040600319830112611332576004359167ffffffffffffffff6024358181116113325782602382011215611332578060040135918211610e52576040519261130f601f8401601f19166020018561129a565b828452602483830101116113325781600092602460209301838601378301015290565b600080fd5b60035481101561136e5760036000527fc2575a0e9e593c00f959f8c92f12db2869c3395a3b0502d05e2516446f71f85b0190600090565b634e487b7160e01b600052603260045260246000fd5b90600182811c921680156113b4575b602083101461139e57565b634e487b7160e01b600052602260045260246000fd5b91607f1691611393565b90604051918260008254926113d284611384565b90818452600194858116908160001461144157506001146113fe575b50506113fc9250038361129a565b565b9093915060005260209081600020936000915b8183106114295750506113fc935082010138806113ee565b85548884018501529485019487945091830191611411565b9150506113fc94506020925060ff191682840152151560051b82010138806113ee565b919082519283825260005b848110611490575050826000602080949584010152601f8019910116010190565b60208183018101518483018201520161146f565b600311156114ae57565b634e487b7160e01b600052602160045260246000fd5b908151815260018060a01b036020830151166020820152604082015160408201526115136115016060840151610120806060860152840190611464565b60808401518382036080850152611464565b9160a0810151611522816114a4565b60a083015260c0810151611535816114a4565b60c083015260e081015160e08301526101008091015191015290565b6000546001600160a01b0316330361156557565b60405163118cdaa760e01b8152336004820152602490fd5b1561158457565b60405162461bcd60e51b815260206004820152601060248201526f139bc8191a5cdc1d5d1948199bdd5b9960821b6044820152606490fd5b604051906115c98261127d565b81610100600091828152826020820152826040820152606080820152606060808201528260a08201528260c08201528260e08201520152565b60001981146116115760010190565b634e487b7160e01b600052601160045260246000fd5b67ffffffffffffffff8111610e525760051b60200190565b805182101561136e5760209160051b01019056fea2646970667358221220a979f0825dfeced4d88850b51a3b7f8c8a6cad550362ec5b1b678856fde139f964736f6c63430008140033","opcodes":"PUSH1 0x80 CALLVALUE PUSH3 0x109 JUMPI PUSH1 0x1F PUSH3 0x17C3 CODESIZE DUP2 SWAP1 SUB SWAP2 DUP3 ADD PUSH1 0x1F NOT AND DUP4 ADD SWAP2 PUSH1 0x1 PUSH1 0x1 PUSH1 0x40 SHL SUB DUP4 GT DUP5 DUP5 LT OR PUSH3 0x10E JUMPI DUP1 DUP5 SWAP3 PUSH1 0x60 SWAP5 PUSH1 0x40 MSTORE DUP4 CODECOPY DUP2 ADD SUB SLT PUSH3 0x109 JUMPI PUSH3 0x4D DUP2 PUSH3 0x124 JUMP JUMPDEST PUSH3 0x69 PUSH1 0x40 PUSH3 0x61 PUSH1 0x20 DUP6 ADD PUSH3 0x124 JUMP JUMPDEST SWAP4 ADD PUSH3 0x124 JUMP JUMPDEST SWAP1 CALLER ISZERO PUSH3 0xF0 JUMPI PUSH1 0x0 DUP1 SLOAD PUSH1 0x1 PUSH1 0x1 PUSH1 0xA0 SHL SUB NOT DUP1 DUP3 AND CALLER SWAP1 DUP2 OR DUP5 SSTORE PUSH1 0x40 MLOAD SWAP7 SWAP2 SWAP6 PUSH1 0x1 PUSH1 0x1 PUSH1 0xA0 SHL SUB SWAP6 SWAP1 SWAP5 DUP7 SWAP5 DUP6 SWAP4 SWAP2 SWAP1 DUP5 AND SWAP1 PUSH32 0x8BE0079C531659141344CD1FD0A4F28419497F9722A3DAAFE3B4186F6B6457E0 SWAP1 DUP1 LOG3 AND DUP6 PUSH1 0x4 SLOAD AND OR PUSH1 0x4 SSTORE AND DUP4 PUSH1 0x5 SLOAD AND OR PUSH1 0x5 SSTORE AND SWAP1 PUSH1 0x6 SLOAD AND OR PUSH1 0x6 SSTORE PUSH2 0x1689 SWAP1 DUP2 PUSH3 0x13A DUP3 CODECOPY RETURN JUMPDEST PUSH1 0x40 MLOAD PUSH4 0x1E4FBDF7 PUSH1 0xE0 SHL DUP2 MSTORE PUSH1 0x0 PUSH1 0x4 DUP3 ADD MSTORE PUSH1 0x24 SWAP1 REVERT JUMPDEST PUSH1 0x0 DUP1 REVERT JUMPDEST PUSH4 0x4E487B71 PUSH1 0xE0 SHL PUSH1 0x0 MSTORE PUSH1 0x41 PUSH1 0x4 MSTORE PUSH1 0x24 PUSH1 0x0 REVERT JUMPDEST MLOAD SWAP1 PUSH1 0x1 PUSH1 0x1 PUSH1 0xA0 SHL SUB DUP3 AND DUP3 SUB PUSH3 0x109 JUMPI JUMP INVALID PUSH1 0x80 PUSH1 0x40 MSTORE PUSH1 0x4 CALLDATASIZE LT ISZERO PUSH2 0x12 JUMPI PUSH1 0x0 DUP1 REVERT JUMPDEST PUSH1 0x0 PUSH1 0xE0 DUP2 CALLDATALOAD DUP2 SHR SWAP1 DUP2 PUSH4 0x34B25EE2 EQ PUSH2 0xF70 JUMPI DUP2 PUSH4 0x36F691C4 EQ PUSH2 0x9C6 JUMPI DUP2 PUSH4 0x5243A924 EQ PUSH2 0x98C JUMPI DUP2 PUSH4 0x564A565D EQ PUSH2 0x8BD JUMPI DUP2 PUSH4 0x715018A6 EQ PUSH2 0x863 JUMPI DUP2 PUSH4 0x7B103999 EQ PUSH2 0x83A JUMPI DUP2 PUSH4 0x7EA62C87 EQ PUSH2 0x80B JUMPI DUP2 PUSH4 0x857DBAC9 EQ PUSH2 0x4FB JUMPI DUP2 PUSH4 0x8DA5CB5B EQ PUSH2 0x4D4 JUMPI DUP2 PUSH4 0x9C0912FE EQ PUSH2 0x4AB JUMPI DUP2 PUSH4 0x9D28C026 EQ PUSH2 0x25F JUMPI DUP2 PUSH4 0xE3A96CBD EQ PUSH2 0x17B JUMPI POP DUP1 PUSH4 0xF2FDE38B EQ PUSH2 0xE5 JUMPI PUSH4 0xFBFA77CF EQ PUSH2 0xBA JUMPI PUSH1 0x0 DUP1 REVERT JUMPDEST CALLVALUE PUSH2 0xE2 JUMPI DUP1 PUSH1 0x3 NOT CALLDATASIZE ADD SLT PUSH2 0xE2 JUMPI PUSH1 0x5 SLOAD PUSH1 0x40 MLOAD PUSH1 0x1 PUSH1 0x1 PUSH1 0xA0 SHL SUB SWAP1 SWAP2 AND DUP2 MSTORE PUSH1 0x20 SWAP1 RETURN JUMPDEST DUP1 REVERT JUMPDEST POP CALLVALUE PUSH2 0xE2 JUMPI PUSH1 0x20 CALLDATASIZE PUSH1 0x3 NOT ADD SLT PUSH2 0xE2 JUMPI PUSH1 0x4 CALLDATALOAD PUSH1 0x1 PUSH1 0x1 PUSH1 0xA0 SHL SUB DUP2 DUP2 AND SWAP2 DUP3 SWAP1 SUB PUSH2 0x177 JUMPI PUSH2 0x115 PUSH2 0x1551 JUMP JUMPDEST DUP2 ISZERO PUSH2 0x15E JUMPI PUSH1 0x0 SLOAD DUP3 PUSH12 0xFFFFFFFFFFFFFFFFFFFFFFFF PUSH1 0xA0 SHL DUP3 AND OR PUSH1 0x0 SSTORE AND PUSH32 0x8BE0079C531659141344CD1FD0A4F28419497F9722A3DAAFE3B4186F6B6457E0 PUSH1 0x0 DUP1 LOG3 DUP1 RETURN JUMPDEST PUSH1 0x40 MLOAD PUSH4 0x1E4FBDF7 PUSH1 0xE0 SHL DUP2 MSTORE PUSH1 0x4 DUP2 ADD DUP5 SWAP1 MSTORE PUSH1 0x24 SWAP1 REVERT JUMPDEST DUP3 DUP1 REVERT JUMPDEST DUP3 CALLVALUE PUSH2 0xE2 JUMPI PUSH1 0x20 SWAP1 DUP2 PUSH1 0x3 NOT CALLDATASIZE ADD SLT PUSH2 0xE2 JUMPI PUSH1 0x40 PUSH1 0x7 SWAP2 PUSH1 0x4 CALLDATALOAD PUSH2 0x19F PUSH2 0x15BC JUMP JUMPDEST POP DUP1 DUP3 MSTORE PUSH1 0x2 DUP6 MSTORE PUSH2 0x1B6 PUSH1 0xFF DUP5 DUP5 KECCAK256 SLOAD AND PUSH2 0x157D JUMP JUMPDEST DUP2 MSTORE PUSH1 0x1 DUP5 MSTORE KECCAK256 PUSH1 0x40 MLOAD SWAP4 PUSH2 0x1CA DUP6 PUSH2 0x127D JUMP JUMPDEST DUP2 SLOAD DUP6 MSTORE PUSH1 0x1 DUP3 ADD SLOAD PUSH1 0x1 PUSH1 0x1 PUSH1 0xA0 SHL SUB AND DUP5 DUP7 ADD MSTORE PUSH1 0x2 DUP3 ADD SLOAD PUSH1 0x40 DUP7 ADD MSTORE PUSH2 0x1F6 PUSH1 0x3 DUP4 ADD PUSH2 0x13BE JUMP JUMPDEST PUSH1 0x60 DUP7 ADD MSTORE PUSH2 0x207 PUSH1 0x4 DUP4 ADD PUSH2 0x13BE JUMP JUMPDEST PUSH1 0x80 DUP7 ADD MSTORE PUSH1 0xFF PUSH1 0x5 DUP4 ADD SLOAD DUP2 DUP2 AND PUSH2 0x21F DUP2 PUSH2 0x14A4 JUMP JUMPDEST PUSH1 0xA0 DUP9 ADD MSTORE PUSH1 0x8 SHR AND PUSH2 0x231 DUP2 PUSH2 0x14A4 JUMP JUMPDEST PUSH1 0xC0 DUP7 ADD MSTORE PUSH1 0x6 DUP3 ADD SLOAD SWAP1 DUP6 ADD MSTORE ADD SLOAD PUSH2 0x100 DUP4 ADD MSTORE PUSH2 0x25B PUSH1 0x40 MLOAD SWAP3 DUP3 DUP5 SWAP4 DUP5 MSTORE DUP4 ADD SWAP1 PUSH2 0x14C4 JUMP JUMPDEST SUB SWAP1 RETURN JUMPDEST SWAP1 POP CALLVALUE PUSH2 0x4A7 JUMPI DUP2 PUSH1 0x3 NOT CALLDATASIZE ADD SLT PUSH2 0x4A7 JUMPI DUP2 SWAP1 DUP3 SWAP1 PUSH1 0x3 DUP1 SLOAD SWAP3 JUMPDEST DUP4 DUP2 LT PUSH2 0x452 JUMPI POP PUSH2 0x28C DUP5 PUSH2 0x1627 JUMP JUMPDEST SWAP4 PUSH2 0x29A PUSH1 0x40 MLOAD SWAP6 DUP7 PUSH2 0x129A JUMP JUMPDEST DUP1 DUP6 MSTORE PUSH2 0x2A9 PUSH1 0x1F NOT SWAP2 PUSH2 0x1627 JUMP JUMPDEST ADD DUP6 JUMPDEST DUP2 DUP2 LT PUSH2 0x43B JUMPI POP POP DUP5 SWAP2 DUP6 JUMPDEST DUP5 DUP2 LT PUSH2 0x31E JUMPI PUSH1 0x40 DUP1 MLOAD PUSH1 0x20 DUP1 DUP3 MSTORE DUP9 MLOAD DUP2 DUP4 ADD DUP2 SWAP1 MSTORE DUP11 SWAP4 PUSH1 0x5 DUP3 SWAP1 SHL DUP5 ADD DUP2 ADD SWAP3 DUP1 DUP13 ADD SWAP3 SWAP2 DUP6 ADD JUMPDEST DUP3 DUP8 LT PUSH2 0x2F2 JUMPI DUP6 DUP6 SUB DUP7 RETURN JUMPDEST SWAP1 SWAP2 SWAP3 SWAP4 DUP3 DUP1 PUSH2 0x30E PUSH1 0x1 SWAP4 PUSH1 0x3F NOT DUP11 DUP3 SUB ADD DUP7 MSTORE DUP9 MLOAD PUSH2 0x14C4 JUMP JUMPDEST SWAP7 ADD SWAP3 ADD SWAP7 ADD SWAP6 SWAP3 SWAP2 SWAP1 SWAP3 PUSH2 0x2E5 JUMP JUMPDEST PUSH2 0x327 DUP2 PUSH2 0x1337 JUMP JUMPDEST SWAP1 SLOAD SWAP1 DUP5 SHL SHR DUP8 MSTORE PUSH1 0x1 PUSH1 0x20 DUP2 DUP2 MSTORE PUSH1 0xFF PUSH1 0x5 DUP2 DUP2 PUSH1 0x40 DUP14 KECCAK256 ADD SLOAD AND PUSH2 0x34C DUP2 PUSH2 0x14A4 JUMP JUMPDEST DUP12 PUSH1 0x2 DUP1 SWAP3 SUB PUSH2 0x36B JUMPI JUMPDEST POP POP POP POP POP POP PUSH2 0x366 SWAP1 PUSH2 0x1602 JUMP JUMPDEST PUSH2 0x2B9 JUMP JUMPDEST SWAP3 PUSH1 0x7 SWAP3 DUP8 SWAP11 SWAP6 SWAP3 PUSH1 0x40 PUSH2 0x42F SWAP9 SWAP7 DUP13 PUSH2 0x387 PUSH2 0x366 SWAP13 PUSH2 0x1337 JUMP JUMPDEST SWAP1 SLOAD SWAP2 SHL SHR DUP2 MSTORE DUP8 DUP7 MSTORE KECCAK256 SWAP4 PUSH1 0x40 MLOAD SWAP7 PUSH2 0x3A0 DUP9 PUSH2 0x127D JUMP JUMPDEST DUP6 SLOAD DUP9 MSTORE DUP6 ADD SLOAD PUSH1 0x1 PUSH1 0x1 PUSH1 0xA0 SHL SUB AND SWAP1 DUP8 ADD MSTORE DUP4 ADD SLOAD PUSH1 0x40 DUP7 ADD MSTORE PUSH2 0x3C7 DUP11 DUP5 ADD PUSH2 0x13BE JUMP JUMPDEST PUSH1 0x60 DUP7 ADD MSTORE PUSH2 0x3D8 PUSH1 0x4 DUP5 ADD PUSH2 0x13BE JUMP JUMPDEST PUSH1 0x80 DUP7 ADD MSTORE DUP3 ADD SLOAD DUP2 DUP2 AND PUSH2 0x3EC DUP2 PUSH2 0x14A4 JUMP JUMPDEST PUSH1 0xA0 DUP7 ADD MSTORE PUSH1 0x8 SHR AND PUSH2 0x3FE DUP2 PUSH2 0x14A4 JUMP JUMPDEST PUSH1 0xC0 DUP5 ADD MSTORE PUSH1 0x6 DUP2 ADD SLOAD DUP8 DUP5 ADD MSTORE ADD SLOAD PUSH2 0x100 DUP3 ADD MSTORE PUSH2 0x41E DUP3 DUP11 PUSH2 0x163F JUMP JUMPDEST MSTORE PUSH2 0x429 DUP2 DUP10 PUSH2 0x163F JUMP JUMPDEST POP PUSH2 0x1602 JUMP JUMPDEST SWAP4 SWAP1 CODESIZE DUP1 DUP1 DUP1 DUP12 PUSH2 0x357 JUMP JUMPDEST PUSH1 0x20 SWAP1 PUSH2 0x446 PUSH2 0x15BC JUMP JUMPDEST DUP3 DUP3 DUP10 ADD ADD MSTORE ADD PUSH2 0x2AC JUMP JUMPDEST PUSH2 0x45B DUP2 PUSH2 0x1337 JUMP JUMPDEST SWAP1 SLOAD SWAP1 DUP4 SHL SHR DUP7 MSTORE PUSH1 0x1 PUSH1 0x20 MSTORE PUSH1 0x2 PUSH1 0xFF PUSH1 0x5 PUSH1 0x40 DUP10 KECCAK256 ADD SLOAD AND PUSH2 0x47E DUP2 PUSH2 0x14A4 JUMP JUMPDEST SUB PUSH2 0x492 JUMPI JUMPDEST PUSH2 0x48D SWAP1 PUSH2 0x1602 JUMP JUMPDEST PUSH2 0x27B JUMP JUMPDEST SWAP4 PUSH2 0x49F PUSH2 0x48D SWAP2 PUSH2 0x1602 JUMP JUMPDEST SWAP5 SWAP1 POP PUSH2 0x484 JUMP JUMPDEST POP DUP1 REVERT JUMPDEST DUP3 CALLVALUE PUSH2 0xE2 JUMPI DUP1 PUSH1 0x3 NOT CALLDATASIZE ADD SLT PUSH2 0xE2 JUMPI PUSH1 0x4 SLOAD PUSH1 0x40 MLOAD PUSH1 0x1 PUSH1 0x1 PUSH1 0xA0 SHL SUB SWAP1 SWAP2 AND DUP2 MSTORE PUSH1 0x20 SWAP1 RETURN JUMPDEST DUP3 CALLVALUE PUSH2 0xE2 JUMPI DUP1 PUSH1 0x3 NOT CALLDATASIZE ADD SLT PUSH2 0xE2 JUMPI SLOAD PUSH1 0x40 MLOAD PUSH1 0x1 PUSH1 0x1 PUSH1 0xA0 SHL SUB SWAP1 SWAP2 AND DUP2 MSTORE PUSH1 0x20 SWAP1 RETURN JUMPDEST DUP3 CALLVALUE PUSH2 0xE2 JUMPI PUSH2 0x50A CALLDATASIZE PUSH2 0x12BC JUMP JUMPDEST DUP2 DUP4 MSTORE PUSH1 0x1 SWAP1 PUSH1 0x20 SWAP2 DUP1 DUP4 MSTORE PUSH1 0x40 DUP6 KECCAK256 SWAP3 PUSH1 0x2 DUP2 MSTORE PUSH2 0x52F PUSH1 0xFF PUSH1 0x40 DUP9 KECCAK256 SLOAD AND PUSH2 0x157D JUMP JUMPDEST PUSH1 0x5 DUP5 ADD SWAP3 PUSH1 0xFF DUP5 SLOAD AND PUSH2 0x542 DUP2 PUSH2 0x14A4 JUMP JUMPDEST PUSH2 0x7D3 JUMPI PUSH1 0x1 DUP1 PUSH1 0xA0 SHL SUB SWAP5 DUP6 PUSH1 0x6 SLOAD AND SWAP6 PUSH1 0x2 DUP3 ADD SWAP7 DUP5 DUP9 SLOAD PUSH1 0x24 PUSH1 0x40 MLOAD DUP1 SWAP5 DUP2 SWAP4 PUSH3 0x339509 PUSH1 0xE0 SHL DUP4 MSTORE PUSH1 0x4 DUP4 ADD MSTORE GAS STATICCALL SWAP1 DUP2 ISZERO PUSH2 0x7C8 JUMPI DUP11 SWAP2 PUSH2 0x78E JUMPI JUMPDEST POP AND CALLER SUB PUSH2 0x757 JUMPI PUSH1 0x6 DUP2 ADD SLOAD PUSH2 0xA8C0 DUP2 ADD DUP1 SWAP2 GT PUSH2 0x743 JUMPI TIMESTAMP GT PUSH2 0x6FE JUMPI PUSH1 0x4 ADD SWAP2 DUP2 MLOAD SWAP2 PUSH8 0xFFFFFFFFFFFFFFFF DUP4 GT PUSH2 0x6EA JUMPI SWAP1 DUP3 SWAP2 PUSH2 0x5C5 DUP6 SLOAD PUSH2 0x1384 JUMP JUMPDEST PUSH1 0x1F DUP2 GT PUSH2 0x697 JUMPI JUMPDEST POP DUP2 PUSH1 0x1F DUP5 GT PUSH1 0x1 EQ PUSH2 0x634 JUMPI POP DUP10 SWAP3 PUSH2 0x629 JUMPI JUMPDEST POP POP PUSH1 0x0 NOT PUSH1 0x3 DUP4 SWAP1 SHL SHR NOT AND SWAP1 DUP4 SHL OR SWAP1 SSTORE JUMPDEST DUP2 SLOAD PUSH1 0xFF NOT AND OR SWAP1 SSTORE SLOAD SWAP1 PUSH32 0x58FE1C607DE48A89E09BFC7D3EDB66C4CE93AC612DB3B0838B98A096FF5B1747 DUP4 DUP1 LOG3 DUP1 RETURN JUMPDEST ADD MLOAD SWAP1 POP DUP9 DUP1 PUSH2 0x5E3 JUMP JUMPDEST SWAP2 SWAP1 DUP7 SWAP5 POP PUSH1 0x1F NOT DUP5 AND DUP7 DUP13 MSTORE DUP4 DUP13 KECCAK256 SWAP4 DUP13 SWAP1 JUMPDEST DUP3 DUP3 LT PUSH2 0x67E JUMPI POP POP DUP5 GT PUSH2 0x665 JUMPI JUMPDEST POP POP POP DUP2 SHL ADD SWAP1 SSTORE PUSH2 0x5F7 JUMP JUMPDEST ADD MLOAD PUSH1 0x0 NOT PUSH1 0xF8 DUP5 PUSH1 0x3 SHL AND SHR NOT AND SWAP1 SSTORE DUP9 DUP1 DUP1 PUSH2 0x658 JUMP JUMPDEST DUP5 DUP5 ADD MLOAD DUP7 SSTORE DUP10 SWAP8 SWAP1 SWAP6 ADD SWAP5 SWAP4 DUP5 ADD SWAP4 SWAP1 DUP2 ADD SWAP1 PUSH2 0x648 JUMP JUMPDEST SWAP1 SWAP2 SWAP3 POP DUP5 DUP11 MSTORE DUP3 DUP11 KECCAK256 PUSH1 0x1F DUP6 ADD PUSH1 0x5 SHR DUP2 ADD SWAP2 DUP5 DUP7 LT PUSH2 0x6E0 JUMPI JUMPDEST DUP6 SWAP5 SWAP4 SWAP3 SWAP2 PUSH1 0x1F DUP10 SWAP3 ADD PUSH1 0x5 SHR ADD SWAP2 JUMPDEST DUP3 DUP2 LT PUSH2 0x6D1 JUMPI POP POP PUSH2 0x5CE JUMP JUMPDEST PUSH1 0x0 DUP2 SSTORE DUP7 SWAP6 POP DUP9 SWAP2 ADD PUSH2 0x6C3 JUMP JUMPDEST SWAP1 SWAP2 POP DUP2 SWAP1 PUSH2 0x6B3 JUMP JUMPDEST PUSH4 0x4E487B71 PUSH1 0xE0 SHL DUP10 MSTORE PUSH1 0x41 PUSH1 0x4 MSTORE PUSH1 0x24 DUP10 REVERT JUMPDEST PUSH1 0x40 MLOAD PUSH3 0x461BCD PUSH1 0xE5 SHL DUP2 MSTORE PUSH1 0x4 DUP2 ADD DUP5 SWAP1 MSTORE PUSH1 0x17 PUSH1 0x24 DUP3 ADD MSTORE PUSH32 0x526573706F6E73652077696E646F772065787069726564000000000000000000 PUSH1 0x44 DUP3 ADD MSTORE PUSH1 0x64 SWAP1 REVERT JUMPDEST PUSH4 0x4E487B71 PUSH1 0xE0 SHL DUP10 MSTORE PUSH1 0x11 PUSH1 0x4 MSTORE PUSH1 0x24 DUP10 REVERT JUMPDEST PUSH1 0x40 MLOAD PUSH3 0x461BCD PUSH1 0xE5 SHL DUP2 MSTORE PUSH1 0x4 DUP2 ADD DUP5 SWAP1 MSTORE PUSH1 0xF PUSH1 0x24 DUP3 ADD MSTORE PUSH15 0x2737BA1030B3B2B73A1037BBB732B9 PUSH1 0x89 SHL PUSH1 0x44 DUP3 ADD MSTORE PUSH1 0x64 SWAP1 REVERT JUMPDEST SWAP1 POP DUP5 DUP2 DUP2 RETURNDATASIZE DUP4 GT PUSH2 0x7C1 JUMPI JUMPDEST PUSH2 0x7A5 DUP2 DUP4 PUSH2 0x129A JUMP JUMPDEST DUP2 ADD SUB SLT PUSH2 0x7BD JUMPI MLOAD DUP2 DUP2 AND DUP2 SUB PUSH2 0x7BD JUMPI DUP11 PUSH2 0x583 JUMP JUMPDEST DUP10 DUP1 REVERT JUMPDEST POP RETURNDATASIZE PUSH2 0x79B JUMP JUMPDEST PUSH1 0x40 MLOAD RETURNDATASIZE DUP13 DUP3 RETURNDATACOPY RETURNDATASIZE SWAP1 REVERT JUMPDEST PUSH1 0x40 MLOAD PUSH3 0x461BCD PUSH1 0xE5 SHL DUP2 MSTORE PUSH1 0x4 DUP2 ADD DUP4 SWAP1 MSTORE PUSH1 0x10 PUSH1 0x24 DUP3 ADD MSTORE PUSH16 0x2234B9B83ABA32903737BA1037B832B7 PUSH1 0x81 SHL PUSH1 0x44 DUP3 ADD MSTORE PUSH1 0x64 SWAP1 REVERT JUMPDEST DUP3 CALLVALUE PUSH2 0xE2 JUMPI PUSH1 0x20 CALLDATASIZE PUSH1 0x3 NOT ADD SLT PUSH2 0xE2 JUMPI PUSH1 0xFF PUSH1 0x40 PUSH1 0x20 SWAP3 PUSH1 0x4 CALLDATALOAD DUP2 MSTORE PUSH1 0x2 DUP5 MSTORE KECCAK256 SLOAD AND PUSH1 0x40 MLOAD SWAP1 ISZERO ISZERO DUP2 MSTORE RETURN JUMPDEST DUP3 CALLVALUE PUSH2 0xE2 JUMPI DUP1 PUSH1 0x3 NOT CALLDATASIZE ADD SLT PUSH2 0xE2 JUMPI PUSH1 0x6 SLOAD PUSH1 0x40 MLOAD PUSH1 0x1 PUSH1 0x1 PUSH1 0xA0 SHL SUB SWAP1 SWAP2 AND DUP2 MSTORE PUSH1 0x20 SWAP1 RETURN JUMPDEST DUP3 CALLVALUE PUSH2 0xE2 JUMPI DUP1 PUSH1 0x3 NOT CALLDATASIZE ADD SLT PUSH2 0xE2 JUMPI PUSH2 0x87C PUSH2 0x1551 JUMP JUMPDEST PUSH1 0x0 DUP1 SLOAD PUSH1 0x1 PUSH1 0x1 PUSH1 0xA0 SHL SUB NOT DUP2 AND DUP3 SSTORE PUSH1 0x1 PUSH1 0x1 PUSH1 0xA0 SHL SUB AND PUSH32 0x8BE0079C531659141344CD1FD0A4F28419497F9722A3DAAFE3B4186F6B6457E0 DUP3 DUP1 LOG3 DUP1 RETURN JUMPDEST DUP3 CALLVALUE PUSH2 0xE2 JUMPI PUSH1 0x20 CALLDATASIZE PUSH1 0x3 NOT ADD SLT PUSH2 0xE2 JUMPI PUSH1 0x40 SWAP1 PUSH1 0x4 CALLDATALOAD DUP2 MSTORE PUSH1 0x1 PUSH1 0x20 MSTORE KECCAK256 SWAP1 DUP2 SLOAD SWAP1 PUSH1 0x1 DUP1 PUSH1 0xA0 SHL SUB PUSH1 0x1 DUP5 ADD SLOAD AND SWAP3 PUSH1 0x2 DUP2 ADD SLOAD SWAP1 PUSH2 0x901 PUSH1 0x3 DUP3 ADD PUSH2 0x13BE JUMP JUMPDEST SWAP3 PUSH2 0x90E PUSH1 0x4 DUP4 ADD PUSH2 0x13BE JUMP JUMPDEST SWAP4 PUSH2 0x962 PUSH1 0x5 DUP5 ADD SLOAD SWAP6 PUSH2 0x954 PUSH1 0xFF DUP1 DUP10 AND SWAP9 PUSH1 0x8 SHR AND SWAP4 PUSH1 0x7 PUSH1 0x6 DUP9 ADD SLOAD SWAP8 ADD SLOAD SWAP8 PUSH1 0x40 MLOAD SWAP12 DUP13 SWAP12 DUP13 MSTORE PUSH1 0x20 DUP13 ADD MSTORE PUSH1 0x40 DUP12 ADD MSTORE PUSH2 0x120 DUP1 PUSH1 0x60 DUP13 ADD MSTORE DUP11 ADD SWAP1 PUSH2 0x1464 JUMP JUMPDEST SWAP1 DUP9 DUP3 SUB PUSH1 0x80 DUP11 ADD MSTORE PUSH2 0x1464 JUMP JUMPDEST SWAP5 PUSH2 0x96C DUP2 PUSH2 0x14A4 JUMP JUMPDEST PUSH1 0xA0 DUP8 ADD MSTORE PUSH2 0x97A DUP2 PUSH2 0x14A4 JUMP JUMPDEST PUSH1 0xC0 DUP7 ADD MSTORE DUP5 ADD MSTORE PUSH2 0x100 DUP4 ADD MSTORE SUB SWAP1 RETURN JUMPDEST DUP3 CALLVALUE PUSH2 0xE2 JUMPI PUSH1 0x20 CALLDATASIZE PUSH1 0x3 NOT ADD SLT PUSH2 0xE2 JUMPI PUSH1 0x4 CALLDATALOAD SWAP1 PUSH1 0x3 SLOAD DUP3 LT ISZERO PUSH2 0xE2 JUMPI PUSH1 0x20 PUSH2 0x9B7 DUP4 PUSH2 0x1337 JUMP JUMPDEST SWAP1 SLOAD SWAP1 PUSH1 0x3 SHL SHR PUSH1 0x40 MLOAD SWAP1 DUP2 MSTORE RETURN JUMPDEST SWAP1 POP CALLVALUE PUSH2 0x4A7 JUMPI PUSH2 0x9D6 CALLDATASIZE PUSH2 0x12BC JUMP JUMPDEST PUSH1 0x4 DUP1 SLOAD PUSH1 0x40 MLOAD PUSH4 0x3BFD2811 PUSH1 0xE0 SHL DUP2 MSTORE SWAP2 DUP3 ADD DUP5 SWAP1 MSTORE PUSH1 0x1 PUSH1 0x1 PUSH1 0xA0 SHL SUB AND SWAP4 SWAP2 SWAP1 PUSH1 0x20 DUP2 PUSH1 0x24 DUP2 DUP9 GAS STATICCALL SWAP1 DUP2 ISZERO PUSH2 0xF65 JUMPI DUP7 SWAP2 PUSH2 0xF1F JUMPI JUMPDEST POP PUSH1 0x1 PUSH1 0x1 PUSH1 0xA0 SHL SUB AND CALLER SUB PUSH2 0xEE9 JUMPI DUP3 DUP6 MSTORE PUSH1 0x2 PUSH1 0x20 MSTORE PUSH1 0xFF PUSH1 0x40 DUP7 KECCAK256 SLOAD AND PUSH2 0xEAB JUMPI PUSH1 0x20 PUSH1 0x24 SWAP5 PUSH1 0x40 MLOAD SWAP6 DUP7 DUP1 SWAP3 PUSH4 0x1F5C479B PUSH1 0xE0 SHL DUP3 MSTORE DUP8 PUSH1 0x4 DUP4 ADD MSTORE GAS STATICCALL SWAP4 DUP5 ISZERO PUSH2 0xEA0 JUMPI DUP6 SWAP5 PUSH2 0xE68 JUMPI JUMPDEST POP PUSH1 0x40 MLOAD SWAP1 PUSH2 0xA6E DUP3 PUSH2 0x127D JUMP JUMPDEST DUP4 DUP3 MSTORE CALLER PUSH1 0x20 DUP4 ADD MSTORE DUP5 PUSH1 0x40 DUP4 ADD MSTORE PUSH1 0x60 DUP3 ADD MSTORE PUSH1 0x40 MLOAD PUSH1 0x20 DUP2 ADD DUP2 DUP2 LT PUSH8 0xFFFFFFFFFFFFFFFF DUP3 GT OR PUSH2 0xE52 JUMPI PUSH1 0x40 MSTORE DUP6 DUP2 MSTORE PUSH1 0x80 DUP3 ADD MSTORE DUP5 PUSH1 0xA0 DUP3 ADD MSTORE DUP5 PUSH1 0xC0 DUP3 ADD MSTORE TIMESTAMP DUP3 DUP3 ADD MSTORE DUP5 PUSH2 0x100 DUP3 ADD MSTORE DUP3 DUP6 MSTORE PUSH1 0x1 PUSH1 0x20 MSTORE PUSH1 0x40 DUP6 KECCAK256 SWAP2 DUP2 MLOAD DUP4 SSTORE PUSH1 0x1 DUP4 ADD PUSH1 0x1 DUP1 PUSH1 0xA0 SHL SUB PUSH1 0x20 DUP5 ADD MLOAD AND PUSH12 0xFFFFFFFFFFFFFFFFFFFFFFFF PUSH1 0xA0 SHL DUP3 SLOAD AND OR SWAP1 SSTORE PUSH1 0x40 DUP3 ADD MLOAD PUSH1 0x2 DUP5 ADD SSTORE PUSH1 0x60 DUP3 ADD MLOAD DUP1 MLOAD SWAP1 PUSH8 0xFFFFFFFFFFFFFFFF DUP3 GT PUSH2 0xD73 JUMPI DUP2 SWAP1 PUSH2 0xB27 PUSH1 0x3 DUP8 ADD SLOAD PUSH2 0x1384 JUMP JUMPDEST PUSH1 0x1F DUP2 GT PUSH2 0xE01 JUMPI JUMPDEST POP PUSH1 0x20 SWAP1 PUSH1 0x1F DUP4 GT PUSH1 0x1 EQ PUSH2 0xD92 JUMPI DUP10 SWAP3 PUSH2 0xD87 JUMPI JUMPDEST POP POP DUP2 PUSH1 0x1 SHL SWAP2 PUSH1 0x0 NOT SWAP1 PUSH1 0x3 SHL SHR NOT AND OR PUSH1 0x3 DUP5 ADD SSTORE JUMPDEST PUSH1 0x80 DUP3 ADD MLOAD DUP1 MLOAD SWAP1 PUSH8 0xFFFFFFFFFFFFFFFF DUP3 GT PUSH2 0xD73 JUMPI PUSH2 0xB82 PUSH1 0x4 DUP7 ADD SLOAD PUSH2 0x1384 JUMP JUMPDEST PUSH1 0x1F DUP2 GT PUSH2 0xD2E JUMPI JUMPDEST POP PUSH1 0x20 SWAP1 PUSH1 0x1F DUP4 GT PUSH1 0x1 EQ PUSH2 0xCBA JUMPI SWAP2 DUP1 PUSH2 0x100 SWAP5 SWAP3 PUSH1 0x7 SWAP7 SWAP5 DUP12 SWAP3 PUSH2 0xCAF JUMPI JUMPDEST POP POP DUP2 PUSH1 0x1 SHL SWAP2 PUSH1 0x0 NOT SWAP1 PUSH1 0x3 SHL SHR NOT AND OR PUSH1 0x4 DUP7 ADD SSTORE JUMPDEST PUSH1 0x5 DUP6 ADD PUSH1 0xA0 DUP4 ADD MLOAD PUSH2 0xBD6 DUP2 PUSH2 0x14A4 JUMP JUMPDEST PUSH2 0xBDF DUP2 PUSH2 0x14A4 JUMP JUMPDEST DUP2 SLOAD PUSH1 0xFF PUSH2 0xFF00 PUSH1 0xC0 DUP8 ADD MLOAD PUSH2 0xBF4 DUP2 PUSH2 0x14A4 JUMP JUMPDEST PUSH2 0xBFD DUP2 PUSH2 0x14A4 JUMP JUMPDEST PUSH1 0x8 SHL AND SWAP3 AND SWAP1 PUSH2 0xFFFF NOT AND OR OR SWAP1 SSTORE DUP2 ADD MLOAD PUSH1 0x6 DUP6 ADD SSTORE ADD MLOAD SWAP2 ADD SSTORE DUP1 DUP4 MSTORE PUSH1 0x2 PUSH1 0x20 MSTORE PUSH1 0x40 DUP4 KECCAK256 PUSH1 0x1 PUSH1 0xFF NOT DUP3 SLOAD AND OR SWAP1 SSTORE PUSH1 0x3 SLOAD PUSH9 0x10000000000000000 DUP2 LT ISZERO PUSH2 0xC9B JUMPI DUP2 PUSH2 0xC59 DUP3 PUSH1 0x1 PUSH2 0xC72 SWAP5 ADD PUSH1 0x3 SSTORE PUSH2 0x1337 JUMP JUMPDEST SWAP1 SWAP2 SWAP1 DUP3 SLOAD SWAP1 PUSH1 0x3 SHL SWAP2 DUP3 SHL SWAP2 PUSH1 0x0 NOT SWAP1 SHL NOT AND OR SWAP1 SSTORE JUMP JUMPDEST CALLER SWAP1 PUSH32 0x45C6EF09865025319C9F2A574B08AE087DEFCE1C8B3640347D830C463909CE7B DUP5 DUP1 LOG4 DUP1 RETURN JUMPDEST PUSH4 0x4E487B71 PUSH1 0xE0 SHL DUP5 MSTORE PUSH1 0x41 PUSH1 0x4 MSTORE PUSH1 0x24 DUP5 REVERT JUMPDEST ADD MLOAD SWAP1 POP CODESIZE DUP1 PUSH2 0xBAC JUMP JUMPDEST SWAP1 PUSH1 0x4 DUP7 ADD DUP10 MSTORE PUSH1 0x20 DUP10 KECCAK256 SWAP2 DUP10 JUMPDEST PUSH1 0x1F NOT DUP6 AND DUP2 LT PUSH2 0xD16 JUMPI POP SWAP3 PUSH2 0x100 SWAP5 SWAP3 PUSH1 0x1 SWAP3 PUSH1 0x7 SWAP8 SWAP6 DUP4 PUSH1 0x1F NOT DUP2 AND LT PUSH2 0xCFD JUMPI JUMPDEST POP POP POP DUP2 SHL ADD PUSH1 0x4 DUP7 ADD SSTORE PUSH2 0xBC4 JUMP JUMPDEST ADD MLOAD PUSH1 0x0 NOT PUSH1 0xF8 DUP5 PUSH1 0x3 SHL AND SHR NOT AND SWAP1 SSTORE CODESIZE DUP1 DUP1 PUSH2 0xCED JUMP JUMPDEST SWAP2 SWAP3 PUSH1 0x20 PUSH1 0x1 DUP2 SWAP3 DUP7 DUP6 ADD MLOAD DUP2 SSTORE ADD SWAP5 ADD SWAP3 ADD PUSH2 0xCC8 JUMP JUMPDEST PUSH1 0x4 DUP7 ADD DUP10 MSTORE PUSH1 0x20 DUP10 KECCAK256 PUSH1 0x1F DUP5 ADD PUSH1 0x5 SHR DUP2 ADD PUSH1 0x20 DUP6 LT PUSH2 0xD6C JUMPI JUMPDEST PUSH1 0x1F DUP4 ADD PUSH1 0x5 SHR DUP3 ADD DUP2 LT PUSH2 0xD60 JUMPI POP POP PUSH2 0xB8B JUMP JUMPDEST PUSH1 0x0 DUP2 SSTORE PUSH1 0x1 ADD PUSH2 0xD4A JUMP JUMPDEST POP DUP1 PUSH2 0xD4A JUMP JUMPDEST PUSH4 0x4E487B71 PUSH1 0xE0 SHL DUP9 MSTORE PUSH1 0x41 PUSH1 0x4 MSTORE PUSH1 0x24 DUP9 REVERT JUMPDEST ADD MLOAD SWAP1 POP CODESIZE DUP1 PUSH2 0xB46 JUMP JUMPDEST SWAP3 POP PUSH1 0x3 DUP7 ADD DUP10 MSTORE PUSH1 0x20 DUP10 KECCAK256 SWAP1 DUP10 SWAP4 JUMPDEST PUSH1 0x1F NOT DUP5 AND DUP6 LT PUSH2 0xDE6 JUMPI PUSH1 0x1 SWAP5 POP DUP4 PUSH1 0x1F NOT DUP2 AND LT PUSH2 0xDCD JUMPI JUMPDEST POP POP POP DUP2 SHL ADD PUSH1 0x3 DUP5 ADD SSTORE PUSH2 0xB5E JUMP JUMPDEST ADD MLOAD PUSH1 0x0 NOT PUSH1 0xF8 DUP5 PUSH1 0x3 SHL AND SHR NOT AND SWAP1 SSTORE CODESIZE DUP1 DUP1 PUSH2 0xDBD JUMP JUMPDEST DUP2 DUP2 ADD MLOAD DUP4 SSTORE PUSH1 0x20 SWAP5 DUP6 ADD SWAP5 PUSH1 0x1 SWAP1 SWAP4 ADD SWAP3 SWAP1 SWAP2 ADD SWAP1 PUSH2 0xDA2 JUMP JUMPDEST SWAP1 SWAP2 POP PUSH1 0x3 DUP7 ADD DUP10 MSTORE PUSH1 0x20 DUP10 KECCAK256 PUSH1 0x1F DUP5 ADD PUSH1 0x5 SHR DUP2 ADD PUSH1 0x20 DUP6 LT PUSH2 0xE4B JUMPI JUMPDEST SWAP1 DUP5 SWAP4 SWAP3 SWAP2 JUMPDEST PUSH1 0x1F DUP4 ADD PUSH1 0x5 SHR DUP3 ADD DUP2 LT PUSH2 0xE3C JUMPI POP POP PUSH2 0xB30 JUMP JUMPDEST PUSH1 0x0 DUP2 SSTORE DUP6 SWAP5 POP PUSH1 0x1 ADD PUSH2 0xE26 JUMP JUMPDEST POP DUP1 PUSH2 0xE20 JUMP JUMPDEST PUSH4 0x4E487B71 PUSH1 0xE0 SHL PUSH1 0x0 MSTORE PUSH1 0x41 PUSH1 0x4 MSTORE PUSH1 0x24 PUSH1 0x0 REVERT JUMPDEST SWAP1 SWAP4 POP PUSH1 0x20 DUP2 RETURNDATASIZE PUSH1 0x20 GT PUSH2 0xE98 JUMPI JUMPDEST DUP2 PUSH2 0xE84 PUSH1 0x20 SWAP4 DUP4 PUSH2 0x129A JUMP JUMPDEST DUP2 ADD SUB SLT PUSH2 0xE94 JUMPI MLOAD SWAP3 CODESIZE PUSH2 0xA60 JUMP JUMPDEST DUP5 DUP1 REVERT JUMPDEST RETURNDATASIZE SWAP2 POP PUSH2 0xE77 JUMP JUMPDEST PUSH1 0x40 MLOAD RETURNDATASIZE DUP8 DUP3 RETURNDATACOPY RETURNDATASIZE SWAP1 REVERT JUMPDEST PUSH1 0x40 MLOAD PUSH3 0x461BCD PUSH1 0xE5 SHL DUP2 MSTORE PUSH1 0x20 PUSH1 0x4 DUP3 ADD MSTORE PUSH1 0x16 PUSH1 0x24 DUP3 ADD MSTORE PUSH22 0x4469737075746520616C726561647920657869737473 PUSH1 0x50 SHL PUSH1 0x44 DUP3 ADD MSTORE PUSH1 0x64 SWAP1 REVERT JUMPDEST PUSH1 0x40 MLOAD PUSH3 0x461BCD PUSH1 0xE5 SHL DUP2 MSTORE PUSH1 0x20 PUSH1 0x4 DUP3 ADD MSTORE PUSH1 0xE PUSH1 0x24 DUP3 ADD MSTORE PUSH14 0x2737BA103A30B9B59037BBB732B9 PUSH1 0x91 SHL PUSH1 0x44 DUP3 ADD MSTORE PUSH1 0x64 SWAP1 REVERT JUMPDEST SWAP1 POP PUSH1 0x20 DUP2 RETURNDATASIZE PUSH1 0x20 GT PUSH2 0xF5D JUMPI JUMPDEST DUP2 PUSH2 0xF3A PUSH1 0x20 SWAP4 DUP4 PUSH2 0x129A JUMP JUMPDEST DUP2 ADD SUB SLT PUSH2 0xF59 JUMPI MLOAD PUSH1 0x1 PUSH1 0x1 PUSH1 0xA0 SHL SUB DUP2 AND DUP2 SUB PUSH2 0xF59 JUMPI CODESIZE PUSH2 0xA10 JUMP JUMPDEST DUP6 DUP1 REVERT JUMPDEST RETURNDATASIZE SWAP2 POP PUSH2 0xF2D JUMP JUMPDEST PUSH1 0x40 MLOAD RETURNDATASIZE DUP9 DUP3 RETURNDATACOPY RETURNDATASIZE SWAP1 REVERT JUMPDEST DUP3 CALLVALUE PUSH2 0xE2 JUMPI PUSH1 0x40 CALLDATASIZE PUSH1 0x3 NOT ADD SLT PUSH2 0xE2 JUMPI PUSH1 0x24 PUSH1 0x4 CALLDATALOAD DUP2 CALLDATALOAD DUP1 ISZERO ISZERO DUP2 SUB PUSH2 0x11AE JUMPI PUSH2 0xF9A PUSH2 0x1551 JUMP JUMPDEST DUP2 DUP5 MSTORE PUSH1 0x1 SWAP3 DUP4 PUSH1 0x20 MSTORE PUSH1 0x40 DUP6 KECCAK256 PUSH1 0x2 PUSH1 0x20 MSTORE PUSH2 0xFBD PUSH1 0xFF PUSH1 0x40 DUP9 KECCAK256 SLOAD AND PUSH2 0x157D JUMP JUMPDEST PUSH1 0x5 DUP2 ADD SWAP3 DUP4 SLOAD SWAP1 PUSH1 0xFF DUP3 AND PUSH2 0xFD2 DUP2 PUSH2 0x14A4 JUMP JUMPDEST DUP8 DUP2 ISZERO SWAP2 DUP3 ISZERO PUSH2 0x1255 JUMPI JUMPDEST POP POP ISZERO PUSH2 0x121E JUMPI TIMESTAMP PUSH1 0x7 DUP5 ADD SSTORE PUSH1 0xFF NOT DUP3 AND PUSH1 0x2 OR DUP6 SSTORE DUP8 SWAP3 SWAP2 SWAP1 ISZERO PUSH2 0x11B2 JUMPI POP DUP4 SLOAD PUSH2 0xFF00 NOT AND PUSH2 0x100 OR DUP5 SSTORE PUSH1 0x5 SLOAD PUSH1 0x2 DUP3 ADD SLOAD SWAP2 DUP8 ADD SLOAD PUSH1 0x1 PUSH1 0x1 PUSH1 0xA0 SHL SUB SWAP2 DUP3 AND SWAP3 SWAP2 AND DUP3 EXTCODESIZE ISZERO PUSH2 0x11AE JUMPI PUSH1 0x64 DUP5 SWAP3 DUP4 PUSH1 0x40 MLOAD SWAP6 DUP7 SWAP5 DUP6 SWAP4 PUSH4 0xF0185581 PUSH1 0xE0 SHL DUP6 MSTORE PUSH1 0x4 DUP6 ADD MSTORE DUP12 DUP11 DUP6 ADD MSTORE PUSH1 0x44 DUP5 ADD MSTORE GAS CALL DUP1 ISZERO PUSH2 0x11A3 JUMPI PUSH2 0x118F JUMPI JUMPDEST POP POP JUMPDEST DUP5 DUP5 JUMPDEST PUSH2 0x10AA JUMPI JUMPDEST DUP6 DUP5 PUSH32 0x2FFCFEE146BC0D5FF304C6B65111A0D485AF9456DC64EEE7D66EBDCC90B223EA PUSH1 0x20 PUSH1 0xFF DUP8 SLOAD PUSH1 0x8 SHR AND PUSH1 0x40 MLOAD SWAP1 PUSH2 0x10A4 DUP2 PUSH2 0x14A4 JUMP JUMPDEST DUP2 MSTORE LOG2 DUP1 RETURN JUMPDEST PUSH1 0x3 DUP1 SLOAD SWAP1 DUP2 DUP4 LT ISZERO PUSH2 0x1188 JUMPI DUP6 PUSH2 0x10C1 DUP5 PUSH2 0x1337 JUMP JUMPDEST SWAP1 SLOAD SWAP1 DUP4 SHL SHR EQ PUSH2 0x10DD JUMPI POP POP PUSH2 0x10D7 SWAP1 PUSH2 0x1602 JUMP JUMPDEST DUP5 PUSH2 0x1065 JUMP JUMPDEST SWAP3 SWAP2 SWAP1 SWAP4 SWAP5 SWAP6 POP PUSH1 0x0 NOT SWAP4 DUP5 DUP2 ADD SWAP1 DUP2 GT PUSH2 0x1175 JUMPI SWAP1 PUSH2 0xC59 PUSH2 0x1102 PUSH2 0x110E SWAP4 PUSH2 0x1337 JUMP JUMPDEST SWAP1 SLOAD SWAP1 DUP7 SHL SHR SWAP2 PUSH2 0x1337 JUMP JUMPDEST DUP2 SLOAD SWAP1 DUP2 ISZERO PUSH2 0x1163 JUMPI POP SWAP3 DUP3 PUSH1 0xFF SWAP3 PUSH1 0x20 SWAP5 PUSH32 0x2FFCFEE146BC0D5FF304C6B65111A0D485AF9456DC64EEE7D66EBDCC90B223EA SWAP7 ADD SWAP2 PUSH2 0x114D DUP4 PUSH2 0x1337 JUMP JUMPDEST SWAP1 SWAP2 DUP3 SLOAD SWAP2 DUP5 SHL SHL NOT AND SWAP1 SSTORE SSTORE SWAP2 DUP5 SWAP4 POP PUSH2 0x106A JUMP JUMPDEST PUSH4 0x4E487B71 PUSH1 0xE0 SHL DUP8 MSTORE PUSH1 0x31 PUSH1 0x4 MSTORE DUP7 REVERT JUMPDEST PUSH4 0x4E487B71 PUSH1 0xE0 SHL DUP9 MSTORE PUSH1 0x11 PUSH1 0x4 MSTORE DUP3 DUP9 REVERT JUMPDEST POP POP PUSH2 0x106A JUMP JUMPDEST PUSH2 0x1198 SWAP1 PUSH2 0x1269 JUMP JUMPDEST PUSH2 0xE94 JUMPI DUP5 DUP7 PUSH2 0x105F JUMP JUMPDEST PUSH1 0x40 MLOAD RETURNDATASIZE DUP5 DUP3 RETURNDATACOPY RETURNDATASIZE SWAP1 REVERT JUMPDEST DUP4 DUP1 REVERT JUMPDEST PUSH2 0xFFFF NOT AND PUSH2 0x202 OR DUP5 SSTORE PUSH1 0x5 SLOAD PUSH1 0x2 SWAP2 SWAP1 SWAP2 ADD SLOAD SWAP1 PUSH1 0x1 PUSH1 0x1 PUSH1 0xA0 SHL SUB AND DUP1 EXTCODESIZE ISZERO PUSH2 0x177 JUMPI PUSH1 0x44 DUP4 SWAP3 PUSH1 0x40 MLOAD SWAP5 DUP6 SWAP4 DUP5 SWAP3 PUSH4 0x12FD335 PUSH1 0xE7 SHL DUP5 MSTORE DUP11 PUSH1 0x4 DUP6 ADD MSTORE DUP9 DUP5 ADD MSTORE GAS CALL DUP1 ISZERO PUSH2 0xF65 JUMPI PUSH2 0x120B JUMPI JUMPDEST POP PUSH2 0x1062 JUMP JUMPDEST PUSH2 0x1217 SWAP1 SWAP6 SWAP2 SWAP6 PUSH2 0x1269 JUMP JUMPDEST SWAP4 DUP6 PUSH2 0x1205 JUMP JUMPDEST PUSH1 0x40 MLOAD PUSH3 0x461BCD PUSH1 0xE5 SHL DUP2 MSTORE PUSH1 0x20 PUSH1 0x4 DUP3 ADD MSTORE PUSH1 0x10 DUP2 DUP7 ADD MSTORE PUSH16 0x105B1C9958591E481C995CDBDB1D9959 PUSH1 0x82 SHL PUSH1 0x44 DUP3 ADD MSTORE PUSH1 0x64 SWAP1 REVERT JUMPDEST SWAP1 SWAP2 POP PUSH2 0x1261 DUP2 PUSH2 0x14A4 JUMP JUMPDEST EQ DUP8 DUP11 PUSH2 0xFDD JUMP JUMPDEST PUSH8 0xFFFFFFFFFFFFFFFF DUP2 GT PUSH2 0xE52 JUMPI PUSH1 0x40 MSTORE JUMP JUMPDEST PUSH2 0x120 DUP2 ADD SWAP1 DUP2 LT PUSH8 0xFFFFFFFFFFFFFFFF DUP3 GT OR PUSH2 0xE52 JUMPI PUSH1 0x40 MSTORE JUMP JUMPDEST SWAP1 PUSH1 0x1F DUP1 NOT SWAP2 ADD AND DUP2 ADD SWAP1 DUP2 LT PUSH8 0xFFFFFFFFFFFFFFFF DUP3 GT OR PUSH2 0xE52 JUMPI PUSH1 0x40 MSTORE JUMP JUMPDEST SWAP1 PUSH1 0x40 PUSH1 0x3 NOT DUP4 ADD SLT PUSH2 0x1332 JUMPI PUSH1 0x4 CALLDATALOAD SWAP2 PUSH8 0xFFFFFFFFFFFFFFFF PUSH1 0x24 CALLDATALOAD DUP2 DUP2 GT PUSH2 0x1332 JUMPI DUP3 PUSH1 0x23 DUP3 ADD SLT ISZERO PUSH2 0x1332 JUMPI DUP1 PUSH1 0x4 ADD CALLDATALOAD SWAP2 DUP3 GT PUSH2 0xE52 JUMPI PUSH1 0x40 MLOAD SWAP3 PUSH2 0x130F PUSH1 0x1F DUP5 ADD PUSH1 0x1F NOT AND PUSH1 0x20 ADD DUP6 PUSH2 0x129A JUMP JUMPDEST DUP3 DUP5 MSTORE PUSH1 0x24 DUP4 DUP4 ADD ADD GT PUSH2 0x1332 JUMPI DUP2 PUSH1 0x0 SWAP3 PUSH1 0x24 PUSH1 0x20 SWAP4 ADD DUP4 DUP7 ADD CALLDATACOPY DUP4 ADD ADD MSTORE SWAP1 JUMP JUMPDEST PUSH1 0x0 DUP1 REVERT JUMPDEST PUSH1 0x3 SLOAD DUP2 LT ISZERO PUSH2 0x136E JUMPI PUSH1 0x3 PUSH1 0x0 MSTORE PUSH32 0xC2575A0E9E593C00F959F8C92F12DB2869C3395A3B0502D05E2516446F71F85B ADD SWAP1 PUSH1 0x0 SWAP1 JUMP JUMPDEST PUSH4 0x4E487B71 PUSH1 0xE0 SHL PUSH1 0x0 MSTORE PUSH1 0x32 PUSH1 0x4 MSTORE PUSH1 0x24 PUSH1 0x0 REVERT JUMPDEST SWAP1 PUSH1 0x1 DUP3 DUP2 SHR SWAP3 AND DUP1 ISZERO PUSH2 0x13B4 JUMPI JUMPDEST PUSH1 0x20 DUP4 LT EQ PUSH2 0x139E JUMPI JUMP JUMPDEST PUSH4 0x4E487B71 PUSH1 0xE0 SHL PUSH1 0x0 MSTORE PUSH1 0x22 PUSH1 0x4 MSTORE PUSH1 0x24 PUSH1 0x0 REVERT JUMPDEST SWAP2 PUSH1 0x7F AND SWAP2 PUSH2 0x1393 JUMP JUMPDEST SWAP1 PUSH1 0x40 MLOAD SWAP2 DUP3 PUSH1 0x0 DUP3 SLOAD SWAP3 PUSH2 0x13D2 DUP5 PUSH2 0x1384 JUMP JUMPDEST SWAP1 DUP2 DUP5 MSTORE PUSH1 0x1 SWAP5 DUP6 DUP2 AND SWAP1 DUP2 PUSH1 0x0 EQ PUSH2 0x1441 JUMPI POP PUSH1 0x1 EQ PUSH2 0x13FE JUMPI JUMPDEST POP POP PUSH2 0x13FC SWAP3 POP SUB DUP4 PUSH2 0x129A JUMP JUMPDEST JUMP JUMPDEST SWAP1 SWAP4 SWAP2 POP PUSH1 0x0 MSTORE PUSH1 0x20 SWAP1 DUP2 PUSH1 0x0 KECCAK256 SWAP4 PUSH1 0x0 SWAP2 JUMPDEST DUP2 DUP4 LT PUSH2 0x1429 JUMPI POP POP PUSH2 0x13FC SWAP4 POP DUP3 ADD ADD CODESIZE DUP1 PUSH2 0x13EE JUMP JUMPDEST DUP6 SLOAD DUP9 DUP5 ADD DUP6 ADD MSTORE SWAP5 DUP6 ADD SWAP5 DUP8 SWAP5 POP SWAP2 DUP4 ADD SWAP2 PUSH2 0x1411 JUMP JUMPDEST SWAP2 POP POP PUSH2 0x13FC SWAP5 POP PUSH1 0x20 SWAP3 POP PUSH1 0xFF NOT AND DUP3 DUP5 ADD MSTORE ISZERO ISZERO PUSH1 0x5 SHL DUP3 ADD ADD CODESIZE DUP1 PUSH2 0x13EE JUMP JUMPDEST SWAP2 SWAP1 DUP3 MLOAD SWAP3 DUP4 DUP3 MSTORE PUSH1 0x0 JUMPDEST DUP5 DUP2 LT PUSH2 0x1490 JUMPI POP POP DUP3 PUSH1 0x0 PUSH1 0x20 DUP1 SWAP5 SWAP6 DUP5 ADD ADD MSTORE PUSH1 0x1F DUP1 NOT SWAP2 ADD AND ADD ADD SWAP1 JUMP JUMPDEST PUSH1 0x20 DUP2 DUP4 ADD DUP2 ADD MLOAD DUP5 DUP4 ADD DUP3 ADD MSTORE ADD PUSH2 0x146F JUMP JUMPDEST PUSH1 0x3 GT ISZERO PUSH2 0x14AE JUMPI JUMP JUMPDEST PUSH4 0x4E487B71 PUSH1 0xE0 SHL PUSH1 0x0 MSTORE PUSH1 0x21 PUSH1 0x4 MSTORE PUSH1 0x24 PUSH1 0x0 REVERT JUMPDEST SWAP1 DUP2 MLOAD DUP2 MSTORE PUSH1 0x1 DUP1 PUSH1 0xA0 SHL SUB PUSH1 0x20 DUP4 ADD MLOAD AND PUSH1 0x20 DUP3 ADD MSTORE PUSH1 0x40 DUP3 ADD MLOAD PUSH1 0x40 DUP3 ADD MSTORE PUSH2 0x1513 PUSH2 0x1501 PUSH1 0x60 DUP5 ADD MLOAD PUSH2 0x120 DUP1 PUSH1 0x60 DUP7 ADD MSTORE DUP5 ADD SWAP1 PUSH2 0x1464 JUMP JUMPDEST PUSH1 0x80 DUP5 ADD MLOAD DUP4 DUP3 SUB PUSH1 0x80 DUP6 ADD MSTORE PUSH2 0x1464 JUMP JUMPDEST SWAP2 PUSH1 0xA0 DUP2 ADD MLOAD PUSH2 0x1522 DUP2 PUSH2 0x14A4 JUMP JUMPDEST PUSH1 0xA0 DUP4 ADD MSTORE PUSH1 0xC0 DUP2 ADD MLOAD PUSH2 0x1535 DUP2 PUSH2 0x14A4 JUMP JUMPDEST PUSH1 0xC0 DUP4 ADD MSTORE PUSH1 0xE0 DUP2 ADD MLOAD PUSH1 0xE0 DUP4 ADD MSTORE PUSH2 0x100 DUP1 SWAP2 ADD MLOAD SWAP2 ADD MSTORE SWAP1 JUMP JUMPDEST PUSH1 0x0 SLOAD PUSH1 0x1 PUSH1 0x1 PUSH1 0xA0 SHL SUB AND CALLER SUB PUSH2 0x1565 JUMPI JUMP JUMPDEST PUSH1 0x40 MLOAD PUSH4 0x118CDAA7 PUSH1 0xE0 SHL DUP2 MSTORE CALLER PUSH1 0x4 DUP3 ADD MSTORE PUSH1 0x24 SWAP1 REVERT JUMPDEST ISZERO PUSH2 0x1584 JUMPI JUMP JUMPDEST PUSH1 0x40 MLOAD PUSH3 0x461BCD PUSH1 0xE5 SHL DUP2 MSTORE PUSH1 0x20 PUSH1 0x4 DUP3 ADD MSTORE PUSH1 0x10 PUSH1 0x24 DUP3 ADD MSTORE PUSH16 0x139BC8191A5CDC1D5D1948199BDD5B99 PUSH1 0x82 SHL PUSH1 0x44 DUP3 ADD MSTORE PUSH1 0x64 SWAP1 REVERT JUMPDEST PUSH1 0x40 MLOAD SWAP1 PUSH2 0x15C9 DUP3 PUSH2 0x127D JUMP JUMPDEST DUP2 PUSH2 0x100 PUSH1 0x0 SWAP2 DUP3 DUP2 MSTORE DUP3 PUSH1 0x20 DUP3 ADD MSTORE DUP3 PUSH1 0x40 DUP3 ADD MSTORE PUSH1 0x60 DUP1 DUP3 ADD MSTORE PUSH1 0x60 PUSH1 0x80 DUP3 ADD MSTORE DUP3 PUSH1 0xA0 DUP3 ADD MSTORE DUP3 PUSH1 0xC0 DUP3 ADD MSTORE DUP3 PUSH1 0xE0 DUP3 ADD MSTORE ADD MSTORE JUMP JUMPDEST PUSH1 0x0 NOT DUP2 EQ PUSH2 0x1611 JUMPI PUSH1 0x1 ADD SWAP1 JUMP JUMPDEST PUSH4 0x4E487B71 PUSH1 0xE0 SHL PUSH1 0x0 MSTORE PUSH1 0x11 PUSH1 0x4 MSTORE PUSH1 0x24 PUSH1 0x0 REVERT JUMPDEST PUSH8 0xFFFFFFFFFFFFFFFF DUP2 GT PUSH2 0xE52 JUMPI PUSH1 0x5 SHL PUSH1 0x20 ADD SWAP1 JUMP JUMPDEST DUP1 MLOAD DUP3 LT ISZERO PUSH2 0x136E JUMPI PUSH1 0x20 SWAP2 PUSH1 0x5 SHL ADD ADD SWAP1 JUMP INVALID LOG2 PUSH5 0x6970667358 0x22 SLT KECCAK256 0xA9 PUSH26 0xF0825DFECED4D88850B51A3B7F8C8A6CAD550362EC5B1B678856 REVERT 0xE1 CODECOPY 0xF9 PUSH5 0x736F6C6343 STOP ADDMOD EQ STOP CALLER "},"methodIdentifiers":{"disputes(uint256)":"564a565d","getDispute(uint256)":"e3a96cbd","getOpenDisputes()":"9d28c026","hasDispute(uint256)":"7ea62c87","openDispute(uint256,string)":"36f691c4","openDisputeIds(uint256)":"5243a924","owner()":"8da5cb5b","registry()":"7b103999","renounceOwnership()":"715018a6","resolveDispute(uint256,bool)":"34b25ee2","respondToDispute(uint256,string)":"857dbac9","taskLedger()":"9c0912fe","transferOwnership(address)":"f2fde38b","vault()":"fbfa77cf"}}}}}