{"contracts/ArenaEngine.sol":{"ArenaEngine":{"abi":[{"inputs":[{"internalType":"address","name":"_hlusd","type":"address"},{"internalType":"address","name":"_registry","type":"address"},{"internalType":"address","name":"_vault","type":"address"},{"internalType":"address","name":"_taskLedger","type":"address"}],"stateMutability":"nonpayable","type":"constructor"},{"inputs":[{"internalType":"address","name":"owner","type":"address"}],"name":"OwnableInvalidOwner","type":"error"},{"inputs":[{"internalType":"address","name":"account","type":"address"}],"name":"OwnableUnauthorizedAccount","type":"error"},{"inputs":[],"name":"ReentrancyGuardReentrantCall","type":"error"},{"anonymous":false,"inputs":[{"indexed":true,"internalType":"uint256","name":"arenaId","type":"uint256"}],"name":"ArenaCancelled","type":"event"},{"anonymous":false,"inputs":[{"indexed":true,"internalType":"uint256","name":"arenaId","type":"uint256"},{"indexed":true,"internalType":"address","name":"user","type":"address"},{"indexed":false,"internalType":"string","name":"category","type":"string"},{"indexed":false,"internalType":"uint256","name":"maxBudget","type":"uint256"}],"name":"ArenaCreated","type":"event"},{"anonymous":false,"inputs":[{"indexed":true,"internalType":"uint256","name":"arenaId","type":"uint256"},{"indexed":true,"internalType":"uint256","name":"agentId","type":"uint256"},{"indexed":false,"internalType":"uint256","name":"bidAmount","type":"uint256"}],"name":"BidSubmitted","type":"event"},{"anonymous":false,"inputs":[{"indexed":true,"internalType":"address","name":"previousOwner","type":"address"},{"indexed":true,"internalType":"address","name":"newOwner","type":"address"}],"name":"OwnershipTransferred","type":"event"},{"anonymous":false,"inputs":[{"indexed":true,"internalType":"uint256","name":"arenaId","type":"uint256"},{"indexed":true,"internalType":"uint256","name":"agentId","type":"uint256"},{"indexed":false,"internalType":"uint256","name":"bidAmount","type":"uint256"}],"name":"WinnerSelected","type":"event"},{"inputs":[],"name":"ARENA_FEE_PREMIUM","outputs":[{"internalType":"uint256","name":"","type":"uint256"}],"stateMutability":"view","type":"function"},{"inputs":[{"internalType":"uint256","name":"","type":"uint256"},{"internalType":"uint256","name":"","type":"uint256"}],"name":"agentHasBid","outputs":[{"internalType":"bool","name":"","type":"bool"}],"stateMutability":"view","type":"function"},{"inputs":[{"internalType":"uint256","name":"","type":"uint256"},{"internalType":"uint256","name":"","type":"uint256"}],"name":"arenaBids","outputs":[{"internalType":"uint256","name":"agentId","type":"uint256"},{"internalType":"uint256","name":"amount","type":"uint256"},{"internalType":"uint256","name":"submittedAt","type":"uint256"},{"internalType":"bool","name":"selected","type":"bool"}],"stateMutability":"view","type":"function"},{"inputs":[],"name":"arenaCount","outputs":[{"internalType":"uint256","name":"","type":"uint256"}],"stateMutability":"view","type":"function"},{"inputs":[{"internalType":"uint256","name":"","type":"uint256"}],"name":"arenas","outputs":[{"internalType":"uint256","name":"id","type":"uint256"},{"internalType":"address","name":"user","type":"address"},{"internalType":"string","name":"taskDescription","type":"string"},{"internalType":"string","name":"category","type":"string"},{"internalType":"uint256","name":"maxBudget","type":"uint256"},{"internalType":"uint256","name":"deadline","type":"uint256"},{"internalType":"enum ArenaEngine.ArenaStatus","name":"status","type":"uint8"},{"internalType":"uint256","name":"winnerAgentId","type":"uint256"},{"internalType":"uint256","name":"winningBid","type":"uint256"},{"internalType":"uint256","name":"createdAt","type":"uint256"}],"stateMutability":"view","type":"function"},{"inputs":[{"internalType":"uint256","name":"_arenaId","type":"uint256"}],"name":"cancelArena","outputs":[],"stateMutability":"nonpayable","type":"function"},{"inputs":[{"internalType":"string","name":"_taskDescription","type":"string"},{"internalType":"string","name":"_category","type":"string"},{"internalType":"uint256","name":"_maxBudget","type":"uint256"},{"internalType":"uint256","name":"_durationSeconds","type":"uint256"}],"name":"createArena","outputs":[{"internalType":"uint256","name":"","type":"uint256"}],"stateMutability":"nonpayable","type":"function"},{"inputs":[{"internalType":"uint256","name":"_arenaId","type":"uint256"}],"name":"getArena","outputs":[{"components":[{"internalType":"uint256","name":"id","type":"uint256"},{"internalType":"address","name":"user","type":"address"},{"internalType":"string","name":"taskDescription","type":"string"},{"internalType":"string","name":"category","type":"string"},{"internalType":"uint256","name":"maxBudget","type":"uint256"},{"internalType":"uint256","name":"deadline","type":"uint256"},{"internalType":"enum ArenaEngine.ArenaStatus","name":"status","type":"uint8"},{"internalType":"uint256","name":"winnerAgentId","type":"uint256"},{"internalType":"uint256","name":"winningBid","type":"uint256"},{"internalType":"uint256","name":"createdAt","type":"uint256"}],"internalType":"struct ArenaEngine.Arena","name":"","type":"tuple"}],"stateMutability":"view","type":"function"},{"inputs":[{"internalType":"uint256","name":"_arenaId","type":"uint256"}],"name":"getArenaBidCount","outputs":[{"internalType":"uint256","name":"","type":"uint256"}],"stateMutability":"view","type":"function"},{"inputs":[{"internalType":"uint256","name":"_arenaId","type":"uint256"}],"name":"getArenaBids","outputs":[{"components":[{"internalType":"uint256","name":"agentId","type":"uint256"},{"internalType":"uint256","name":"amount","type":"uint256"},{"internalType":"uint256","name":"submittedAt","type":"uint256"},{"internalType":"bool","name":"selected","type":"bool"}],"internalType":"struct ArenaEngine.Bid[]","name":"","type":"tuple[]"}],"stateMutability":"view","type":"function"},{"inputs":[],"name":"getOpenArenas","outputs":[{"components":[{"internalType":"uint256","name":"id","type":"uint256"},{"internalType":"address","name":"user","type":"address"},{"internalType":"string","name":"taskDescription","type":"string"},{"internalType":"string","name":"category","type":"string"},{"internalType":"uint256","name":"maxBudget","type":"uint256"},{"internalType":"uint256","name":"deadline","type":"uint256"},{"internalType":"enum ArenaEngine.ArenaStatus","name":"status","type":"uint8"},{"internalType":"uint256","name":"winnerAgentId","type":"uint256"},{"internalType":"uint256","name":"winningBid","type":"uint256"},{"internalType":"uint256","name":"createdAt","type":"uint256"}],"internalType":"struct ArenaEngine.Arena[]","name":"","type":"tuple[]"}],"stateMutability":"view","type":"function"},{"inputs":[],"name":"hlusd","outputs":[{"internalType":"contract IERC20","name":"","type":"address"}],"stateMutability":"view","type":"function"},{"inputs":[],"name":"owner","outputs":[{"internalType":"address","name":"","type":"address"}],"stateMutability":"view","type":"function"},{"inputs":[],"name":"registry","outputs":[{"internalType":"contract IAgentRegistryForArena","name":"","type":"address"}],"stateMutability":"view","type":"function"},{"inputs":[],"name":"renounceOwnership","outputs":[],"stateMutability":"nonpayable","type":"function"},{"inputs":[{"internalType":"uint256","name":"_arenaId","type":"uint256"},{"internalType":"uint256","name":"_agentId","type":"uint256"}],"name":"selectWinner","outputs":[],"stateMutability":"nonpayable","type":"function"},{"inputs":[{"internalType":"uint256","name":"_arenaId","type":"uint256"},{"internalType":"uint256","name":"_agentId","type":"uint256"},{"internalType":"uint256","name":"_bidAmount","type":"uint256"}],"name":"submitBid","outputs":[],"stateMutability":"nonpayable","type":"function"},{"inputs":[],"name":"taskLedger","outputs":[{"internalType":"address","name":"","type":"address"}],"stateMutability":"view","type":"function"},{"inputs":[{"internalType":"address","name":"newOwner","type":"address"}],"name":"transferOwnership","outputs":[],"stateMutability":"nonpayable","type":"function"},{"inputs":[],"name":"vault","outputs":[{"internalType":"address","name":"","type":"address"}],"stateMutability":"view","type":"function"}],"evm":{"bytecode":{"linkReferences":{},"object":"6080346200014057601f62001d9638819003918201601f19168301916001600160401b03831184841017620001455780849260809460405283398101031262000140576200004d816200015b565b906200005c602082016200015b565b62000078606062000070604085016200015b565b93016200015b565b331562000127576000549360018060a01b03199333858716176000556040519560018060a01b03948580948193823391167f8be0079c531659141344cd1fd0a4f28419497f9722a3daafe3b4186f6b6457e0600080a360017f9b779b17422d0df92223018b32b4d1fa46e071723d6817e2486d003becc55f005516876005541617600555168560065416176006551683600754161760075516906008541617600855611c259081620001718239f35b604051631e4fbdf760e01b815260006004820152602490fd5b600080fd5b634e487b7160e01b600052604160045260246000fd5b51906001600160a01b0382168203620001405756fe6080604052600436101561001257600080fd5b60003560e01c80631a8425b414611626578063416f222a146112505780634a2327dd146111ee5780635ed38ca1146110565780636b841aa41461103a578063715018a614610fe157806374b0693814610fc35780637b10399914610f9a57806384f4319c14610eca5780638da5cb5b14610ea157806395fe2b8e14610c835780639c0912fe14610c5a578063c39e551d14610c22578063dfc23bc614610b2d578063e1f0cadb14610b04578063e6fa020914610771578063f26e2e6f146101e2578063f2fde38b14610152578063f7b7e6e0146101265763fbfa77cf146100f857600080fd5b34610121576000366003190112610121576007546040516001600160a01b039091168152602090f35b600080fd5b346101215760203660031901126101215760043560005260026020526020604060002054604051908152f35b34610121576020366003190112610121576004356001600160a01b0381811691829003610121576101816119d6565b81156101c957600054826bffffffffffffffffffffffff60a01b821617600055167f8be0079c531659141344cd1fd0a4f28419497f9722a3daafe3b4186f6b6457e0600080a3005b604051631e4fbdf760e01b815260006004820152602490fd5b346101215760803660031901126101215760043567ffffffffffffffff81116101215761021390369060040161198f565b60243567ffffffffffffffff81116101215761023390369060040161198f565b9060643561023f611a2a565b6044351561073757601e81106106ff576005546040516323b872dd60e01b8152336004820152306024820152604480359082015290602090829060649082906000906001600160a01b03165af19081156106f3576000916106b9575b501561067b576102ac600454611a0f565b9081600455420180421161066557604051926102c784611872565b8284523360208501526040840152836060840152604435608084015260a0830152600060c0830152600060e08301526000610100830152426101208301526000526001602052604060002090805182556001820160018060a01b036020830151166bffffffffffffffffffffffff60a01b825416179055604081015192835167ffffffffffffffff811161058e576103626002850154611838565b601f811161061e575b506020601f82116001146105af5781929394956000926105a4575b50508160011b916000199060031b1c19161760028401555b606082015192835167ffffffffffffffff811161058e576103c26003830154611838565b601f8111610547575b506020601f82116001146104d85781929394956000926104cd575b50508160011b916000199060031b1c19161760038201555b6080830151600482015560a083015160058201556006810160c084015160048110156104b7576020946009926101209260ff8019835416911617905560e081015160078501556101008101516008850155015191015560045490817f2cf7be0fae0ba3357f95b40f09f9711e547b43ed456ea4463c48988727d914de61048f60405193604085526040850190611730565b92604435868201528033940390a36001600080516020611bd083398151915255604051908152f35b634e487b7160e01b600052602160045260246000fd5b0151905085806103e6565b6003830160005260206000209060005b601f198416811061052f575060019394959683601f19811610610516575b505050811b0160038201556103fe565b015160001960f88460031b161c19169055858080610506565b9091602060018192858b0151815501930191016104e8565b600383016000526020600020601f830160051c810160208410610587575b601f830160051c8201811061057b5750506103cb565b60008155600101610565565b5080610565565b634e487b7160e01b600052604160045260246000fd5b015190508580610386565b6002850160005260206000209060005b601f1984168110610606575060019394959683601f198116106105ed575b505050811b01600284015561039e565b015160001960f88460031b161c191690558580806105dd565b9091602060018192858b0151815501930191016105bf565b600285016000526020600020601f830160051c81016020841061065e575b601f830160051c8201811061065257505061036b565b6000815560010161063c565b508061063c565b634e487b7160e01b600052601160045260246000fd5b60405162461bcd60e51b8152602060048201526016602482015275109d5919d95d081d1c985b9cd9995c8819985a5b195960521b6044820152606490fd5b90506020813d6020116106eb575b816106d4602093836118ab565b81010312610121576106e590611a02565b8461029b565b3d91506106c7565b6040513d6000823e3d90fd5b60405162461bcd60e51b815260206004820152601060248201526f4d696e206475726174696f6e2033307360801b6044820152606490fd5b60405162461bcd60e51b81526020600482015260126024820152710427564676574206d757374206265203e20360741b6044820152606490fd5b346101215761077f366117f0565b610787611a2a565b81600052600191602083815260406000206107a481541515611a5a565b80850180546001600160a01b03919082163303610acb57600683019260ff84541660048110156104b757888115918215610ac1575b505015610a85578560005260028552604060002093600089600096816000905b610a23575b505050156109eb57805460ff1916600217905560078101879055600881018490556004015483810381811161066557859285809303610943575b505060055460075460405163a9059cbb60e01b81529085166001600160a01b031660048201526024810192909252909283911681600081604481015b03925af19081156106f35760009161090e575b50156108c957907fbc60b4ddaf6218ef27c409e11db4650da92d0e629854fdce8e5604c9611ad00091604051908152a3600080516020611bd083398151915255005b60405162461bcd60e51b815260048101839052601860248201527f5472616e7366657220746f207661756c74206661696c656400000000000000006044820152606490fd5b90508281813d831161093c575b61092581836118ab565b810103126101215761093690611a02565b86610887565b503d61091b565b600554905460405163a9059cbb60e01b81529086166001600160a01b031660048201526024810192909252909392915083908316816000816044810103925af19182156106f357849184916000946109aa575b506109a361087494611b1a565b9289610838565b935091905082813d83116109e4575b6109c381836118ab565b81010312610121578284916109a36109dd61087495611a02565b9450610996565b503d6109b9565b60405162461bcd60e51b815260048101879052601060248201526f1059d95b9d081a185cc81b9bc8189a5960821b6044820152606490fd5b8154811015610a80578b610a378284611806565b505414610a4d57610a4790611a0f565b826107f9565b91939750610a7392506003610a628383611806565b5001805460ff191685179055611806565b5001549388898b806107fe565b6107fe565b60405162461bcd60e51b81526004810186905260146024820152734172656e61206e6f742073656c65637461626c6560601b6044820152606490fd5b149050888a6107d9565b60405162461bcd60e51b81526004810185905260116024820152702737ba1030b932b7309031b932b0ba37b960791b6044820152606490fd5b34610121576000366003190112610121576005546040516001600160a01b039091168152602090f35b3461012157602080600319360112610121576004356000526002908181526040600020918254610b5c81611ba3565b91610b6a60405193846118ab565b81835260009485528385208484019591865b848410610bde57604080518881528751818a018190528a928201908a60005b828110610ba85784840385f35b85518051855280830151858401526040808201519086015260609081015115159085015294810194608090930192600101610b9b565b600487600192604051610bf08161188f565b86548152848701548382015285870154604082015260ff60038801541615156060820152815201930193019291610b7c565b3461012157610c30366117f0565b906000526003602052604060002090600052602052602060ff604060002054166040519015158152f35b34610121576000366003190112610121576008546040516001600160a01b039091168152602090f35b346101215760003660031901126101215760006001600454905b81811115610e5a5750610caf82611ba3565b91610cbd60405193846118ab565b808352610ccc601f1991611ba3565b0160005b818110610e43575050600060015b82811115610d45576040805160208082528651818301819052600093600582901b8401810192808a01929185015b828710610d195785850386f35b909192938280610d35600193603f198a82030186528851611762565b9601920196019592919092610d0c565b8060005260206001815260ff6006908082604060002001541660048110156104b75715610d7e575b505050610d7990611a0f565b610cde565b916009849592610e02610e3a95610d79976000526001855260406000209260405195610da987611872565b8454875260018501546001600160a01b031690870152610dcb600285016118cd565b6040870152610ddc600385016118cd565b606087015260048401546080870152600584015460a08701528301541660c08501611a1e565b600781015460e084015260088101546101008401520154610120820152610e298288611bbb565b52610e348187611bbb565b50611a0f565b91908580610d6d565b602090610e4e611b56565b82828701015201610cd0565b80600052600160205260ff6006604060002001541660048110156104b75715610e8c575b610e8790611a0f565b610c9d565b91610e99610e8791611a0f565b929050610e7e565b34610121576000366003190112610121576000546040516001600160a01b039091168152602090f35b346101215760203660031901126101215760043560005260016020526040600020805460018060a01b0360018301541691610f07600282016118cd565b610f13600383016118cd565b91600481015492610f85600583015460ff60068501541690610f70600786015494610f6260096008890154980154986040519c8d9c8d5260208d015260408c61014091829101528c0190611730565b908a820360608c0152611730565b96608089015260a088015260c0870190611755565b60e08501526101008401526101208301520390f35b34610121576000366003190112610121576006546040516001600160a01b039091168152602090f35b34610121576000366003190112610121576020600454604051908152f35b3461012157600036600319011261012157610ffa6119d6565b600080546001600160a01b0319811682556001600160a01b03167f8be0079c531659141344cd1fd0a4f28419497f9722a3daafe3b4186f6b6457e08280a3005b3461012157600036600319011261012157602060405160028152f35b34610121576020806003193601126101215760043590611074611a2a565b816000526001815260406000209061108e82541515611a5a565b60018201546001600160a01b0390811633811480156111e1575b156111ab576006840193845460ff81169360048510156104b75761111e9660036004936110d6899815611a98565b60ff1916179055600554919092015460405163a9059cbb60e01b81526001600160a01b0390941660048501526024840152919485929190911690829060009082906044820190565b03925af19081156106f357600091611174575b8361113b83611b1a565b7f2e7be128b3e773183aa564d86ef3cbd2d6e9d7b3c667c98b0c35eef01164f963600080a26001600080516020611bd083398151915255005b905081813d83116111a4575b61118a81836118ab565b810103126101215761119e61113b91611a02565b83611131565b503d611180565b60405162461bcd60e51b815260048101849052600e60248201526d139bdd08185d5d1a1bdc9a5e995960921b6044820152606490fd5b50600584015442116110a8565b34610121576111fc366117f0565b906000526002602052604060002080548210156101215760809161121f91611806565b5080549060018101549060ff6003600283015492015416916040519384526020840152604083015215156060820152f35b3461012157606036600319011261012157600435602490813590604480358260005260209160018352604060002061128a81541515611a5a565b60ff6006820154166004811015611611576112a59015611a98565b600581015442116115d65760040154821161159f578360005260038352604060002085600052835260ff6040600020541661156957600654604051630a270ad960e31b8152600481018790526001600160a01b039160009082908a90829086165afa9182156106f35760009160009361148d575b5050156114585715611423575082600052600382526040600020846000528252604060002060ff199060018282541617905583600052600283526040600020906040516113658161188f565b868152848101848152604082019142835260608101946000865280546801000000000000000081101561140e576113a191600182018155611806565b9a909a6113fa57509860ff926003927f3e763751ca037819353b0f03196c95df3625fecade7eecac7a2af7c8fb7615f1999a9b5183555160018301555160028201550192511515918354169116179055604051908152a3005b634e487b7160e01b60005260006004526000fd5b8b634e487b7160e01b60005260416004526000fd5b826f4167656e74206e6f742061637469766560801b6064926010896040519462461bcd60e51b86526004860152840152820152fd5b60405162461bcd60e51b815260048101859052600f818901526e1059d95b9d081b9bdd08199bdd5b99608a1b81840152606490fd5b915091503d806000833e6114a181836118ab565b8101906101e08183031261012157805191868201519367ffffffffffffffff9485811161012157826114d4918501611ad5565b50604083015185811161012157826114ed918501611ad5565b5060608301518581116101215782611506918501611ad5565b5060a083015190811603610121576115216101208301611a02565b9361152f6101408401611a02565b506101808301518181116101215782611549918501611ad5565b506101a0830151908111610121576115619201611ad5565b508880611319565b82701059d95b9d08185b1c9958591e48189a59607a1b6064926011896040519462461bcd60e51b86526004860152840152820152fd5b8271109a5908195e18d959591cc8189d5919d95d60721b6064926012896040519462461bcd60e51b86526004860152840152820152fd5b60405162461bcd60e51b81526004810185905260158189015274105c995b9848191958591b1a5b99481c185cdcd959605a1b81840152606490fd5b87634e487b7160e01b60005260216004526000fd5b346101215760208060031936011261012157600435611643611b56565b50806000526001825261165c6040600020541515611a5a565b6000526001815260406000209060096040519261167884611872565b8054845260018101546001600160a01b03168385015261169a600282016118cd565b60408501526116ab600382016118cd565b606085015260048101546080850152600581015460a08501526116d860ff60068301541660c08601611a1e565b600781015460e085015260088101546101008501520154610120830152611709604051928284938452830190611762565b0390f35b60005b8381106117205750506000910152565b8181015183820152602001611710565b906020916117498151809281855285808601910161170d565b601f01601f1916010190565b9060048210156104b75752565b908151815260018060a01b0360208301511660208201526117a76117956040840151610140806040860152840190611730565b60608401518382036060850152611730565b916080810151608083015260a081015160a08301526117ce60c082015160c0840190611755565b60e081015160e083015261010080820151908301526101208091015191015290565b6040906003190112610121576004359060243590565b80548210156118225760005260206000209060021b0190600090565b634e487b7160e01b600052603260045260246000fd5b90600182811c92168015611868575b602083101461185257565b634e487b7160e01b600052602260045260246000fd5b91607f1691611847565b610140810190811067ffffffffffffffff82111761058e57604052565b6080810190811067ffffffffffffffff82111761058e57604052565b90601f8019910116810190811067ffffffffffffffff82111761058e57604052565b90604051918260008254926118e184611838565b908184526001948581169081600014611950575060011461190d575b505061190b925003836118ab565b565b9093915060005260209081600020936000915b81831061193857505061190b935082010138806118fd565b85548884018501529485019487945091830191611920565b91505061190b94506020925060ff191682840152151560051b82010138806118fd565b67ffffffffffffffff811161058e57601f01601f191660200190565b81601f82011215610121578035906119a682611973565b926119b460405194856118ab565b8284526020838301011161012157816000926020809301838601378301015290565b6000546001600160a01b031633036119ea57565b60405163118cdaa760e01b8152336004820152602490fd5b5190811515820361012157565b60001981146106655760010190565b60048210156104b75752565b600080516020611bd08339815191526002815414611a485760029055565b604051633ee5aeb560e01b8152600490fd5b15611a6157565b60405162461bcd60e51b815260206004820152600f60248201526e105c995b98481b9bdd08199bdd5b99608a1b6044820152606490fd5b15611a9f57565b60405162461bcd60e51b815260206004820152600e60248201526d20b932b730903737ba1037b832b760911b6044820152606490fd5b81601f82011215610121578051611aeb81611973565b92611af960405194856118ab565b8184526020828401011161012157611b17916020808501910161170d565b90565b15611b2157565b60405162461bcd60e51b815260206004820152600d60248201526c1499599d5b990819985a5b1959609a1b6044820152606490fd5b60405190611b6382611872565b81610120600091828152826020820152606060408201526060808201528260808201528260a08201528260c08201528260e0820152826101008201520152565b67ffffffffffffffff811161058e5760051b60200190565b80518210156118225760209160051b01019056fe9b779b17422d0df92223018b32b4d1fa46e071723d6817e2486d003becc55f00a26469706673582212207338c5e0455e97aefd42ba3c4911b45a79dc7eb0cc06c55cbafe1daab2b0eb0564736f6c63430008140033","opcodes":"PUSH1 0x80 CALLVALUE PUSH3 0x140 JUMPI PUSH1 0x1F PUSH3 0x1D96 CODESIZE DUP2 SWAP1 SUB SWAP2 DUP3 ADD PUSH1 0x1F NOT AND DUP4 ADD SWAP2 PUSH1 0x1 PUSH1 0x1 PUSH1 0x40 SHL SUB DUP4 GT DUP5 DUP5 LT OR PUSH3 0x145 JUMPI DUP1 DUP5 SWAP3 PUSH1 0x80 SWAP5 PUSH1 0x40 MSTORE DUP4 CODECOPY DUP2 ADD SUB SLT PUSH3 0x140 JUMPI PUSH3 0x4D DUP2 PUSH3 0x15B JUMP JUMPDEST SWAP1 PUSH3 0x5C PUSH1 0x20 DUP3 ADD PUSH3 0x15B JUMP JUMPDEST PUSH3 0x78 PUSH1 0x60 PUSH3 0x70 PUSH1 0x40 DUP6 ADD PUSH3 0x15B JUMP JUMPDEST SWAP4 ADD PUSH3 0x15B JUMP JUMPDEST CALLER ISZERO PUSH3 0x127 JUMPI PUSH1 0x0 SLOAD SWAP4 PUSH1 0x1 DUP1 PUSH1 0xA0 SHL SUB NOT SWAP4 CALLER DUP6 DUP8 AND OR PUSH1 0x0 SSTORE PUSH1 0x40 MLOAD SWAP6 PUSH1 0x1 DUP1 PUSH1 0xA0 SHL SUB SWAP5 DUP6 DUP1 SWAP5 DUP2 SWAP4 DUP3 CALLER SWAP2 AND PUSH32 0x8BE0079C531659141344CD1FD0A4F28419497F9722A3DAAFE3B4186F6B6457E0 PUSH1 0x0 DUP1 LOG3 PUSH1 0x1 PUSH32 0x9B779B17422D0DF92223018B32B4D1FA46E071723D6817E2486D003BECC55F00 SSTORE AND DUP8 PUSH1 0x5 SLOAD AND OR PUSH1 0x5 SSTORE AND DUP6 PUSH1 0x6 SLOAD AND OR PUSH1 0x6 SSTORE AND DUP4 PUSH1 0x7 SLOAD AND OR PUSH1 0x7 SSTORE AND SWAP1 PUSH1 0x8 SLOAD AND OR PUSH1 0x8 SSTORE PUSH2 0x1C25 SWAP1 DUP2 PUSH3 0x171 DUP3 CODECOPY RETURN JUMPDEST PUSH1 0x40 MLOAD PUSH4 0x1E4FBDF7 PUSH1 0xE0 SHL DUP2 MSTORE PUSH1 0x0 PUSH1 0x4 DUP3 ADD MSTORE PUSH1 0x24 SWAP1 REVERT JUMPDEST PUSH1 0x0 DUP1 REVERT JUMPDEST PUSH4 0x4E487B71 PUSH1 0xE0 SHL PUSH1 0x0 MSTORE PUSH1 0x41 PUSH1 0x4 MSTORE PUSH1 0x24 PUSH1 0x0 REVERT JUMPDEST MLOAD SWAP1 PUSH1 0x1 PUSH1 0x1 PUSH1 0xA0 SHL SUB DUP3 AND DUP3 SUB PUSH3 0x140 JUMPI JUMP INVALID PUSH1 0x80 PUSH1 0x40 MSTORE PUSH1 0x4 CALLDATASIZE LT ISZERO PUSH2 0x12 JUMPI PUSH1 0x0 DUP1 REVERT JUMPDEST PUSH1 0x0 CALLDATALOAD PUSH1 0xE0 SHR DUP1 PUSH4 0x1A8425B4 EQ PUSH2 0x1626 JUMPI DUP1 PUSH4 0x416F222A EQ PUSH2 0x1250 JUMPI DUP1 PUSH4 0x4A2327DD EQ PUSH2 0x11EE JUMPI DUP1 PUSH4 0x5ED38CA1 EQ PUSH2 0x1056 JUMPI DUP1 PUSH4 0x6B841AA4 EQ PUSH2 0x103A JUMPI DUP1 PUSH4 0x715018A6 EQ PUSH2 0xFE1 JUMPI DUP1 PUSH4 0x74B06938 EQ PUSH2 0xFC3 JUMPI DUP1 PUSH4 0x7B103999 EQ PUSH2 0xF9A JUMPI DUP1 PUSH4 0x84F4319C EQ PUSH2 0xECA JUMPI DUP1 PUSH4 0x8DA5CB5B EQ PUSH2 0xEA1 JUMPI DUP1 PUSH4 0x95FE2B8E EQ PUSH2 0xC83 JUMPI DUP1 PUSH4 0x9C0912FE EQ PUSH2 0xC5A JUMPI DUP1 PUSH4 0xC39E551D EQ PUSH2 0xC22 JUMPI DUP1 PUSH4 0xDFC23BC6 EQ PUSH2 0xB2D JUMPI DUP1 PUSH4 0xE1F0CADB EQ PUSH2 0xB04 JUMPI DUP1 PUSH4 0xE6FA0209 EQ PUSH2 0x771 JUMPI DUP1 PUSH4 0xF26E2E6F EQ PUSH2 0x1E2 JUMPI DUP1 PUSH4 0xF2FDE38B EQ PUSH2 0x152 JUMPI DUP1 PUSH4 0xF7B7E6E0 EQ PUSH2 0x126 JUMPI PUSH4 0xFBFA77CF EQ PUSH2 0xF8 JUMPI PUSH1 0x0 DUP1 REVERT JUMPDEST CALLVALUE PUSH2 0x121 JUMPI PUSH1 0x0 CALLDATASIZE PUSH1 0x3 NOT ADD SLT PUSH2 0x121 JUMPI PUSH1 0x7 SLOAD PUSH1 0x40 MLOAD PUSH1 0x1 PUSH1 0x1 PUSH1 0xA0 SHL SUB SWAP1 SWAP2 AND DUP2 MSTORE PUSH1 0x20 SWAP1 RETURN JUMPDEST PUSH1 0x0 DUP1 REVERT JUMPDEST CALLVALUE PUSH2 0x121 JUMPI PUSH1 0x20 CALLDATASIZE PUSH1 0x3 NOT ADD SLT PUSH2 0x121 JUMPI PUSH1 0x4 CALLDATALOAD PUSH1 0x0 MSTORE PUSH1 0x2 PUSH1 0x20 MSTORE PUSH1 0x20 PUSH1 0x40 PUSH1 0x0 KECCAK256 SLOAD PUSH1 0x40 MLOAD SWAP1 DUP2 MSTORE RETURN JUMPDEST CALLVALUE PUSH2 0x121 JUMPI PUSH1 0x20 CALLDATASIZE PUSH1 0x3 NOT ADD SLT PUSH2 0x121 JUMPI PUSH1 0x4 CALLDATALOAD PUSH1 0x1 PUSH1 0x1 PUSH1 0xA0 SHL SUB DUP2 DUP2 AND SWAP2 DUP3 SWAP1 SUB PUSH2 0x121 JUMPI PUSH2 0x181 PUSH2 0x19D6 JUMP JUMPDEST DUP2 ISZERO PUSH2 0x1C9 JUMPI PUSH1 0x0 SLOAD DUP3 PUSH12 0xFFFFFFFFFFFFFFFFFFFFFFFF PUSH1 0xA0 SHL DUP3 AND OR PUSH1 0x0 SSTORE AND PUSH32 0x8BE0079C531659141344CD1FD0A4F28419497F9722A3DAAFE3B4186F6B6457E0 PUSH1 0x0 DUP1 LOG3 STOP JUMPDEST PUSH1 0x40 MLOAD PUSH4 0x1E4FBDF7 PUSH1 0xE0 SHL DUP2 MSTORE PUSH1 0x0 PUSH1 0x4 DUP3 ADD MSTORE PUSH1 0x24 SWAP1 REVERT JUMPDEST CALLVALUE PUSH2 0x121 JUMPI PUSH1 0x80 CALLDATASIZE PUSH1 0x3 NOT ADD SLT PUSH2 0x121 JUMPI PUSH1 0x4 CALLDATALOAD PUSH8 0xFFFFFFFFFFFFFFFF DUP2 GT PUSH2 0x121 JUMPI PUSH2 0x213 SWAP1 CALLDATASIZE SWAP1 PUSH1 0x4 ADD PUSH2 0x198F JUMP JUMPDEST PUSH1 0x24 CALLDATALOAD PUSH8 0xFFFFFFFFFFFFFFFF DUP2 GT PUSH2 0x121 JUMPI PUSH2 0x233 SWAP1 CALLDATASIZE SWAP1 PUSH1 0x4 ADD PUSH2 0x198F JUMP JUMPDEST SWAP1 PUSH1 0x64 CALLDATALOAD PUSH2 0x23F PUSH2 0x1A2A JUMP JUMPDEST PUSH1 0x44 CALLDATALOAD ISZERO PUSH2 0x737 JUMPI PUSH1 0x1E DUP2 LT PUSH2 0x6FF JUMPI PUSH1 0x5 SLOAD PUSH1 0x40 MLOAD PUSH4 0x23B872DD PUSH1 0xE0 SHL DUP2 MSTORE CALLER PUSH1 0x4 DUP3 ADD MSTORE ADDRESS PUSH1 0x24 DUP3 ADD MSTORE PUSH1 0x44 DUP1 CALLDATALOAD SWAP1 DUP3 ADD MSTORE SWAP1 PUSH1 0x20 SWAP1 DUP3 SWAP1 PUSH1 0x64 SWAP1 DUP3 SWAP1 PUSH1 0x0 SWAP1 PUSH1 0x1 PUSH1 0x1 PUSH1 0xA0 SHL SUB AND GAS CALL SWAP1 DUP2 ISZERO PUSH2 0x6F3 JUMPI PUSH1 0x0 SWAP2 PUSH2 0x6B9 JUMPI JUMPDEST POP ISZERO PUSH2 0x67B JUMPI PUSH2 0x2AC PUSH1 0x4 SLOAD PUSH2 0x1A0F JUMP JUMPDEST SWAP1 DUP2 PUSH1 0x4 SSTORE TIMESTAMP ADD DUP1 TIMESTAMP GT PUSH2 0x665 JUMPI PUSH1 0x40 MLOAD SWAP3 PUSH2 0x2C7 DUP5 PUSH2 0x1872 JUMP JUMPDEST DUP3 DUP5 MSTORE CALLER PUSH1 0x20 DUP6 ADD MSTORE PUSH1 0x40 DUP5 ADD MSTORE DUP4 PUSH1 0x60 DUP5 ADD MSTORE PUSH1 0x44 CALLDATALOAD PUSH1 0x80 DUP5 ADD MSTORE PUSH1 0xA0 DUP4 ADD MSTORE PUSH1 0x0 PUSH1 0xC0 DUP4 ADD MSTORE PUSH1 0x0 PUSH1 0xE0 DUP4 ADD MSTORE PUSH1 0x0 PUSH2 0x100 DUP4 ADD MSTORE TIMESTAMP PUSH2 0x120 DUP4 ADD MSTORE PUSH1 0x0 MSTORE PUSH1 0x1 PUSH1 0x20 MSTORE PUSH1 0x40 PUSH1 0x0 KECCAK256 SWAP1 DUP1 MLOAD DUP3 SSTORE PUSH1 0x1 DUP3 ADD PUSH1 0x1 DUP1 PUSH1 0xA0 SHL SUB PUSH1 0x20 DUP4 ADD MLOAD AND PUSH12 0xFFFFFFFFFFFFFFFFFFFFFFFF PUSH1 0xA0 SHL DUP3 SLOAD AND OR SWAP1 SSTORE PUSH1 0x40 DUP2 ADD MLOAD SWAP3 DUP4 MLOAD PUSH8 0xFFFFFFFFFFFFFFFF DUP2 GT PUSH2 0x58E JUMPI PUSH2 0x362 PUSH1 0x2 DUP6 ADD SLOAD PUSH2 0x1838 JUMP JUMPDEST PUSH1 0x1F DUP2 GT PUSH2 0x61E JUMPI JUMPDEST POP PUSH1 0x20 PUSH1 0x1F DUP3 GT PUSH1 0x1 EQ PUSH2 0x5AF JUMPI DUP2 SWAP3 SWAP4 SWAP5 SWAP6 PUSH1 0x0 SWAP3 PUSH2 0x5A4 JUMPI JUMPDEST POP POP DUP2 PUSH1 0x1 SHL SWAP2 PUSH1 0x0 NOT SWAP1 PUSH1 0x3 SHL SHR NOT AND OR PUSH1 0x2 DUP5 ADD SSTORE JUMPDEST PUSH1 0x60 DUP3 ADD MLOAD SWAP3 DUP4 MLOAD PUSH8 0xFFFFFFFFFFFFFFFF DUP2 GT PUSH2 0x58E JUMPI PUSH2 0x3C2 PUSH1 0x3 DUP4 ADD SLOAD PUSH2 0x1838 JUMP JUMPDEST PUSH1 0x1F DUP2 GT PUSH2 0x547 JUMPI JUMPDEST POP PUSH1 0x20 PUSH1 0x1F DUP3 GT PUSH1 0x1 EQ PUSH2 0x4D8 JUMPI DUP2 SWAP3 SWAP4 SWAP5 SWAP6 PUSH1 0x0 SWAP3 PUSH2 0x4CD JUMPI JUMPDEST POP POP DUP2 PUSH1 0x1 SHL SWAP2 PUSH1 0x0 NOT SWAP1 PUSH1 0x3 SHL SHR NOT AND OR PUSH1 0x3 DUP3 ADD SSTORE JUMPDEST PUSH1 0x80 DUP4 ADD MLOAD PUSH1 0x4 DUP3 ADD SSTORE PUSH1 0xA0 DUP4 ADD MLOAD PUSH1 0x5 DUP3 ADD SSTORE PUSH1 0x6 DUP2 ADD PUSH1 0xC0 DUP5 ADD MLOAD PUSH1 0x4 DUP2 LT ISZERO PUSH2 0x4B7 JUMPI PUSH1 0x20 SWAP5 PUSH1 0x9 SWAP3 PUSH2 0x120 SWAP3 PUSH1 0xFF DUP1 NOT DUP4 SLOAD AND SWAP2 AND OR SWAP1 SSTORE PUSH1 0xE0 DUP2 ADD MLOAD PUSH1 0x7 DUP6 ADD SSTORE PUSH2 0x100 DUP2 ADD MLOAD PUSH1 0x8 DUP6 ADD SSTORE ADD MLOAD SWAP2 ADD SSTORE PUSH1 0x4 SLOAD SWAP1 DUP2 PUSH32 0x2CF7BE0FAE0BA3357F95B40F09F9711E547B43ED456EA4463C48988727D914DE PUSH2 0x48F PUSH1 0x40 MLOAD SWAP4 PUSH1 0x40 DUP6 MSTORE PUSH1 0x40 DUP6 ADD SWAP1 PUSH2 0x1730 JUMP JUMPDEST SWAP3 PUSH1 0x44 CALLDATALOAD DUP7 DUP3 ADD MSTORE DUP1 CALLER SWAP5 SUB SWAP1 LOG3 PUSH1 0x1 PUSH1 0x0 DUP1 MLOAD PUSH1 0x20 PUSH2 0x1BD0 DUP4 CODECOPY DUP2 MLOAD SWAP2 MSTORE SSTORE PUSH1 0x40 MLOAD SWAP1 DUP2 MSTORE RETURN JUMPDEST PUSH4 0x4E487B71 PUSH1 0xE0 SHL PUSH1 0x0 MSTORE PUSH1 0x21 PUSH1 0x4 MSTORE PUSH1 0x24 PUSH1 0x0 REVERT JUMPDEST ADD MLOAD SWAP1 POP DUP6 DUP1 PUSH2 0x3E6 JUMP JUMPDEST PUSH1 0x3 DUP4 ADD PUSH1 0x0 MSTORE PUSH1 0x20 PUSH1 0x0 KECCAK256 SWAP1 PUSH1 0x0 JUMPDEST PUSH1 0x1F NOT DUP5 AND DUP2 LT PUSH2 0x52F JUMPI POP PUSH1 0x1 SWAP4 SWAP5 SWAP6 SWAP7 DUP4 PUSH1 0x1F NOT DUP2 AND LT PUSH2 0x516 JUMPI JUMPDEST POP POP POP DUP2 SHL ADD PUSH1 0x3 DUP3 ADD SSTORE PUSH2 0x3FE JUMP JUMPDEST ADD MLOAD PUSH1 0x0 NOT PUSH1 0xF8 DUP5 PUSH1 0x3 SHL AND SHR NOT AND SWAP1 SSTORE DUP6 DUP1 DUP1 PUSH2 0x506 JUMP JUMPDEST SWAP1 SWAP2 PUSH1 0x20 PUSH1 0x1 DUP2 SWAP3 DUP6 DUP12 ADD MLOAD DUP2 SSTORE ADD SWAP4 ADD SWAP2 ADD PUSH2 0x4E8 JUMP JUMPDEST PUSH1 0x3 DUP4 ADD PUSH1 0x0 MSTORE PUSH1 0x20 PUSH1 0x0 KECCAK256 PUSH1 0x1F DUP4 ADD PUSH1 0x5 SHR DUP2 ADD PUSH1 0x20 DUP5 LT PUSH2 0x587 JUMPI JUMPDEST PUSH1 0x1F DUP4 ADD PUSH1 0x5 SHR DUP3 ADD DUP2 LT PUSH2 0x57B JUMPI POP POP PUSH2 0x3CB JUMP JUMPDEST PUSH1 0x0 DUP2 SSTORE PUSH1 0x1 ADD PUSH2 0x565 JUMP JUMPDEST POP DUP1 PUSH2 0x565 JUMP JUMPDEST PUSH4 0x4E487B71 PUSH1 0xE0 SHL PUSH1 0x0 MSTORE PUSH1 0x41 PUSH1 0x4 MSTORE PUSH1 0x24 PUSH1 0x0 REVERT JUMPDEST ADD MLOAD SWAP1 POP DUP6 DUP1 PUSH2 0x386 JUMP JUMPDEST PUSH1 0x2 DUP6 ADD PUSH1 0x0 MSTORE PUSH1 0x20 PUSH1 0x0 KECCAK256 SWAP1 PUSH1 0x0 JUMPDEST PUSH1 0x1F NOT DUP5 AND DUP2 LT PUSH2 0x606 JUMPI POP PUSH1 0x1 SWAP4 SWAP5 SWAP6 SWAP7 DUP4 PUSH1 0x1F NOT DUP2 AND LT PUSH2 0x5ED JUMPI JUMPDEST POP POP POP DUP2 SHL ADD PUSH1 0x2 DUP5 ADD SSTORE PUSH2 0x39E JUMP JUMPDEST ADD MLOAD PUSH1 0x0 NOT PUSH1 0xF8 DUP5 PUSH1 0x3 SHL AND SHR NOT AND SWAP1 SSTORE DUP6 DUP1 DUP1 PUSH2 0x5DD JUMP JUMPDEST SWAP1 SWAP2 PUSH1 0x20 PUSH1 0x1 DUP2 SWAP3 DUP6 DUP12 ADD MLOAD DUP2 SSTORE ADD SWAP4 ADD SWAP2 ADD PUSH2 0x5BF JUMP JUMPDEST PUSH1 0x2 DUP6 ADD PUSH1 0x0 MSTORE PUSH1 0x20 PUSH1 0x0 KECCAK256 PUSH1 0x1F DUP4 ADD PUSH1 0x5 SHR DUP2 ADD PUSH1 0x20 DUP5 LT PUSH2 0x65E JUMPI JUMPDEST PUSH1 0x1F DUP4 ADD PUSH1 0x5 SHR DUP3 ADD DUP2 LT PUSH2 0x652 JUMPI POP POP PUSH2 0x36B JUMP JUMPDEST PUSH1 0x0 DUP2 SSTORE PUSH1 0x1 ADD PUSH2 0x63C JUMP JUMPDEST POP DUP1 PUSH2 0x63C JUMP JUMPDEST PUSH4 0x4E487B71 PUSH1 0xE0 SHL PUSH1 0x0 MSTORE PUSH1 0x11 PUSH1 0x4 MSTORE PUSH1 0x24 PUSH1 0x0 REVERT JUMPDEST PUSH1 0x40 MLOAD PUSH3 0x461BCD PUSH1 0xE5 SHL DUP2 MSTORE PUSH1 0x20 PUSH1 0x4 DUP3 ADD MSTORE PUSH1 0x16 PUSH1 0x24 DUP3 ADD MSTORE PUSH22 0x109D5919D95D081D1C985B9CD9995C8819985A5B1959 PUSH1 0x52 SHL PUSH1 0x44 DUP3 ADD MSTORE PUSH1 0x64 SWAP1 REVERT JUMPDEST SWAP1 POP PUSH1 0x20 DUP2 RETURNDATASIZE PUSH1 0x20 GT PUSH2 0x6EB JUMPI JUMPDEST DUP2 PUSH2 0x6D4 PUSH1 0x20 SWAP4 DUP4 PUSH2 0x18AB JUMP JUMPDEST DUP2 ADD SUB SLT PUSH2 0x121 JUMPI PUSH2 0x6E5 SWAP1 PUSH2 0x1A02 JUMP JUMPDEST DUP5 PUSH2 0x29B JUMP JUMPDEST RETURNDATASIZE SWAP2 POP PUSH2 0x6C7 JUMP JUMPDEST PUSH1 0x40 MLOAD RETURNDATASIZE PUSH1 0x0 DUP3 RETURNDATACOPY RETURNDATASIZE SWAP1 REVERT JUMPDEST PUSH1 0x40 MLOAD PUSH3 0x461BCD PUSH1 0xE5 SHL DUP2 MSTORE PUSH1 0x20 PUSH1 0x4 DUP3 ADD MSTORE PUSH1 0x10 PUSH1 0x24 DUP3 ADD MSTORE PUSH16 0x4D696E206475726174696F6E20333073 PUSH1 0x80 SHL PUSH1 0x44 DUP3 ADD MSTORE PUSH1 0x64 SWAP1 REVERT JUMPDEST PUSH1 0x40 MLOAD PUSH3 0x461BCD PUSH1 0xE5 SHL DUP2 MSTORE PUSH1 0x20 PUSH1 0x4 DUP3 ADD MSTORE PUSH1 0x12 PUSH1 0x24 DUP3 ADD MSTORE PUSH18 0x427564676574206D757374206265203E203 PUSH1 0x74 SHL PUSH1 0x44 DUP3 ADD MSTORE PUSH1 0x64 SWAP1 REVERT JUMPDEST CALLVALUE PUSH2 0x121 JUMPI PUSH2 0x77F CALLDATASIZE PUSH2 0x17F0 JUMP JUMPDEST PUSH2 0x787 PUSH2 0x1A2A JUMP JUMPDEST DUP2 PUSH1 0x0 MSTORE PUSH1 0x1 SWAP2 PUSH1 0x20 DUP4 DUP2 MSTORE PUSH1 0x40 PUSH1 0x0 KECCAK256 PUSH2 0x7A4 DUP2 SLOAD ISZERO ISZERO PUSH2 0x1A5A JUMP JUMPDEST DUP1 DUP6 ADD DUP1 SLOAD PUSH1 0x1 PUSH1 0x1 PUSH1 0xA0 SHL SUB SWAP2 SWAP1 DUP3 AND CALLER SUB PUSH2 0xACB JUMPI PUSH1 0x6 DUP4 ADD SWAP3 PUSH1 0xFF DUP5 SLOAD AND PUSH1 0x4 DUP2 LT ISZERO PUSH2 0x4B7 JUMPI DUP9 DUP2 ISZERO SWAP2 DUP3 ISZERO PUSH2 0xAC1 JUMPI JUMPDEST POP POP ISZERO PUSH2 0xA85 JUMPI DUP6 PUSH1 0x0 MSTORE PUSH1 0x2 DUP6 MSTORE PUSH1 0x40 PUSH1 0x0 KECCAK256 SWAP4 PUSH1 0x0 DUP10 PUSH1 0x0 SWAP7 DUP2 PUSH1 0x0 SWAP1 JUMPDEST PUSH2 0xA23 JUMPI JUMPDEST POP POP POP ISZERO PUSH2 0x9EB JUMPI DUP1 SLOAD PUSH1 0xFF NOT AND PUSH1 0x2 OR SWAP1 SSTORE PUSH1 0x7 DUP2 ADD DUP8 SWAP1 SSTORE PUSH1 0x8 DUP2 ADD DUP5 SWAP1 SSTORE PUSH1 0x4 ADD SLOAD DUP4 DUP2 SUB DUP2 DUP2 GT PUSH2 0x665 JUMPI DUP6 SWAP3 DUP6 DUP1 SWAP4 SUB PUSH2 0x943 JUMPI JUMPDEST POP POP PUSH1 0x5 SLOAD PUSH1 0x7 SLOAD PUSH1 0x40 MLOAD PUSH4 0xA9059CBB PUSH1 0xE0 SHL DUP2 MSTORE SWAP1 DUP6 AND PUSH1 0x1 PUSH1 0x1 PUSH1 0xA0 SHL SUB AND PUSH1 0x4 DUP3 ADD MSTORE PUSH1 0x24 DUP2 ADD SWAP3 SWAP1 SWAP3 MSTORE SWAP1 SWAP3 DUP4 SWAP2 AND DUP2 PUSH1 0x0 DUP2 PUSH1 0x44 DUP2 ADD JUMPDEST SUB SWAP3 GAS CALL SWAP1 DUP2 ISZERO PUSH2 0x6F3 JUMPI PUSH1 0x0 SWAP2 PUSH2 0x90E JUMPI JUMPDEST POP ISZERO PUSH2 0x8C9 JUMPI SWAP1 PUSH32 0xBC60B4DDAF6218EF27C409E11DB4650DA92D0E629854FDCE8E5604C9611AD000 SWAP2 PUSH1 0x40 MLOAD SWAP1 DUP2 MSTORE LOG3 PUSH1 0x0 DUP1 MLOAD PUSH1 0x20 PUSH2 0x1BD0 DUP4 CODECOPY DUP2 MLOAD SWAP2 MSTORE SSTORE STOP JUMPDEST PUSH1 0x40 MLOAD PUSH3 0x461BCD PUSH1 0xE5 SHL DUP2 MSTORE PUSH1 0x4 DUP2 ADD DUP4 SWAP1 MSTORE PUSH1 0x18 PUSH1 0x24 DUP3 ADD MSTORE PUSH32 0x5472616E7366657220746F207661756C74206661696C65640000000000000000 PUSH1 0x44 DUP3 ADD MSTORE PUSH1 0x64 SWAP1 REVERT JUMPDEST SWAP1 POP DUP3 DUP2 DUP2 RETURNDATASIZE DUP4 GT PUSH2 0x93C JUMPI JUMPDEST PUSH2 0x925 DUP2 DUP4 PUSH2 0x18AB JUMP JUMPDEST DUP2 ADD SUB SLT PUSH2 0x121 JUMPI PUSH2 0x936 SWAP1 PUSH2 0x1A02 JUMP JUMPDEST DUP7 PUSH2 0x887 JUMP JUMPDEST POP RETURNDATASIZE PUSH2 0x91B JUMP JUMPDEST PUSH1 0x5 SLOAD SWAP1 SLOAD PUSH1 0x40 MLOAD PUSH4 0xA9059CBB PUSH1 0xE0 SHL DUP2 MSTORE SWAP1 DUP7 AND PUSH1 0x1 PUSH1 0x1 PUSH1 0xA0 SHL SUB AND PUSH1 0x4 DUP3 ADD MSTORE PUSH1 0x24 DUP2 ADD SWAP3 SWAP1 SWAP3 MSTORE SWAP1 SWAP4 SWAP3 SWAP2 POP DUP4 SWAP1 DUP4 AND DUP2 PUSH1 0x0 DUP2 PUSH1 0x44 DUP2 ADD SUB SWAP3 GAS CALL SWAP2 DUP3 ISZERO PUSH2 0x6F3 JUMPI DUP5 SWAP2 DUP5 SWAP2 PUSH1 0x0 SWAP5 PUSH2 0x9AA JUMPI JUMPDEST POP PUSH2 0x9A3 PUSH2 0x874 SWAP5 PUSH2 0x1B1A JUMP JUMPDEST SWAP3 DUP10 PUSH2 0x838 JUMP JUMPDEST SWAP4 POP SWAP2 SWAP1 POP DUP3 DUP2 RETURNDATASIZE DUP4 GT PUSH2 0x9E4 JUMPI JUMPDEST PUSH2 0x9C3 DUP2 DUP4 PUSH2 0x18AB JUMP JUMPDEST DUP2 ADD SUB SLT PUSH2 0x121 JUMPI DUP3 DUP5 SWAP2 PUSH2 0x9A3 PUSH2 0x9DD PUSH2 0x874 SWAP6 PUSH2 0x1A02 JUMP JUMPDEST SWAP5 POP PUSH2 0x996 JUMP JUMPDEST POP RETURNDATASIZE PUSH2 0x9B9 JUMP JUMPDEST PUSH1 0x40 MLOAD PUSH3 0x461BCD PUSH1 0xE5 SHL DUP2 MSTORE PUSH1 0x4 DUP2 ADD DUP8 SWAP1 MSTORE PUSH1 0x10 PUSH1 0x24 DUP3 ADD MSTORE PUSH16 0x1059D95B9D081A185CC81B9BC8189A59 PUSH1 0x82 SHL PUSH1 0x44 DUP3 ADD MSTORE PUSH1 0x64 SWAP1 REVERT JUMPDEST DUP2 SLOAD DUP2 LT ISZERO PUSH2 0xA80 JUMPI DUP12 PUSH2 0xA37 DUP3 DUP5 PUSH2 0x1806 JUMP JUMPDEST POP SLOAD EQ PUSH2 0xA4D JUMPI PUSH2 0xA47 SWAP1 PUSH2 0x1A0F JUMP JUMPDEST DUP3 PUSH2 0x7F9 JUMP JUMPDEST SWAP2 SWAP4 SWAP8 POP PUSH2 0xA73 SWAP3 POP PUSH1 0x3 PUSH2 0xA62 DUP4 DUP4 PUSH2 0x1806 JUMP JUMPDEST POP ADD DUP1 SLOAD PUSH1 0xFF NOT AND DUP6 OR SWAP1 SSTORE PUSH2 0x1806 JUMP JUMPDEST POP ADD SLOAD SWAP4 DUP9 DUP10 DUP12 DUP1 PUSH2 0x7FE JUMP JUMPDEST PUSH2 0x7FE JUMP JUMPDEST PUSH1 0x40 MLOAD PUSH3 0x461BCD PUSH1 0xE5 SHL DUP2 MSTORE PUSH1 0x4 DUP2 ADD DUP7 SWAP1 MSTORE PUSH1 0x14 PUSH1 0x24 DUP3 ADD MSTORE PUSH20 0x4172656E61206E6F742073656C65637461626C65 PUSH1 0x60 SHL PUSH1 0x44 DUP3 ADD MSTORE PUSH1 0x64 SWAP1 REVERT JUMPDEST EQ SWAP1 POP DUP9 DUP11 PUSH2 0x7D9 JUMP JUMPDEST PUSH1 0x40 MLOAD PUSH3 0x461BCD PUSH1 0xE5 SHL DUP2 MSTORE PUSH1 0x4 DUP2 ADD DUP6 SWAP1 MSTORE PUSH1 0x11 PUSH1 0x24 DUP3 ADD MSTORE PUSH17 0x2737BA1030B932B7309031B932B0BA37B9 PUSH1 0x79 SHL PUSH1 0x44 DUP3 ADD MSTORE PUSH1 0x64 SWAP1 REVERT JUMPDEST CALLVALUE PUSH2 0x121 JUMPI PUSH1 0x0 CALLDATASIZE PUSH1 0x3 NOT ADD SLT PUSH2 0x121 JUMPI PUSH1 0x5 SLOAD PUSH1 0x40 MLOAD PUSH1 0x1 PUSH1 0x1 PUSH1 0xA0 SHL SUB SWAP1 SWAP2 AND DUP2 MSTORE PUSH1 0x20 SWAP1 RETURN JUMPDEST CALLVALUE PUSH2 0x121 JUMPI PUSH1 0x20 DUP1 PUSH1 0x3 NOT CALLDATASIZE ADD SLT PUSH2 0x121 JUMPI PUSH1 0x4 CALLDATALOAD PUSH1 0x0 MSTORE PUSH1 0x2 SWAP1 DUP2 DUP2 MSTORE PUSH1 0x40 PUSH1 0x0 KECCAK256 SWAP2 DUP3 SLOAD PUSH2 0xB5C DUP2 PUSH2 0x1BA3 JUMP JUMPDEST SWAP2 PUSH2 0xB6A PUSH1 0x40 MLOAD SWAP4 DUP5 PUSH2 0x18AB JUMP JUMPDEST DUP2 DUP4 MSTORE PUSH1 0x0 SWAP5 DUP6 MSTORE DUP4 DUP6 KECCAK256 DUP5 DUP5 ADD SWAP6 SWAP2 DUP7 JUMPDEST DUP5 DUP5 LT PUSH2 0xBDE JUMPI PUSH1 0x40 DUP1 MLOAD DUP9 DUP2 MSTORE DUP8 MLOAD DUP2 DUP11 ADD DUP2 SWAP1 MSTORE DUP11 SWAP3 DUP3 ADD SWAP1 DUP11 PUSH1 0x0 JUMPDEST DUP3 DUP2 LT PUSH2 0xBA8 JUMPI DUP5 DUP5 SUB DUP6 RETURN JUMPDEST DUP6 MLOAD DUP1 MLOAD DUP6 MSTORE DUP1 DUP4 ADD MLOAD DUP6 DUP5 ADD MSTORE PUSH1 0x40 DUP1 DUP3 ADD MLOAD SWAP1 DUP7 ADD MSTORE PUSH1 0x60 SWAP1 DUP2 ADD MLOAD ISZERO ISZERO SWAP1 DUP6 ADD MSTORE SWAP5 DUP2 ADD SWAP5 PUSH1 0x80 SWAP1 SWAP4 ADD SWAP3 PUSH1 0x1 ADD PUSH2 0xB9B JUMP JUMPDEST PUSH1 0x4 DUP8 PUSH1 0x1 SWAP3 PUSH1 0x40 MLOAD PUSH2 0xBF0 DUP2 PUSH2 0x188F JUMP JUMPDEST DUP7 SLOAD DUP2 MSTORE DUP5 DUP8 ADD SLOAD DUP4 DUP3 ADD MSTORE DUP6 DUP8 ADD SLOAD PUSH1 0x40 DUP3 ADD MSTORE PUSH1 0xFF PUSH1 0x3 DUP9 ADD SLOAD AND ISZERO ISZERO PUSH1 0x60 DUP3 ADD MSTORE DUP2 MSTORE ADD SWAP4 ADD SWAP4 ADD SWAP3 SWAP2 PUSH2 0xB7C JUMP JUMPDEST CALLVALUE PUSH2 0x121 JUMPI PUSH2 0xC30 CALLDATASIZE PUSH2 0x17F0 JUMP JUMPDEST SWAP1 PUSH1 0x0 MSTORE PUSH1 0x3 PUSH1 0x20 MSTORE PUSH1 0x40 PUSH1 0x0 KECCAK256 SWAP1 PUSH1 0x0 MSTORE PUSH1 0x20 MSTORE PUSH1 0x20 PUSH1 0xFF PUSH1 0x40 PUSH1 0x0 KECCAK256 SLOAD AND PUSH1 0x40 MLOAD SWAP1 ISZERO ISZERO DUP2 MSTORE RETURN JUMPDEST CALLVALUE PUSH2 0x121 JUMPI PUSH1 0x0 CALLDATASIZE PUSH1 0x3 NOT ADD SLT PUSH2 0x121 JUMPI PUSH1 0x8 SLOAD PUSH1 0x40 MLOAD PUSH1 0x1 PUSH1 0x1 PUSH1 0xA0 SHL SUB SWAP1 SWAP2 AND DUP2 MSTORE PUSH1 0x20 SWAP1 RETURN JUMPDEST CALLVALUE PUSH2 0x121 JUMPI PUSH1 0x0 CALLDATASIZE PUSH1 0x3 NOT ADD SLT PUSH2 0x121 JUMPI PUSH1 0x0 PUSH1 0x1 PUSH1 0x4 SLOAD SWAP1 JUMPDEST DUP2 DUP2 GT ISZERO PUSH2 0xE5A JUMPI POP PUSH2 0xCAF DUP3 PUSH2 0x1BA3 JUMP JUMPDEST SWAP2 PUSH2 0xCBD PUSH1 0x40 MLOAD SWAP4 DUP5 PUSH2 0x18AB JUMP JUMPDEST DUP1 DUP4 MSTORE PUSH2 0xCCC PUSH1 0x1F NOT SWAP2 PUSH2 0x1BA3 JUMP JUMPDEST ADD PUSH1 0x0 JUMPDEST DUP2 DUP2 LT PUSH2 0xE43 JUMPI POP POP PUSH1 0x0 PUSH1 0x1 JUMPDEST DUP3 DUP2 GT ISZERO PUSH2 0xD45 JUMPI PUSH1 0x40 DUP1 MLOAD PUSH1 0x20 DUP1 DUP3 MSTORE DUP7 MLOAD DUP2 DUP4 ADD DUP2 SWAP1 MSTORE PUSH1 0x0 SWAP4 PUSH1 0x5 DUP3 SWAP1 SHL DUP5 ADD DUP2 ADD SWAP3 DUP1 DUP11 ADD SWAP3 SWAP2 DUP6 ADD JUMPDEST DUP3 DUP8 LT PUSH2 0xD19 JUMPI DUP6 DUP6 SUB DUP7 RETURN JUMPDEST SWAP1 SWAP2 SWAP3 SWAP4 DUP3 DUP1 PUSH2 0xD35 PUSH1 0x1 SWAP4 PUSH1 0x3F NOT DUP11 DUP3 SUB ADD DUP7 MSTORE DUP9 MLOAD PUSH2 0x1762 JUMP JUMPDEST SWAP7 ADD SWAP3 ADD SWAP7 ADD SWAP6 SWAP3 SWAP2 SWAP1 SWAP3 PUSH2 0xD0C JUMP JUMPDEST DUP1 PUSH1 0x0 MSTORE PUSH1 0x20 PUSH1 0x1 DUP2 MSTORE PUSH1 0xFF PUSH1 0x6 SWAP1 DUP1 DUP3 PUSH1 0x40 PUSH1 0x0 KECCAK256 ADD SLOAD AND PUSH1 0x4 DUP2 LT ISZERO PUSH2 0x4B7 JUMPI ISZERO PUSH2 0xD7E JUMPI JUMPDEST POP POP POP PUSH2 0xD79 SWAP1 PUSH2 0x1A0F JUMP JUMPDEST PUSH2 0xCDE JUMP JUMPDEST SWAP2 PUSH1 0x9 DUP5 SWAP6 SWAP3 PUSH2 0xE02 PUSH2 0xE3A SWAP6 PUSH2 0xD79 SWAP8 PUSH1 0x0 MSTORE PUSH1 0x1 DUP6 MSTORE PUSH1 0x40 PUSH1 0x0 KECCAK256 SWAP3 PUSH1 0x40 MLOAD SWAP6 PUSH2 0xDA9 DUP8 PUSH2 0x1872 JUMP JUMPDEST DUP5 SLOAD DUP8 MSTORE PUSH1 0x1 DUP6 ADD SLOAD PUSH1 0x1 PUSH1 0x1 PUSH1 0xA0 SHL SUB AND SWAP1 DUP8 ADD MSTORE PUSH2 0xDCB PUSH1 0x2 DUP6 ADD PUSH2 0x18CD JUMP JUMPDEST PUSH1 0x40 DUP8 ADD MSTORE PUSH2 0xDDC PUSH1 0x3 DUP6 ADD PUSH2 0x18CD JUMP JUMPDEST PUSH1 0x60 DUP8 ADD MSTORE PUSH1 0x4 DUP5 ADD SLOAD PUSH1 0x80 DUP8 ADD MSTORE PUSH1 0x5 DUP5 ADD SLOAD PUSH1 0xA0 DUP8 ADD MSTORE DUP4 ADD SLOAD AND PUSH1 0xC0 DUP6 ADD PUSH2 0x1A1E JUMP JUMPDEST PUSH1 0x7 DUP2 ADD SLOAD PUSH1 0xE0 DUP5 ADD MSTORE PUSH1 0x8 DUP2 ADD SLOAD PUSH2 0x100 DUP5 ADD MSTORE ADD SLOAD PUSH2 0x120 DUP3 ADD MSTORE PUSH2 0xE29 DUP3 DUP9 PUSH2 0x1BBB JUMP JUMPDEST MSTORE PUSH2 0xE34 DUP2 DUP8 PUSH2 0x1BBB JUMP JUMPDEST POP PUSH2 0x1A0F JUMP JUMPDEST SWAP2 SWAP1 DUP6 DUP1 PUSH2 0xD6D JUMP JUMPDEST PUSH1 0x20 SWAP1 PUSH2 0xE4E PUSH2 0x1B56 JUMP JUMPDEST DUP3 DUP3 DUP8 ADD ADD MSTORE ADD PUSH2 0xCD0 JUMP JUMPDEST DUP1 PUSH1 0x0 MSTORE PUSH1 0x1 PUSH1 0x20 MSTORE PUSH1 0xFF PUSH1 0x6 PUSH1 0x40 PUSH1 0x0 KECCAK256 ADD SLOAD AND PUSH1 0x4 DUP2 LT ISZERO PUSH2 0x4B7 JUMPI ISZERO PUSH2 0xE8C JUMPI JUMPDEST PUSH2 0xE87 SWAP1 PUSH2 0x1A0F JUMP JUMPDEST PUSH2 0xC9D JUMP JUMPDEST SWAP2 PUSH2 0xE99 PUSH2 0xE87 SWAP2 PUSH2 0x1A0F JUMP JUMPDEST SWAP3 SWAP1 POP PUSH2 0xE7E JUMP JUMPDEST CALLVALUE PUSH2 0x121 JUMPI PUSH1 0x0 CALLDATASIZE PUSH1 0x3 NOT ADD SLT PUSH2 0x121 JUMPI PUSH1 0x0 SLOAD PUSH1 0x40 MLOAD PUSH1 0x1 PUSH1 0x1 PUSH1 0xA0 SHL SUB SWAP1 SWAP2 AND DUP2 MSTORE PUSH1 0x20 SWAP1 RETURN JUMPDEST CALLVALUE PUSH2 0x121 JUMPI PUSH1 0x20 CALLDATASIZE PUSH1 0x3 NOT ADD SLT PUSH2 0x121 JUMPI PUSH1 0x4 CALLDATALOAD PUSH1 0x0 MSTORE PUSH1 0x1 PUSH1 0x20 MSTORE PUSH1 0x40 PUSH1 0x0 KECCAK256 DUP1 SLOAD PUSH1 0x1 DUP1 PUSH1 0xA0 SHL SUB PUSH1 0x1 DUP4 ADD SLOAD AND SWAP2 PUSH2 0xF07 PUSH1 0x2 DUP3 ADD PUSH2 0x18CD JUMP JUMPDEST PUSH2 0xF13 PUSH1 0x3 DUP4 ADD PUSH2 0x18CD JUMP JUMPDEST SWAP2 PUSH1 0x4 DUP2 ADD SLOAD SWAP3 PUSH2 0xF85 PUSH1 0x5 DUP4 ADD SLOAD PUSH1 0xFF PUSH1 0x6 DUP6 ADD SLOAD AND SWAP1 PUSH2 0xF70 PUSH1 0x7 DUP7 ADD SLOAD SWAP5 PUSH2 0xF62 PUSH1 0x9 PUSH1 0x8 DUP10 ADD SLOAD SWAP9 ADD SLOAD SWAP9 PUSH1 0x40 MLOAD SWAP13 DUP14 SWAP13 DUP14 MSTORE PUSH1 0x20 DUP14 ADD MSTORE PUSH1 0x40 DUP13 PUSH2 0x140 SWAP2 DUP3 SWAP2 ADD MSTORE DUP13 ADD SWAP1 PUSH2 0x1730 JUMP JUMPDEST SWAP1 DUP11 DUP3 SUB PUSH1 0x60 DUP13 ADD MSTORE PUSH2 0x1730 JUMP JUMPDEST SWAP7 PUSH1 0x80 DUP10 ADD MSTORE PUSH1 0xA0 DUP9 ADD MSTORE PUSH1 0xC0 DUP8 ADD SWAP1 PUSH2 0x1755 JUMP JUMPDEST PUSH1 0xE0 DUP6 ADD MSTORE PUSH2 0x100 DUP5 ADD MSTORE PUSH2 0x120 DUP4 ADD MSTORE SUB SWAP1 RETURN JUMPDEST CALLVALUE PUSH2 0x121 JUMPI PUSH1 0x0 CALLDATASIZE PUSH1 0x3 NOT ADD SLT PUSH2 0x121 JUMPI PUSH1 0x6 SLOAD PUSH1 0x40 MLOAD PUSH1 0x1 PUSH1 0x1 PUSH1 0xA0 SHL SUB SWAP1 SWAP2 AND DUP2 MSTORE PUSH1 0x20 SWAP1 RETURN JUMPDEST CALLVALUE PUSH2 0x121 JUMPI PUSH1 0x0 CALLDATASIZE PUSH1 0x3 NOT ADD SLT PUSH2 0x121 JUMPI PUSH1 0x20 PUSH1 0x4 SLOAD PUSH1 0x40 MLOAD SWAP1 DUP2 MSTORE RETURN JUMPDEST CALLVALUE PUSH2 0x121 JUMPI PUSH1 0x0 CALLDATASIZE PUSH1 0x3 NOT ADD SLT PUSH2 0x121 JUMPI PUSH2 0xFFA PUSH2 0x19D6 JUMP JUMPDEST PUSH1 0x0 DUP1 SLOAD PUSH1 0x1 PUSH1 0x1 PUSH1 0xA0 SHL SUB NOT DUP2 AND DUP3 SSTORE PUSH1 0x1 PUSH1 0x1 PUSH1 0xA0 SHL SUB AND PUSH32 0x8BE0079C531659141344CD1FD0A4F28419497F9722A3DAAFE3B4186F6B6457E0 DUP3 DUP1 LOG3 STOP JUMPDEST CALLVALUE PUSH2 0x121 JUMPI PUSH1 0x0 CALLDATASIZE PUSH1 0x3 NOT ADD SLT PUSH2 0x121 JUMPI PUSH1 0x20 PUSH1 0x40 MLOAD PUSH1 0x2 DUP2 MSTORE RETURN JUMPDEST CALLVALUE PUSH2 0x121 JUMPI PUSH1 0x20 DUP1 PUSH1 0x3 NOT CALLDATASIZE ADD SLT PUSH2 0x121 JUMPI PUSH1 0x4 CALLDATALOAD SWAP1 PUSH2 0x1074 PUSH2 0x1A2A JUMP JUMPDEST DUP2 PUSH1 0x0 MSTORE PUSH1 0x1 DUP2 MSTORE PUSH1 0x40 PUSH1 0x0 KECCAK256 SWAP1 PUSH2 0x108E DUP3 SLOAD ISZERO ISZERO PUSH2 0x1A5A JUMP JUMPDEST PUSH1 0x1 DUP3 ADD SLOAD PUSH1 0x1 PUSH1 0x1 PUSH1 0xA0 SHL SUB SWAP1 DUP2 AND CALLER DUP2 EQ DUP1 ISZERO PUSH2 0x11E1 JUMPI JUMPDEST ISZERO PUSH2 0x11AB JUMPI PUSH1 0x6 DUP5 ADD SWAP4 DUP5 SLOAD PUSH1 0xFF DUP2 AND SWAP4 PUSH1 0x4 DUP6 LT ISZERO PUSH2 0x4B7 JUMPI PUSH2 0x111E SWAP7 PUSH1 0x3 PUSH1 0x4 SWAP4 PUSH2 0x10D6 DUP10 SWAP9 ISZERO PUSH2 0x1A98 JUMP JUMPDEST PUSH1 0xFF NOT AND OR SWAP1 SSTORE PUSH1 0x5 SLOAD SWAP2 SWAP1 SWAP3 ADD SLOAD PUSH1 0x40 MLOAD PUSH4 0xA9059CBB PUSH1 0xE0 SHL DUP2 MSTORE PUSH1 0x1 PUSH1 0x1 PUSH1 0xA0 SHL SUB SWAP1 SWAP5 AND PUSH1 0x4 DUP6 ADD MSTORE PUSH1 0x24 DUP5 ADD MSTORE SWAP2 SWAP5 DUP6 SWAP3 SWAP2 SWAP1 SWAP2 AND SWAP1 DUP3 SWAP1 PUSH1 0x0 SWAP1 DUP3 SWAP1 PUSH1 0x44 DUP3 ADD SWAP1 JUMP JUMPDEST SUB SWAP3 GAS CALL SWAP1 DUP2 ISZERO PUSH2 0x6F3 JUMPI PUSH1 0x0 SWAP2 PUSH2 0x1174 JUMPI JUMPDEST DUP4 PUSH2 0x113B DUP4 PUSH2 0x1B1A JUMP JUMPDEST PUSH32 0x2E7BE128B3E773183AA564D86EF3CBD2D6E9D7B3C667C98B0C35EEF01164F963 PUSH1 0x0 DUP1 LOG2 PUSH1 0x1 PUSH1 0x0 DUP1 MLOAD PUSH1 0x20 PUSH2 0x1BD0 DUP4 CODECOPY DUP2 MLOAD SWAP2 MSTORE SSTORE STOP JUMPDEST SWAP1 POP DUP2 DUP2 RETURNDATASIZE DUP4 GT PUSH2 0x11A4 JUMPI JUMPDEST PUSH2 0x118A DUP2 DUP4 PUSH2 0x18AB JUMP JUMPDEST DUP2 ADD SUB SLT PUSH2 0x121 JUMPI PUSH2 0x119E PUSH2 0x113B SWAP2 PUSH2 0x1A02 JUMP JUMPDEST DUP4 PUSH2 0x1131 JUMP JUMPDEST POP RETURNDATASIZE PUSH2 0x1180 JUMP JUMPDEST PUSH1 0x40 MLOAD PUSH3 0x461BCD PUSH1 0xE5 SHL DUP2 MSTORE PUSH1 0x4 DUP2 ADD DUP5 SWAP1 MSTORE PUSH1 0xE PUSH1 0x24 DUP3 ADD MSTORE PUSH14 0x139BDD08185D5D1A1BDC9A5E9959 PUSH1 0x92 SHL PUSH1 0x44 DUP3 ADD MSTORE PUSH1 0x64 SWAP1 REVERT JUMPDEST POP PUSH1 0x5 DUP5 ADD SLOAD TIMESTAMP GT PUSH2 0x10A8 JUMP JUMPDEST CALLVALUE PUSH2 0x121 JUMPI PUSH2 0x11FC CALLDATASIZE PUSH2 0x17F0 JUMP JUMPDEST SWAP1 PUSH1 0x0 MSTORE PUSH1 0x2 PUSH1 0x20 MSTORE PUSH1 0x40 PUSH1 0x0 KECCAK256 DUP1 SLOAD DUP3 LT ISZERO PUSH2 0x121 JUMPI PUSH1 0x80 SWAP2 PUSH2 0x121F SWAP2 PUSH2 0x1806 JUMP JUMPDEST POP DUP1 SLOAD SWAP1 PUSH1 0x1 DUP2 ADD SLOAD SWAP1 PUSH1 0xFF PUSH1 0x3 PUSH1 0x2 DUP4 ADD SLOAD SWAP3 ADD SLOAD AND SWAP2 PUSH1 0x40 MLOAD SWAP4 DUP5 MSTORE PUSH1 0x20 DUP5 ADD MSTORE PUSH1 0x40 DUP4 ADD MSTORE ISZERO ISZERO PUSH1 0x60 DUP3 ADD MSTORE RETURN JUMPDEST CALLVALUE PUSH2 0x121 JUMPI PUSH1 0x60 CALLDATASIZE PUSH1 0x3 NOT ADD SLT PUSH2 0x121 JUMPI PUSH1 0x4 CALLDATALOAD PUSH1 0x24 SWAP1 DUP2 CALLDATALOAD SWAP1 PUSH1 0x44 DUP1 CALLDATALOAD DUP3 PUSH1 0x0 MSTORE PUSH1 0x20 SWAP2 PUSH1 0x1 DUP4 MSTORE PUSH1 0x40 PUSH1 0x0 KECCAK256 PUSH2 0x128A DUP2 SLOAD ISZERO ISZERO PUSH2 0x1A5A JUMP JUMPDEST PUSH1 0xFF PUSH1 0x6 DUP3 ADD SLOAD AND PUSH1 0x4 DUP2 LT ISZERO PUSH2 0x1611 JUMPI PUSH2 0x12A5 SWAP1 ISZERO PUSH2 0x1A98 JUMP JUMPDEST PUSH1 0x5 DUP2 ADD SLOAD TIMESTAMP GT PUSH2 0x15D6 JUMPI PUSH1 0x4 ADD SLOAD DUP3 GT PUSH2 0x159F JUMPI DUP4 PUSH1 0x0 MSTORE PUSH1 0x3 DUP4 MSTORE PUSH1 0x40 PUSH1 0x0 KECCAK256 DUP6 PUSH1 0x0 MSTORE DUP4 MSTORE PUSH1 0xFF PUSH1 0x40 PUSH1 0x0 KECCAK256 SLOAD AND PUSH2 0x1569 JUMPI PUSH1 0x6 SLOAD PUSH1 0x40 MLOAD PUSH4 0xA270AD9 PUSH1 0xE3 SHL DUP2 MSTORE PUSH1 0x4 DUP2 ADD DUP8 SWAP1 MSTORE PUSH1 0x1 PUSH1 0x1 PUSH1 0xA0 SHL SUB SWAP2 PUSH1 0x0 SWAP1 DUP3 SWAP1 DUP11 SWAP1 DUP3 SWAP1 DUP7 AND GAS STATICCALL SWAP2 DUP3 ISZERO PUSH2 0x6F3 JUMPI PUSH1 0x0 SWAP2 PUSH1 0x0 SWAP4 PUSH2 0x148D JUMPI JUMPDEST POP POP ISZERO PUSH2 0x1458 JUMPI ISZERO PUSH2 0x1423 JUMPI POP DUP3 PUSH1 0x0 MSTORE PUSH1 0x3 DUP3 MSTORE PUSH1 0x40 PUSH1 0x0 KECCAK256 DUP5 PUSH1 0x0 MSTORE DUP3 MSTORE PUSH1 0x40 PUSH1 0x0 KECCAK256 PUSH1 0xFF NOT SWAP1 PUSH1 0x1 DUP3 DUP3 SLOAD AND OR SWAP1 SSTORE DUP4 PUSH1 0x0 MSTORE PUSH1 0x2 DUP4 MSTORE PUSH1 0x40 PUSH1 0x0 KECCAK256 SWAP1 PUSH1 0x40 MLOAD PUSH2 0x1365 DUP2 PUSH2 0x188F JUMP JUMPDEST DUP7 DUP2 MSTORE DUP5 DUP2 ADD DUP5 DUP2 MSTORE PUSH1 0x40 DUP3 ADD SWAP2 TIMESTAMP DUP4 MSTORE PUSH1 0x60 DUP2 ADD SWAP5 PUSH1 0x0 DUP7 MSTORE DUP1 SLOAD PUSH9 0x10000000000000000 DUP2 LT ISZERO PUSH2 0x140E JUMPI PUSH2 0x13A1 SWAP2 PUSH1 0x1 DUP3 ADD DUP2 SSTORE PUSH2 0x1806 JUMP JUMPDEST SWAP11 SWAP1 SWAP11 PUSH2 0x13FA JUMPI POP SWAP9 PUSH1 0xFF SWAP3 PUSH1 0x3 SWAP3 PUSH32 0x3E763751CA037819353B0F03196C95DF3625FECADE7EECAC7A2AF7C8FB7615F1 SWAP10 SWAP11 SWAP12 MLOAD DUP4 SSTORE MLOAD PUSH1 0x1 DUP4 ADD SSTORE MLOAD PUSH1 0x2 DUP3 ADD SSTORE ADD SWAP3 MLOAD ISZERO ISZERO SWAP2 DUP4 SLOAD AND SWAP2 AND OR SWAP1 SSTORE PUSH1 0x40 MLOAD SWAP1 DUP2 MSTORE LOG3 STOP JUMPDEST PUSH4 0x4E487B71 PUSH1 0xE0 SHL PUSH1 0x0 MSTORE PUSH1 0x0 PUSH1 0x4 MSTORE PUSH1 0x0 REVERT JUMPDEST DUP12 PUSH4 0x4E487B71 PUSH1 0xE0 SHL PUSH1 0x0 MSTORE PUSH1 0x41 PUSH1 0x4 MSTORE PUSH1 0x0 REVERT JUMPDEST DUP3 PUSH16 0x4167656E74206E6F7420616374697665 PUSH1 0x80 SHL PUSH1 0x64 SWAP3 PUSH1 0x10 DUP10 PUSH1 0x40 MLOAD SWAP5 PUSH3 0x461BCD PUSH1 0xE5 SHL DUP7 MSTORE PUSH1 0x4 DUP7 ADD MSTORE DUP5 ADD MSTORE DUP3 ADD MSTORE REVERT JUMPDEST PUSH1 0x40 MLOAD PUSH3 0x461BCD PUSH1 0xE5 SHL DUP2 MSTORE PUSH1 0x4 DUP2 ADD DUP6 SWAP1 MSTORE PUSH1 0xF DUP2 DUP10 ADD MSTORE PUSH15 0x1059D95B9D081B9BDD08199BDD5B99 PUSH1 0x8A SHL DUP2 DUP5 ADD MSTORE PUSH1 0x64 SWAP1 REVERT JUMPDEST SWAP2 POP SWAP2 POP RETURNDATASIZE DUP1 PUSH1 0x0 DUP4 RETURNDATACOPY PUSH2 0x14A1 DUP2 DUP4 PUSH2 0x18AB JUMP JUMPDEST DUP2 ADD SWAP1 PUSH2 0x1E0 DUP2 DUP4 SUB SLT PUSH2 0x121 JUMPI DUP1 MLOAD SWAP2 DUP7 DUP3 ADD MLOAD SWAP4 PUSH8 0xFFFFFFFFFFFFFFFF SWAP5 DUP6 DUP2 GT PUSH2 0x121 JUMPI DUP3 PUSH2 0x14D4 SWAP2 DUP6 ADD PUSH2 0x1AD5 JUMP JUMPDEST POP PUSH1 0x40 DUP4 ADD MLOAD DUP6 DUP2 GT PUSH2 0x121 JUMPI DUP3 PUSH2 0x14ED SWAP2 DUP6 ADD PUSH2 0x1AD5 JUMP JUMPDEST POP PUSH1 0x60 DUP4 ADD MLOAD DUP6 DUP2 GT PUSH2 0x121 JUMPI DUP3 PUSH2 0x1506 SWAP2 DUP6 ADD PUSH2 0x1AD5 JUMP JUMPDEST POP PUSH1 0xA0 DUP4 ADD MLOAD SWAP1 DUP2 AND SUB PUSH2 0x121 JUMPI PUSH2 0x1521 PUSH2 0x120 DUP4 ADD PUSH2 0x1A02 JUMP JUMPDEST SWAP4 PUSH2 0x152F PUSH2 0x140 DUP5 ADD PUSH2 0x1A02 JUMP JUMPDEST POP PUSH2 0x180 DUP4 ADD MLOAD DUP2 DUP2 GT PUSH2 0x121 JUMPI DUP3 PUSH2 0x1549 SWAP2 DUP6 ADD PUSH2 0x1AD5 JUMP JUMPDEST POP PUSH2 0x1A0 DUP4 ADD MLOAD SWAP1 DUP2 GT PUSH2 0x121 JUMPI PUSH2 0x1561 SWAP3 ADD PUSH2 0x1AD5 JUMP JUMPDEST POP DUP9 DUP1 PUSH2 0x1319 JUMP JUMPDEST DUP3 PUSH17 0x1059D95B9D08185B1C9958591E48189A59 PUSH1 0x7A SHL PUSH1 0x64 SWAP3 PUSH1 0x11 DUP10 PUSH1 0x40 MLOAD SWAP5 PUSH3 0x461BCD PUSH1 0xE5 SHL DUP7 MSTORE PUSH1 0x4 DUP7 ADD MSTORE DUP5 ADD MSTORE DUP3 ADD MSTORE REVERT JUMPDEST DUP3 PUSH18 0x109A5908195E18D959591CC8189D5919D95D PUSH1 0x72 SHL PUSH1 0x64 SWAP3 PUSH1 0x12 DUP10 PUSH1 0x40 MLOAD SWAP5 PUSH3 0x461BCD PUSH1 0xE5 SHL DUP7 MSTORE PUSH1 0x4 DUP7 ADD MSTORE DUP5 ADD MSTORE DUP3 ADD MSTORE REVERT JUMPDEST PUSH1 0x40 MLOAD PUSH3 0x461BCD PUSH1 0xE5 SHL DUP2 MSTORE PUSH1 0x4 DUP2 ADD DUP6 SWAP1 MSTORE PUSH1 0x15 DUP2 DUP10 ADD MSTORE PUSH21 0x105C995B9848191958591B1A5B99481C185CDCD959 PUSH1 0x5A SHL DUP2 DUP5 ADD MSTORE PUSH1 0x64 SWAP1 REVERT JUMPDEST DUP8 PUSH4 0x4E487B71 PUSH1 0xE0 SHL PUSH1 0x0 MSTORE PUSH1 0x21 PUSH1 0x4 MSTORE PUSH1 0x0 REVERT JUMPDEST CALLVALUE PUSH2 0x121 JUMPI PUSH1 0x20 DUP1 PUSH1 0x3 NOT CALLDATASIZE ADD SLT PUSH2 0x121 JUMPI PUSH1 0x4 CALLDATALOAD PUSH2 0x1643 PUSH2 0x1B56 JUMP JUMPDEST POP DUP1 PUSH1 0x0 MSTORE PUSH1 0x1 DUP3 MSTORE PUSH2 0x165C PUSH1 0x40 PUSH1 0x0 KECCAK256 SLOAD ISZERO ISZERO PUSH2 0x1A5A JUMP JUMPDEST PUSH1 0x0 MSTORE PUSH1 0x1 DUP2 MSTORE PUSH1 0x40 PUSH1 0x0 KECCAK256 SWAP1 PUSH1 0x9 PUSH1 0x40 MLOAD SWAP3 PUSH2 0x1678 DUP5 PUSH2 0x1872 JUMP JUMPDEST DUP1 SLOAD DUP5 MSTORE PUSH1 0x1 DUP2 ADD SLOAD PUSH1 0x1 PUSH1 0x1 PUSH1 0xA0 SHL SUB AND DUP4 DUP6 ADD MSTORE PUSH2 0x169A PUSH1 0x2 DUP3 ADD PUSH2 0x18CD JUMP JUMPDEST PUSH1 0x40 DUP6 ADD MSTORE PUSH2 0x16AB PUSH1 0x3 DUP3 ADD PUSH2 0x18CD JUMP JUMPDEST PUSH1 0x60 DUP6 ADD MSTORE PUSH1 0x4 DUP2 ADD SLOAD PUSH1 0x80 DUP6 ADD MSTORE PUSH1 0x5 DUP2 ADD SLOAD PUSH1 0xA0 DUP6 ADD MSTORE PUSH2 0x16D8 PUSH1 0xFF PUSH1 0x6 DUP4 ADD SLOAD AND PUSH1 0xC0 DUP7 ADD PUSH2 0x1A1E JUMP JUMPDEST PUSH1 0x7 DUP2 ADD SLOAD PUSH1 0xE0 DUP6 ADD MSTORE PUSH1 0x8 DUP2 ADD SLOAD PUSH2 0x100 DUP6 ADD MSTORE ADD SLOAD PUSH2 0x120 DUP4 ADD MSTORE PUSH2 0x1709 PUSH1 0x40 MLOAD SWAP3 DUP3 DUP5 SWAP4 DUP5 MSTORE DUP4 ADD SWAP1 PUSH2 0x1762 JUMP JUMPDEST SUB SWAP1 RETURN JUMPDEST PUSH1 0x0 JUMPDEST DUP4 DUP2 LT PUSH2 0x1720 JUMPI POP POP PUSH1 0x0 SWAP2 ADD MSTORE JUMP JUMPDEST DUP2 DUP2 ADD MLOAD DUP4 DUP3 ADD MSTORE PUSH1 0x20 ADD PUSH2 0x1710 JUMP JUMPDEST SWAP1 PUSH1 0x20 SWAP2 PUSH2 0x1749 DUP2 MLOAD DUP1 SWAP3 DUP2 DUP6 MSTORE DUP6 DUP1 DUP7 ADD SWAP2 ADD PUSH2 0x170D JUMP JUMPDEST PUSH1 0x1F ADD PUSH1 0x1F NOT AND ADD ADD SWAP1 JUMP JUMPDEST SWAP1 PUSH1 0x4 DUP3 LT ISZERO PUSH2 0x4B7 JUMPI MSTORE JUMP JUMPDEST SWAP1 DUP2 MLOAD DUP2 MSTORE PUSH1 0x1 DUP1 PUSH1 0xA0 SHL SUB PUSH1 0x20 DUP4 ADD MLOAD AND PUSH1 0x20 DUP3 ADD MSTORE PUSH2 0x17A7 PUSH2 0x1795 PUSH1 0x40 DUP5 ADD MLOAD PUSH2 0x140 DUP1 PUSH1 0x40 DUP7 ADD MSTORE DUP5 ADD SWAP1 PUSH2 0x1730 JUMP JUMPDEST PUSH1 0x60 DUP5 ADD MLOAD DUP4 DUP3 SUB PUSH1 0x60 DUP6 ADD MSTORE PUSH2 0x1730 JUMP JUMPDEST SWAP2 PUSH1 0x80 DUP2 ADD MLOAD PUSH1 0x80 DUP4 ADD MSTORE PUSH1 0xA0 DUP2 ADD MLOAD PUSH1 0xA0 DUP4 ADD MSTORE PUSH2 0x17CE PUSH1 0xC0 DUP3 ADD MLOAD PUSH1 0xC0 DUP5 ADD SWAP1 PUSH2 0x1755 JUMP JUMPDEST PUSH1 0xE0 DUP2 ADD MLOAD PUSH1 0xE0 DUP4 ADD MSTORE PUSH2 0x100 DUP1 DUP3 ADD MLOAD SWAP1 DUP4 ADD MSTORE PUSH2 0x120 DUP1 SWAP2 ADD MLOAD SWAP2 ADD MSTORE SWAP1 JUMP JUMPDEST PUSH1 0x40 SWAP1 PUSH1 0x3 NOT ADD SLT PUSH2 0x121 JUMPI PUSH1 0x4 CALLDATALOAD SWAP1 PUSH1 0x24 CALLDATALOAD SWAP1 JUMP JUMPDEST DUP1 SLOAD DUP3 LT ISZERO PUSH2 0x1822 JUMPI PUSH1 0x0 MSTORE PUSH1 0x20 PUSH1 0x0 KECCAK256 SWAP1 PUSH1 0x2 SHL ADD SWAP1 PUSH1 0x0 SWAP1 JUMP JUMPDEST PUSH4 0x4E487B71 PUSH1 0xE0 SHL PUSH1 0x0 MSTORE PUSH1 0x32 PUSH1 0x4 MSTORE PUSH1 0x24 PUSH1 0x0 REVERT JUMPDEST SWAP1 PUSH1 0x1 DUP3 DUP2 SHR SWAP3 AND DUP1 ISZERO PUSH2 0x1868 JUMPI JUMPDEST PUSH1 0x20 DUP4 LT EQ PUSH2 0x1852 JUMPI JUMP JUMPDEST PUSH4 0x4E487B71 PUSH1 0xE0 SHL PUSH1 0x0 MSTORE PUSH1 0x22 PUSH1 0x4 MSTORE PUSH1 0x24 PUSH1 0x0 REVERT JUMPDEST SWAP2 PUSH1 0x7F AND SWAP2 PUSH2 0x1847 JUMP JUMPDEST PUSH2 0x140 DUP2 ADD SWAP1 DUP2 LT PUSH8 0xFFFFFFFFFFFFFFFF DUP3 GT OR PUSH2 0x58E JUMPI PUSH1 0x40 MSTORE JUMP JUMPDEST PUSH1 0x80 DUP2 ADD SWAP1 DUP2 LT PUSH8 0xFFFFFFFFFFFFFFFF DUP3 GT OR PUSH2 0x58E JUMPI PUSH1 0x40 MSTORE JUMP JUMPDEST SWAP1 PUSH1 0x1F DUP1 NOT SWAP2 ADD AND DUP2 ADD SWAP1 DUP2 LT PUSH8 0xFFFFFFFFFFFFFFFF DUP3 GT OR PUSH2 0x58E JUMPI PUSH1 0x40 MSTORE JUMP JUMPDEST SWAP1 PUSH1 0x40 MLOAD SWAP2 DUP3 PUSH1 0x0 DUP3 SLOAD SWAP3 PUSH2 0x18E1 DUP5 PUSH2 0x1838 JUMP JUMPDEST SWAP1 DUP2 DUP5 MSTORE PUSH1 0x1 SWAP5 DUP6 DUP2 AND SWAP1 DUP2 PUSH1 0x0 EQ PUSH2 0x1950 JUMPI POP PUSH1 0x1 EQ PUSH2 0x190D JUMPI JUMPDEST POP POP PUSH2 0x190B SWAP3 POP SUB DUP4 PUSH2 0x18AB JUMP JUMPDEST JUMP JUMPDEST SWAP1 SWAP4 SWAP2 POP PUSH1 0x0 MSTORE PUSH1 0x20 SWAP1 DUP2 PUSH1 0x0 KECCAK256 SWAP4 PUSH1 0x0 SWAP2 JUMPDEST DUP2 DUP4 LT PUSH2 0x1938 JUMPI POP POP PUSH2 0x190B SWAP4 POP DUP3 ADD ADD CODESIZE DUP1 PUSH2 0x18FD JUMP JUMPDEST DUP6 SLOAD DUP9 DUP5 ADD DUP6 ADD MSTORE SWAP5 DUP6 ADD SWAP5 DUP8 SWAP5 POP SWAP2 DUP4 ADD SWAP2 PUSH2 0x1920 JUMP JUMPDEST SWAP2 POP POP PUSH2 0x190B SWAP5 POP PUSH1 0x20 SWAP3 POP PUSH1 0xFF NOT AND DUP3 DUP5 ADD MSTORE ISZERO ISZERO PUSH1 0x5 SHL DUP3 ADD ADD CODESIZE DUP1 PUSH2 0x18FD JUMP JUMPDEST PUSH8 0xFFFFFFFFFFFFFFFF DUP2 GT PUSH2 0x58E JUMPI PUSH1 0x1F ADD PUSH1 0x1F NOT AND PUSH1 0x20 ADD SWAP1 JUMP JUMPDEST DUP2 PUSH1 0x1F DUP3 ADD SLT ISZERO PUSH2 0x121 JUMPI DUP1 CALLDATALOAD SWAP1 PUSH2 0x19A6 DUP3 PUSH2 0x1973 JUMP JUMPDEST SWAP3 PUSH2 0x19B4 PUSH1 0x40 MLOAD SWAP5 DUP6 PUSH2 0x18AB JUMP JUMPDEST DUP3 DUP5 MSTORE PUSH1 0x20 DUP4 DUP4 ADD ADD GT PUSH2 0x121 JUMPI DUP2 PUSH1 0x0 SWAP3 PUSH1 0x20 DUP1 SWAP4 ADD DUP4 DUP7 ADD CALLDATACOPY DUP4 ADD ADD MSTORE SWAP1 JUMP JUMPDEST PUSH1 0x0 SLOAD PUSH1 0x1 PUSH1 0x1 PUSH1 0xA0 SHL SUB AND CALLER SUB PUSH2 0x19EA JUMPI JUMP JUMPDEST PUSH1 0x40 MLOAD PUSH4 0x118CDAA7 PUSH1 0xE0 SHL DUP2 MSTORE CALLER PUSH1 0x4 DUP3 ADD MSTORE PUSH1 0x24 SWAP1 REVERT JUMPDEST MLOAD SWAP1 DUP2 ISZERO ISZERO DUP3 SUB PUSH2 0x121 JUMPI JUMP JUMPDEST PUSH1 0x0 NOT DUP2 EQ PUSH2 0x665 JUMPI PUSH1 0x1 ADD SWAP1 JUMP JUMPDEST PUSH1 0x4 DUP3 LT ISZERO PUSH2 0x4B7 JUMPI MSTORE JUMP JUMPDEST PUSH1 0x0 DUP1 MLOAD PUSH1 0x20 PUSH2 0x1BD0 DUP4 CODECOPY DUP2 MLOAD SWAP2 MSTORE PUSH1 0x2 DUP2 SLOAD EQ PUSH2 0x1A48 JUMPI PUSH1 0x2 SWAP1 SSTORE JUMP JUMPDEST PUSH1 0x40 MLOAD PUSH4 0x3EE5AEB5 PUSH1 0xE0 SHL DUP2 MSTORE PUSH1 0x4 SWAP1 REVERT JUMPDEST ISZERO PUSH2 0x1A61 JUMPI JUMP JUMPDEST PUSH1 0x40 MLOAD PUSH3 0x461BCD PUSH1 0xE5 SHL DUP2 MSTORE PUSH1 0x20 PUSH1 0x4 DUP3 ADD MSTORE PUSH1 0xF PUSH1 0x24 DUP3 ADD MSTORE PUSH15 0x105C995B98481B9BDD08199BDD5B99 PUSH1 0x8A SHL PUSH1 0x44 DUP3 ADD MSTORE PUSH1 0x64 SWAP1 REVERT JUMPDEST ISZERO PUSH2 0x1A9F JUMPI JUMP JUMPDEST PUSH1 0x40 MLOAD PUSH3 0x461BCD PUSH1 0xE5 SHL DUP2 MSTORE PUSH1 0x20 PUSH1 0x4 DUP3 ADD MSTORE PUSH1 0xE PUSH1 0x24 DUP3 ADD MSTORE PUSH14 0x20B932B730903737BA1037B832B7 PUSH1 0x91 SHL PUSH1 0x44 DUP3 ADD MSTORE PUSH1 0x64 SWAP1 REVERT JUMPDEST DUP2 PUSH1 0x1F DUP3 ADD SLT ISZERO PUSH2 0x121 JUMPI DUP1 MLOAD PUSH2 0x1AEB DUP2 PUSH2 0x1973 JUMP JUMPDEST SWAP3 PUSH2 0x1AF9 PUSH1 0x40 MLOAD SWAP5 DUP6 PUSH2 0x18AB JUMP JUMPDEST DUP2 DUP5 MSTORE PUSH1 0x20 DUP3 DUP5 ADD ADD GT PUSH2 0x121 JUMPI PUSH2 0x1B17 SWAP2 PUSH1 0x20 DUP1 DUP6 ADD SWAP2 ADD PUSH2 0x170D JUMP JUMPDEST SWAP1 JUMP JUMPDEST ISZERO PUSH2 0x1B21 JUMPI JUMP JUMPDEST PUSH1 0x40 MLOAD PUSH3 0x461BCD PUSH1 0xE5 SHL DUP2 MSTORE PUSH1 0x20 PUSH1 0x4 DUP3 ADD MSTORE PUSH1 0xD PUSH1 0x24 DUP3 ADD MSTORE PUSH13 0x1499599D5B990819985A5B1959 PUSH1 0x9A SHL PUSH1 0x44 DUP3 ADD MSTORE PUSH1 0x64 SWAP1 REVERT JUMPDEST PUSH1 0x40 MLOAD SWAP1 PUSH2 0x1B63 DUP3 PUSH2 0x1872 JUMP JUMPDEST DUP2 PUSH2 0x120 PUSH1 0x0 SWAP2 DUP3 DUP2 MSTORE DUP3 PUSH1 0x20 DUP3 ADD MSTORE PUSH1 0x60 PUSH1 0x40 DUP3 ADD MSTORE PUSH1 0x60 DUP1 DUP3 ADD MSTORE DUP3 PUSH1 0x80 DUP3 ADD MSTORE DUP3 PUSH1 0xA0 DUP3 ADD MSTORE DUP3 PUSH1 0xC0 DUP3 ADD MSTORE DUP3 PUSH1 0xE0 DUP3 ADD MSTORE DUP3 PUSH2 0x100 DUP3 ADD MSTORE ADD MSTORE JUMP JUMPDEST PUSH8 0xFFFFFFFFFFFFFFFF DUP2 GT PUSH2 0x58E JUMPI PUSH1 0x5 SHL PUSH1 0x20 ADD SWAP1 JUMP JUMPDEST DUP1 MLOAD DUP3 LT ISZERO PUSH2 0x1822 JUMPI PUSH1 0x20 SWAP2 PUSH1 0x5 SHL ADD ADD SWAP1 JUMP INVALID SWAP12 PUSH24 0x9B17422D0DF92223018B32B4D1FA46E071723D6817E2486D STOP EXTCODESIZE 0xEC 0xC5 PUSH0 STOP LOG2 PUSH5 0x6970667358 0x22 SLT KECCAK256 PUSH20 0x38C5E0455E97AEFD42BA3C4911B45A79DC7EB0CC MOD 0xC5 0x5C 0xBA INVALID SAR 0xAA 0xB2 0xB0 0xEB SDIV PUSH5 0x736F6C6343 STOP ADDMOD EQ STOP CALLER "},"methodIdentifiers":{"ARENA_FEE_PREMIUM()":"6b841aa4","agentHasBid(uint256,uint256)":"c39e551d","arenaBids(uint256,uint256)":"4a2327dd","arenaCount()":"74b06938","arenas(uint256)":"84f4319c","cancelArena(uint256)":"5ed38ca1","createArena(string,string,uint256,uint256)":"f26e2e6f","getArena(uint256)":"1a8425b4","getArenaBidCount(uint256)":"f7b7e6e0","getArenaBids(uint256)":"dfc23bc6","getOpenArenas()":"95fe2b8e","hlusd()":"e1f0cadb","owner()":"8da5cb5b","registry()":"7b103999","renounceOwnership()":"715018a6","selectWinner(uint256,uint256)":"e6fa0209","submitBid(uint256,uint256,uint256)":"416f222a","taskLedger()":"9c0912fe","transferOwnership(address)":"f2fde38b","vault()":"fbfa77cf"}}}}}