{"contracts/AgentVault.sol":{"AgentVault":{"abi":[{"inputs":[{"internalType":"address","name":"_hlusd","type":"address"},{"internalType":"address","name":"_treasury","type":"address"}],"stateMutability":"nonpayable","type":"constructor"},{"inputs":[{"internalType":"address","name":"owner","type":"address"}],"name":"OwnableInvalidOwner","type":"error"},{"inputs":[{"internalType":"address","name":"account","type":"address"}],"name":"OwnableUnauthorizedAccount","type":"error"},{"inputs":[],"name":"ReentrancyGuardReentrantCall","type":"error"},{"anonymous":false,"inputs":[{"indexed":true,"internalType":"uint256","name":"agentId","type":"uint256"},{"indexed":false,"internalType":"uint256","name":"amount","type":"uint256"},{"indexed":true,"internalType":"address","name":"user","type":"address"}],"name":"AgentSlashed","type":"event"},{"anonymous":false,"inputs":[{"indexed":true,"internalType":"uint256","name":"agentId","type":"uint256"},{"indexed":false,"internalType":"uint256","name":"amount","type":"uint256"}],"name":"EarningsWithdrawn","type":"event"},{"anonymous":false,"inputs":[{"indexed":true,"internalType":"address","name":"previousOwner","type":"address"},{"indexed":true,"internalType":"address","name":"newOwner","type":"address"}],"name":"OwnershipTransferred","type":"event"},{"anonymous":false,"inputs":[{"indexed":true,"internalType":"uint256","name":"taskId","type":"uint256"},{"indexed":true,"internalType":"uint256","name":"agentId","type":"uint256"},{"indexed":false,"internalType":"uint256","name":"amount","type":"uint256"}],"name":"PaymentReleased","type":"event"},{"anonymous":false,"inputs":[{"indexed":true,"internalType":"uint256","name":"agentId","type":"uint256"},{"indexed":false,"internalType":"uint256","name":"amount","type":"uint256"}],"name":"StakeDeposited","type":"event"},{"anonymous":false,"inputs":[{"indexed":true,"internalType":"uint256","name":"agentId","type":"uint256"},{"indexed":false,"internalType":"uint256","name":"amount","type":"uint256"}],"name":"StakeWithdrawn","type":"event"},{"anonymous":false,"inputs":[{"indexed":true,"internalType":"uint256","name":"taskId","type":"uint256"},{"indexed":true,"internalType":"uint256","name":"agentId","type":"uint256"},{"indexed":false,"internalType":"uint256","name":"amount","type":"uint256"},{"indexed":false,"internalType":"address","name":"user","type":"address"}],"name":"TaskPaid","type":"event"},{"anonymous":false,"inputs":[{"indexed":true,"internalType":"address","name":"to","type":"address"},{"indexed":false,"internalType":"uint256","name":"amount","type":"uint256"}],"name":"TreasuryWithdrawn","type":"event"},{"anonymous":false,"inputs":[{"indexed":true,"internalType":"uint256","name":"taskId","type":"uint256"},{"indexed":true,"internalType":"address","name":"user","type":"address"},{"indexed":false,"internalType":"uint256","name":"amount","type":"uint256"}],"name":"UserRefunded","type":"event"},{"inputs":[],"name":"AGENT_SHARE","outputs":[{"internalType":"uint256","name":"","type":"uint256"}],"stateMutability":"view","type":"function"},{"inputs":[],"name":"ARENA_PREMIUM","outputs":[{"internalType":"uint256","name":"","type":"uint256"}],"stateMutability":"view","type":"function"},{"inputs":[],"name":"BURN_ADDRESS","outputs":[{"internalType":"address","name":"","type":"address"}],"stateMutability":"view","type":"function"},{"inputs":[],"name":"PROTOCOL_FEE","outputs":[{"internalType":"uint256","name":"","type":"uint256"}],"stateMutability":"view","type":"function"},{"inputs":[],"name":"REPUTATION_POOL_FEE","outputs":[{"internalType":"uint256","name":"","type":"uint256"}],"stateMutability":"view","type":"function"},{"inputs":[],"name":"SLASH_BURN","outputs":[{"internalType":"uint256","name":"","type":"uint256"}],"stateMutability":"view","type":"function"},{"inputs":[],"name":"SLASH_TO_TREASURY","outputs":[{"internalType":"uint256","name":"","type":"uint256"}],"stateMutability":"view","type":"function"},{"inputs":[],"name":"SLASH_TO_USER","outputs":[{"internalType":"uint256","name":"","type":"uint256"}],"stateMutability":"view","type":"function"},{"inputs":[{"internalType":"uint256","name":"","type":"uint256"}],"name":"agentEarnings","outputs":[{"internalType":"uint256","name":"","type":"uint256"}],"stateMutability":"view","type":"function"},{"inputs":[{"internalType":"uint256","name":"","type":"uint256"}],"name":"agentStakes","outputs":[{"internalType":"uint256","name":"","type":"uint256"}],"stateMutability":"view","type":"function"},{"inputs":[{"internalType":"address","name":"","type":"address"}],"name":"authorized","outputs":[{"internalType":"bool","name":"","type":"bool"}],"stateMutability":"view","type":"function"},{"inputs":[{"internalType":"uint256","name":"_agentId","type":"uint256"},{"internalType":"uint256","name":"_amount","type":"uint256"}],"name":"depositStake","outputs":[],"stateMutability":"nonpayable","type":"function"},{"inputs":[],"name":"hlusd","outputs":[{"internalType":"contract IERC20","name":"","type":"address"}],"stateMutability":"view","type":"function"},{"inputs":[{"internalType":"uint256","name":"_agentId","type":"uint256"},{"internalType":"uint256","name":"_amount","type":"uint256"}],"name":"initStake","outputs":[],"stateMutability":"nonpayable","type":"function"},{"inputs":[],"name":"owner","outputs":[{"internalType":"address","name":"","type":"address"}],"stateMutability":"view","type":"function"},{"inputs":[{"internalType":"uint256","name":"_agentId","type":"uint256"},{"internalType":"uint256","name":"_taskId","type":"uint256"},{"internalType":"uint256","name":"_amount","type":"uint256"},{"internalType":"address","name":"_user","type":"address"},{"internalType":"bool","name":"_isArena","type":"bool"}],"name":"payForTask","outputs":[],"stateMutability":"nonpayable","type":"function"},{"inputs":[{"internalType":"uint256","name":"_taskId","type":"uint256"},{"internalType":"address","name":"_user","type":"address"}],"name":"refundUser","outputs":[],"stateMutability":"nonpayable","type":"function"},{"inputs":[{"internalType":"uint256","name":"_taskId","type":"uint256"},{"internalType":"uint256","name":"_agentId","type":"uint256"}],"name":"releasePayment","outputs":[],"stateMutability":"nonpayable","type":"function"},{"inputs":[],"name":"renounceOwnership","outputs":[],"stateMutability":"nonpayable","type":"function"},{"inputs":[],"name":"reputationPool","outputs":[{"internalType":"uint256","name":"","type":"uint256"}],"stateMutability":"view","type":"function"},{"inputs":[{"internalType":"address","name":"_contract","type":"address"},{"internalType":"bool","name":"_status","type":"bool"}],"name":"setAuthorized","outputs":[],"stateMutability":"nonpayable","type":"function"},{"inputs":[{"internalType":"uint256","name":"_agentId","type":"uint256"},{"internalType":"uint256","name":"_taskId","type":"uint256"},{"internalType":"address","name":"_user","type":"address"}],"name":"slashAgent","outputs":[],"stateMutability":"nonpayable","type":"function"},{"inputs":[{"internalType":"uint256","name":"","type":"uint256"}],"name":"taskAgentId","outputs":[{"internalType":"uint256","name":"","type":"uint256"}],"stateMutability":"view","type":"function"},{"inputs":[{"internalType":"uint256","name":"","type":"uint256"}],"name":"taskEscrow","outputs":[{"internalType":"uint256","name":"","type":"uint256"}],"stateMutability":"view","type":"function"},{"inputs":[{"internalType":"uint256","name":"","type":"uint256"}],"name":"taskPayer","outputs":[{"internalType":"address","name":"","type":"address"}],"stateMutability":"view","type":"function"},{"inputs":[{"internalType":"address","name":"newOwner","type":"address"}],"name":"transferOwnership","outputs":[],"stateMutability":"nonpayable","type":"function"},{"inputs":[],"name":"treasury","outputs":[{"internalType":"address","name":"","type":"address"}],"stateMutability":"view","type":"function"},{"inputs":[],"name":"treasuryBalance","outputs":[{"internalType":"uint256","name":"","type":"uint256"}],"stateMutability":"view","type":"function"},{"inputs":[{"internalType":"uint256","name":"_agentId","type":"uint256"}],"name":"withdrawAgentEarnings","outputs":[],"stateMutability":"nonpayable","type":"function"},{"inputs":[{"internalType":"uint256","name":"_agentId","type":"uint256"},{"internalType":"uint256","name":"_amount","type":"uint256"}],"name":"withdrawStake","outputs":[],"stateMutability":"nonpayable","type":"function"},{"inputs":[{"internalType":"address","name":"_to","type":"address"},{"internalType":"uint256","name":"_amount","type":"uint256"}],"name":"withdrawTreasury","outputs":[],"stateMutability":"nonpayable","type":"function"}],"evm":{"bytecode":{"linkReferences":{},"object":"60803461010657601f61154738819003918201601f19168301916001600160401b0383118484101761010b57808492604094855283398101031261010657610052602061004b83610121565b9201610121565b33156100ed5760008054336001600160a01b0319808316821784556040519590946001600160a01b03949093859391908416907f8be0079c531659141344cd1fd0a4f28419497f9722a3daafe3b4186f6b6457e09080a360017f9b779b17422d0df92223018b32b4d1fa46e071723d6817e2486d003becc55f0055168360015416176001551690600254161760025561141190816101368239f35b604051631e4fbdf760e01b815260006004820152602490fd5b600080fd5b634e487b7160e01b600052604160045260246000fd5b51906001600160a01b03821682036101065756fe6040608081526004908136101561001557600080fd5b600091823560e01c90816302016fd614610f9f5781630b4501fd146106615781630d86419a14610e645781632cebff6314610e3c578163313dab2014610e1d57816331efab6814610e01578163360c07c814610de55781633e50a5d714610db25781634864901b14610d935781634a13c7a114610d775781634c56386514610d4f57816351a9259b14610be157816361d027b314610bb8578163711bf9b214610b66578163715018a614610b0957816372d638cc14610aac5781637ec59eef146109ab578163879319291461098f5781638a4f1b0b146109675781638da5cb5b1461093f57816397e99a80146107f457816398041c6814610710578163b9181611146106d2578163cda08dd5146106ab578163e1f0cadb14610682578163e4c6906614610666578163ef5e094814610661578163f018558114610371578163f1fdf46914610222578163f2fde38b14610197575063fccc28131461017857600080fd5b346101935781600319360112610193576020905161dead8152f35b5080fd5b90503461021e57602036600319011261021e576101b2611195565b906101bb6111e2565b6001600160a01b0391821692831561020857505082546001600160a01b0319811683178455167f8be0079c531659141344cd1fd0a4f28419497f9722a3daafe3b4186f6b6457e08380a380f35b51631e4fbdf760e01b8152908101849052602490fd5b8280fd5b90503461021e57610232366111cc565b61023d9291926112dc565b828552602091600383528185872054106103395782826102a8928689526003835287892061026c838254611370565b9055600154885163a9059cbb60e01b8152339281019283526020830193909352919384926001600160a01b03169183918b918391604090910190565b03925af190811561032f577f3db0ca701d7c1106534c6003e5d65dae65a9cb891ad5bbb9be39c091df79d87e9495916102e8918891610302575b5061137d565b51908152a260016000805160206113bc8339815191525580f35b6103229150853d8711610328575b61031a818361128c565b8101906112c4565b386102e2565b503d610310565b85513d88823e3d90fd5b845162461bcd60e51b81529081018390526012602482015271496e73756666696369656e74207374616b6560701b6044820152606490fd5b90503461021e57606036600319011261021e576044356001600160a01b03818116938335939285810361065d57338752602093600a855260ff83892054168015610651575b6103bf9061120e565b6103c76112dc565b858852600385528288205491821561061a57601483029283046014036106075760648093049460468602908615928783046046148417156105f45760148802908882046014148517156105e157600a890294898604600a1417156105e15789868e610483938e8252600384528c6104428d8420918254611370565b90556001548c5163a9059cbb60e01b8082526001600160a01b03909316948101948552988c9004602085015290979485939188169284929091839160400190565b03925af19081156105d7578d916105ba575b50156105785788928c8795936104b1876044950460085461134d565b6008556001541689519687958694855261dead8a8601520460248401525af190811561056e578991610551575b5015610523575050519081527f0997641e2c667750bb85b1e74856eec6c0aacac2757967e285c4c2a64d0deb809190a360016000805160206113bc8339815191525580f35b825162461bcd60e51b8152908101859052600b60248201526a109d5c9b8819985a5b195960aa1b6044820152fd5b6105689150863d88116103285761031a818361128c565b386104de565b84513d8b823e3d90fd5b865162461bcd60e51b81528086018a9052601860248201527f5573657220636f6d70656e736174696f6e206661696c6564000000000000000060448201528690fd5b6105d191508a3d8c116103285761031a818361128c565b38610495565b88513d8f823e3d90fd5b634e487b7160e01b8d526011865260248dfd5b634e487b7160e01b8c526011855260248cfd5b634e487b7160e01b895260118252602489fd5b835162461bcd60e51b8152808301879052601160248201527009cde40e6e8c2d6ca40e8de40e6d8c2e6d607b1b6044820152606490fd5b508754841633146103b6565b8680fd5b6111b0565b5050346101935781600319360112610193576020905160058152f35b50503461019357816003193601126101935760015490516001600160a01b039091168152602090f35b90503461021e57602036600319011261021e57602092818392358252845220549051908152f35b5050346101935760203660031901126101935760209160ff9082906001600160a01b036106fd611195565b168152600a855220541690519015158152f35b90503461021e576020806003193601126107f05781359161072f6112dc565b828552808252838520549081156107bf57838652808352848620869055600154855163a9059cbb60e01b8152339281019283526020830184905291849183918290036040019082908a906001600160a01b03165af190811561032f577fd85af0deee5bae14c727b36baaaffda8555003264c3f2f4371b561788a44e2c69495916102e8918891610302575061137d565b845162461bcd60e51b8152908101839052600b60248201526a4e6f206561726e696e677360a81b6044820152606490fd5b8380fd5b9190503461021e57610805366111cc565b929091338552600a60205260ff8186205416801561092c575b6108279061120e565b61082f6112dc565b82855260056020528085205491821590610849821561130c565b6055840284810460551483171561091957600a850291858304600a148417156109065760058602938685046005141715610906577f3c70b1e8034b5738ec77fbfdaa4d28906a0b3160018d67a2dc7b534e53e33fe095936108d1606487956108dd956108c6838f9b8f9c829960209e82528e52209204825461134d565b90550460085461134d565b6008550460095461134d565b60095584875260058352868181205551908152a360016000805160206113bc8339815191525580f35b634e487b7160e01b895260119052602488fd5b634e487b7160e01b885260118252602488fd5b5084546001600160a01b0316331461081e565b505034610193578160031936011261019357905490516001600160a01b039091168152602090f35b90503461021e57602036600319011261021e5760209282913581526007845220549051908152f35b5050346101935781600319360112610193576020905160468152f35b9190503461021e57602090610a196109c2366111cc565b809491956109ce6112dc565b6109d982151561124b565b60015485516323b872dd60e01b8152339281019283523060208401526040830193909352919384926001600160a01b03169183918a918391606090910190565b03925af1908115610aa25791610a5a7fccb52a6d64de372476805d81d080c6f8d4d1bc9a7461111b98cb52502296359894926020948891610a8b575061137d565b84865260038352808620610a6f83825461134d565b905551908152a260016000805160206113bc8339815191525580f35b6103229150853d81116103285761031a818361128c565b82513d87823e3d90fd5b50503461019357610af1610abf366111cc565b9290338552600a60205260ff82862054168015610af6575b610ae09061120e565b84526003602052832091825461134d565b905580f35b5084546001600160a01b03163314610ad7565b8334610b635780600319360112610b6357610b226111e2565b80546001600160a01b03198116825581906001600160a01b03167f8be0079c531659141344cd1fd0a4f28419497f9722a3daafe3b4186f6b6457e08280a380f35b80fd5b505034610193578060031936011261019357610b80611195565b90602435918215158093036107f057610b976111e2565b60018060a01b03168352600a60205282209060ff8019835416911617905580f35b50503461019357816003193601126101935760025490516001600160a01b039091168152602090f35b9190503461021e578060031936011261021e576001600160a01b03602435818116938035939085830361065d57338752610c9560208095600a825260ff858b2054168015610d43575b610c339061120e565b610c3b6112dc565b878a5260058252848a2054958691610c5483151561130c565b898c52600584528b8781205560015416908b875180968195829463a9059cbb60e01b84528a840160209093929193604081019460018060a01b031681520152565b03925af1908115610d39578891610d1c575b5015610ceb5750519081527fcb528fcde812ac8afd931070257cc24789e622614ede1ffd81c7a38beacf3f7b9190a360016000805160206113bc8339815191525580f35b83606492519162461bcd60e51b8352820152600d60248201526c1499599d5b990819985a5b1959609a1b6044820152fd5b610d339150853d87116103285761031a818361128c565b38610ca7565b83513d8a823e3d90fd5b50895481163314610c2a565b90503461021e57602036600319011261021e5760209282913581526005845220549051908152f35b5050346101935781600319360112610193576020905160558152f35b5050346101935781600319360112610193576020906009549051908152f35b90503461021e57602036600319011261021e5735825260066020908152918190205490516001600160a01b039091168152f35b5050346101935781600319360112610193576020905160028152f35b5050346101935781600319360112610193576020905160148152f35b5050346101935781600319360112610193576020906008549051908152f35b90503461021e57602036600319011261021e5760209282913581526003845220549051908152f35b90503461021e578160031936011261021e57610e7e611195565b60243592610e8a6111e2565b610e926112dc565b600854808511610f645784610ea691611370565b600855600154815163a9059cbb60e01b81526001600160a01b038481169582019586526020868101889052909591929091839187169082908a90829060400103925af1908115610f5a5791610f27602094927f41fdd680478135993bc53fb2ffaf9560951b57ef62ff6badd02b61e018b4f17f96948991610f43575061137d565b519485521692a260016000805160206113bc8339815191525580f35b6103229150863d81116103285761031a818361128c565b82513d88823e3d90fd5b815162461bcd60e51b81526020818601526015602482015274496e73756666696369656e7420747265617375727960581b6044820152606490fd5b90503461021e5760a036600319011261021e5780359160243591604435906001600160a01b036064358181169290838103611191576084358015150361119157338952602092600a845260ff878b2054168015611185575b6110009061120e565b6110086112dc565b61101386151561124b565b878a5260058452868a205461114e5760015487516323b872dd60e01b81526001600160a01b039093168484019081523060208201526040810188905285928492169082908d90829060600103925af1908115611144578991611127575b50156110e65750848752600581528387208390556006815283872080546001600160a01b031916831790556007815283872086905583519283528201527fc44d83b836942aa10cbca463ef0796f2e43adf7e30b63f0cb3b2a739e220c7939190a360016000805160206113bc8339815191525580f35b60649185519162461bcd60e51b8352820152601760248201527f5061796d656e74207472616e73666572206661696c65640000000000000000006044820152fd5b61113e9150833d85116103285761031a818361128c565b38611070565b86513d8b823e3d90fd5b865162461bcd60e51b8152808401859052601160248201527015185cdac8185b1c9958591e481c185a59607a1b6044820152606490fd5b50895481163314610ff7565b8880fd5b600435906001600160a01b03821682036111ab57565b600080fd5b346111ab5760003660031901126111ab576020604051600a8152f35b60409060031901126111ab576004359060243590565b6000546001600160a01b031633036111f657565b60405163118cdaa760e01b8152336004820152602490fd5b1561121557565b60405162461bcd60e51b815260206004820152600e60248201526d139bdd08185d5d1a1bdc9a5e995960921b6044820152606490fd5b1561125257565b60405162461bcd60e51b81526020600482015260126024820152710416d6f756e74206d757374206265203e20360741b6044820152606490fd5b90601f8019910116810190811067ffffffffffffffff8211176112ae57604052565b634e487b7160e01b600052604160045260246000fd5b908160209103126111ab575180151581036111ab5790565b6000805160206113bc83398151915260028154146112fa5760029055565b604051633ee5aeb560e01b8152600490fd5b1561131357565b60405162461bcd60e51b8152602060048201526012602482015271139bc8195cd8dc9bddd95908185b5bdd5b9d60721b6044820152606490fd5b9190820180921161135a57565b634e487b7160e01b600052601160045260246000fd5b9190820391821161135a57565b1561138457565b60405162461bcd60e51b815260206004820152600f60248201526e151c985b9cd9995c8819985a5b1959608a1b6044820152606490fdfe9b779b17422d0df92223018b32b4d1fa46e071723d6817e2486d003becc55f00a2646970667358221220adca7778c5747a2f13dfd485710a9886895bb20de83db12f64f62f06bf97e68d64736f6c63430008140033","opcodes":"PUSH1 0x80 CALLVALUE PUSH2 0x106 JUMPI PUSH1 0x1F PUSH2 0x1547 CODESIZE DUP2 SWAP1 SUB SWAP2 DUP3 ADD PUSH1 0x1F NOT AND DUP4 ADD SWAP2 PUSH1 0x1 PUSH1 0x1 PUSH1 0x40 SHL SUB DUP4 GT DUP5 DUP5 LT OR PUSH2 0x10B JUMPI DUP1 DUP5 SWAP3 PUSH1 0x40 SWAP5 DUP6 MSTORE DUP4 CODECOPY DUP2 ADD SUB SLT PUSH2 0x106 JUMPI PUSH2 0x52 PUSH1 0x20 PUSH2 0x4B DUP4 PUSH2 0x121 JUMP JUMPDEST SWAP3 ADD PUSH2 0x121 JUMP JUMPDEST CALLER ISZERO PUSH2 0xED JUMPI PUSH1 0x0 DUP1 SLOAD CALLER PUSH1 0x1 PUSH1 0x1 PUSH1 0xA0 SHL SUB NOT DUP1 DUP4 AND DUP3 OR DUP5 SSTORE PUSH1 0x40 MLOAD SWAP6 SWAP1 SWAP5 PUSH1 0x1 PUSH1 0x1 PUSH1 0xA0 SHL SUB SWAP5 SWAP1 SWAP4 DUP6 SWAP4 SWAP2 SWAP1 DUP5 AND SWAP1 PUSH32 0x8BE0079C531659141344CD1FD0A4F28419497F9722A3DAAFE3B4186F6B6457E0 SWAP1 DUP1 LOG3 PUSH1 0x1 PUSH32 0x9B779B17422D0DF92223018B32B4D1FA46E071723D6817E2486D003BECC55F00 SSTORE AND DUP4 PUSH1 0x1 SLOAD AND OR PUSH1 0x1 SSTORE AND SWAP1 PUSH1 0x2 SLOAD AND OR PUSH1 0x2 SSTORE PUSH2 0x1411 SWAP1 DUP2 PUSH2 0x136 DUP3 CODECOPY RETURN JUMPDEST PUSH1 0x40 MLOAD PUSH4 0x1E4FBDF7 PUSH1 0xE0 SHL DUP2 MSTORE PUSH1 0x0 PUSH1 0x4 DUP3 ADD MSTORE PUSH1 0x24 SWAP1 REVERT JUMPDEST PUSH1 0x0 DUP1 REVERT JUMPDEST PUSH4 0x4E487B71 PUSH1 0xE0 SHL PUSH1 0x0 MSTORE PUSH1 0x41 PUSH1 0x4 MSTORE PUSH1 0x24 PUSH1 0x0 REVERT JUMPDEST MLOAD SWAP1 PUSH1 0x1 PUSH1 0x1 PUSH1 0xA0 SHL SUB DUP3 AND DUP3 SUB PUSH2 0x106 JUMPI JUMP INVALID PUSH1 0x40 PUSH1 0x80 DUP2 MSTORE PUSH1 0x4 SWAP1 DUP2 CALLDATASIZE LT ISZERO PUSH2 0x15 JUMPI PUSH1 0x0 DUP1 REVERT JUMPDEST PUSH1 0x0 SWAP2 DUP3 CALLDATALOAD PUSH1 0xE0 SHR SWAP1 DUP2 PUSH4 0x2016FD6 EQ PUSH2 0xF9F JUMPI DUP2 PUSH4 0xB4501FD EQ PUSH2 0x661 JUMPI DUP2 PUSH4 0xD86419A EQ PUSH2 0xE64 JUMPI DUP2 PUSH4 0x2CEBFF63 EQ PUSH2 0xE3C JUMPI DUP2 PUSH4 0x313DAB20 EQ PUSH2 0xE1D JUMPI DUP2 PUSH4 0x31EFAB68 EQ PUSH2 0xE01 JUMPI DUP2 PUSH4 0x360C07C8 EQ PUSH2 0xDE5 JUMPI DUP2 PUSH4 0x3E50A5D7 EQ PUSH2 0xDB2 JUMPI DUP2 PUSH4 0x4864901B EQ PUSH2 0xD93 JUMPI DUP2 PUSH4 0x4A13C7A1 EQ PUSH2 0xD77 JUMPI DUP2 PUSH4 0x4C563865 EQ PUSH2 0xD4F JUMPI DUP2 PUSH4 0x51A9259B EQ PUSH2 0xBE1 JUMPI DUP2 PUSH4 0x61D027B3 EQ PUSH2 0xBB8 JUMPI DUP2 PUSH4 0x711BF9B2 EQ PUSH2 0xB66 JUMPI DUP2 PUSH4 0x715018A6 EQ PUSH2 0xB09 JUMPI DUP2 PUSH4 0x72D638CC EQ PUSH2 0xAAC JUMPI DUP2 PUSH4 0x7EC59EEF EQ PUSH2 0x9AB JUMPI DUP2 PUSH4 0x87931929 EQ PUSH2 0x98F JUMPI DUP2 PUSH4 0x8A4F1B0B EQ PUSH2 0x967 JUMPI DUP2 PUSH4 0x8DA5CB5B EQ PUSH2 0x93F JUMPI DUP2 PUSH4 0x97E99A80 EQ PUSH2 0x7F4 JUMPI DUP2 PUSH4 0x98041C68 EQ PUSH2 0x710 JUMPI DUP2 PUSH4 0xB9181611 EQ PUSH2 0x6D2 JUMPI DUP2 PUSH4 0xCDA08DD5 EQ PUSH2 0x6AB JUMPI DUP2 PUSH4 0xE1F0CADB EQ PUSH2 0x682 JUMPI DUP2 PUSH4 0xE4C69066 EQ PUSH2 0x666 JUMPI DUP2 PUSH4 0xEF5E0948 EQ PUSH2 0x661 JUMPI DUP2 PUSH4 0xF0185581 EQ PUSH2 0x371 JUMPI DUP2 PUSH4 0xF1FDF469 EQ PUSH2 0x222 JUMPI DUP2 PUSH4 0xF2FDE38B EQ PUSH2 0x197 JUMPI POP PUSH4 0xFCCC2813 EQ PUSH2 0x178 JUMPI PUSH1 0x0 DUP1 REVERT JUMPDEST CALLVALUE PUSH2 0x193 JUMPI DUP2 PUSH1 0x3 NOT CALLDATASIZE ADD SLT PUSH2 0x193 JUMPI PUSH1 0x20 SWAP1 MLOAD PUSH2 0xDEAD DUP2 MSTORE RETURN JUMPDEST POP DUP1 REVERT JUMPDEST SWAP1 POP CALLVALUE PUSH2 0x21E JUMPI PUSH1 0x20 CALLDATASIZE PUSH1 0x3 NOT ADD SLT PUSH2 0x21E JUMPI PUSH2 0x1B2 PUSH2 0x1195 JUMP JUMPDEST SWAP1 PUSH2 0x1BB PUSH2 0x11E2 JUMP JUMPDEST PUSH1 0x1 PUSH1 0x1 PUSH1 0xA0 SHL SUB SWAP2 DUP3 AND SWAP3 DUP4 ISZERO PUSH2 0x208 JUMPI POP POP DUP3 SLOAD PUSH1 0x1 PUSH1 0x1 PUSH1 0xA0 SHL SUB NOT DUP2 AND DUP4 OR DUP5 SSTORE AND PUSH32 0x8BE0079C531659141344CD1FD0A4F28419497F9722A3DAAFE3B4186F6B6457E0 DUP4 DUP1 LOG3 DUP1 RETURN JUMPDEST MLOAD PUSH4 0x1E4FBDF7 PUSH1 0xE0 SHL DUP2 MSTORE SWAP1 DUP2 ADD DUP5 SWAP1 MSTORE PUSH1 0x24 SWAP1 REVERT JUMPDEST DUP3 DUP1 REVERT JUMPDEST SWAP1 POP CALLVALUE PUSH2 0x21E JUMPI PUSH2 0x232 CALLDATASIZE PUSH2 0x11CC JUMP JUMPDEST PUSH2 0x23D SWAP3 SWAP2 SWAP3 PUSH2 0x12DC JUMP JUMPDEST DUP3 DUP6 MSTORE PUSH1 0x20 SWAP2 PUSH1 0x3 DUP4 MSTORE DUP2 DUP6 DUP8 KECCAK256 SLOAD LT PUSH2 0x339 JUMPI DUP3 DUP3 PUSH2 0x2A8 SWAP3 DUP7 DUP10 MSTORE PUSH1 0x3 DUP4 MSTORE DUP8 DUP10 KECCAK256 PUSH2 0x26C DUP4 DUP3 SLOAD PUSH2 0x1370 JUMP JUMPDEST SWAP1 SSTORE PUSH1 0x1 SLOAD DUP9 MLOAD PUSH4 0xA9059CBB PUSH1 0xE0 SHL DUP2 MSTORE CALLER SWAP3 DUP2 ADD SWAP3 DUP4 MSTORE PUSH1 0x20 DUP4 ADD SWAP4 SWAP1 SWAP4 MSTORE SWAP2 SWAP4 DUP5 SWAP3 PUSH1 0x1 PUSH1 0x1 PUSH1 0xA0 SHL SUB AND SWAP2 DUP4 SWAP2 DUP12 SWAP2 DUP4 SWAP2 PUSH1 0x40 SWAP1 SWAP2 ADD SWAP1 JUMP JUMPDEST SUB SWAP3 GAS CALL SWAP1 DUP2 ISZERO PUSH2 0x32F JUMPI PUSH32 0x3DB0CA701D7C1106534C6003E5D65DAE65A9CB891AD5BBB9BE39C091DF79D87E SWAP5 SWAP6 SWAP2 PUSH2 0x2E8 SWAP2 DUP9 SWAP2 PUSH2 0x302 JUMPI JUMPDEST POP PUSH2 0x137D JUMP JUMPDEST MLOAD SWAP1 DUP2 MSTORE LOG2 PUSH1 0x1 PUSH1 0x0 DUP1 MLOAD PUSH1 0x20 PUSH2 0x13BC DUP4 CODECOPY DUP2 MLOAD SWAP2 MSTORE SSTORE DUP1 RETURN JUMPDEST PUSH2 0x322 SWAP2 POP DUP6 RETURNDATASIZE DUP8 GT PUSH2 0x328 JUMPI JUMPDEST PUSH2 0x31A DUP2 DUP4 PUSH2 0x128C JUMP JUMPDEST DUP2 ADD SWAP1 PUSH2 0x12C4 JUMP JUMPDEST CODESIZE PUSH2 0x2E2 JUMP JUMPDEST POP RETURNDATASIZE PUSH2 0x310 JUMP JUMPDEST DUP6 MLOAD RETURNDATASIZE DUP9 DUP3 RETURNDATACOPY RETURNDATASIZE SWAP1 REVERT JUMPDEST DUP5 MLOAD PUSH3 0x461BCD PUSH1 0xE5 SHL DUP2 MSTORE SWAP1 DUP2 ADD DUP4 SWAP1 MSTORE PUSH1 0x12 PUSH1 0x24 DUP3 ADD MSTORE PUSH18 0x496E73756666696369656E74207374616B65 PUSH1 0x70 SHL PUSH1 0x44 DUP3 ADD MSTORE PUSH1 0x64 SWAP1 REVERT JUMPDEST SWAP1 POP CALLVALUE PUSH2 0x21E JUMPI PUSH1 0x60 CALLDATASIZE PUSH1 0x3 NOT ADD SLT PUSH2 0x21E JUMPI PUSH1 0x44 CALLDATALOAD PUSH1 0x1 PUSH1 0x1 PUSH1 0xA0 SHL SUB DUP2 DUP2 AND SWAP4 DUP4 CALLDATALOAD SWAP4 SWAP3 DUP6 DUP2 SUB PUSH2 0x65D JUMPI CALLER DUP8 MSTORE PUSH1 0x20 SWAP4 PUSH1 0xA DUP6 MSTORE PUSH1 0xFF DUP4 DUP10 KECCAK256 SLOAD AND DUP1 ISZERO PUSH2 0x651 JUMPI JUMPDEST PUSH2 0x3BF SWAP1 PUSH2 0x120E JUMP JUMPDEST PUSH2 0x3C7 PUSH2 0x12DC JUMP JUMPDEST DUP6 DUP9 MSTORE PUSH1 0x3 DUP6 MSTORE DUP3 DUP9 KECCAK256 SLOAD SWAP2 DUP3 ISZERO PUSH2 0x61A JUMPI PUSH1 0x14 DUP4 MUL SWAP3 DUP4 DIV PUSH1 0x14 SUB PUSH2 0x607 JUMPI PUSH1 0x64 DUP1 SWAP4 DIV SWAP5 PUSH1 0x46 DUP7 MUL SWAP1 DUP7 ISZERO SWAP3 DUP8 DUP4 DIV PUSH1 0x46 EQ DUP5 OR ISZERO PUSH2 0x5F4 JUMPI PUSH1 0x14 DUP9 MUL SWAP1 DUP9 DUP3 DIV PUSH1 0x14 EQ DUP6 OR ISZERO PUSH2 0x5E1 JUMPI PUSH1 0xA DUP10 MUL SWAP5 DUP10 DUP7 DIV PUSH1 0xA EQ OR ISZERO PUSH2 0x5E1 JUMPI DUP10 DUP7 DUP15 PUSH2 0x483 SWAP4 DUP15 DUP3 MSTORE PUSH1 0x3 DUP5 MSTORE DUP13 PUSH2 0x442 DUP14 DUP5 KECCAK256 SWAP2 DUP3 SLOAD PUSH2 0x1370 JUMP JUMPDEST SWAP1 SSTORE PUSH1 0x1 SLOAD DUP13 MLOAD PUSH4 0xA9059CBB PUSH1 0xE0 SHL DUP1 DUP3 MSTORE PUSH1 0x1 PUSH1 0x1 PUSH1 0xA0 SHL SUB SWAP1 SWAP4 AND SWAP5 DUP2 ADD SWAP5 DUP6 MSTORE SWAP9 DUP13 SWAP1 DIV PUSH1 0x20 DUP6 ADD MSTORE SWAP1 SWAP8 SWAP5 DUP6 SWAP4 SWAP2 DUP9 AND SWAP3 DUP5 SWAP3 SWAP1 SWAP2 DUP4 SWAP2 PUSH1 0x40 ADD SWAP1 JUMP JUMPDEST SUB SWAP3 GAS CALL SWAP1 DUP2 ISZERO PUSH2 0x5D7 JUMPI DUP14 SWAP2 PUSH2 0x5BA JUMPI JUMPDEST POP ISZERO PUSH2 0x578 JUMPI DUP9 SWAP3 DUP13 DUP8 SWAP6 SWAP4 PUSH2 0x4B1 DUP8 PUSH1 0x44 SWAP6 DIV PUSH1 0x8 SLOAD PUSH2 0x134D JUMP JUMPDEST PUSH1 0x8 SSTORE PUSH1 0x1 SLOAD AND DUP10 MLOAD SWAP7 DUP8 SWAP6 DUP7 SWAP5 DUP6 MSTORE PUSH2 0xDEAD DUP11 DUP7 ADD MSTORE DIV PUSH1 0x24 DUP5 ADD MSTORE GAS CALL SWAP1 DUP2 ISZERO PUSH2 0x56E JUMPI DUP10 SWAP2 PUSH2 0x551 JUMPI JUMPDEST POP ISZERO PUSH2 0x523 JUMPI POP POP MLOAD SWAP1 DUP2 MSTORE PUSH32 0x997641E2C667750BB85B1E74856EEC6C0AACAC2757967E285C4C2A64D0DEB80 SWAP2 SWAP1 LOG3 PUSH1 0x1 PUSH1 0x0 DUP1 MLOAD PUSH1 0x20 PUSH2 0x13BC DUP4 CODECOPY DUP2 MLOAD SWAP2 MSTORE SSTORE DUP1 RETURN JUMPDEST DUP3 MLOAD PUSH3 0x461BCD PUSH1 0xE5 SHL DUP2 MSTORE SWAP1 DUP2 ADD DUP6 SWAP1 MSTORE PUSH1 0xB PUSH1 0x24 DUP3 ADD MSTORE PUSH11 0x109D5C9B8819985A5B1959 PUSH1 0xAA SHL PUSH1 0x44 DUP3 ADD MSTORE REVERT JUMPDEST PUSH2 0x568 SWAP2 POP DUP7 RETURNDATASIZE DUP9 GT PUSH2 0x328 JUMPI PUSH2 0x31A DUP2 DUP4 PUSH2 0x128C JUMP JUMPDEST CODESIZE PUSH2 0x4DE JUMP JUMPDEST DUP5 MLOAD RETURNDATASIZE DUP12 DUP3 RETURNDATACOPY RETURNDATASIZE SWAP1 REVERT JUMPDEST DUP7 MLOAD PUSH3 0x461BCD PUSH1 0xE5 SHL DUP2 MSTORE DUP1 DUP7 ADD DUP11 SWAP1 MSTORE PUSH1 0x18 PUSH1 0x24 DUP3 ADD MSTORE PUSH32 0x5573657220636F6D70656E736174696F6E206661696C65640000000000000000 PUSH1 0x44 DUP3 ADD MSTORE DUP7 SWAP1 REVERT JUMPDEST PUSH2 0x5D1 SWAP2 POP DUP11 RETURNDATASIZE DUP13 GT PUSH2 0x328 JUMPI PUSH2 0x31A DUP2 DUP4 PUSH2 0x128C JUMP JUMPDEST CODESIZE PUSH2 0x495 JUMP JUMPDEST DUP9 MLOAD RETURNDATASIZE DUP16 DUP3 RETURNDATACOPY RETURNDATASIZE SWAP1 REVERT JUMPDEST PUSH4 0x4E487B71 PUSH1 0xE0 SHL DUP14 MSTORE PUSH1 0x11 DUP7 MSTORE PUSH1 0x24 DUP14 REVERT JUMPDEST PUSH4 0x4E487B71 PUSH1 0xE0 SHL DUP13 MSTORE PUSH1 0x11 DUP6 MSTORE PUSH1 0x24 DUP13 REVERT JUMPDEST PUSH4 0x4E487B71 PUSH1 0xE0 SHL DUP10 MSTORE PUSH1 0x11 DUP3 MSTORE PUSH1 0x24 DUP10 REVERT JUMPDEST DUP4 MLOAD PUSH3 0x461BCD PUSH1 0xE5 SHL DUP2 MSTORE DUP1 DUP4 ADD DUP8 SWAP1 MSTORE PUSH1 0x11 PUSH1 0x24 DUP3 ADD MSTORE PUSH17 0x9CDE40E6E8C2D6CA40E8DE40E6D8C2E6D PUSH1 0x7B SHL PUSH1 0x44 DUP3 ADD MSTORE PUSH1 0x64 SWAP1 REVERT JUMPDEST POP DUP8 SLOAD DUP5 AND CALLER EQ PUSH2 0x3B6 JUMP JUMPDEST DUP7 DUP1 REVERT JUMPDEST PUSH2 0x11B0 JUMP JUMPDEST POP POP CALLVALUE PUSH2 0x193 JUMPI DUP2 PUSH1 0x3 NOT CALLDATASIZE ADD SLT PUSH2 0x193 JUMPI PUSH1 0x20 SWAP1 MLOAD PUSH1 0x5 DUP2 MSTORE RETURN JUMPDEST POP POP CALLVALUE PUSH2 0x193 JUMPI DUP2 PUSH1 0x3 NOT CALLDATASIZE ADD SLT PUSH2 0x193 JUMPI PUSH1 0x1 SLOAD SWAP1 MLOAD PUSH1 0x1 PUSH1 0x1 PUSH1 0xA0 SHL SUB SWAP1 SWAP2 AND DUP2 MSTORE PUSH1 0x20 SWAP1 RETURN JUMPDEST SWAP1 POP CALLVALUE PUSH2 0x21E JUMPI PUSH1 0x20 CALLDATASIZE PUSH1 0x3 NOT ADD SLT PUSH2 0x21E JUMPI PUSH1 0x20 SWAP3 DUP2 DUP4 SWAP3 CALLDATALOAD DUP3 MSTORE DUP5 MSTORE KECCAK256 SLOAD SWAP1 MLOAD SWAP1 DUP2 MSTORE RETURN JUMPDEST POP POP CALLVALUE PUSH2 0x193 JUMPI PUSH1 0x20 CALLDATASIZE PUSH1 0x3 NOT ADD SLT PUSH2 0x193 JUMPI PUSH1 0x20 SWAP2 PUSH1 0xFF SWAP1 DUP3 SWAP1 PUSH1 0x1 PUSH1 0x1 PUSH1 0xA0 SHL SUB PUSH2 0x6FD PUSH2 0x1195 JUMP JUMPDEST AND DUP2 MSTORE PUSH1 0xA DUP6 MSTORE KECCAK256 SLOAD AND SWAP1 MLOAD SWAP1 ISZERO ISZERO DUP2 MSTORE RETURN JUMPDEST SWAP1 POP CALLVALUE PUSH2 0x21E JUMPI PUSH1 0x20 DUP1 PUSH1 0x3 NOT CALLDATASIZE ADD SLT PUSH2 0x7F0 JUMPI DUP2 CALLDATALOAD SWAP2 PUSH2 0x72F PUSH2 0x12DC JUMP JUMPDEST DUP3 DUP6 MSTORE DUP1 DUP3 MSTORE DUP4 DUP6 KECCAK256 SLOAD SWAP1 DUP2 ISZERO PUSH2 0x7BF JUMPI DUP4 DUP7 MSTORE DUP1 DUP4 MSTORE DUP5 DUP7 KECCAK256 DUP7 SWAP1 SSTORE PUSH1 0x1 SLOAD DUP6 MLOAD PUSH4 0xA9059CBB PUSH1 0xE0 SHL DUP2 MSTORE CALLER SWAP3 DUP2 ADD SWAP3 DUP4 MSTORE PUSH1 0x20 DUP4 ADD DUP5 SWAP1 MSTORE SWAP2 DUP5 SWAP2 DUP4 SWAP2 DUP3 SWAP1 SUB PUSH1 0x40 ADD SWAP1 DUP3 SWAP1 DUP11 SWAP1 PUSH1 0x1 PUSH1 0x1 PUSH1 0xA0 SHL SUB AND GAS CALL SWAP1 DUP2 ISZERO PUSH2 0x32F JUMPI PUSH32 0xD85AF0DEEE5BAE14C727B36BAAAFFDA8555003264C3F2F4371B561788A44E2C6 SWAP5 SWAP6 SWAP2 PUSH2 0x2E8 SWAP2 DUP9 SWAP2 PUSH2 0x302 JUMPI POP PUSH2 0x137D JUMP JUMPDEST DUP5 MLOAD PUSH3 0x461BCD PUSH1 0xE5 SHL DUP2 MSTORE SWAP1 DUP2 ADD DUP4 SWAP1 MSTORE PUSH1 0xB PUSH1 0x24 DUP3 ADD MSTORE PUSH11 0x4E6F206561726E696E6773 PUSH1 0xA8 SHL PUSH1 0x44 DUP3 ADD MSTORE PUSH1 0x64 SWAP1 REVERT JUMPDEST DUP4 DUP1 REVERT JUMPDEST SWAP2 SWAP1 POP CALLVALUE PUSH2 0x21E JUMPI PUSH2 0x805 CALLDATASIZE PUSH2 0x11CC JUMP JUMPDEST SWAP3 SWAP1 SWAP2 CALLER DUP6 MSTORE PUSH1 0xA PUSH1 0x20 MSTORE PUSH1 0xFF DUP2 DUP7 KECCAK256 SLOAD AND DUP1 ISZERO PUSH2 0x92C JUMPI JUMPDEST PUSH2 0x827 SWAP1 PUSH2 0x120E JUMP JUMPDEST PUSH2 0x82F PUSH2 0x12DC JUMP JUMPDEST DUP3 DUP6 MSTORE PUSH1 0x5 PUSH1 0x20 MSTORE DUP1 DUP6 KECCAK256 SLOAD SWAP2 DUP3 ISZERO SWAP1 PUSH2 0x849 DUP3 ISZERO PUSH2 0x130C JUMP JUMPDEST PUSH1 0x55 DUP5 MUL DUP5 DUP2 DIV PUSH1 0x55 EQ DUP4 OR ISZERO PUSH2 0x919 JUMPI PUSH1 0xA DUP6 MUL SWAP2 DUP6 DUP4 DIV PUSH1 0xA EQ DUP5 OR ISZERO PUSH2 0x906 JUMPI PUSH1 0x5 DUP7 MUL SWAP4 DUP7 DUP6 DIV PUSH1 0x5 EQ OR ISZERO PUSH2 0x906 JUMPI PUSH32 0x3C70B1E8034B5738EC77FBFDAA4D28906A0B3160018D67A2DC7B534E53E33FE0 SWAP6 SWAP4 PUSH2 0x8D1 PUSH1 0x64 DUP8 SWAP6 PUSH2 0x8DD SWAP6 PUSH2 0x8C6 DUP4 DUP16 SWAP12 DUP16 SWAP13 DUP3 SWAP10 PUSH1 0x20 SWAP15 DUP3 MSTORE DUP15 MSTORE KECCAK256 SWAP3 DIV DUP3 SLOAD PUSH2 0x134D JUMP JUMPDEST SWAP1 SSTORE DIV PUSH1 0x8 SLOAD PUSH2 0x134D JUMP JUMPDEST PUSH1 0x8 SSTORE DIV PUSH1 0x9 SLOAD PUSH2 0x134D JUMP JUMPDEST PUSH1 0x9 SSTORE DUP5 DUP8 MSTORE PUSH1 0x5 DUP4 MSTORE DUP7 DUP2 DUP2 KECCAK256 SSTORE MLOAD SWAP1 DUP2 MSTORE LOG3 PUSH1 0x1 PUSH1 0x0 DUP1 MLOAD PUSH1 0x20 PUSH2 0x13BC DUP4 CODECOPY DUP2 MLOAD SWAP2 MSTORE SSTORE DUP1 RETURN JUMPDEST PUSH4 0x4E487B71 PUSH1 0xE0 SHL DUP10 MSTORE PUSH1 0x11 SWAP1 MSTORE PUSH1 0x24 DUP9 REVERT JUMPDEST PUSH4 0x4E487B71 PUSH1 0xE0 SHL DUP9 MSTORE PUSH1 0x11 DUP3 MSTORE PUSH1 0x24 DUP9 REVERT JUMPDEST POP DUP5 SLOAD PUSH1 0x1 PUSH1 0x1 PUSH1 0xA0 SHL SUB AND CALLER EQ PUSH2 0x81E JUMP JUMPDEST POP POP CALLVALUE PUSH2 0x193 JUMPI DUP2 PUSH1 0x3 NOT CALLDATASIZE ADD SLT PUSH2 0x193 JUMPI SWAP1 SLOAD SWAP1 MLOAD PUSH1 0x1 PUSH1 0x1 PUSH1 0xA0 SHL SUB SWAP1 SWAP2 AND DUP2 MSTORE PUSH1 0x20 SWAP1 RETURN JUMPDEST SWAP1 POP CALLVALUE PUSH2 0x21E JUMPI PUSH1 0x20 CALLDATASIZE PUSH1 0x3 NOT ADD SLT PUSH2 0x21E JUMPI PUSH1 0x20 SWAP3 DUP3 SWAP2 CALLDATALOAD DUP2 MSTORE PUSH1 0x7 DUP5 MSTORE KECCAK256 SLOAD SWAP1 MLOAD SWAP1 DUP2 MSTORE RETURN JUMPDEST POP POP CALLVALUE PUSH2 0x193 JUMPI DUP2 PUSH1 0x3 NOT CALLDATASIZE ADD SLT PUSH2 0x193 JUMPI PUSH1 0x20 SWAP1 MLOAD PUSH1 0x46 DUP2 MSTORE RETURN JUMPDEST SWAP2 SWAP1 POP CALLVALUE PUSH2 0x21E JUMPI PUSH1 0x20 SWAP1 PUSH2 0xA19 PUSH2 0x9C2 CALLDATASIZE PUSH2 0x11CC JUMP JUMPDEST DUP1 SWAP5 SWAP2 SWAP6 PUSH2 0x9CE PUSH2 0x12DC JUMP JUMPDEST PUSH2 0x9D9 DUP3 ISZERO ISZERO PUSH2 0x124B JUMP JUMPDEST PUSH1 0x1 SLOAD DUP6 MLOAD PUSH4 0x23B872DD PUSH1 0xE0 SHL DUP2 MSTORE CALLER SWAP3 DUP2 ADD SWAP3 DUP4 MSTORE ADDRESS PUSH1 0x20 DUP5 ADD MSTORE PUSH1 0x40 DUP4 ADD SWAP4 SWAP1 SWAP4 MSTORE SWAP2 SWAP4 DUP5 SWAP3 PUSH1 0x1 PUSH1 0x1 PUSH1 0xA0 SHL SUB AND SWAP2 DUP4 SWAP2 DUP11 SWAP2 DUP4 SWAP2 PUSH1 0x60 SWAP1 SWAP2 ADD SWAP1 JUMP JUMPDEST SUB SWAP3 GAS CALL SWAP1 DUP2 ISZERO PUSH2 0xAA2 JUMPI SWAP2 PUSH2 0xA5A PUSH32 0xCCB52A6D64DE372476805D81D080C6F8D4D1BC9A7461111B98CB525022963598 SWAP5 SWAP3 PUSH1 0x20 SWAP5 DUP9 SWAP2 PUSH2 0xA8B JUMPI POP PUSH2 0x137D JUMP JUMPDEST DUP5 DUP7 MSTORE PUSH1 0x3 DUP4 MSTORE DUP1 DUP7 KECCAK256 PUSH2 0xA6F DUP4 DUP3 SLOAD PUSH2 0x134D JUMP JUMPDEST SWAP1 SSTORE MLOAD SWAP1 DUP2 MSTORE LOG2 PUSH1 0x1 PUSH1 0x0 DUP1 MLOAD PUSH1 0x20 PUSH2 0x13BC DUP4 CODECOPY DUP2 MLOAD SWAP2 MSTORE SSTORE DUP1 RETURN JUMPDEST PUSH2 0x322 SWAP2 POP DUP6 RETURNDATASIZE DUP2 GT PUSH2 0x328 JUMPI PUSH2 0x31A DUP2 DUP4 PUSH2 0x128C JUMP JUMPDEST DUP3 MLOAD RETURNDATASIZE DUP8 DUP3 RETURNDATACOPY RETURNDATASIZE SWAP1 REVERT JUMPDEST POP POP CALLVALUE PUSH2 0x193 JUMPI PUSH2 0xAF1 PUSH2 0xABF CALLDATASIZE PUSH2 0x11CC JUMP JUMPDEST SWAP3 SWAP1 CALLER DUP6 MSTORE PUSH1 0xA PUSH1 0x20 MSTORE PUSH1 0xFF DUP3 DUP7 KECCAK256 SLOAD AND DUP1 ISZERO PUSH2 0xAF6 JUMPI JUMPDEST PUSH2 0xAE0 SWAP1 PUSH2 0x120E JUMP JUMPDEST DUP5 MSTORE PUSH1 0x3 PUSH1 0x20 MSTORE DUP4 KECCAK256 SWAP2 DUP3 SLOAD PUSH2 0x134D JUMP JUMPDEST SWAP1 SSTORE DUP1 RETURN JUMPDEST POP DUP5 SLOAD PUSH1 0x1 PUSH1 0x1 PUSH1 0xA0 SHL SUB AND CALLER EQ PUSH2 0xAD7 JUMP JUMPDEST DUP4 CALLVALUE PUSH2 0xB63 JUMPI DUP1 PUSH1 0x3 NOT CALLDATASIZE ADD SLT PUSH2 0xB63 JUMPI PUSH2 0xB22 PUSH2 0x11E2 JUMP JUMPDEST DUP1 SLOAD PUSH1 0x1 PUSH1 0x1 PUSH1 0xA0 SHL SUB NOT DUP2 AND DUP3 SSTORE DUP2 SWAP1 PUSH1 0x1 PUSH1 0x1 PUSH1 0xA0 SHL SUB AND PUSH32 0x8BE0079C531659141344CD1FD0A4F28419497F9722A3DAAFE3B4186F6B6457E0 DUP3 DUP1 LOG3 DUP1 RETURN JUMPDEST DUP1 REVERT JUMPDEST POP POP CALLVALUE PUSH2 0x193 JUMPI DUP1 PUSH1 0x3 NOT CALLDATASIZE ADD SLT PUSH2 0x193 JUMPI PUSH2 0xB80 PUSH2 0x1195 JUMP JUMPDEST SWAP1 PUSH1 0x24 CALLDATALOAD SWAP2 DUP3 ISZERO ISZERO DUP1 SWAP4 SUB PUSH2 0x7F0 JUMPI PUSH2 0xB97 PUSH2 0x11E2 JUMP JUMPDEST PUSH1 0x1 DUP1 PUSH1 0xA0 SHL SUB AND DUP4 MSTORE PUSH1 0xA PUSH1 0x20 MSTORE DUP3 KECCAK256 SWAP1 PUSH1 0xFF DUP1 NOT DUP4 SLOAD AND SWAP2 AND OR SWAP1 SSTORE DUP1 RETURN JUMPDEST POP POP CALLVALUE PUSH2 0x193 JUMPI DUP2 PUSH1 0x3 NOT CALLDATASIZE ADD SLT PUSH2 0x193 JUMPI PUSH1 0x2 SLOAD SWAP1 MLOAD PUSH1 0x1 PUSH1 0x1 PUSH1 0xA0 SHL SUB SWAP1 SWAP2 AND DUP2 MSTORE PUSH1 0x20 SWAP1 RETURN JUMPDEST SWAP2 SWAP1 POP CALLVALUE PUSH2 0x21E JUMPI DUP1 PUSH1 0x3 NOT CALLDATASIZE ADD SLT PUSH2 0x21E JUMPI PUSH1 0x1 PUSH1 0x1 PUSH1 0xA0 SHL SUB PUSH1 0x24 CALLDATALOAD DUP2 DUP2 AND SWAP4 DUP1 CALLDATALOAD SWAP4 SWAP1 DUP6 DUP4 SUB PUSH2 0x65D JUMPI CALLER DUP8 MSTORE PUSH2 0xC95 PUSH1 0x20 DUP1 SWAP6 PUSH1 0xA DUP3 MSTORE PUSH1 0xFF DUP6 DUP12 KECCAK256 SLOAD AND DUP1 ISZERO PUSH2 0xD43 JUMPI JUMPDEST PUSH2 0xC33 SWAP1 PUSH2 0x120E JUMP JUMPDEST PUSH2 0xC3B PUSH2 0x12DC JUMP JUMPDEST DUP8 DUP11 MSTORE PUSH1 0x5 DUP3 MSTORE DUP5 DUP11 KECCAK256 SLOAD SWAP6 DUP7 SWAP2 PUSH2 0xC54 DUP4 ISZERO ISZERO PUSH2 0x130C JUMP JUMPDEST DUP10 DUP13 MSTORE PUSH1 0x5 DUP5 MSTORE DUP12 DUP8 DUP2 KECCAK256 SSTORE PUSH1 0x1 SLOAD AND SWAP1 DUP12 DUP8 MLOAD DUP1 SWAP7 DUP2 SWAP6 DUP3 SWAP5 PUSH4 0xA9059CBB PUSH1 0xE0 SHL DUP5 MSTORE DUP11 DUP5 ADD PUSH1 0x20 SWAP1 SWAP4 SWAP3 SWAP2 SWAP4 PUSH1 0x40 DUP2 ADD SWAP5 PUSH1 0x1 DUP1 PUSH1 0xA0 SHL SUB AND DUP2 MSTORE ADD MSTORE JUMP JUMPDEST SUB SWAP3 GAS CALL SWAP1 DUP2 ISZERO PUSH2 0xD39 JUMPI DUP9 SWAP2 PUSH2 0xD1C JUMPI JUMPDEST POP ISZERO PUSH2 0xCEB JUMPI POP MLOAD SWAP1 DUP2 MSTORE PUSH32 0xCB528FCDE812AC8AFD931070257CC24789E622614EDE1FFD81C7A38BEACF3F7B SWAP2 SWAP1 LOG3 PUSH1 0x1 PUSH1 0x0 DUP1 MLOAD PUSH1 0x20 PUSH2 0x13BC DUP4 CODECOPY DUP2 MLOAD SWAP2 MSTORE SSTORE DUP1 RETURN JUMPDEST DUP4 PUSH1 0x64 SWAP3 MLOAD SWAP2 PUSH3 0x461BCD PUSH1 0xE5 SHL DUP4 MSTORE DUP3 ADD MSTORE PUSH1 0xD PUSH1 0x24 DUP3 ADD MSTORE PUSH13 0x1499599D5B990819985A5B1959 PUSH1 0x9A SHL PUSH1 0x44 DUP3 ADD MSTORE REVERT JUMPDEST PUSH2 0xD33 SWAP2 POP DUP6 RETURNDATASIZE DUP8 GT PUSH2 0x328 JUMPI PUSH2 0x31A DUP2 DUP4 PUSH2 0x128C JUMP JUMPDEST CODESIZE PUSH2 0xCA7 JUMP JUMPDEST DUP4 MLOAD RETURNDATASIZE DUP11 DUP3 RETURNDATACOPY RETURNDATASIZE SWAP1 REVERT JUMPDEST POP DUP10 SLOAD DUP2 AND CALLER EQ PUSH2 0xC2A JUMP JUMPDEST SWAP1 POP CALLVALUE PUSH2 0x21E JUMPI PUSH1 0x20 CALLDATASIZE PUSH1 0x3 NOT ADD SLT PUSH2 0x21E JUMPI PUSH1 0x20 SWAP3 DUP3 SWAP2 CALLDATALOAD DUP2 MSTORE PUSH1 0x5 DUP5 MSTORE KECCAK256 SLOAD SWAP1 MLOAD SWAP1 DUP2 MSTORE RETURN JUMPDEST POP POP CALLVALUE PUSH2 0x193 JUMPI DUP2 PUSH1 0x3 NOT CALLDATASIZE ADD SLT PUSH2 0x193 JUMPI PUSH1 0x20 SWAP1 MLOAD PUSH1 0x55 DUP2 MSTORE RETURN JUMPDEST POP POP CALLVALUE PUSH2 0x193 JUMPI DUP2 PUSH1 0x3 NOT CALLDATASIZE ADD SLT PUSH2 0x193 JUMPI PUSH1 0x20 SWAP1 PUSH1 0x9 SLOAD SWAP1 MLOAD SWAP1 DUP2 MSTORE RETURN JUMPDEST SWAP1 POP CALLVALUE PUSH2 0x21E JUMPI PUSH1 0x20 CALLDATASIZE PUSH1 0x3 NOT ADD SLT PUSH2 0x21E JUMPI CALLDATALOAD DUP3 MSTORE PUSH1 0x6 PUSH1 0x20 SWAP1 DUP2 MSTORE SWAP2 DUP2 SWAP1 KECCAK256 SLOAD SWAP1 MLOAD PUSH1 0x1 PUSH1 0x1 PUSH1 0xA0 SHL SUB SWAP1 SWAP2 AND DUP2 MSTORE RETURN JUMPDEST POP POP CALLVALUE PUSH2 0x193 JUMPI DUP2 PUSH1 0x3 NOT CALLDATASIZE ADD SLT PUSH2 0x193 JUMPI PUSH1 0x20 SWAP1 MLOAD PUSH1 0x2 DUP2 MSTORE RETURN JUMPDEST POP POP CALLVALUE PUSH2 0x193 JUMPI DUP2 PUSH1 0x3 NOT CALLDATASIZE ADD SLT PUSH2 0x193 JUMPI PUSH1 0x20 SWAP1 MLOAD PUSH1 0x14 DUP2 MSTORE RETURN JUMPDEST POP POP CALLVALUE PUSH2 0x193 JUMPI DUP2 PUSH1 0x3 NOT CALLDATASIZE ADD SLT PUSH2 0x193 JUMPI PUSH1 0x20 SWAP1 PUSH1 0x8 SLOAD SWAP1 MLOAD SWAP1 DUP2 MSTORE RETURN JUMPDEST SWAP1 POP CALLVALUE PUSH2 0x21E JUMPI PUSH1 0x20 CALLDATASIZE PUSH1 0x3 NOT ADD SLT PUSH2 0x21E JUMPI PUSH1 0x20 SWAP3 DUP3 SWAP2 CALLDATALOAD DUP2 MSTORE PUSH1 0x3 DUP5 MSTORE KECCAK256 SLOAD SWAP1 MLOAD SWAP1 DUP2 MSTORE RETURN JUMPDEST SWAP1 POP CALLVALUE PUSH2 0x21E JUMPI DUP2 PUSH1 0x3 NOT CALLDATASIZE ADD SLT PUSH2 0x21E JUMPI PUSH2 0xE7E PUSH2 0x1195 JUMP JUMPDEST PUSH1 0x24 CALLDATALOAD SWAP3 PUSH2 0xE8A PUSH2 0x11E2 JUMP JUMPDEST PUSH2 0xE92 PUSH2 0x12DC JUMP JUMPDEST PUSH1 0x8 SLOAD DUP1 DUP6 GT PUSH2 0xF64 JUMPI DUP5 PUSH2 0xEA6 SWAP2 PUSH2 0x1370 JUMP JUMPDEST PUSH1 0x8 SSTORE PUSH1 0x1 SLOAD DUP2 MLOAD PUSH4 0xA9059CBB PUSH1 0xE0 SHL DUP2 MSTORE PUSH1 0x1 PUSH1 0x1 PUSH1 0xA0 SHL SUB DUP5 DUP2 AND SWAP6 DUP3 ADD SWAP6 DUP7 MSTORE PUSH1 0x20 DUP7 DUP2 ADD DUP9 SWAP1 MSTORE SWAP1 SWAP6 SWAP2 SWAP3 SWAP1 SWAP2 DUP4 SWAP2 DUP8 AND SWAP1 DUP3 SWAP1 DUP11 SWAP1 DUP3 SWAP1 PUSH1 0x40 ADD SUB SWAP3 GAS CALL SWAP1 DUP2 ISZERO PUSH2 0xF5A JUMPI SWAP2 PUSH2 0xF27 PUSH1 0x20 SWAP5 SWAP3 PUSH32 0x41FDD680478135993BC53FB2FFAF9560951B57EF62FF6BADD02B61E018B4F17F SWAP7 SWAP5 DUP10 SWAP2 PUSH2 0xF43 JUMPI POP PUSH2 0x137D JUMP JUMPDEST MLOAD SWAP5 DUP6 MSTORE AND SWAP3 LOG2 PUSH1 0x1 PUSH1 0x0 DUP1 MLOAD PUSH1 0x20 PUSH2 0x13BC DUP4 CODECOPY DUP2 MLOAD SWAP2 MSTORE SSTORE DUP1 RETURN JUMPDEST PUSH2 0x322 SWAP2 POP DUP7 RETURNDATASIZE DUP2 GT PUSH2 0x328 JUMPI PUSH2 0x31A DUP2 DUP4 PUSH2 0x128C JUMP JUMPDEST DUP3 MLOAD RETURNDATASIZE DUP9 DUP3 RETURNDATACOPY RETURNDATASIZE SWAP1 REVERT JUMPDEST DUP2 MLOAD PUSH3 0x461BCD PUSH1 0xE5 SHL DUP2 MSTORE PUSH1 0x20 DUP2 DUP7 ADD MSTORE PUSH1 0x15 PUSH1 0x24 DUP3 ADD MSTORE PUSH21 0x496E73756666696369656E74207472656173757279 PUSH1 0x58 SHL PUSH1 0x44 DUP3 ADD MSTORE PUSH1 0x64 SWAP1 REVERT JUMPDEST SWAP1 POP CALLVALUE PUSH2 0x21E JUMPI PUSH1 0xA0 CALLDATASIZE PUSH1 0x3 NOT ADD SLT PUSH2 0x21E JUMPI DUP1 CALLDATALOAD SWAP2 PUSH1 0x24 CALLDATALOAD SWAP2 PUSH1 0x44 CALLDATALOAD SWAP1 PUSH1 0x1 PUSH1 0x1 PUSH1 0xA0 SHL SUB PUSH1 0x64 CALLDATALOAD DUP2 DUP2 AND SWAP3 SWAP1 DUP4 DUP2 SUB PUSH2 0x1191 JUMPI PUSH1 0x84 CALLDATALOAD DUP1 ISZERO ISZERO SUB PUSH2 0x1191 JUMPI CALLER DUP10 MSTORE PUSH1 0x20 SWAP3 PUSH1 0xA DUP5 MSTORE PUSH1 0xFF DUP8 DUP12 KECCAK256 SLOAD AND DUP1 ISZERO PUSH2 0x1185 JUMPI JUMPDEST PUSH2 0x1000 SWAP1 PUSH2 0x120E JUMP JUMPDEST PUSH2 0x1008 PUSH2 0x12DC JUMP JUMPDEST PUSH2 0x1013 DUP7 ISZERO ISZERO PUSH2 0x124B JUMP JUMPDEST DUP8 DUP11 MSTORE PUSH1 0x5 DUP5 MSTORE DUP7 DUP11 KECCAK256 SLOAD PUSH2 0x114E JUMPI PUSH1 0x1 SLOAD DUP8 MLOAD PUSH4 0x23B872DD PUSH1 0xE0 SHL DUP2 MSTORE PUSH1 0x1 PUSH1 0x1 PUSH1 0xA0 SHL SUB SWAP1 SWAP4 AND DUP5 DUP5 ADD SWAP1 DUP2 MSTORE ADDRESS PUSH1 0x20 DUP3 ADD MSTORE PUSH1 0x40 DUP2 ADD DUP9 SWAP1 MSTORE DUP6 SWAP3 DUP5 SWAP3 AND SWAP1 DUP3 SWAP1 DUP14 SWAP1 DUP3 SWAP1 PUSH1 0x60 ADD SUB SWAP3 GAS CALL SWAP1 DUP2 ISZERO PUSH2 0x1144 JUMPI DUP10 SWAP2 PUSH2 0x1127 JUMPI JUMPDEST POP ISZERO PUSH2 0x10E6 JUMPI POP DUP5 DUP8 MSTORE PUSH1 0x5 DUP2 MSTORE DUP4 DUP8 KECCAK256 DUP4 SWAP1 SSTORE PUSH1 0x6 DUP2 MSTORE DUP4 DUP8 KECCAK256 DUP1 SLOAD PUSH1 0x1 PUSH1 0x1 PUSH1 0xA0 SHL SUB NOT AND DUP4 OR SWAP1 SSTORE PUSH1 0x7 DUP2 MSTORE DUP4 DUP8 KECCAK256 DUP7 SWAP1 SSTORE DUP4 MLOAD SWAP3 DUP4 MSTORE DUP3 ADD MSTORE PUSH32 0xC44D83B836942AA10CBCA463EF0796F2E43ADF7E30B63F0CB3B2A739E220C793 SWAP2 SWAP1 LOG3 PUSH1 0x1 PUSH1 0x0 DUP1 MLOAD PUSH1 0x20 PUSH2 0x13BC DUP4 CODECOPY DUP2 MLOAD SWAP2 MSTORE SSTORE DUP1 RETURN JUMPDEST PUSH1 0x64 SWAP2 DUP6 MLOAD SWAP2 PUSH3 0x461BCD PUSH1 0xE5 SHL DUP4 MSTORE DUP3 ADD MSTORE PUSH1 0x17 PUSH1 0x24 DUP3 ADD MSTORE PUSH32 0x5061796D656E74207472616E73666572206661696C6564000000000000000000 PUSH1 0x44 DUP3 ADD MSTORE REVERT JUMPDEST PUSH2 0x113E SWAP2 POP DUP4 RETURNDATASIZE DUP6 GT PUSH2 0x328 JUMPI PUSH2 0x31A DUP2 DUP4 PUSH2 0x128C JUMP JUMPDEST CODESIZE PUSH2 0x1070 JUMP JUMPDEST DUP7 MLOAD RETURNDATASIZE DUP12 DUP3 RETURNDATACOPY RETURNDATASIZE SWAP1 REVERT JUMPDEST DUP7 MLOAD PUSH3 0x461BCD PUSH1 0xE5 SHL DUP2 MSTORE DUP1 DUP5 ADD DUP6 SWAP1 MSTORE PUSH1 0x11 PUSH1 0x24 DUP3 ADD MSTORE PUSH17 0x15185CDAC8185B1C9958591E481C185A59 PUSH1 0x7A SHL PUSH1 0x44 DUP3 ADD MSTORE PUSH1 0x64 SWAP1 REVERT JUMPDEST POP DUP10 SLOAD DUP2 AND CALLER EQ PUSH2 0xFF7 JUMP JUMPDEST DUP9 DUP1 REVERT JUMPDEST PUSH1 0x4 CALLDATALOAD SWAP1 PUSH1 0x1 PUSH1 0x1 PUSH1 0xA0 SHL SUB DUP3 AND DUP3 SUB PUSH2 0x11AB JUMPI JUMP JUMPDEST PUSH1 0x0 DUP1 REVERT JUMPDEST CALLVALUE PUSH2 0x11AB JUMPI PUSH1 0x0 CALLDATASIZE PUSH1 0x3 NOT ADD SLT PUSH2 0x11AB JUMPI PUSH1 0x20 PUSH1 0x40 MLOAD PUSH1 0xA DUP2 MSTORE RETURN JUMPDEST PUSH1 0x40 SWAP1 PUSH1 0x3 NOT ADD SLT PUSH2 0x11AB JUMPI PUSH1 0x4 CALLDATALOAD SWAP1 PUSH1 0x24 CALLDATALOAD SWAP1 JUMP JUMPDEST PUSH1 0x0 SLOAD PUSH1 0x1 PUSH1 0x1 PUSH1 0xA0 SHL SUB AND CALLER SUB PUSH2 0x11F6 JUMPI JUMP JUMPDEST PUSH1 0x40 MLOAD PUSH4 0x118CDAA7 PUSH1 0xE0 SHL DUP2 MSTORE CALLER PUSH1 0x4 DUP3 ADD MSTORE PUSH1 0x24 SWAP1 REVERT JUMPDEST ISZERO PUSH2 0x1215 JUMPI JUMP JUMPDEST PUSH1 0x40 MLOAD PUSH3 0x461BCD PUSH1 0xE5 SHL DUP2 MSTORE PUSH1 0x20 PUSH1 0x4 DUP3 ADD MSTORE PUSH1 0xE PUSH1 0x24 DUP3 ADD MSTORE PUSH14 0x139BDD08185D5D1A1BDC9A5E9959 PUSH1 0x92 SHL PUSH1 0x44 DUP3 ADD MSTORE PUSH1 0x64 SWAP1 REVERT JUMPDEST ISZERO PUSH2 0x1252 JUMPI JUMP JUMPDEST PUSH1 0x40 MLOAD PUSH3 0x461BCD PUSH1 0xE5 SHL DUP2 MSTORE PUSH1 0x20 PUSH1 0x4 DUP3 ADD MSTORE PUSH1 0x12 PUSH1 0x24 DUP3 ADD MSTORE PUSH18 0x416D6F756E74206D757374206265203E203 PUSH1 0x74 SHL PUSH1 0x44 DUP3 ADD MSTORE PUSH1 0x64 SWAP1 REVERT JUMPDEST SWAP1 PUSH1 0x1F DUP1 NOT SWAP2 ADD AND DUP2 ADD SWAP1 DUP2 LT PUSH8 0xFFFFFFFFFFFFFFFF DUP3 GT OR PUSH2 0x12AE JUMPI PUSH1 0x40 MSTORE JUMP JUMPDEST PUSH4 0x4E487B71 PUSH1 0xE0 SHL PUSH1 0x0 MSTORE PUSH1 0x41 PUSH1 0x4 MSTORE PUSH1 0x24 PUSH1 0x0 REVERT JUMPDEST SWAP1 DUP2 PUSH1 0x20 SWAP2 SUB SLT PUSH2 0x11AB JUMPI MLOAD DUP1 ISZERO ISZERO DUP2 SUB PUSH2 0x11AB JUMPI SWAP1 JUMP JUMPDEST PUSH1 0x0 DUP1 MLOAD PUSH1 0x20 PUSH2 0x13BC DUP4 CODECOPY DUP2 MLOAD SWAP2 MSTORE PUSH1 0x2 DUP2 SLOAD EQ PUSH2 0x12FA JUMPI PUSH1 0x2 SWAP1 SSTORE JUMP JUMPDEST PUSH1 0x40 MLOAD PUSH4 0x3EE5AEB5 PUSH1 0xE0 SHL DUP2 MSTORE PUSH1 0x4 SWAP1 REVERT JUMPDEST ISZERO PUSH2 0x1313 JUMPI JUMP JUMPDEST PUSH1 0x40 MLOAD PUSH3 0x461BCD PUSH1 0xE5 SHL DUP2 MSTORE PUSH1 0x20 PUSH1 0x4 DUP3 ADD MSTORE PUSH1 0x12 PUSH1 0x24 DUP3 ADD MSTORE PUSH18 0x139BC8195CD8DC9BDDD95908185B5BDD5B9D PUSH1 0x72 SHL PUSH1 0x44 DUP3 ADD MSTORE PUSH1 0x64 SWAP1 REVERT JUMPDEST SWAP2 SWAP1 DUP3 ADD DUP1 SWAP3 GT PUSH2 0x135A JUMPI JUMP JUMPDEST PUSH4 0x4E487B71 PUSH1 0xE0 SHL PUSH1 0x0 MSTORE PUSH1 0x11 PUSH1 0x4 MSTORE PUSH1 0x24 PUSH1 0x0 REVERT JUMPDEST SWAP2 SWAP1 DUP3 SUB SWAP2 DUP3 GT PUSH2 0x135A JUMPI JUMP JUMPDEST ISZERO PUSH2 0x1384 JUMPI JUMP JUMPDEST PUSH1 0x40 MLOAD PUSH3 0x461BCD PUSH1 0xE5 SHL DUP2 MSTORE PUSH1 0x20 PUSH1 0x4 DUP3 ADD MSTORE PUSH1 0xF PUSH1 0x24 DUP3 ADD MSTORE PUSH15 0x151C985B9CD9995C8819985A5B1959 PUSH1 0x8A SHL PUSH1 0x44 DUP3 ADD MSTORE PUSH1 0x64 SWAP1 REVERT INVALID SWAP12 PUSH24 0x9B17422D0DF92223018B32B4D1FA46E071723D6817E2486D STOP EXTCODESIZE 0xEC 0xC5 PUSH0 STOP LOG2 PUSH5 0x6970667358 0x22 SLT KECCAK256 0xAD 0xCA PUSH24 0x78C5747A2F13DFD485710A9886895BB20DE83DB12F64F62F MOD 0xBF SWAP8 0xE6 DUP14 PUSH5 0x736F6C6343 STOP ADDMOD EQ STOP CALLER "},"methodIdentifiers":{"AGENT_SHARE()":"4a13c7a1","ARENA_PREMIUM()":"360c07c8","BURN_ADDRESS()":"fccc2813","PROTOCOL_FEE()":"0b4501fd","REPUTATION_POOL_FEE()":"e4c69066","SLASH_BURN()":"ef5e0948","SLASH_TO_TREASURY()":"31efab68","SLASH_TO_USER()":"87931929","agentEarnings(uint256)":"cda08dd5","agentStakes(uint256)":"2cebff63","authorized(address)":"b9181611","depositStake(uint256,uint256)":"7ec59eef","hlusd()":"e1f0cadb","initStake(uint256,uint256)":"72d638cc","owner()":"8da5cb5b","payForTask(uint256,uint256,uint256,address,bool)":"02016fd6","refundUser(uint256,address)":"51a9259b","releasePayment(uint256,uint256)":"97e99a80","renounceOwnership()":"715018a6","reputationPool()":"4864901b","setAuthorized(address,bool)":"711bf9b2","slashAgent(uint256,uint256,address)":"f0185581","taskAgentId(uint256)":"8a4f1b0b","taskEscrow(uint256)":"4c563865","taskPayer(uint256)":"3e50a5d7","transferOwnership(address)":"f2fde38b","treasury()":"61d027b3","treasuryBalance()":"313dab20","withdrawAgentEarnings(uint256)":"98041c68","withdrawStake(uint256,uint256)":"f1fdf469","withdrawTreasury(address,uint256)":"0d86419a"}}}}}