{"contracts/TaskLedger.sol":{"TaskLedger":{"abi":[{"inputs":[{"internalType":"address","name":"_registry","type":"address"},{"internalType":"address","name":"_vault","type":"address"}],"stateMutability":"nonpayable","type":"constructor"},{"inputs":[{"internalType":"address","name":"owner","type":"address"}],"name":"OwnableInvalidOwner","type":"error"},{"inputs":[{"internalType":"address","name":"account","type":"address"}],"name":"OwnableUnauthorizedAccount","type":"error"},{"anonymous":false,"inputs":[{"indexed":true,"internalType":"address","name":"previousOwner","type":"address"},{"indexed":true,"internalType":"address","name":"newOwner","type":"address"}],"name":"OwnershipTransferred","type":"event"},{"anonymous":false,"inputs":[{"indexed":true,"internalType":"uint256","name":"taskId","type":"uint256"},{"indexed":true,"internalType":"uint256","name":"agentId","type":"uint256"},{"indexed":false,"internalType":"bytes32","name":"outputHash","type":"bytes32"}],"name":"TaskCompleted","type":"event"},{"anonymous":false,"inputs":[{"indexed":true,"internalType":"uint256","name":"taskId","type":"uint256"},{"indexed":true,"internalType":"uint256","name":"agentId","type":"uint256"},{"indexed":true,"internalType":"address","name":"user","type":"address"}],"name":"TaskCreated","type":"event"},{"anonymous":false,"inputs":[{"indexed":true,"internalType":"uint256","name":"taskId","type":"uint256"},{"indexed":true,"internalType":"address","name":"user","type":"address"}],"name":"TaskDisputed","type":"event"},{"anonymous":false,"inputs":[{"indexed":true,"internalType":"uint256","name":"taskId","type":"uint256"},{"indexed":true,"internalType":"uint256","name":"agentId","type":"uint256"},{"indexed":false,"internalType":"string","name":"reason","type":"string"}],"name":"TaskFailed","type":"event"},{"inputs":[{"internalType":"uint256","name":"","type":"uint256"},{"internalType":"uint256","name":"","type":"uint256"}],"name":"agentTasks","outputs":[{"internalType":"uint256","name":"","type":"uint256"}],"stateMutability":"view","type":"function"},{"inputs":[{"internalType":"address","name":"","type":"address"}],"name":"authorized","outputs":[{"internalType":"bool","name":"","type":"bool"}],"stateMutability":"view","type":"function"},{"inputs":[{"internalType":"uint256","name":"_taskId","type":"uint256"},{"internalType":"bytes32","name":"_outputHash","type":"bytes32"},{"internalType":"string","name":"_resultSummary","type":"string"}],"name":"completeTask","outputs":[],"stateMutability":"nonpayable","type":"function"},{"inputs":[{"internalType":"uint256","name":"_agentId","type":"uint256"},{"internalType":"address","name":"_user","type":"address"},{"internalType":"string","name":"_taskType","type":"string"},{"internalType":"uint256","name":"_paidAmount","type":"uint256"},{"internalType":"bool","name":"_isArena","type":"bool"},{"internalType":"bytes32","name":"_inputHash","type":"bytes32"}],"name":"createTask","outputs":[{"internalType":"uint256","name":"","type":"uint256"}],"stateMutability":"nonpayable","type":"function"},{"inputs":[{"internalType":"uint256","name":"_taskId","type":"uint256"}],"name":"disputeTask","outputs":[],"stateMutability":"nonpayable","type":"function"},{"inputs":[{"internalType":"uint256","name":"_taskId","type":"uint256"},{"internalType":"string","name":"_reason","type":"string"}],"name":"failTask","outputs":[],"stateMutability":"nonpayable","type":"function"},{"inputs":[{"internalType":"uint256","name":"_agentId","type":"uint256"}],"name":"getAgentSuccessRate","outputs":[{"internalType":"uint256","name":"","type":"uint256"}],"stateMutability":"view","type":"function"},{"inputs":[{"internalType":"uint256","name":"_agentId","type":"uint256"}],"name":"getAgentTasks","outputs":[{"components":[{"internalType":"uint256","name":"id","type":"uint256"},{"internalType":"uint256","name":"agentId","type":"uint256"},{"internalType":"address","name":"user","type":"address"},{"internalType":"string","name":"taskType","type":"string"},{"internalType":"enum TaskLedger.TaskStatus","name":"status","type":"uint8"},{"internalType":"uint256","name":"paidAmount","type":"uint256"},{"internalType":"bool","name":"isArena","type":"bool"},{"internalType":"uint256","name":"createdAt","type":"uint256"},{"internalType":"uint256","name":"completedAt","type":"uint256"},{"internalType":"bytes32","name":"inputHash","type":"bytes32"},{"internalType":"bytes32","name":"outputHash","type":"bytes32"},{"internalType":"string","name":"resultSummary","type":"string"}],"internalType":"struct TaskLedger.Task[]","name":"","type":"tuple[]"}],"stateMutability":"view","type":"function"},{"inputs":[{"internalType":"uint256","name":"_taskId","type":"uint256"}],"name":"getTask","outputs":[{"components":[{"internalType":"uint256","name":"id","type":"uint256"},{"internalType":"uint256","name":"agentId","type":"uint256"},{"internalType":"address","name":"user","type":"address"},{"internalType":"string","name":"taskType","type":"string"},{"internalType":"enum TaskLedger.TaskStatus","name":"status","type":"uint8"},{"internalType":"uint256","name":"paidAmount","type":"uint256"},{"internalType":"bool","name":"isArena","type":"bool"},{"internalType":"uint256","name":"createdAt","type":"uint256"},{"internalType":"uint256","name":"completedAt","type":"uint256"},{"internalType":"bytes32","name":"inputHash","type":"bytes32"},{"internalType":"bytes32","name":"outputHash","type":"bytes32"},{"internalType":"string","name":"resultSummary","type":"string"}],"internalType":"struct TaskLedger.Task","name":"","type":"tuple"}],"stateMutability":"view","type":"function"},{"inputs":[{"internalType":"uint256","name":"_taskId","type":"uint256"}],"name":"getTaskAgentId","outputs":[{"internalType":"uint256","name":"","type":"uint256"}],"stateMutability":"view","type":"function"},{"inputs":[{"internalType":"uint256","name":"_taskId","type":"uint256"}],"name":"getTaskUser","outputs":[{"internalType":"address","name":"","type":"address"}],"stateMutability":"view","type":"function"},{"inputs":[{"internalType":"address","name":"_user","type":"address"}],"name":"getUserTasks","outputs":[{"components":[{"internalType":"uint256","name":"id","type":"uint256"},{"internalType":"uint256","name":"agentId","type":"uint256"},{"internalType":"address","name":"user","type":"address"},{"internalType":"string","name":"taskType","type":"string"},{"internalType":"enum TaskLedger.TaskStatus","name":"status","type":"uint8"},{"internalType":"uint256","name":"paidAmount","type":"uint256"},{"internalType":"bool","name":"isArena","type":"bool"},{"internalType":"uint256","name":"createdAt","type":"uint256"},{"internalType":"uint256","name":"completedAt","type":"uint256"},{"internalType":"bytes32","name":"inputHash","type":"bytes32"},{"internalType":"bytes32","name":"outputHash","type":"bytes32"},{"internalType":"string","name":"resultSummary","type":"string"}],"internalType":"struct TaskLedger.Task[]","name":"","type":"tuple[]"}],"stateMutability":"view","type":"function"},{"inputs":[],"name":"owner","outputs":[{"internalType":"address","name":"","type":"address"}],"stateMutability":"view","type":"function"},{"inputs":[],"name":"registry","outputs":[{"internalType":"contract IAgentRegistry","name":"","type":"address"}],"stateMutability":"view","type":"function"},{"inputs":[],"name":"renounceOwnership","outputs":[],"stateMutability":"nonpayable","type":"function"},{"inputs":[{"internalType":"address","name":"_contract","type":"address"},{"internalType":"bool","name":"_status","type":"bool"}],"name":"setAuthorized","outputs":[],"stateMutability":"nonpayable","type":"function"},{"inputs":[{"internalType":"uint256","name":"_taskId","type":"uint256"},{"internalType":"enum TaskLedger.TaskStatus","name":"_status","type":"uint8"}],"name":"setTaskStatus","outputs":[],"stateMutability":"nonpayable","type":"function"},{"inputs":[{"internalType":"address","name":"_vault","type":"address"}],"name":"setVault","outputs":[],"stateMutability":"nonpayable","type":"function"},{"inputs":[],"name":"taskCount","outputs":[{"internalType":"uint256","name":"","type":"uint256"}],"stateMutability":"view","type":"function"},{"inputs":[{"internalType":"uint256","name":"","type":"uint256"}],"name":"tasks","outputs":[{"internalType":"uint256","name":"id","type":"uint256"},{"internalType":"uint256","name":"agentId","type":"uint256"},{"internalType":"address","name":"user","type":"address"},{"internalType":"string","name":"taskType","type":"string"},{"internalType":"enum TaskLedger.TaskStatus","name":"status","type":"uint8"},{"internalType":"uint256","name":"paidAmount","type":"uint256"},{"internalType":"bool","name":"isArena","type":"bool"},{"internalType":"uint256","name":"createdAt","type":"uint256"},{"internalType":"uint256","name":"completedAt","type":"uint256"},{"internalType":"bytes32","name":"inputHash","type":"bytes32"},{"internalType":"bytes32","name":"outputHash","type":"bytes32"},{"internalType":"string","name":"resultSummary","type":"string"}],"stateMutability":"view","type":"function"},{"inputs":[{"internalType":"address","name":"newOwner","type":"address"}],"name":"transferOwnership","outputs":[],"stateMutability":"nonpayable","type":"function"},{"inputs":[{"internalType":"address","name":"","type":"address"},{"internalType":"uint256","name":"","type":"uint256"}],"name":"userTasks","outputs":[{"internalType":"uint256","name":"","type":"uint256"}],"stateMutability":"view","type":"function"},{"inputs":[],"name":"vault","outputs":[{"internalType":"contract IAgentVault","name":"","type":"address"}],"stateMutability":"view","type":"function"}],"evm":{"bytecode":{"linkReferences":{},"object":"608034620000ec57601f62001dc938819003918201601f19168301916001600160401b03831184841017620000f1578084926040948552833981010312620000ec576200005a6020620000528362000107565b920162000107565b3315620000d35760008054336001600160a01b0319808316821784556040519590946001600160a01b03949093859391908416907f8be0079c531659141344cd1fd0a4f28419497f9722a3daafe3b4186f6b6457e09080a31683600554161760055516906006541617600655611cac90816200011d8239f35b604051631e4fbdf760e01b815260006004820152602490fd5b600080fd5b634e487b7160e01b600052604160045260246000fd5b51906001600160a01b0382168203620000ec5756fe6080604052600436101561001257600080fd5b600060e08135811c90816302284192146115b557816309efa53e146114525781630ead6f3b1461117f5781631d65e77e146110865781631f5c479b1461105a578163304d3ebe14611011578163324df36d14610fa65781633bfd281114610f705781636469038f14610a4257816366873a55146109ec5781636817031b146109ac578163711bf9b21461094e578163715018a6146108f45781637b103999146108cb5781638d977672146107e15781638da5cb5b146107ba57816395d57660146106455750806397d9c23e146104bb578063b6cb58a51461049d578063b91816111461045e578063e1df68c8146101d3578063f2fde38b146101485763fbfa77cf1461011d57600080fd5b346101455780600319360112610145576006546040516001600160a01b039091168152602090f35b80fd5b503461014557602036600319011261014557610162611821565b61016a611917565b6001600160a01b039081169081156101ba57600054826001600160601b0360a01b821617600055167f8be0079c531659141344cd1fd0a4f28419497f9722a3daafe3b4186f6b6457e0600080a380f35b604051631e4fbdf760e01b815260048101849052602490fd5b50346101455760403660031901126101455767ffffffffffffffff60043560243582811161045a5761020990369060040161179c565b913384526020926007845260ff6040862054168015610447575b61022c90611943565b8285526001808552604086209261024584541515611a03565b60048401805460ff81166004811015610433579061026560029215611a40565b60ff19161790554260088501558251600b850191811161041f576102898254611837565b601f81116103d8575b508087601f821160011461037b578991610370575b50600019600383901b1c191690831b1790555b600654600284015487916001600160a01b039081169116813b1561036c5782916044839260405194859384926351a9259b60e01b84528c600485015260248401525af1801561036157610349575b50507fb7d26c54dd42caec28cde154685cde378c046d6729a3ffcb28dcba3c10fb93db920154936103436040519282849384528301906115dc565b0390a380f35b61035290611766565b61035d578538610308565b8580fd5b6040513d84823e3d90fd5b8280fd5b9050840151386102a7565b838a52888a2085935090601f1983168b5b8b8282106103c257505083116103a9575b5050811b0190556102ba565b86015160001960f88460031b161c19169055388061039d565b838a01518555889690940193928301920161038c565b828952878920601f830160051c810191898410610415575b601f0160051c019084905b828110610409575050610292565b600081550184906103fb565b90915081906103f0565b634e487b7160e01b88526041600452602488fd5b634e487b7160e01b8a52602160045260248afd5b5084546001600160a01b03163314610223565b8380fd5b50346101455760203660031901126101455760209060ff906040906001600160a01b03610489611821565b168152600784522054166040519015158152f35b50346101455780600319360112610145576020600454604051908152f35b503461014557602080600319360112610641576004359081835260018152604083206104e981541515611a03565b60028101546001600160a01b0316330361060b57600481019182549160ff831660048110156105f7576001036105b457600801546201518081018091116105a0574211610563575060ff1916600317905533907f4c876e9aba8144edd2840298ef3fd0d8735009124d7a0185a41b12680c0937828380a380f35b6064906040519062461bcd60e51b825260048201526016602482015275111a5cdc1d5d19481dda5b991bddc8195e1c1a5c995960521b6044820152fd5b634e487b7160e01b86526011600452602486fd5b6064826040519062461bcd60e51b825280600483015260248201527f43616e206f6e6c79206469737075746520636f6d706c65746564207461736b736044820152fd5b634e487b7160e01b87526021600452602487fd5b60405162461bcd60e51b815260048101839052600e60248201526d2737ba103a30b9b59037bbb732b960911b6044820152606490fd5b5080fd5b82346101455760209081600319360112610145576001600160a01b03918261066b611821565b1682526002938482526040832093604051808685829854938481520190875285872092875b878282106107a4575050506106a79250038661177a565b6106b18551611af0565b95845b865181101561079257806106cb61078d9289611b40565b518752600180875261076c600b60408a20604051936106e985611749565b815485528101548a850152878782015416604085015261070b60038201611871565b606085015260ff61072581600484015416608087016119a5565b600582015460a0860152600682015416151560c085015260078101548985015260088101546101008501526009810154610120850152600a81015461014085015201611871565b61016082015261077c828b611b40565b52610787818a611b40565b50611980565b6106b4565b604051806107a08a826116e7565b0390f35b855484526001958601958b955093019201610690565b8234610145578060031936011261014557546040516001600160a01b039091168152602090f35b8234610145576020366003190112610145576004358152600160205260409020805490600181015492600160a01b60019003600283015416916003810161082790611871565b600482015460ff1692600583015490600684015460ff1690600785015491600886015493600987015495600a88015497600b0161086390611871565b996040519c8d9c8d5260208d015260408c01526101808060608d01528b0161088a916115dc565b9760808b016108989161161c565b60a08a0152151560c08901528701526101008601526101208501526101408401528281036101608401526107a0916115dc565b82346101455780600319360112610145576005546040516001600160a01b039091168152602090f35b823461014557806003193601126101455761090d611917565b600080546001600160a01b0319811682556001600160a01b03167f8be0079c531659141344cd1fd0a4f28419497f9722a3daafe3b4186f6b6457e08280a380f35b823461014557604036600319011261014557610968611821565b60243580151581036109a7576109a491610980611917565b60018060a01b031683526007602052604083209060ff801983541691151516179055565b80f35b600080fd5b8234610145576020366003190112610145576109c6611821565b6109ce611917565b60018060a01b03166001600160601b0360a01b600654161760065580f35b823461014557604036600319011261014557610a06611821565b6001600160a01b0316815260026020526040812080546024359290831015610145576020610a3484846117f3565b90546040519160031b1c8152f35b82346101455760c0366003190112610145576024356001600160a01b03811681036109a75760443567ffffffffffffffff811161036c57610a8790369060040161179c565b926084358015158091036109a757338452600760205260ff6040852054168015610f5d575b610ab590611943565b610ac0600454611980565b908160045560405195610ad287611749565b828752600435602088015260018060a01b0385166040880152606087015284608087015260643560a087015260c086015242828601528361010086015260a4356101208601528361014086015260405180602081011067ffffffffffffffff602083011117610f47576020810160405284815261016086015283526001602052604083209084518255602085015160018301556002820160018060a01b036040870151166001600160601b0360a01b825416179055606085015180519067ffffffffffffffff8211610f33578190610bad6003860154611837565b601f8111610ee2575b50602090601f8311600114610e73578792610e68575b50508160011b916000199060031b1c19161760038301555b60808501516004811015610e545791600b91610c0661016094600484016119b1565b60a08701516005830155610c2f60c08801511515600684019060ff801983541691151516179055565b860151600782015561010086015160088201556101208601516009820155610140860151600a8201550193015192835167ffffffffffffffff8111610e4057610c788254611837565b601f8111610dfa575b50602094601f8211600114610d97579484958293949592610d8c575b50508160011b916000199060031b1c19161790555b6001600160a01b0381168252600260205260408220600454610cd3916119c9565b60043582526003602052610ced60408320600454906119c9565b60055482906001600160a01b0316803b156106415781906024604051809481936327b4dd2360e21b835260043560048401525af18015610d8157610d6d575b50602091600454906040519260018060a01b031690827f608625ab6f77a46173f4140d5795b7128dc6e75d7ae867d32b5e49ae02cde6526004359280a48152f35b610d778391611766565b6106415782610d2c565b6040513d85823e3d90fd5b015190508580610c9d565b601f198216958386526020862091865b888110610de257508360019596979810610dc9575b505050811b019055610cb2565b015160001960f88460031b161c19169055858080610dbc565b91926020600181928685015181550194019201610da7565b82855260208520601f830160051c81019160208410610e36575b601f0160051c01905b818110610e2a5750610c81565b60008155600101610e1d565b9091508190610e14565b634e487b7160e01b84526041600452602484fd5b634e487b7160e01b85526021600452602485fd5b015190508780610bcc565b9250600385018752602087209087935b601f1984168510610ec7576001945083601f19811610610eae575b505050811b016003830155610be4565b015160001960f88460031b161c19169055878080610e9e565b81810151835560209485019460019093019290910190610e83565b90915060038501875260208720601f840160051c810160208510610f2c575b90849392915b601f830160051c82018110610f1d575050610bb6565b60008155859450600101610f07565b5080610f01565b634e487b7160e01b86526041600452602486fd5b634e487b7160e01b600052604160045260246000fd5b5083546001600160a01b03163314610aac565b8234610145576020366003190112610145576020906004358152600182526002604060018060a01b039220015416604051908152f35b8234610145576040366003190112610145576024356004811015610641576109a490338352600760205260ff6040842054168015610ffe575b610fe890611943565b60043583526001602052600460408420016119b1565b5082546001600160a01b03163314610fdf565b82346101455760403660031901126101455760243590600435815260036020526040812090815483101561014557602061104b84846117f3565b90549060031b1c604051908152f35b823461014557602036600319011261014557600160406020926004358152828452200154604051908152f35b8234610145576020908160031936011261014557600b6040611165926004356110ad611a7f565b50808252600186526110c3838320541515611a03565b81526001855220604051946110d786611749565b8154865260018201548587015260028201546001600160a01b0316604087015261110360038301611871565b606087015261111c60ff600484015416608088016119a5565b600582015460a087015260ff600683015416151560c087015260078201549086015260088101546101008601526009810154610120860152600a81015461014086015201611871565b6101608301526107a060405192828493845283019061163f565b82346101455760603660031901126101455760243560043567ffffffffffffffff60443581811161133b576111b890369060040161179c565b3385526020906007825260ff604087205416801561143f575b6111da90611943565b83865260019081835260408720936111f485541515611a03565b60048501805460ff8116600481101561142b5790611213869215611a40565b60ff191617905542600886015586600a860155600b85019180519182116114175781906112408454611837565b601f81116113c7575b508590601f8311600114611368578a9261135d575b5050600019600383901b1c191690831b1790555b6005549201805490926001600160a01b039187918316803b1561036c576024839260405194859384926386dfbcd160e01b845260048401525af180156113525761133f575b508590600654168354813b1561036c57829160448392604051948593849263012fd33560e71b84528b600485015260248401525af1801561036157611327575b50507f339ba61d0494cd9480ac692252c889cdd0184f891856a80a25fc39c7d9f88f7e915493604051908152a380f35b61133090611766565b61133b5784866112f7565b8480fd5b61134b90969196611766565b94866112b7565b6040513d89823e3d90fd5b01519050898061125e565b848b52868b208694509190601f1984168c5b898282106113b15750508411611398575b505050811b019055611272565b015160001960f88460031b161c1916905589808061138b565b838501518655899790950194938401930161137a565b909150838a52858a20601f840160051c81019187851061140d575b84939291601f88920160051c01915b8281106113ff575050611249565b8c81558594508791016113f1565b90915081906113e2565b634e487b7160e01b89526041600452602489fd5b634e487b7160e01b8b52602160045260248bfd5b5085546001600160a01b031633146111d1565b90503461064157602091826003193601126101455760043581526003928381526040822092604051808584829754938481520190865284862092865b8682821061159f575050506114a59250038561177a565b6114af8451611af0565b94835b855181101561159157806114c961158c9288611b40565b5186526001808652611571600b60408920604051936114e785611749565b815485528101548985015260028101546001600160a01b03166040850152611510878201611871565b606085015260ff61152a81600484015416608087016119a5565b600582015460a0860152600682015416151560c085015260078101548885015260088101546101008501526009810154610120850152600a81015461014085015201611871565b610160820152611581828a611b40565b526107878189611b40565b6114b2565b604051806107a089826116e7565b855484526001958601958a95509301920161148e565b82346101455760203660031901126101455760206115d4600435611b54565b604051908152f35b919082519283825260005b848110611608575050826000602080949584010152601f8019910116010190565b6020818301810151848301820152016115e7565b9060048210156116295752565b634e487b7160e01b600052602160045260246000fd5b906116e491805182526020810151602083015260018060a01b03604082015116604083015261167d60608201516101808060608601528401906115dc565b916116906080830151608083019061161c565b60a082015160a082015260c0820151151560c082015260e082015160e082015261010080830151908201526101208083015190820152610140808301519082015261016080920151918184039101526115dc565b90565b602080820190808352835180925260408301928160408460051b8301019501936000915b84831061171b5750505050505090565b9091929394958480611739600193603f198682030187528a5161163f565b980193019301919493929061170b565b610180810190811067ffffffffffffffff821117610f4757604052565b67ffffffffffffffff8111610f4757604052565b90601f8019910116810190811067ffffffffffffffff821117610f4757604052565b81601f820112156109a75780359067ffffffffffffffff8211610f4757604051926117d1601f8401601f19166020018561177a565b828452602083830101116109a757816000926020809301838601378301015290565b805482101561180b5760005260206000200190600090565b634e487b7160e01b600052603260045260246000fd5b600435906001600160a01b03821682036109a757565b90600182811c92168015611867575b602083101461185157565b634e487b7160e01b600052602260045260246000fd5b91607f1691611846565b906040519182600082549261188584611837565b9081845260019485811690816000146118f457506001146118b1575b50506118af9250038361177a565b565b9093915060005260209081600020936000915b8183106118dc5750506118af935082010138806118a1565b855488840185015294850194879450918301916118c4565b9150506118af94506020925060ff191682840152151560051b82010138806118a1565b6000546001600160a01b0316330361192b57565b60405163118cdaa760e01b8152336004820152602490fd5b1561194a57565b60405162461bcd60e51b815260206004820152600e60248201526d139bdd08185d5d1a1bdc9a5e995960921b6044820152606490fd5b600019811461198f5760010190565b634e487b7160e01b600052601160045260246000fd5b60048210156116295752565b9060048110156116295760ff80198354169116179055565b805468010000000000000000811015610f47576119eb916001820181556117f3565b819291549060031b91821b91600019901b1916179055565b15611a0a57565b60405162461bcd60e51b815260206004820152600e60248201526d15185cdac81b9bdd08199bdd5b9960921b6044820152606490fd5b15611a4757565b60405162461bcd60e51b815260206004820152601060248201526f5461736b206e6f742070656e64696e6760801b6044820152606490fd5b60405190611a8c82611749565b606061016083600080825280602083015280604083015283808301528060808301528060a08301528060c08301528060e083015280610100830152806101208301526101408201520152565b67ffffffffffffffff8111610f475760051b60200190565b90611afa82611ad8565b611b07604051918261177a565b8281528092611b18601f1991611ad8565b019060005b828110611b2957505050565b602090611b34611a7f565b82828501015201611b1d565b805182101561180b5760209160051b010190565b90600091825260209160038352604092838220918451808484829654938481520190845284842092845b86828210611c6057505050611b959250038461177a565b825115611c5a578092815b8151811015611c0c57611bb38183611b40565b5183526001808552600460ff818a87200154169080821015611bf9575014611be4575b611bdf90611980565b611ba0565b93611bf1611bdf91611980565b949050611bd6565b634e487b7160e01b865260219052602485fd5b509150929350606482029180830460641490151715611c465751918215611c3257500490565b634e487b7160e01b81526012600452602490fd5b634e487b7160e01b83526011600452602483fd5b93505050565b8554845260019586019589955093019201611b7e56fea26469706673582212205b68894c1646e3f157fe4f2dc837a2f926fc38b634f438a7b09844e48090f52364736f6c63430008140033","opcodes":"PUSH1 0x80 CALLVALUE PUSH3 0xEC JUMPI PUSH1 0x1F PUSH3 0x1DC9 CODESIZE DUP2 SWAP1 SUB SWAP2 DUP3 ADD PUSH1 0x1F NOT AND DUP4 ADD SWAP2 PUSH1 0x1 PUSH1 0x1 PUSH1 0x40 SHL SUB DUP4 GT DUP5 DUP5 LT OR PUSH3 0xF1 JUMPI DUP1 DUP5 SWAP3 PUSH1 0x40 SWAP5 DUP6 MSTORE DUP4 CODECOPY DUP2 ADD SUB SLT PUSH3 0xEC JUMPI PUSH3 0x5A PUSH1 0x20 PUSH3 0x52 DUP4 PUSH3 0x107 JUMP JUMPDEST SWAP3 ADD PUSH3 0x107 JUMP JUMPDEST CALLER ISZERO PUSH3 0xD3 JUMPI PUSH1 0x0 DUP1 SLOAD CALLER PUSH1 0x1 PUSH1 0x1 PUSH1 0xA0 SHL SUB NOT DUP1 DUP4 AND DUP3 OR DUP5 SSTORE PUSH1 0x40 MLOAD SWAP6 SWAP1 SWAP5 PUSH1 0x1 PUSH1 0x1 PUSH1 0xA0 SHL SUB SWAP5 SWAP1 SWAP4 DUP6 SWAP4 SWAP2 SWAP1 DUP5 AND SWAP1 PUSH32 0x8BE0079C531659141344CD1FD0A4F28419497F9722A3DAAFE3B4186F6B6457E0 SWAP1 DUP1 LOG3 AND DUP4 PUSH1 0x5 SLOAD AND OR PUSH1 0x5 SSTORE AND SWAP1 PUSH1 0x6 SLOAD AND OR PUSH1 0x6 SSTORE PUSH2 0x1CAC SWAP1 DUP2 PUSH3 0x11D DUP3 CODECOPY RETURN JUMPDEST PUSH1 0x40 MLOAD PUSH4 0x1E4FBDF7 PUSH1 0xE0 SHL DUP2 MSTORE PUSH1 0x0 PUSH1 0x4 DUP3 ADD MSTORE PUSH1 0x24 SWAP1 REVERT JUMPDEST PUSH1 0x0 DUP1 REVERT JUMPDEST PUSH4 0x4E487B71 PUSH1 0xE0 SHL PUSH1 0x0 MSTORE PUSH1 0x41 PUSH1 0x4 MSTORE PUSH1 0x24 PUSH1 0x0 REVERT JUMPDEST MLOAD SWAP1 PUSH1 0x1 PUSH1 0x1 PUSH1 0xA0 SHL SUB DUP3 AND DUP3 SUB PUSH3 0xEC JUMPI JUMP INVALID PUSH1 0x80 PUSH1 0x40 MSTORE PUSH1 0x4 CALLDATASIZE LT ISZERO PUSH2 0x12 JUMPI PUSH1 0x0 DUP1 REVERT JUMPDEST PUSH1 0x0 PUSH1 0xE0 DUP2 CALLDATALOAD DUP2 SHR SWAP1 DUP2 PUSH4 0x2284192 EQ PUSH2 0x15B5 JUMPI DUP2 PUSH4 0x9EFA53E EQ PUSH2 0x1452 JUMPI DUP2 PUSH4 0xEAD6F3B EQ PUSH2 0x117F JUMPI DUP2 PUSH4 0x1D65E77E EQ PUSH2 0x1086 JUMPI DUP2 PUSH4 0x1F5C479B EQ PUSH2 0x105A JUMPI DUP2 PUSH4 0x304D3EBE EQ PUSH2 0x1011 JUMPI DUP2 PUSH4 0x324DF36D EQ PUSH2 0xFA6 JUMPI DUP2 PUSH4 0x3BFD2811 EQ PUSH2 0xF70 JUMPI DUP2 PUSH4 0x6469038F EQ PUSH2 0xA42 JUMPI DUP2 PUSH4 0x66873A55 EQ PUSH2 0x9EC JUMPI DUP2 PUSH4 0x6817031B EQ PUSH2 0x9AC JUMPI DUP2 PUSH4 0x711BF9B2 EQ PUSH2 0x94E JUMPI DUP2 PUSH4 0x715018A6 EQ PUSH2 0x8F4 JUMPI DUP2 PUSH4 0x7B103999 EQ PUSH2 0x8CB JUMPI DUP2 PUSH4 0x8D977672 EQ PUSH2 0x7E1 JUMPI DUP2 PUSH4 0x8DA5CB5B EQ PUSH2 0x7BA JUMPI DUP2 PUSH4 0x95D57660 EQ PUSH2 0x645 JUMPI POP DUP1 PUSH4 0x97D9C23E EQ PUSH2 0x4BB JUMPI DUP1 PUSH4 0xB6CB58A5 EQ PUSH2 0x49D JUMPI DUP1 PUSH4 0xB9181611 EQ PUSH2 0x45E JUMPI DUP1 PUSH4 0xE1DF68C8 EQ PUSH2 0x1D3 JUMPI DUP1 PUSH4 0xF2FDE38B EQ PUSH2 0x148 JUMPI PUSH4 0xFBFA77CF EQ PUSH2 0x11D JUMPI PUSH1 0x0 DUP1 REVERT JUMPDEST CALLVALUE PUSH2 0x145 JUMPI DUP1 PUSH1 0x3 NOT CALLDATASIZE ADD SLT PUSH2 0x145 JUMPI PUSH1 0x6 SLOAD PUSH1 0x40 MLOAD PUSH1 0x1 PUSH1 0x1 PUSH1 0xA0 SHL SUB SWAP1 SWAP2 AND DUP2 MSTORE PUSH1 0x20 SWAP1 RETURN JUMPDEST DUP1 REVERT JUMPDEST POP CALLVALUE PUSH2 0x145 JUMPI PUSH1 0x20 CALLDATASIZE PUSH1 0x3 NOT ADD SLT PUSH2 0x145 JUMPI PUSH2 0x162 PUSH2 0x1821 JUMP JUMPDEST PUSH2 0x16A PUSH2 0x1917 JUMP JUMPDEST PUSH1 0x1 PUSH1 0x1 PUSH1 0xA0 SHL SUB SWAP1 DUP2 AND SWAP1 DUP2 ISZERO PUSH2 0x1BA JUMPI PUSH1 0x0 SLOAD DUP3 PUSH1 0x1 PUSH1 0x1 PUSH1 0x60 SHL SUB PUSH1 0xA0 SHL DUP3 AND OR PUSH1 0x0 SSTORE AND PUSH32 0x8BE0079C531659141344CD1FD0A4F28419497F9722A3DAAFE3B4186F6B6457E0 PUSH1 0x0 DUP1 LOG3 DUP1 RETURN JUMPDEST PUSH1 0x40 MLOAD PUSH4 0x1E4FBDF7 PUSH1 0xE0 SHL DUP2 MSTORE PUSH1 0x4 DUP2 ADD DUP5 SWAP1 MSTORE PUSH1 0x24 SWAP1 REVERT JUMPDEST POP CALLVALUE PUSH2 0x145 JUMPI PUSH1 0x40 CALLDATASIZE PUSH1 0x3 NOT ADD SLT PUSH2 0x145 JUMPI PUSH8 0xFFFFFFFFFFFFFFFF PUSH1 0x4 CALLDATALOAD PUSH1 0x24 CALLDATALOAD DUP3 DUP2 GT PUSH2 0x45A JUMPI PUSH2 0x209 SWAP1 CALLDATASIZE SWAP1 PUSH1 0x4 ADD PUSH2 0x179C JUMP JUMPDEST SWAP2 CALLER DUP5 MSTORE PUSH1 0x20 SWAP3 PUSH1 0x7 DUP5 MSTORE PUSH1 0xFF PUSH1 0x40 DUP7 KECCAK256 SLOAD AND DUP1 ISZERO PUSH2 0x447 JUMPI JUMPDEST PUSH2 0x22C SWAP1 PUSH2 0x1943 JUMP JUMPDEST DUP3 DUP6 MSTORE PUSH1 0x1 DUP1 DUP6 MSTORE PUSH1 0x40 DUP7 KECCAK256 SWAP3 PUSH2 0x245 DUP5 SLOAD ISZERO ISZERO PUSH2 0x1A03 JUMP JUMPDEST PUSH1 0x4 DUP5 ADD DUP1 SLOAD PUSH1 0xFF DUP2 AND PUSH1 0x4 DUP2 LT ISZERO PUSH2 0x433 JUMPI SWAP1 PUSH2 0x265 PUSH1 0x2 SWAP3 ISZERO PUSH2 0x1A40 JUMP JUMPDEST PUSH1 0xFF NOT AND OR SWAP1 SSTORE TIMESTAMP PUSH1 0x8 DUP6 ADD SSTORE DUP3 MLOAD PUSH1 0xB DUP6 ADD SWAP2 DUP2 GT PUSH2 0x41F JUMPI PUSH2 0x289 DUP3 SLOAD PUSH2 0x1837 JUMP JUMPDEST PUSH1 0x1F DUP2 GT PUSH2 0x3D8 JUMPI JUMPDEST POP DUP1 DUP8 PUSH1 0x1F DUP3 GT PUSH1 0x1 EQ PUSH2 0x37B JUMPI DUP10 SWAP2 PUSH2 0x370 JUMPI JUMPDEST POP PUSH1 0x0 NOT PUSH1 0x3 DUP4 SWAP1 SHL SHR NOT AND SWAP1 DUP4 SHL OR SWAP1 SSTORE JUMPDEST PUSH1 0x6 SLOAD PUSH1 0x2 DUP5 ADD SLOAD DUP8 SWAP2 PUSH1 0x1 PUSH1 0x1 PUSH1 0xA0 SHL SUB SWAP1 DUP2 AND SWAP2 AND DUP2 EXTCODESIZE ISZERO PUSH2 0x36C JUMPI DUP3 SWAP2 PUSH1 0x44 DUP4 SWAP3 PUSH1 0x40 MLOAD SWAP5 DUP6 SWAP4 DUP5 SWAP3 PUSH4 0x51A9259B PUSH1 0xE0 SHL DUP5 MSTORE DUP13 PUSH1 0x4 DUP6 ADD MSTORE PUSH1 0x24 DUP5 ADD MSTORE GAS CALL DUP1 ISZERO PUSH2 0x361 JUMPI PUSH2 0x349 JUMPI JUMPDEST POP POP PUSH32 0xB7D26C54DD42CAEC28CDE154685CDE378C046D6729A3FFCB28DCBA3C10FB93DB SWAP3 ADD SLOAD SWAP4 PUSH2 0x343 PUSH1 0x40 MLOAD SWAP3 DUP3 DUP5 SWAP4 DUP5 MSTORE DUP4 ADD SWAP1 PUSH2 0x15DC JUMP JUMPDEST SUB SWAP1 LOG3 DUP1 RETURN JUMPDEST PUSH2 0x352 SWAP1 PUSH2 0x1766 JUMP JUMPDEST PUSH2 0x35D JUMPI DUP6 CODESIZE PUSH2 0x308 JUMP JUMPDEST DUP6 DUP1 REVERT JUMPDEST PUSH1 0x40 MLOAD RETURNDATASIZE DUP5 DUP3 RETURNDATACOPY RETURNDATASIZE SWAP1 REVERT JUMPDEST DUP3 DUP1 REVERT JUMPDEST SWAP1 POP DUP5 ADD MLOAD CODESIZE PUSH2 0x2A7 JUMP JUMPDEST DUP4 DUP11 MSTORE DUP9 DUP11 KECCAK256 DUP6 SWAP4 POP SWAP1 PUSH1 0x1F NOT DUP4 AND DUP12 JUMPDEST DUP12 DUP3 DUP3 LT PUSH2 0x3C2 JUMPI POP POP DUP4 GT PUSH2 0x3A9 JUMPI JUMPDEST POP POP DUP2 SHL ADD SWAP1 SSTORE PUSH2 0x2BA JUMP JUMPDEST DUP7 ADD MLOAD PUSH1 0x0 NOT PUSH1 0xF8 DUP5 PUSH1 0x3 SHL AND SHR NOT AND SWAP1 SSTORE CODESIZE DUP1 PUSH2 0x39D JUMP JUMPDEST DUP4 DUP11 ADD MLOAD DUP6 SSTORE DUP9 SWAP7 SWAP1 SWAP5 ADD SWAP4 SWAP3 DUP4 ADD SWAP3 ADD PUSH2 0x38C JUMP JUMPDEST DUP3 DUP10 MSTORE DUP8 DUP10 KECCAK256 PUSH1 0x1F DUP4 ADD PUSH1 0x5 SHR DUP2 ADD SWAP2 DUP10 DUP5 LT PUSH2 0x415 JUMPI JUMPDEST PUSH1 0x1F ADD PUSH1 0x5 SHR ADD SWAP1 DUP5 SWAP1 JUMPDEST DUP3 DUP2 LT PUSH2 0x409 JUMPI POP POP PUSH2 0x292 JUMP JUMPDEST PUSH1 0x0 DUP2 SSTORE ADD DUP5 SWAP1 PUSH2 0x3FB JUMP JUMPDEST SWAP1 SWAP2 POP DUP2 SWAP1 PUSH2 0x3F0 JUMP JUMPDEST PUSH4 0x4E487B71 PUSH1 0xE0 SHL DUP9 MSTORE PUSH1 0x41 PUSH1 0x4 MSTORE PUSH1 0x24 DUP9 REVERT JUMPDEST PUSH4 0x4E487B71 PUSH1 0xE0 SHL DUP11 MSTORE PUSH1 0x21 PUSH1 0x4 MSTORE PUSH1 0x24 DUP11 REVERT JUMPDEST POP DUP5 SLOAD PUSH1 0x1 PUSH1 0x1 PUSH1 0xA0 SHL SUB AND CALLER EQ PUSH2 0x223 JUMP JUMPDEST DUP4 DUP1 REVERT JUMPDEST POP CALLVALUE PUSH2 0x145 JUMPI PUSH1 0x20 CALLDATASIZE PUSH1 0x3 NOT ADD SLT PUSH2 0x145 JUMPI PUSH1 0x20 SWAP1 PUSH1 0xFF SWAP1 PUSH1 0x40 SWAP1 PUSH1 0x1 PUSH1 0x1 PUSH1 0xA0 SHL SUB PUSH2 0x489 PUSH2 0x1821 JUMP JUMPDEST AND DUP2 MSTORE PUSH1 0x7 DUP5 MSTORE KECCAK256 SLOAD AND PUSH1 0x40 MLOAD SWAP1 ISZERO ISZERO DUP2 MSTORE RETURN JUMPDEST POP CALLVALUE PUSH2 0x145 JUMPI DUP1 PUSH1 0x3 NOT CALLDATASIZE ADD SLT PUSH2 0x145 JUMPI PUSH1 0x20 PUSH1 0x4 SLOAD PUSH1 0x40 MLOAD SWAP1 DUP2 MSTORE RETURN JUMPDEST POP CALLVALUE PUSH2 0x145 JUMPI PUSH1 0x20 DUP1 PUSH1 0x3 NOT CALLDATASIZE ADD SLT PUSH2 0x641 JUMPI PUSH1 0x4 CALLDATALOAD SWAP1 DUP2 DUP4 MSTORE PUSH1 0x1 DUP2 MSTORE PUSH1 0x40 DUP4 KECCAK256 PUSH2 0x4E9 DUP2 SLOAD ISZERO ISZERO PUSH2 0x1A03 JUMP JUMPDEST PUSH1 0x2 DUP2 ADD SLOAD PUSH1 0x1 PUSH1 0x1 PUSH1 0xA0 SHL SUB AND CALLER SUB PUSH2 0x60B JUMPI PUSH1 0x4 DUP2 ADD SWAP2 DUP3 SLOAD SWAP2 PUSH1 0xFF DUP4 AND PUSH1 0x4 DUP2 LT ISZERO PUSH2 0x5F7 JUMPI PUSH1 0x1 SUB PUSH2 0x5B4 JUMPI PUSH1 0x8 ADD SLOAD PUSH3 0x15180 DUP2 ADD DUP1 SWAP2 GT PUSH2 0x5A0 JUMPI TIMESTAMP GT PUSH2 0x563 JUMPI POP PUSH1 0xFF NOT AND PUSH1 0x3 OR SWAP1 SSTORE CALLER SWAP1 PUSH32 0x4C876E9ABA8144EDD2840298EF3FD0D8735009124D7A0185A41B12680C093782 DUP4 DUP1 LOG3 DUP1 RETURN JUMPDEST PUSH1 0x64 SWAP1 PUSH1 0x40 MLOAD SWAP1 PUSH3 0x461BCD PUSH1 0xE5 SHL DUP3 MSTORE PUSH1 0x4 DUP3 ADD MSTORE PUSH1 0x16 PUSH1 0x24 DUP3 ADD MSTORE PUSH22 0x111A5CDC1D5D19481DDA5B991BDDC8195E1C1A5C9959 PUSH1 0x52 SHL PUSH1 0x44 DUP3 ADD MSTORE REVERT JUMPDEST PUSH4 0x4E487B71 PUSH1 0xE0 SHL DUP7 MSTORE PUSH1 0x11 PUSH1 0x4 MSTORE PUSH1 0x24 DUP7 REVERT JUMPDEST PUSH1 0x64 DUP3 PUSH1 0x40 MLOAD SWAP1 PUSH3 0x461BCD PUSH1 0xE5 SHL DUP3 MSTORE DUP1 PUSH1 0x4 DUP4 ADD MSTORE PUSH1 0x24 DUP3 ADD MSTORE PUSH32 0x43616E206F6E6C79206469737075746520636F6D706C65746564207461736B73 PUSH1 0x44 DUP3 ADD MSTORE REVERT JUMPDEST PUSH4 0x4E487B71 PUSH1 0xE0 SHL DUP8 MSTORE PUSH1 0x21 PUSH1 0x4 MSTORE PUSH1 0x24 DUP8 REVERT JUMPDEST PUSH1 0x40 MLOAD PUSH3 0x461BCD PUSH1 0xE5 SHL DUP2 MSTORE PUSH1 0x4 DUP2 ADD DUP4 SWAP1 MSTORE PUSH1 0xE PUSH1 0x24 DUP3 ADD MSTORE PUSH14 0x2737BA103A30B9B59037BBB732B9 PUSH1 0x91 SHL PUSH1 0x44 DUP3 ADD MSTORE PUSH1 0x64 SWAP1 REVERT JUMPDEST POP DUP1 REVERT JUMPDEST DUP3 CALLVALUE PUSH2 0x145 JUMPI PUSH1 0x20 SWAP1 DUP2 PUSH1 0x3 NOT CALLDATASIZE ADD SLT PUSH2 0x145 JUMPI PUSH1 0x1 PUSH1 0x1 PUSH1 0xA0 SHL SUB SWAP2 DUP3 PUSH2 0x66B PUSH2 0x1821 JUMP JUMPDEST AND DUP3 MSTORE PUSH1 0x2 SWAP4 DUP5 DUP3 MSTORE PUSH1 0x40 DUP4 KECCAK256 SWAP4 PUSH1 0x40 MLOAD DUP1 DUP7 DUP6 DUP3 SWAP9 SLOAD SWAP4 DUP5 DUP2 MSTORE ADD SWAP1 DUP8 MSTORE DUP6 DUP8 KECCAK256 SWAP3 DUP8 JUMPDEST DUP8 DUP3 DUP3 LT PUSH2 0x7A4 JUMPI POP POP POP PUSH2 0x6A7 SWAP3 POP SUB DUP7 PUSH2 0x177A JUMP JUMPDEST PUSH2 0x6B1 DUP6 MLOAD PUSH2 0x1AF0 JUMP JUMPDEST SWAP6 DUP5 JUMPDEST DUP7 MLOAD DUP2 LT ISZERO PUSH2 0x792 JUMPI DUP1 PUSH2 0x6CB PUSH2 0x78D SWAP3 DUP10 PUSH2 0x1B40 JUMP JUMPDEST MLOAD DUP8 MSTORE PUSH1 0x1 DUP1 DUP8 MSTORE PUSH2 0x76C PUSH1 0xB PUSH1 0x40 DUP11 KECCAK256 PUSH1 0x40 MLOAD SWAP4 PUSH2 0x6E9 DUP6 PUSH2 0x1749 JUMP JUMPDEST DUP2 SLOAD DUP6 MSTORE DUP2 ADD SLOAD DUP11 DUP6 ADD MSTORE DUP8 DUP8 DUP3 ADD SLOAD AND PUSH1 0x40 DUP6 ADD MSTORE PUSH2 0x70B PUSH1 0x3 DUP3 ADD PUSH2 0x1871 JUMP JUMPDEST PUSH1 0x60 DUP6 ADD MSTORE PUSH1 0xFF PUSH2 0x725 DUP2 PUSH1 0x4 DUP5 ADD SLOAD AND PUSH1 0x80 DUP8 ADD PUSH2 0x19A5 JUMP JUMPDEST PUSH1 0x5 DUP3 ADD SLOAD PUSH1 0xA0 DUP7 ADD MSTORE PUSH1 0x6 DUP3 ADD SLOAD AND ISZERO ISZERO PUSH1 0xC0 DUP6 ADD MSTORE PUSH1 0x7 DUP2 ADD SLOAD DUP10 DUP6 ADD MSTORE PUSH1 0x8 DUP2 ADD SLOAD PUSH2 0x100 DUP6 ADD MSTORE PUSH1 0x9 DUP2 ADD SLOAD PUSH2 0x120 DUP6 ADD MSTORE PUSH1 0xA DUP2 ADD SLOAD PUSH2 0x140 DUP6 ADD MSTORE ADD PUSH2 0x1871 JUMP JUMPDEST PUSH2 0x160 DUP3 ADD MSTORE PUSH2 0x77C DUP3 DUP12 PUSH2 0x1B40 JUMP JUMPDEST MSTORE PUSH2 0x787 DUP2 DUP11 PUSH2 0x1B40 JUMP JUMPDEST POP PUSH2 0x1980 JUMP JUMPDEST PUSH2 0x6B4 JUMP JUMPDEST PUSH1 0x40 MLOAD DUP1 PUSH2 0x7A0 DUP11 DUP3 PUSH2 0x16E7 JUMP JUMPDEST SUB SWAP1 RETURN JUMPDEST DUP6 SLOAD DUP5 MSTORE PUSH1 0x1 SWAP6 DUP7 ADD SWAP6 DUP12 SWAP6 POP SWAP4 ADD SWAP3 ADD PUSH2 0x690 JUMP JUMPDEST DUP3 CALLVALUE PUSH2 0x145 JUMPI DUP1 PUSH1 0x3 NOT CALLDATASIZE ADD SLT PUSH2 0x145 JUMPI SLOAD PUSH1 0x40 MLOAD PUSH1 0x1 PUSH1 0x1 PUSH1 0xA0 SHL SUB SWAP1 SWAP2 AND DUP2 MSTORE PUSH1 0x20 SWAP1 RETURN JUMPDEST DUP3 CALLVALUE PUSH2 0x145 JUMPI PUSH1 0x20 CALLDATASIZE PUSH1 0x3 NOT ADD SLT PUSH2 0x145 JUMPI PUSH1 0x4 CALLDATALOAD DUP2 MSTORE PUSH1 0x1 PUSH1 0x20 MSTORE PUSH1 0x40 SWAP1 KECCAK256 DUP1 SLOAD SWAP1 PUSH1 0x1 DUP2 ADD SLOAD SWAP3 PUSH1 0x1 PUSH1 0xA0 SHL PUSH1 0x1 SWAP1 SUB PUSH1 0x2 DUP4 ADD SLOAD AND SWAP2 PUSH1 0x3 DUP2 ADD PUSH2 0x827 SWAP1 PUSH2 0x1871 JUMP JUMPDEST PUSH1 0x4 DUP3 ADD SLOAD PUSH1 0xFF AND SWAP3 PUSH1 0x5 DUP4 ADD SLOAD SWAP1 PUSH1 0x6 DUP5 ADD SLOAD PUSH1 0xFF AND SWAP1 PUSH1 0x7 DUP6 ADD SLOAD SWAP2 PUSH1 0x8 DUP7 ADD SLOAD SWAP4 PUSH1 0x9 DUP8 ADD SLOAD SWAP6 PUSH1 0xA DUP9 ADD SLOAD SWAP8 PUSH1 0xB ADD PUSH2 0x863 SWAP1 PUSH2 0x1871 JUMP JUMPDEST SWAP10 PUSH1 0x40 MLOAD SWAP13 DUP14 SWAP13 DUP14 MSTORE PUSH1 0x20 DUP14 ADD MSTORE PUSH1 0x40 DUP13 ADD MSTORE PUSH2 0x180 DUP1 PUSH1 0x60 DUP14 ADD MSTORE DUP12 ADD PUSH2 0x88A SWAP2 PUSH2 0x15DC JUMP JUMPDEST SWAP8 PUSH1 0x80 DUP12 ADD PUSH2 0x898 SWAP2 PUSH2 0x161C JUMP JUMPDEST PUSH1 0xA0 DUP11 ADD MSTORE ISZERO ISZERO PUSH1 0xC0 DUP10 ADD MSTORE DUP8 ADD MSTORE PUSH2 0x100 DUP7 ADD MSTORE PUSH2 0x120 DUP6 ADD MSTORE PUSH2 0x140 DUP5 ADD MSTORE DUP3 DUP2 SUB PUSH2 0x160 DUP5 ADD MSTORE PUSH2 0x7A0 SWAP2 PUSH2 0x15DC JUMP JUMPDEST DUP3 CALLVALUE PUSH2 0x145 JUMPI DUP1 PUSH1 0x3 NOT CALLDATASIZE ADD SLT PUSH2 0x145 JUMPI PUSH1 0x5 SLOAD PUSH1 0x40 MLOAD PUSH1 0x1 PUSH1 0x1 PUSH1 0xA0 SHL SUB SWAP1 SWAP2 AND DUP2 MSTORE PUSH1 0x20 SWAP1 RETURN JUMPDEST DUP3 CALLVALUE PUSH2 0x145 JUMPI DUP1 PUSH1 0x3 NOT CALLDATASIZE ADD SLT PUSH2 0x145 JUMPI PUSH2 0x90D PUSH2 0x1917 JUMP JUMPDEST PUSH1 0x0 DUP1 SLOAD PUSH1 0x1 PUSH1 0x1 PUSH1 0xA0 SHL SUB NOT DUP2 AND DUP3 SSTORE PUSH1 0x1 PUSH1 0x1 PUSH1 0xA0 SHL SUB AND PUSH32 0x8BE0079C531659141344CD1FD0A4F28419497F9722A3DAAFE3B4186F6B6457E0 DUP3 DUP1 LOG3 DUP1 RETURN JUMPDEST DUP3 CALLVALUE PUSH2 0x145 JUMPI PUSH1 0x40 CALLDATASIZE PUSH1 0x3 NOT ADD SLT PUSH2 0x145 JUMPI PUSH2 0x968 PUSH2 0x1821 JUMP JUMPDEST PUSH1 0x24 CALLDATALOAD DUP1 ISZERO ISZERO DUP2 SUB PUSH2 0x9A7 JUMPI PUSH2 0x9A4 SWAP2 PUSH2 0x980 PUSH2 0x1917 JUMP JUMPDEST PUSH1 0x1 DUP1 PUSH1 0xA0 SHL SUB AND DUP4 MSTORE PUSH1 0x7 PUSH1 0x20 MSTORE PUSH1 0x40 DUP4 KECCAK256 SWAP1 PUSH1 0xFF DUP1 NOT DUP4 SLOAD AND SWAP2 ISZERO ISZERO AND OR SWAP1 SSTORE JUMP JUMPDEST DUP1 RETURN JUMPDEST PUSH1 0x0 DUP1 REVERT JUMPDEST DUP3 CALLVALUE PUSH2 0x145 JUMPI PUSH1 0x20 CALLDATASIZE PUSH1 0x3 NOT ADD SLT PUSH2 0x145 JUMPI PUSH2 0x9C6 PUSH2 0x1821 JUMP JUMPDEST PUSH2 0x9CE PUSH2 0x1917 JUMP JUMPDEST PUSH1 0x1 DUP1 PUSH1 0xA0 SHL SUB AND PUSH1 0x1 PUSH1 0x1 PUSH1 0x60 SHL SUB PUSH1 0xA0 SHL PUSH1 0x6 SLOAD AND OR PUSH1 0x6 SSTORE DUP1 RETURN JUMPDEST DUP3 CALLVALUE PUSH2 0x145 JUMPI PUSH1 0x40 CALLDATASIZE PUSH1 0x3 NOT ADD SLT PUSH2 0x145 JUMPI PUSH2 0xA06 PUSH2 0x1821 JUMP JUMPDEST PUSH1 0x1 PUSH1 0x1 PUSH1 0xA0 SHL SUB AND DUP2 MSTORE PUSH1 0x2 PUSH1 0x20 MSTORE PUSH1 0x40 DUP2 KECCAK256 DUP1 SLOAD PUSH1 0x24 CALLDATALOAD SWAP3 SWAP1 DUP4 LT ISZERO PUSH2 0x145 JUMPI PUSH1 0x20 PUSH2 0xA34 DUP5 DUP5 PUSH2 0x17F3 JUMP JUMPDEST SWAP1 SLOAD PUSH1 0x40 MLOAD SWAP2 PUSH1 0x3 SHL SHR DUP2 MSTORE RETURN JUMPDEST DUP3 CALLVALUE PUSH2 0x145 JUMPI PUSH1 0xC0 CALLDATASIZE PUSH1 0x3 NOT ADD SLT PUSH2 0x145 JUMPI PUSH1 0x24 CALLDATALOAD PUSH1 0x1 PUSH1 0x1 PUSH1 0xA0 SHL SUB DUP2 AND DUP2 SUB PUSH2 0x9A7 JUMPI PUSH1 0x44 CALLDATALOAD PUSH8 0xFFFFFFFFFFFFFFFF DUP2 GT PUSH2 0x36C JUMPI PUSH2 0xA87 SWAP1 CALLDATASIZE SWAP1 PUSH1 0x4 ADD PUSH2 0x179C JUMP JUMPDEST SWAP3 PUSH1 0x84 CALLDATALOAD DUP1 ISZERO ISZERO DUP1 SWAP2 SUB PUSH2 0x9A7 JUMPI CALLER DUP5 MSTORE PUSH1 0x7 PUSH1 0x20 MSTORE PUSH1 0xFF PUSH1 0x40 DUP6 KECCAK256 SLOAD AND DUP1 ISZERO PUSH2 0xF5D JUMPI JUMPDEST PUSH2 0xAB5 SWAP1 PUSH2 0x1943 JUMP JUMPDEST PUSH2 0xAC0 PUSH1 0x4 SLOAD PUSH2 0x1980 JUMP JUMPDEST SWAP1 DUP2 PUSH1 0x4 SSTORE PUSH1 0x40 MLOAD SWAP6 PUSH2 0xAD2 DUP8 PUSH2 0x1749 JUMP JUMPDEST DUP3 DUP8 MSTORE PUSH1 0x4 CALLDATALOAD PUSH1 0x20 DUP9 ADD MSTORE PUSH1 0x1 DUP1 PUSH1 0xA0 SHL SUB DUP6 AND PUSH1 0x40 DUP9 ADD MSTORE PUSH1 0x60 DUP8 ADD MSTORE DUP5 PUSH1 0x80 DUP8 ADD MSTORE PUSH1 0x64 CALLDATALOAD PUSH1 0xA0 DUP8 ADD MSTORE PUSH1 0xC0 DUP7 ADD MSTORE TIMESTAMP DUP3 DUP7 ADD MSTORE DUP4 PUSH2 0x100 DUP7 ADD MSTORE PUSH1 0xA4 CALLDATALOAD PUSH2 0x120 DUP7 ADD MSTORE DUP4 PUSH2 0x140 DUP7 ADD MSTORE PUSH1 0x40 MLOAD DUP1 PUSH1 0x20 DUP2 ADD LT PUSH8 0xFFFFFFFFFFFFFFFF PUSH1 0x20 DUP4 ADD GT OR PUSH2 0xF47 JUMPI PUSH1 0x20 DUP2 ADD PUSH1 0x40 MSTORE DUP5 DUP2 MSTORE PUSH2 0x160 DUP7 ADD MSTORE DUP4 MSTORE PUSH1 0x1 PUSH1 0x20 MSTORE PUSH1 0x40 DUP4 KECCAK256 SWAP1 DUP5 MLOAD DUP3 SSTORE PUSH1 0x20 DUP6 ADD MLOAD PUSH1 0x1 DUP4 ADD SSTORE PUSH1 0x2 DUP3 ADD PUSH1 0x1 DUP1 PUSH1 0xA0 SHL SUB PUSH1 0x40 DUP8 ADD MLOAD AND PUSH1 0x1 PUSH1 0x1 PUSH1 0x60 SHL SUB PUSH1 0xA0 SHL DUP3 SLOAD AND OR SWAP1 SSTORE PUSH1 0x60 DUP6 ADD MLOAD DUP1 MLOAD SWAP1 PUSH8 0xFFFFFFFFFFFFFFFF DUP3 GT PUSH2 0xF33 JUMPI DUP2 SWAP1 PUSH2 0xBAD PUSH1 0x3 DUP7 ADD SLOAD PUSH2 0x1837 JUMP JUMPDEST PUSH1 0x1F DUP2 GT PUSH2 0xEE2 JUMPI JUMPDEST POP PUSH1 0x20 SWAP1 PUSH1 0x1F DUP4 GT PUSH1 0x1 EQ PUSH2 0xE73 JUMPI DUP8 SWAP3 PUSH2 0xE68 JUMPI JUMPDEST POP POP DUP2 PUSH1 0x1 SHL SWAP2 PUSH1 0x0 NOT SWAP1 PUSH1 0x3 SHL SHR NOT AND OR PUSH1 0x3 DUP4 ADD SSTORE JUMPDEST PUSH1 0x80 DUP6 ADD MLOAD PUSH1 0x4 DUP2 LT ISZERO PUSH2 0xE54 JUMPI SWAP2 PUSH1 0xB SWAP2 PUSH2 0xC06 PUSH2 0x160 SWAP5 PUSH1 0x4 DUP5 ADD PUSH2 0x19B1 JUMP JUMPDEST PUSH1 0xA0 DUP8 ADD MLOAD PUSH1 0x5 DUP4 ADD SSTORE PUSH2 0xC2F PUSH1 0xC0 DUP9 ADD MLOAD ISZERO ISZERO PUSH1 0x6 DUP5 ADD SWAP1 PUSH1 0xFF DUP1 NOT DUP4 SLOAD AND SWAP2 ISZERO ISZERO AND OR SWAP1 SSTORE JUMP JUMPDEST DUP7 ADD MLOAD PUSH1 0x7 DUP3 ADD SSTORE PUSH2 0x100 DUP7 ADD MLOAD PUSH1 0x8 DUP3 ADD SSTORE PUSH2 0x120 DUP7 ADD MLOAD PUSH1 0x9 DUP3 ADD SSTORE PUSH2 0x140 DUP7 ADD MLOAD PUSH1 0xA DUP3 ADD SSTORE ADD SWAP4 ADD MLOAD SWAP3 DUP4 MLOAD PUSH8 0xFFFFFFFFFFFFFFFF DUP2 GT PUSH2 0xE40 JUMPI PUSH2 0xC78 DUP3 SLOAD PUSH2 0x1837 JUMP JUMPDEST PUSH1 0x1F DUP2 GT PUSH2 0xDFA JUMPI JUMPDEST POP PUSH1 0x20 SWAP5 PUSH1 0x1F DUP3 GT PUSH1 0x1 EQ PUSH2 0xD97 JUMPI SWAP5 DUP5 SWAP6 DUP3 SWAP4 SWAP5 SWAP6 SWAP3 PUSH2 0xD8C JUMPI JUMPDEST POP POP DUP2 PUSH1 0x1 SHL SWAP2 PUSH1 0x0 NOT SWAP1 PUSH1 0x3 SHL SHR NOT AND OR SWAP1 SSTORE JUMPDEST PUSH1 0x1 PUSH1 0x1 PUSH1 0xA0 SHL SUB DUP2 AND DUP3 MSTORE PUSH1 0x2 PUSH1 0x20 MSTORE PUSH1 0x40 DUP3 KECCAK256 PUSH1 0x4 SLOAD PUSH2 0xCD3 SWAP2 PUSH2 0x19C9 JUMP JUMPDEST PUSH1 0x4 CALLDATALOAD DUP3 MSTORE PUSH1 0x3 PUSH1 0x20 MSTORE PUSH2 0xCED PUSH1 0x40 DUP4 KECCAK256 PUSH1 0x4 SLOAD SWAP1 PUSH2 0x19C9 JUMP JUMPDEST PUSH1 0x5 SLOAD DUP3 SWAP1 PUSH1 0x1 PUSH1 0x1 PUSH1 0xA0 SHL SUB AND DUP1 EXTCODESIZE ISZERO PUSH2 0x641 JUMPI DUP2 SWAP1 PUSH1 0x24 PUSH1 0x40 MLOAD DUP1 SWAP5 DUP2 SWAP4 PUSH4 0x27B4DD23 PUSH1 0xE2 SHL DUP4 MSTORE PUSH1 0x4 CALLDATALOAD PUSH1 0x4 DUP5 ADD MSTORE GAS CALL DUP1 ISZERO PUSH2 0xD81 JUMPI PUSH2 0xD6D JUMPI JUMPDEST POP PUSH1 0x20 SWAP2 PUSH1 0x4 SLOAD SWAP1 PUSH1 0x40 MLOAD SWAP3 PUSH1 0x1 DUP1 PUSH1 0xA0 SHL SUB AND SWAP1 DUP3 PUSH32 0x608625AB6F77A46173F4140D5795B7128DC6E75D7AE867D32B5E49AE02CDE652 PUSH1 0x4 CALLDATALOAD SWAP3 DUP1 LOG4 DUP2 MSTORE RETURN JUMPDEST PUSH2 0xD77 DUP4 SWAP2 PUSH2 0x1766 JUMP JUMPDEST PUSH2 0x641 JUMPI DUP3 PUSH2 0xD2C JUMP JUMPDEST PUSH1 0x40 MLOAD RETURNDATASIZE DUP6 DUP3 RETURNDATACOPY RETURNDATASIZE SWAP1 REVERT JUMPDEST ADD MLOAD SWAP1 POP DUP6 DUP1 PUSH2 0xC9D JUMP JUMPDEST PUSH1 0x1F NOT DUP3 AND SWAP6 DUP4 DUP7 MSTORE PUSH1 0x20 DUP7 KECCAK256 SWAP2 DUP7 JUMPDEST DUP9 DUP2 LT PUSH2 0xDE2 JUMPI POP DUP4 PUSH1 0x1 SWAP6 SWAP7 SWAP8 SWAP9 LT PUSH2 0xDC9 JUMPI JUMPDEST POP POP POP DUP2 SHL ADD SWAP1 SSTORE PUSH2 0xCB2 JUMP JUMPDEST ADD MLOAD PUSH1 0x0 NOT PUSH1 0xF8 DUP5 PUSH1 0x3 SHL AND SHR NOT AND SWAP1 SSTORE DUP6 DUP1 DUP1 PUSH2 0xDBC JUMP JUMPDEST SWAP2 SWAP3 PUSH1 0x20 PUSH1 0x1 DUP2 SWAP3 DUP7 DUP6 ADD MLOAD DUP2 SSTORE ADD SWAP5 ADD SWAP3 ADD PUSH2 0xDA7 JUMP JUMPDEST DUP3 DUP6 MSTORE PUSH1 0x20 DUP6 KECCAK256 PUSH1 0x1F DUP4 ADD PUSH1 0x5 SHR DUP2 ADD SWAP2 PUSH1 0x20 DUP5 LT PUSH2 0xE36 JUMPI JUMPDEST PUSH1 0x1F ADD PUSH1 0x5 SHR ADD SWAP1 JUMPDEST DUP2 DUP2 LT PUSH2 0xE2A JUMPI POP PUSH2 0xC81 JUMP JUMPDEST PUSH1 0x0 DUP2 SSTORE PUSH1 0x1 ADD PUSH2 0xE1D JUMP JUMPDEST SWAP1 SWAP2 POP DUP2 SWAP1 PUSH2 0xE14 JUMP JUMPDEST PUSH4 0x4E487B71 PUSH1 0xE0 SHL DUP5 MSTORE PUSH1 0x41 PUSH1 0x4 MSTORE PUSH1 0x24 DUP5 REVERT JUMPDEST PUSH4 0x4E487B71 PUSH1 0xE0 SHL DUP6 MSTORE PUSH1 0x21 PUSH1 0x4 MSTORE PUSH1 0x24 DUP6 REVERT JUMPDEST ADD MLOAD SWAP1 POP DUP8 DUP1 PUSH2 0xBCC JUMP JUMPDEST SWAP3 POP PUSH1 0x3 DUP6 ADD DUP8 MSTORE PUSH1 0x20 DUP8 KECCAK256 SWAP1 DUP8 SWAP4 JUMPDEST PUSH1 0x1F NOT DUP5 AND DUP6 LT PUSH2 0xEC7 JUMPI PUSH1 0x1 SWAP5 POP DUP4 PUSH1 0x1F NOT DUP2 AND LT PUSH2 0xEAE JUMPI JUMPDEST POP POP POP DUP2 SHL ADD PUSH1 0x3 DUP4 ADD SSTORE PUSH2 0xBE4 JUMP JUMPDEST ADD MLOAD PUSH1 0x0 NOT PUSH1 0xF8 DUP5 PUSH1 0x3 SHL AND SHR NOT AND SWAP1 SSTORE DUP8 DUP1 DUP1 PUSH2 0xE9E JUMP JUMPDEST DUP2 DUP2 ADD MLOAD DUP4 SSTORE PUSH1 0x20 SWAP5 DUP6 ADD SWAP5 PUSH1 0x1 SWAP1 SWAP4 ADD SWAP3 SWAP1 SWAP2 ADD SWAP1 PUSH2 0xE83 JUMP JUMPDEST SWAP1 SWAP2 POP PUSH1 0x3 DUP6 ADD DUP8 MSTORE PUSH1 0x20 DUP8 KECCAK256 PUSH1 0x1F DUP5 ADD PUSH1 0x5 SHR DUP2 ADD PUSH1 0x20 DUP6 LT PUSH2 0xF2C JUMPI JUMPDEST SWAP1 DUP5 SWAP4 SWAP3 SWAP2 JUMPDEST PUSH1 0x1F DUP4 ADD PUSH1 0x5 SHR DUP3 ADD DUP2 LT PUSH2 0xF1D JUMPI POP POP PUSH2 0xBB6 JUMP JUMPDEST PUSH1 0x0 DUP2 SSTORE DUP6 SWAP5 POP PUSH1 0x1 ADD PUSH2 0xF07 JUMP JUMPDEST POP DUP1 PUSH2 0xF01 JUMP JUMPDEST PUSH4 0x4E487B71 PUSH1 0xE0 SHL DUP7 MSTORE PUSH1 0x41 PUSH1 0x4 MSTORE PUSH1 0x24 DUP7 REVERT JUMPDEST PUSH4 0x4E487B71 PUSH1 0xE0 SHL PUSH1 0x0 MSTORE PUSH1 0x41 PUSH1 0x4 MSTORE PUSH1 0x24 PUSH1 0x0 REVERT JUMPDEST POP DUP4 SLOAD PUSH1 0x1 PUSH1 0x1 PUSH1 0xA0 SHL SUB AND CALLER EQ PUSH2 0xAAC JUMP JUMPDEST DUP3 CALLVALUE PUSH2 0x145 JUMPI PUSH1 0x20 CALLDATASIZE PUSH1 0x3 NOT ADD SLT PUSH2 0x145 JUMPI PUSH1 0x20 SWAP1 PUSH1 0x4 CALLDATALOAD DUP2 MSTORE PUSH1 0x1 DUP3 MSTORE PUSH1 0x2 PUSH1 0x40 PUSH1 0x1 DUP1 PUSH1 0xA0 SHL SUB SWAP3 KECCAK256 ADD SLOAD AND PUSH1 0x40 MLOAD SWAP1 DUP2 MSTORE RETURN JUMPDEST DUP3 CALLVALUE PUSH2 0x145 JUMPI PUSH1 0x40 CALLDATASIZE PUSH1 0x3 NOT ADD SLT PUSH2 0x145 JUMPI PUSH1 0x24 CALLDATALOAD PUSH1 0x4 DUP2 LT ISZERO PUSH2 0x641 JUMPI PUSH2 0x9A4 SWAP1 CALLER DUP4 MSTORE PUSH1 0x7 PUSH1 0x20 MSTORE PUSH1 0xFF PUSH1 0x40 DUP5 KECCAK256 SLOAD AND DUP1 ISZERO PUSH2 0xFFE JUMPI JUMPDEST PUSH2 0xFE8 SWAP1 PUSH2 0x1943 JUMP JUMPDEST PUSH1 0x4 CALLDATALOAD DUP4 MSTORE PUSH1 0x1 PUSH1 0x20 MSTORE PUSH1 0x4 PUSH1 0x40 DUP5 KECCAK256 ADD PUSH2 0x19B1 JUMP JUMPDEST POP DUP3 SLOAD PUSH1 0x1 PUSH1 0x1 PUSH1 0xA0 SHL SUB AND CALLER EQ PUSH2 0xFDF JUMP JUMPDEST DUP3 CALLVALUE PUSH2 0x145 JUMPI PUSH1 0x40 CALLDATASIZE PUSH1 0x3 NOT ADD SLT PUSH2 0x145 JUMPI PUSH1 0x24 CALLDATALOAD SWAP1 PUSH1 0x4 CALLDATALOAD DUP2 MSTORE PUSH1 0x3 PUSH1 0x20 MSTORE PUSH1 0x40 DUP2 KECCAK256 SWAP1 DUP2 SLOAD DUP4 LT ISZERO PUSH2 0x145 JUMPI PUSH1 0x20 PUSH2 0x104B DUP5 DUP5 PUSH2 0x17F3 JUMP JUMPDEST SWAP1 SLOAD SWAP1 PUSH1 0x3 SHL SHR PUSH1 0x40 MLOAD SWAP1 DUP2 MSTORE RETURN JUMPDEST DUP3 CALLVALUE PUSH2 0x145 JUMPI PUSH1 0x20 CALLDATASIZE PUSH1 0x3 NOT ADD SLT PUSH2 0x145 JUMPI PUSH1 0x1 PUSH1 0x40 PUSH1 0x20 SWAP3 PUSH1 0x4 CALLDATALOAD DUP2 MSTORE DUP3 DUP5 MSTORE KECCAK256 ADD SLOAD PUSH1 0x40 MLOAD SWAP1 DUP2 MSTORE RETURN JUMPDEST DUP3 CALLVALUE PUSH2 0x145 JUMPI PUSH1 0x20 SWAP1 DUP2 PUSH1 0x3 NOT CALLDATASIZE ADD SLT PUSH2 0x145 JUMPI PUSH1 0xB PUSH1 0x40 PUSH2 0x1165 SWAP3 PUSH1 0x4 CALLDATALOAD PUSH2 0x10AD PUSH2 0x1A7F JUMP JUMPDEST POP DUP1 DUP3 MSTORE PUSH1 0x1 DUP7 MSTORE PUSH2 0x10C3 DUP4 DUP4 KECCAK256 SLOAD ISZERO ISZERO PUSH2 0x1A03 JUMP JUMPDEST DUP2 MSTORE PUSH1 0x1 DUP6 MSTORE KECCAK256 PUSH1 0x40 MLOAD SWAP5 PUSH2 0x10D7 DUP7 PUSH2 0x1749 JUMP JUMPDEST DUP2 SLOAD DUP7 MSTORE PUSH1 0x1 DUP3 ADD SLOAD DUP6 DUP8 ADD MSTORE PUSH1 0x2 DUP3 ADD SLOAD PUSH1 0x1 PUSH1 0x1 PUSH1 0xA0 SHL SUB AND PUSH1 0x40 DUP8 ADD MSTORE PUSH2 0x1103 PUSH1 0x3 DUP4 ADD PUSH2 0x1871 JUMP JUMPDEST PUSH1 0x60 DUP8 ADD MSTORE PUSH2 0x111C PUSH1 0xFF PUSH1 0x4 DUP5 ADD SLOAD AND PUSH1 0x80 DUP9 ADD PUSH2 0x19A5 JUMP JUMPDEST PUSH1 0x5 DUP3 ADD SLOAD PUSH1 0xA0 DUP8 ADD MSTORE PUSH1 0xFF PUSH1 0x6 DUP4 ADD SLOAD AND ISZERO ISZERO PUSH1 0xC0 DUP8 ADD MSTORE PUSH1 0x7 DUP3 ADD SLOAD SWAP1 DUP7 ADD MSTORE PUSH1 0x8 DUP2 ADD SLOAD PUSH2 0x100 DUP7 ADD MSTORE PUSH1 0x9 DUP2 ADD SLOAD PUSH2 0x120 DUP7 ADD MSTORE PUSH1 0xA DUP2 ADD SLOAD PUSH2 0x140 DUP7 ADD MSTORE ADD PUSH2 0x1871 JUMP JUMPDEST PUSH2 0x160 DUP4 ADD MSTORE PUSH2 0x7A0 PUSH1 0x40 MLOAD SWAP3 DUP3 DUP5 SWAP4 DUP5 MSTORE DUP4 ADD SWAP1 PUSH2 0x163F JUMP JUMPDEST DUP3 CALLVALUE PUSH2 0x145 JUMPI PUSH1 0x60 CALLDATASIZE PUSH1 0x3 NOT ADD SLT PUSH2 0x145 JUMPI PUSH1 0x24 CALLDATALOAD PUSH1 0x4 CALLDATALOAD PUSH8 0xFFFFFFFFFFFFFFFF PUSH1 0x44 CALLDATALOAD DUP2 DUP2 GT PUSH2 0x133B JUMPI PUSH2 0x11B8 SWAP1 CALLDATASIZE SWAP1 PUSH1 0x4 ADD PUSH2 0x179C JUMP JUMPDEST CALLER DUP6 MSTORE PUSH1 0x20 SWAP1 PUSH1 0x7 DUP3 MSTORE PUSH1 0xFF PUSH1 0x40 DUP8 KECCAK256 SLOAD AND DUP1 ISZERO PUSH2 0x143F JUMPI JUMPDEST PUSH2 0x11DA SWAP1 PUSH2 0x1943 JUMP JUMPDEST DUP4 DUP7 MSTORE PUSH1 0x1 SWAP1 DUP2 DUP4 MSTORE PUSH1 0x40 DUP8 KECCAK256 SWAP4 PUSH2 0x11F4 DUP6 SLOAD ISZERO ISZERO PUSH2 0x1A03 JUMP JUMPDEST PUSH1 0x4 DUP6 ADD DUP1 SLOAD PUSH1 0xFF DUP2 AND PUSH1 0x4 DUP2 LT ISZERO PUSH2 0x142B JUMPI SWAP1 PUSH2 0x1213 DUP7 SWAP3 ISZERO PUSH2 0x1A40 JUMP JUMPDEST PUSH1 0xFF NOT AND OR SWAP1 SSTORE TIMESTAMP PUSH1 0x8 DUP7 ADD SSTORE DUP7 PUSH1 0xA DUP7 ADD SSTORE PUSH1 0xB DUP6 ADD SWAP2 DUP1 MLOAD SWAP2 DUP3 GT PUSH2 0x1417 JUMPI DUP2 SWAP1 PUSH2 0x1240 DUP5 SLOAD PUSH2 0x1837 JUMP JUMPDEST PUSH1 0x1F DUP2 GT PUSH2 0x13C7 JUMPI JUMPDEST POP DUP6 SWAP1 PUSH1 0x1F DUP4 GT PUSH1 0x1 EQ PUSH2 0x1368 JUMPI DUP11 SWAP3 PUSH2 0x135D JUMPI JUMPDEST POP POP PUSH1 0x0 NOT PUSH1 0x3 DUP4 SWAP1 SHL SHR NOT AND SWAP1 DUP4 SHL OR SWAP1 SSTORE JUMPDEST PUSH1 0x5 SLOAD SWAP3 ADD DUP1 SLOAD SWAP1 SWAP3 PUSH1 0x1 PUSH1 0x1 PUSH1 0xA0 SHL SUB SWAP2 DUP8 SWAP2 DUP4 AND DUP1 EXTCODESIZE ISZERO PUSH2 0x36C JUMPI PUSH1 0x24 DUP4 SWAP3 PUSH1 0x40 MLOAD SWAP5 DUP6 SWAP4 DUP5 SWAP3 PUSH4 0x86DFBCD1 PUSH1 0xE0 SHL DUP5 MSTORE PUSH1 0x4 DUP5 ADD MSTORE GAS CALL DUP1 ISZERO PUSH2 0x1352 JUMPI PUSH2 0x133F JUMPI JUMPDEST POP DUP6 SWAP1 PUSH1 0x6 SLOAD AND DUP4 SLOAD DUP2 EXTCODESIZE ISZERO PUSH2 0x36C JUMPI DUP3 SWAP2 PUSH1 0x44 DUP4 SWAP3 PUSH1 0x40 MLOAD SWAP5 DUP6 SWAP4 DUP5 SWAP3 PUSH4 0x12FD335 PUSH1 0xE7 SHL DUP5 MSTORE DUP12 PUSH1 0x4 DUP6 ADD MSTORE PUSH1 0x24 DUP5 ADD MSTORE GAS CALL DUP1 ISZERO PUSH2 0x361 JUMPI PUSH2 0x1327 JUMPI JUMPDEST POP POP PUSH32 0x339BA61D0494CD9480AC692252C889CDD0184F891856A80A25FC39C7D9F88F7E SWAP2 SLOAD SWAP4 PUSH1 0x40 MLOAD SWAP1 DUP2 MSTORE LOG3 DUP1 RETURN JUMPDEST PUSH2 0x1330 SWAP1 PUSH2 0x1766 JUMP JUMPDEST PUSH2 0x133B JUMPI DUP5 DUP7 PUSH2 0x12F7 JUMP JUMPDEST DUP5 DUP1 REVERT JUMPDEST PUSH2 0x134B SWAP1 SWAP7 SWAP2 SWAP7 PUSH2 0x1766 JUMP JUMPDEST SWAP5 DUP7 PUSH2 0x12B7 JUMP JUMPDEST PUSH1 0x40 MLOAD RETURNDATASIZE DUP10 DUP3 RETURNDATACOPY RETURNDATASIZE SWAP1 REVERT JUMPDEST ADD MLOAD SWAP1 POP DUP10 DUP1 PUSH2 0x125E JUMP JUMPDEST DUP5 DUP12 MSTORE DUP7 DUP12 KECCAK256 DUP7 SWAP5 POP SWAP2 SWAP1 PUSH1 0x1F NOT DUP5 AND DUP13 JUMPDEST DUP10 DUP3 DUP3 LT PUSH2 0x13B1 JUMPI POP POP DUP5 GT PUSH2 0x1398 JUMPI JUMPDEST POP POP POP DUP2 SHL ADD SWAP1 SSTORE PUSH2 0x1272 JUMP JUMPDEST ADD MLOAD PUSH1 0x0 NOT PUSH1 0xF8 DUP5 PUSH1 0x3 SHL AND SHR NOT AND SWAP1 SSTORE DUP10 DUP1 DUP1 PUSH2 0x138B JUMP JUMPDEST DUP4 DUP6 ADD MLOAD DUP7 SSTORE DUP10 SWAP8 SWAP1 SWAP6 ADD SWAP5 SWAP4 DUP5 ADD SWAP4 ADD PUSH2 0x137A JUMP JUMPDEST SWAP1 SWAP2 POP DUP4 DUP11 MSTORE DUP6 DUP11 KECCAK256 PUSH1 0x1F DUP5 ADD PUSH1 0x5 SHR DUP2 ADD SWAP2 DUP8 DUP6 LT PUSH2 0x140D JUMPI JUMPDEST DUP5 SWAP4 SWAP3 SWAP2 PUSH1 0x1F DUP9 SWAP3 ADD PUSH1 0x5 SHR ADD SWAP2 JUMPDEST DUP3 DUP2 LT PUSH2 0x13FF JUMPI POP POP PUSH2 0x1249 JUMP JUMPDEST DUP13 DUP2 SSTORE DUP6 SWAP5 POP DUP8 SWAP2 ADD PUSH2 0x13F1 JUMP JUMPDEST SWAP1 SWAP2 POP DUP2 SWAP1 PUSH2 0x13E2 JUMP JUMPDEST PUSH4 0x4E487B71 PUSH1 0xE0 SHL DUP10 MSTORE PUSH1 0x41 PUSH1 0x4 MSTORE PUSH1 0x24 DUP10 REVERT JUMPDEST PUSH4 0x4E487B71 PUSH1 0xE0 SHL DUP12 MSTORE PUSH1 0x21 PUSH1 0x4 MSTORE PUSH1 0x24 DUP12 REVERT JUMPDEST POP DUP6 SLOAD PUSH1 0x1 PUSH1 0x1 PUSH1 0xA0 SHL SUB AND CALLER EQ PUSH2 0x11D1 JUMP JUMPDEST SWAP1 POP CALLVALUE PUSH2 0x641 JUMPI PUSH1 0x20 SWAP2 DUP3 PUSH1 0x3 NOT CALLDATASIZE ADD SLT PUSH2 0x145 JUMPI PUSH1 0x4 CALLDATALOAD DUP2 MSTORE PUSH1 0x3 SWAP3 DUP4 DUP2 MSTORE PUSH1 0x40 DUP3 KECCAK256 SWAP3 PUSH1 0x40 MLOAD DUP1 DUP6 DUP5 DUP3 SWAP8 SLOAD SWAP4 DUP5 DUP2 MSTORE ADD SWAP1 DUP7 MSTORE DUP5 DUP7 KECCAK256 SWAP3 DUP7 JUMPDEST DUP7 DUP3 DUP3 LT PUSH2 0x159F JUMPI POP POP POP PUSH2 0x14A5 SWAP3 POP SUB DUP6 PUSH2 0x177A JUMP JUMPDEST PUSH2 0x14AF DUP5 MLOAD PUSH2 0x1AF0 JUMP JUMPDEST SWAP5 DUP4 JUMPDEST DUP6 MLOAD DUP2 LT ISZERO PUSH2 0x1591 JUMPI DUP1 PUSH2 0x14C9 PUSH2 0x158C SWAP3 DUP9 PUSH2 0x1B40 JUMP JUMPDEST MLOAD DUP7 MSTORE PUSH1 0x1 DUP1 DUP7 MSTORE PUSH2 0x1571 PUSH1 0xB PUSH1 0x40 DUP10 KECCAK256 PUSH1 0x40 MLOAD SWAP4 PUSH2 0x14E7 DUP6 PUSH2 0x1749 JUMP JUMPDEST DUP2 SLOAD DUP6 MSTORE DUP2 ADD SLOAD DUP10 DUP6 ADD MSTORE PUSH1 0x2 DUP2 ADD SLOAD PUSH1 0x1 PUSH1 0x1 PUSH1 0xA0 SHL SUB AND PUSH1 0x40 DUP6 ADD MSTORE PUSH2 0x1510 DUP8 DUP3 ADD PUSH2 0x1871 JUMP JUMPDEST PUSH1 0x60 DUP6 ADD MSTORE PUSH1 0xFF PUSH2 0x152A DUP2 PUSH1 0x4 DUP5 ADD SLOAD AND PUSH1 0x80 DUP8 ADD PUSH2 0x19A5 JUMP JUMPDEST PUSH1 0x5 DUP3 ADD SLOAD PUSH1 0xA0 DUP7 ADD MSTORE PUSH1 0x6 DUP3 ADD SLOAD AND ISZERO ISZERO PUSH1 0xC0 DUP6 ADD MSTORE PUSH1 0x7 DUP2 ADD SLOAD DUP9 DUP6 ADD MSTORE PUSH1 0x8 DUP2 ADD SLOAD PUSH2 0x100 DUP6 ADD MSTORE PUSH1 0x9 DUP2 ADD SLOAD PUSH2 0x120 DUP6 ADD MSTORE PUSH1 0xA DUP2 ADD SLOAD PUSH2 0x140 DUP6 ADD MSTORE ADD PUSH2 0x1871 JUMP JUMPDEST PUSH2 0x160 DUP3 ADD MSTORE PUSH2 0x1581 DUP3 DUP11 PUSH2 0x1B40 JUMP JUMPDEST MSTORE PUSH2 0x787 DUP2 DUP10 PUSH2 0x1B40 JUMP JUMPDEST PUSH2 0x14B2 JUMP JUMPDEST PUSH1 0x40 MLOAD DUP1 PUSH2 0x7A0 DUP10 DUP3 PUSH2 0x16E7 JUMP JUMPDEST DUP6 SLOAD DUP5 MSTORE PUSH1 0x1 SWAP6 DUP7 ADD SWAP6 DUP11 SWAP6 POP SWAP4 ADD SWAP3 ADD PUSH2 0x148E JUMP JUMPDEST DUP3 CALLVALUE PUSH2 0x145 JUMPI PUSH1 0x20 CALLDATASIZE PUSH1 0x3 NOT ADD SLT PUSH2 0x145 JUMPI PUSH1 0x20 PUSH2 0x15D4 PUSH1 0x4 CALLDATALOAD PUSH2 0x1B54 JUMP JUMPDEST PUSH1 0x40 MLOAD SWAP1 DUP2 MSTORE RETURN JUMPDEST SWAP2 SWAP1 DUP3 MLOAD SWAP3 DUP4 DUP3 MSTORE PUSH1 0x0 JUMPDEST DUP5 DUP2 LT PUSH2 0x1608 JUMPI POP POP DUP3 PUSH1 0x0 PUSH1 0x20 DUP1 SWAP5 SWAP6 DUP5 ADD ADD MSTORE PUSH1 0x1F DUP1 NOT SWAP2 ADD AND ADD ADD SWAP1 JUMP JUMPDEST PUSH1 0x20 DUP2 DUP4 ADD DUP2 ADD MLOAD DUP5 DUP4 ADD DUP3 ADD MSTORE ADD PUSH2 0x15E7 JUMP JUMPDEST SWAP1 PUSH1 0x4 DUP3 LT ISZERO PUSH2 0x1629 JUMPI MSTORE JUMP JUMPDEST PUSH4 0x4E487B71 PUSH1 0xE0 SHL PUSH1 0x0 MSTORE PUSH1 0x21 PUSH1 0x4 MSTORE PUSH1 0x24 PUSH1 0x0 REVERT JUMPDEST SWAP1 PUSH2 0x16E4 SWAP2 DUP1 MLOAD DUP3 MSTORE PUSH1 0x20 DUP2 ADD MLOAD PUSH1 0x20 DUP4 ADD MSTORE PUSH1 0x1 DUP1 PUSH1 0xA0 SHL SUB PUSH1 0x40 DUP3 ADD MLOAD AND PUSH1 0x40 DUP4 ADD MSTORE PUSH2 0x167D PUSH1 0x60 DUP3 ADD MLOAD PUSH2 0x180 DUP1 PUSH1 0x60 DUP7 ADD MSTORE DUP5 ADD SWAP1 PUSH2 0x15DC JUMP JUMPDEST SWAP2 PUSH2 0x1690 PUSH1 0x80 DUP4 ADD MLOAD PUSH1 0x80 DUP4 ADD SWAP1 PUSH2 0x161C JUMP JUMPDEST PUSH1 0xA0 DUP3 ADD MLOAD PUSH1 0xA0 DUP3 ADD MSTORE PUSH1 0xC0 DUP3 ADD MLOAD ISZERO ISZERO PUSH1 0xC0 DUP3 ADD MSTORE PUSH1 0xE0 DUP3 ADD MLOAD PUSH1 0xE0 DUP3 ADD MSTORE PUSH2 0x100 DUP1 DUP4 ADD MLOAD SWAP1 DUP3 ADD MSTORE PUSH2 0x120 DUP1 DUP4 ADD MLOAD SWAP1 DUP3 ADD MSTORE PUSH2 0x140 DUP1 DUP4 ADD MLOAD SWAP1 DUP3 ADD MSTORE PUSH2 0x160 DUP1 SWAP3 ADD MLOAD SWAP2 DUP2 DUP5 SUB SWAP2 ADD MSTORE PUSH2 0x15DC JUMP JUMPDEST SWAP1 JUMP JUMPDEST PUSH1 0x20 DUP1 DUP3 ADD SWAP1 DUP1 DUP4 MSTORE DUP4 MLOAD DUP1 SWAP3 MSTORE PUSH1 0x40 DUP4 ADD SWAP3 DUP2 PUSH1 0x40 DUP5 PUSH1 0x5 SHL DUP4 ADD ADD SWAP6 ADD SWAP4 PUSH1 0x0 SWAP2 JUMPDEST DUP5 DUP4 LT PUSH2 0x171B JUMPI POP POP POP POP POP POP SWAP1 JUMP JUMPDEST SWAP1 SWAP2 SWAP3 SWAP4 SWAP5 SWAP6 DUP5 DUP1 PUSH2 0x1739 PUSH1 0x1 SWAP4 PUSH1 0x3F NOT DUP7 DUP3 SUB ADD DUP8 MSTORE DUP11 MLOAD PUSH2 0x163F JUMP JUMPDEST SWAP9 ADD SWAP4 ADD SWAP4 ADD SWAP2 SWAP5 SWAP4 SWAP3 SWAP1 PUSH2 0x170B JUMP JUMPDEST PUSH2 0x180 DUP2 ADD SWAP1 DUP2 LT PUSH8 0xFFFFFFFFFFFFFFFF DUP3 GT OR PUSH2 0xF47 JUMPI PUSH1 0x40 MSTORE JUMP JUMPDEST PUSH8 0xFFFFFFFFFFFFFFFF DUP2 GT PUSH2 0xF47 JUMPI PUSH1 0x40 MSTORE JUMP JUMPDEST SWAP1 PUSH1 0x1F DUP1 NOT SWAP2 ADD AND DUP2 ADD SWAP1 DUP2 LT PUSH8 0xFFFFFFFFFFFFFFFF DUP3 GT OR PUSH2 0xF47 JUMPI PUSH1 0x40 MSTORE JUMP JUMPDEST DUP2 PUSH1 0x1F DUP3 ADD SLT ISZERO PUSH2 0x9A7 JUMPI DUP1 CALLDATALOAD SWAP1 PUSH8 0xFFFFFFFFFFFFFFFF DUP3 GT PUSH2 0xF47 JUMPI PUSH1 0x40 MLOAD SWAP3 PUSH2 0x17D1 PUSH1 0x1F DUP5 ADD PUSH1 0x1F NOT AND PUSH1 0x20 ADD DUP6 PUSH2 0x177A JUMP JUMPDEST DUP3 DUP5 MSTORE PUSH1 0x20 DUP4 DUP4 ADD ADD GT PUSH2 0x9A7 JUMPI DUP2 PUSH1 0x0 SWAP3 PUSH1 0x20 DUP1 SWAP4 ADD DUP4 DUP7 ADD CALLDATACOPY DUP4 ADD ADD MSTORE SWAP1 JUMP JUMPDEST DUP1 SLOAD DUP3 LT ISZERO PUSH2 0x180B JUMPI PUSH1 0x0 MSTORE PUSH1 0x20 PUSH1 0x0 KECCAK256 ADD SWAP1 PUSH1 0x0 SWAP1 JUMP JUMPDEST PUSH4 0x4E487B71 PUSH1 0xE0 SHL PUSH1 0x0 MSTORE PUSH1 0x32 PUSH1 0x4 MSTORE PUSH1 0x24 PUSH1 0x0 REVERT JUMPDEST PUSH1 0x4 CALLDATALOAD SWAP1 PUSH1 0x1 PUSH1 0x1 PUSH1 0xA0 SHL SUB DUP3 AND DUP3 SUB PUSH2 0x9A7 JUMPI JUMP JUMPDEST SWAP1 PUSH1 0x1 DUP3 DUP2 SHR SWAP3 AND DUP1 ISZERO PUSH2 0x1867 JUMPI JUMPDEST PUSH1 0x20 DUP4 LT EQ PUSH2 0x1851 JUMPI JUMP JUMPDEST PUSH4 0x4E487B71 PUSH1 0xE0 SHL PUSH1 0x0 MSTORE PUSH1 0x22 PUSH1 0x4 MSTORE PUSH1 0x24 PUSH1 0x0 REVERT JUMPDEST SWAP2 PUSH1 0x7F AND SWAP2 PUSH2 0x1846 JUMP JUMPDEST SWAP1 PUSH1 0x40 MLOAD SWAP2 DUP3 PUSH1 0x0 DUP3 SLOAD SWAP3 PUSH2 0x1885 DUP5 PUSH2 0x1837 JUMP JUMPDEST SWAP1 DUP2 DUP5 MSTORE PUSH1 0x1 SWAP5 DUP6 DUP2 AND SWAP1 DUP2 PUSH1 0x0 EQ PUSH2 0x18F4 JUMPI POP PUSH1 0x1 EQ PUSH2 0x18B1 JUMPI JUMPDEST POP POP PUSH2 0x18AF SWAP3 POP SUB DUP4 PUSH2 0x177A JUMP JUMPDEST JUMP JUMPDEST SWAP1 SWAP4 SWAP2 POP PUSH1 0x0 MSTORE PUSH1 0x20 SWAP1 DUP2 PUSH1 0x0 KECCAK256 SWAP4 PUSH1 0x0 SWAP2 JUMPDEST DUP2 DUP4 LT PUSH2 0x18DC JUMPI POP POP PUSH2 0x18AF SWAP4 POP DUP3 ADD ADD CODESIZE DUP1 PUSH2 0x18A1 JUMP JUMPDEST DUP6 SLOAD DUP9 DUP5 ADD DUP6 ADD MSTORE SWAP5 DUP6 ADD SWAP5 DUP8 SWAP5 POP SWAP2 DUP4 ADD SWAP2 PUSH2 0x18C4 JUMP JUMPDEST SWAP2 POP POP PUSH2 0x18AF SWAP5 POP PUSH1 0x20 SWAP3 POP PUSH1 0xFF NOT AND DUP3 DUP5 ADD MSTORE ISZERO ISZERO PUSH1 0x5 SHL DUP3 ADD ADD CODESIZE DUP1 PUSH2 0x18A1 JUMP JUMPDEST PUSH1 0x0 SLOAD PUSH1 0x1 PUSH1 0x1 PUSH1 0xA0 SHL SUB AND CALLER SUB PUSH2 0x192B JUMPI JUMP JUMPDEST PUSH1 0x40 MLOAD PUSH4 0x118CDAA7 PUSH1 0xE0 SHL DUP2 MSTORE CALLER PUSH1 0x4 DUP3 ADD MSTORE PUSH1 0x24 SWAP1 REVERT JUMPDEST ISZERO PUSH2 0x194A JUMPI JUMP JUMPDEST PUSH1 0x40 MLOAD PUSH3 0x461BCD PUSH1 0xE5 SHL DUP2 MSTORE PUSH1 0x20 PUSH1 0x4 DUP3 ADD MSTORE PUSH1 0xE PUSH1 0x24 DUP3 ADD MSTORE PUSH14 0x139BDD08185D5D1A1BDC9A5E9959 PUSH1 0x92 SHL PUSH1 0x44 DUP3 ADD MSTORE PUSH1 0x64 SWAP1 REVERT JUMPDEST PUSH1 0x0 NOT DUP2 EQ PUSH2 0x198F JUMPI PUSH1 0x1 ADD SWAP1 JUMP JUMPDEST PUSH4 0x4E487B71 PUSH1 0xE0 SHL PUSH1 0x0 MSTORE PUSH1 0x11 PUSH1 0x4 MSTORE PUSH1 0x24 PUSH1 0x0 REVERT JUMPDEST PUSH1 0x4 DUP3 LT ISZERO PUSH2 0x1629 JUMPI MSTORE JUMP JUMPDEST SWAP1 PUSH1 0x4 DUP2 LT ISZERO PUSH2 0x1629 JUMPI PUSH1 0xFF DUP1 NOT DUP4 SLOAD AND SWAP2 AND OR SWAP1 SSTORE JUMP JUMPDEST DUP1 SLOAD PUSH9 0x10000000000000000 DUP2 LT ISZERO PUSH2 0xF47 JUMPI PUSH2 0x19EB SWAP2 PUSH1 0x1 DUP3 ADD DUP2 SSTORE PUSH2 0x17F3 JUMP JUMPDEST DUP2 SWAP3 SWAP2 SLOAD SWAP1 PUSH1 0x3 SHL SWAP2 DUP3 SHL SWAP2 PUSH1 0x0 NOT SWAP1 SHL NOT AND OR SWAP1 SSTORE JUMP JUMPDEST ISZERO PUSH2 0x1A0A JUMPI JUMP JUMPDEST PUSH1 0x40 MLOAD PUSH3 0x461BCD PUSH1 0xE5 SHL DUP2 MSTORE PUSH1 0x20 PUSH1 0x4 DUP3 ADD MSTORE PUSH1 0xE PUSH1 0x24 DUP3 ADD MSTORE PUSH14 0x15185CDAC81B9BDD08199BDD5B99 PUSH1 0x92 SHL PUSH1 0x44 DUP3 ADD MSTORE PUSH1 0x64 SWAP1 REVERT JUMPDEST ISZERO PUSH2 0x1A47 JUMPI JUMP JUMPDEST PUSH1 0x40 MLOAD PUSH3 0x461BCD PUSH1 0xE5 SHL DUP2 MSTORE PUSH1 0x20 PUSH1 0x4 DUP3 ADD MSTORE PUSH1 0x10 PUSH1 0x24 DUP3 ADD MSTORE PUSH16 0x5461736B206E6F742070656E64696E67 PUSH1 0x80 SHL PUSH1 0x44 DUP3 ADD MSTORE PUSH1 0x64 SWAP1 REVERT JUMPDEST PUSH1 0x40 MLOAD SWAP1 PUSH2 0x1A8C DUP3 PUSH2 0x1749 JUMP JUMPDEST PUSH1 0x60 PUSH2 0x160 DUP4 PUSH1 0x0 DUP1 DUP3 MSTORE DUP1 PUSH1 0x20 DUP4 ADD MSTORE DUP1 PUSH1 0x40 DUP4 ADD MSTORE DUP4 DUP1 DUP4 ADD MSTORE DUP1 PUSH1 0x80 DUP4 ADD MSTORE DUP1 PUSH1 0xA0 DUP4 ADD MSTORE DUP1 PUSH1 0xC0 DUP4 ADD MSTORE DUP1 PUSH1 0xE0 DUP4 ADD MSTORE DUP1 PUSH2 0x100 DUP4 ADD MSTORE DUP1 PUSH2 0x120 DUP4 ADD MSTORE PUSH2 0x140 DUP3 ADD MSTORE ADD MSTORE JUMP JUMPDEST PUSH8 0xFFFFFFFFFFFFFFFF DUP2 GT PUSH2 0xF47 JUMPI PUSH1 0x5 SHL PUSH1 0x20 ADD SWAP1 JUMP JUMPDEST SWAP1 PUSH2 0x1AFA DUP3 PUSH2 0x1AD8 JUMP JUMPDEST PUSH2 0x1B07 PUSH1 0x40 MLOAD SWAP2 DUP3 PUSH2 0x177A JUMP JUMPDEST DUP3 DUP2 MSTORE DUP1 SWAP3 PUSH2 0x1B18 PUSH1 0x1F NOT SWAP2 PUSH2 0x1AD8 JUMP JUMPDEST ADD SWAP1 PUSH1 0x0 JUMPDEST DUP3 DUP2 LT PUSH2 0x1B29 JUMPI POP POP POP JUMP JUMPDEST PUSH1 0x20 SWAP1 PUSH2 0x1B34 PUSH2 0x1A7F JUMP JUMPDEST DUP3 DUP3 DUP6 ADD ADD MSTORE ADD PUSH2 0x1B1D JUMP JUMPDEST DUP1 MLOAD DUP3 LT ISZERO PUSH2 0x180B JUMPI PUSH1 0x20 SWAP2 PUSH1 0x5 SHL ADD ADD SWAP1 JUMP JUMPDEST SWAP1 PUSH1 0x0 SWAP2 DUP3 MSTORE PUSH1 0x20 SWAP2 PUSH1 0x3 DUP4 MSTORE PUSH1 0x40 SWAP3 DUP4 DUP3 KECCAK256 SWAP2 DUP5 MLOAD DUP1 DUP5 DUP5 DUP3 SWAP7 SLOAD SWAP4 DUP5 DUP2 MSTORE ADD SWAP1 DUP5 MSTORE DUP5 DUP5 KECCAK256 SWAP3 DUP5 JUMPDEST DUP7 DUP3 DUP3 LT PUSH2 0x1C60 JUMPI POP POP POP PUSH2 0x1B95 SWAP3 POP SUB DUP5 PUSH2 0x177A JUMP JUMPDEST DUP3 MLOAD ISZERO PUSH2 0x1C5A JUMPI DUP1 SWAP3 DUP2 JUMPDEST DUP2 MLOAD DUP2 LT ISZERO PUSH2 0x1C0C JUMPI PUSH2 0x1BB3 DUP2 DUP4 PUSH2 0x1B40 JUMP JUMPDEST MLOAD DUP4 MSTORE PUSH1 0x1 DUP1 DUP6 MSTORE PUSH1 0x4 PUSH1 0xFF DUP2 DUP11 DUP8 KECCAK256 ADD SLOAD AND SWAP1 DUP1 DUP3 LT ISZERO PUSH2 0x1BF9 JUMPI POP EQ PUSH2 0x1BE4 JUMPI JUMPDEST PUSH2 0x1BDF SWAP1 PUSH2 0x1980 JUMP JUMPDEST PUSH2 0x1BA0 JUMP JUMPDEST SWAP4 PUSH2 0x1BF1 PUSH2 0x1BDF SWAP2 PUSH2 0x1980 JUMP JUMPDEST SWAP5 SWAP1 POP PUSH2 0x1BD6 JUMP JUMPDEST PUSH4 0x4E487B71 PUSH1 0xE0 SHL DUP7 MSTORE PUSH1 0x21 SWAP1 MSTORE PUSH1 0x24 DUP6 REVERT JUMPDEST POP SWAP2 POP SWAP3 SWAP4 POP PUSH1 0x64 DUP3 MUL SWAP2 DUP1 DUP4 DIV PUSH1 0x64 EQ SWAP1 ISZERO OR ISZERO PUSH2 0x1C46 JUMPI MLOAD SWAP2 DUP3 ISZERO PUSH2 0x1C32 JUMPI POP DIV SWAP1 JUMP JUMPDEST PUSH4 0x4E487B71 PUSH1 0xE0 SHL DUP2 MSTORE PUSH1 0x12 PUSH1 0x4 MSTORE PUSH1 0x24 SWAP1 REVERT JUMPDEST PUSH4 0x4E487B71 PUSH1 0xE0 SHL DUP4 MSTORE PUSH1 0x11 PUSH1 0x4 MSTORE PUSH1 0x24 DUP4 REVERT JUMPDEST SWAP4 POP POP POP JUMP JUMPDEST DUP6 SLOAD DUP5 MSTORE PUSH1 0x1 SWAP6 DUP7 ADD SWAP6 DUP10 SWAP6 POP SWAP4 ADD SWAP3 ADD PUSH2 0x1B7E JUMP INVALID LOG2 PUSH5 0x6970667358 0x22 SLT KECCAK256 JUMPDEST PUSH9 0x894C1646E3F157FE4F 0x2D 0xC8 CALLDATACOPY LOG2 0xF9 0x26 0xFC CODESIZE 0xB6 CALLVALUE DELEGATECALL CODESIZE 0xA7 0xB0 SWAP9 PREVRANDAO 0xE4 DUP1 SWAP1 CREATE2 0x23 PUSH5 0x736F6C6343 STOP ADDMOD EQ STOP CALLER "},"methodIdentifiers":{"agentTasks(uint256,uint256)":"304d3ebe","authorized(address)":"b9181611","completeTask(uint256,bytes32,string)":"0ead6f3b","createTask(uint256,address,string,uint256,bool,bytes32)":"6469038f","disputeTask(uint256)":"97d9c23e","failTask(uint256,string)":"e1df68c8","getAgentSuccessRate(uint256)":"02284192","getAgentTasks(uint256)":"09efa53e","getTask(uint256)":"1d65e77e","getTaskAgentId(uint256)":"1f5c479b","getTaskUser(uint256)":"3bfd2811","getUserTasks(address)":"95d57660","owner()":"8da5cb5b","registry()":"7b103999","renounceOwnership()":"715018a6","setAuthorized(address,bool)":"711bf9b2","setTaskStatus(uint256,uint8)":"324df36d","setVault(address)":"6817031b","taskCount()":"b6cb58a5","tasks(uint256)":"8d977672","transferOwnership(address)":"f2fde38b","userTasks(address,uint256)":"66873a55","vault()":"fbfa77cf"}}}}}