{"contracts/ReputationEngine.sol":{"ReputationEngine":{"abi":[{"inputs":[{"internalType":"address","name":"_registry","type":"address"}],"stateMutability":"nonpayable","type":"constructor"},{"inputs":[{"internalType":"address","name":"owner","type":"address"}],"name":"OwnableInvalidOwner","type":"error"},{"inputs":[{"internalType":"address","name":"account","type":"address"}],"name":"OwnableUnauthorizedAccount","type":"error"},{"anonymous":false,"inputs":[{"indexed":true,"internalType":"uint256","name":"agentId","type":"uint256"},{"indexed":false,"internalType":"uint256","name":"score","type":"uint256"}],"name":"AgentAutoRemoved","type":"event"},{"anonymous":false,"inputs":[{"indexed":true,"internalType":"uint256","name":"agentId","type":"uint256"},{"indexed":false,"internalType":"uint256","name":"score","type":"uint256"}],"name":"AgentAutoSuspended","type":"event"},{"anonymous":false,"inputs":[{"indexed":true,"internalType":"address","name":"previousOwner","type":"address"},{"indexed":true,"internalType":"address","name":"newOwner","type":"address"}],"name":"OwnershipTransferred","type":"event"},{"anonymous":false,"inputs":[{"indexed":true,"internalType":"uint256","name":"agentId","type":"uint256"},{"indexed":false,"internalType":"uint256","name":"newScore","type":"uint256"}],"name":"ScoreUpdated","type":"event"},{"inputs":[],"name":"REMOVAL_THRESHOLD","outputs":[{"internalType":"uint256","name":"","type":"uint256"}],"stateMutability":"view","type":"function"},{"inputs":[],"name":"SUSPENSION_THRESHOLD","outputs":[{"internalType":"uint256","name":"","type":"uint256"}],"stateMutability":"view","type":"function"},{"inputs":[{"internalType":"address","name":"","type":"address"}],"name":"authorized","outputs":[{"internalType":"bool","name":"","type":"bool"}],"stateMutability":"view","type":"function"},{"inputs":[{"internalType":"uint256","name":"_agentId","type":"uint256"}],"name":"getScore","outputs":[{"internalType":"uint256","name":"","type":"uint256"}],"stateMutability":"view","type":"function"},{"inputs":[{"internalType":"uint256","name":"_agentId","type":"uint256"}],"name":"getScoreHistory","outputs":[{"internalType":"uint256[]","name":"","type":"uint256[]"}],"stateMutability":"view","type":"function"},{"inputs":[{"internalType":"uint256","name":"_agentId","type":"uint256"}],"name":"isSuspended","outputs":[{"internalType":"bool","name":"","type":"bool"}],"stateMutability":"view","type":"function"},{"inputs":[],"name":"owner","outputs":[{"internalType":"address","name":"","type":"address"}],"stateMutability":"view","type":"function"},{"inputs":[],"name":"registry","outputs":[{"internalType":"contract IAgentRegistryForRep","name":"","type":"address"}],"stateMutability":"view","type":"function"},{"inputs":[],"name":"renounceOwnership","outputs":[],"stateMutability":"nonpayable","type":"function"},{"inputs":[{"internalType":"uint256","name":"","type":"uint256"},{"internalType":"uint256","name":"","type":"uint256"}],"name":"scoreHistory","outputs":[{"internalType":"uint256","name":"","type":"uint256"}],"stateMutability":"view","type":"function"},{"inputs":[{"internalType":"uint256","name":"","type":"uint256"}],"name":"scores","outputs":[{"internalType":"uint256","name":"","type":"uint256"}],"stateMutability":"view","type":"function"},{"inputs":[{"internalType":"address","name":"_contract","type":"address"},{"internalType":"bool","name":"_status","type":"bool"}],"name":"setAuthorized","outputs":[],"stateMutability":"nonpayable","type":"function"},{"inputs":[{"internalType":"uint256","name":"_agentId","type":"uint256"},{"internalType":"uint256","name":"_score","type":"uint256"}],"name":"setMockScore","outputs":[],"stateMutability":"nonpayable","type":"function"},{"inputs":[{"internalType":"address","name":"_vault","type":"address"}],"name":"setVault","outputs":[],"stateMutability":"nonpayable","type":"function"},{"inputs":[{"internalType":"address","name":"newOwner","type":"address"}],"name":"transferOwnership","outputs":[],"stateMutability":"nonpayable","type":"function"},{"inputs":[{"internalType":"uint256","name":"_agentId","type":"uint256"}],"name":"updateScore","outputs":[],"stateMutability":"nonpayable","type":"function"},{"inputs":[],"name":"vault","outputs":[{"internalType":"address","name":"","type":"address"}],"stateMutability":"view","type":"function"}],"evm":{"bytecode":{"linkReferences":{},"object":"6080346100c657601f610d4238819003918201601f19168301916001600160401b038311848410176100cb578084926020946040528339810103126100c657516001600160a01b0390818116908190036100c65733156100ad5760005460018060a01b0319903382821617600055604051933391167f8be0079c531659141344cd1fd0a4f28419497f9722a3daafe3b4186f6b6457e0600080a36003541617600355610c6090816100e28239f35b604051631e4fbdf760e01b815260006004820152602490fd5b600080fd5b634e487b7160e01b600052604160045260246000fdfe608080604052600436101561001357600080fd5b600090813560e01c9081630bae1bd014610a1b575080630e1af57b146109d55780631b7bc713146109ff5780632ee691a3146109d55780636817031b14610990578063711bf9b21461093d578063715018a6146108e35780637b103999146108ba578063817695ac146108555780638596ae7c146108155780638da5cb5b146107ee5780638e852042146107d2578063b918161114610793578063d6376a841461063c578063f2fde38b146105b6578063f853e34d146101075763fbfa77cf146100dc57600080fd5b346101045780600319360112610104576004546040516001600160a01b039091168152602090f35b80fd5b503461010457602036600319011261010457338152600560205260ff60408220541680156105a3575b1561056d57600354604051630a270ad960e31b81526004803590820152908290829060249082906001600160a01b03165afa908115610285578290839261046f575b50829181158015610437575b5050506004358252600160205280604083205560026020526101a38160408420610baf565b600435825260026020526040822054601e8111610335575b506040518181527fefd5a7f141ae02cd40bc84ffe6ebb58811cb61dfd017746842a005c78bfed852602060043592a2801515808061032b575b15610290575060035482906001600160a01b0316803b1561028157818091602460405180948193632ab165af60e21b835260043560048401525af180156102855761026d575b50506040519081527f44868704186cb830ac2f43485a23b7605b3907dbab3cbe56fd95ab228c84d336602060043592a280f35b61027690610ae5565b61028157813861023a565b5080fd5b6040513d84823e3d90fd5b80610321575b61029e575080f35b6003549091906001600160a01b0316803b1561028157818091602460405180948193632ab165af60e21b835260043560048401525af1801561028557610312575b50906040519081527f6cf5b029d39a9880c3476f19d2f95c4e2f3fcd6ab171529e9142f43de8a225de602060043592a280f35b61031b90610ae5565b386102df565b5060288110610296565b50601482106101f4565b90825b826000198101116104235760001983018110156103d15760043584526002602052604084206001820182116103bd57906103b361037c6103b8936001840190610a8b565b90549060031b1c6004358752600260205261039a8360408920610a8b565b90919082549060031b91821b91600019901b1916179055565b610bd9565b610338565b634e487b7160e01b85526011600452602485fd5b50905060043582526002602052604082208054801561040f5760001901906103f98282610a8b565b8154906000199060031b1b1916905555386101bb565b634e487b7160e01b84526031600452602484fd5b634e487b7160e01b84526011600452602484fd5b909192506064820291808304606414901517156104235761045b570438808061017e565b634e487b7160e01b83526012600452602483fd5b9150503d8083833e6104818183610b0f565b81016101e0828203126105695760208201519167ffffffffffffffff9283811161056557826104b1918301610b31565b50604081015183811161056557826104ca918301610b31565b50606081015183811161056557826104e3918301610b31565b5060a08101516001600160a01b038116036105615760e081015191610100820151936105126101208401610ba2565b506105206101408401610ba2565b5061018083015181811161055d578261053a918501610b31565b506101a0830151908111610559576105529201610b31565b5038610172565b8580fd5b8680fd5b8380fd5b8480fd5b8280fd5b60405162461bcd60e51b815260206004820152600e60248201526d139bdd08185d5d1a1bdc9a5e995960921b6044820152606490fd5b5080546001600160a01b03163314610130565b5034610104576020366003190112610104576105d0610a5a565b6105d8610ab9565b6001600160a01b039081169081156106235782546001600160a01b0319811683178455167f8be0079c531659141344cd1fd0a4f28419497f9722a3daafe3b4186f6b6457e08380a380f35b604051631e4fbdf760e01b815260048101849052602490fd5b503461010457602080600319360112610281576004358252600281526040822090604051808383829554938481520190865283862092865b8582821061077d5750505061068b92500383610b0f565b815190601e82111561077757601d1982018281116103bd575b8083039283116103bd578484916106ba85610bfe565b946106c86040519687610b0f565b8086526106d481610bfe565b8686019490601f1901368637835b82811061072b575050505060405193838594850191818652518092526040850193925b82811061071457505050500390f35b835185528695509381019392810192600101610705565b808498969795980180851161076357906107486107599284610c16565b516107538289610c16565b52610bd9565b96939594966106e2565b634e487b7160e01b89526011600452602489fd5b836106a4565b8554845260019586019588955093019201610674565b50346101045760203660031901126101045760209060ff906040906001600160a01b036107be610a5a565b168152600584522054166040519015158152f35b5034610104578060031936011261010457602060405160148152f35b5034610104578060031936011261010457546040516001600160a01b039091168152602090f35b50346101045761082436610a75565b919081526002602052604081209081548310156101045760206108478484610a8b565b90546040519160031b1c8152f35b50346101045760207fefd5a7f141ae02cd40bc84ffe6ebb58811cb61dfd017746842a005c78bfed85261088736610a75565b610892939193610ab9565b83855260018252806040862055600282526108b08160408720610baf565b604051908152a280f35b50346101045780600319360112610104576003546040516001600160a01b039091168152602090f35b50346101045780600319360112610104576108fc610ab9565b80546001600160a01b03198116825581906001600160a01b03167f8be0079c531659141344cd1fd0a4f28419497f9722a3daafe3b4186f6b6457e08280a380f35b503461010457604036600319011261010457610957610a5a565b602435908115158092036105695761096d610ab9565b60018060a01b031682526005602052604082209060ff8019835416911617905580f35b5034610104576020366003190112610104576109aa610a5a565b6109b2610ab9565b60018060a01b03166bffffffffffffffffffffffff60a01b600454161760045580f35b50346101045760203660031901126101045760406020916004358152600183522054604051908152f35b5034610104578060031936011261010457602060405160288152f35b90503461028157602036600319011261028157604060209260043581526001845220548015159081610a4f575b5015158152f35b602891501038610a48565b600435906001600160a01b0382168203610a7057565b600080fd5b6040906003190112610a70576004359060243590565b8054821015610aa35760005260206000200190600090565b634e487b7160e01b600052603260045260246000fd5b6000546001600160a01b03163303610acd57565b60405163118cdaa760e01b8152336004820152602490fd5b67ffffffffffffffff8111610af957604052565b634e487b7160e01b600052604160045260246000fd5b90601f8019910116810190811067ffffffffffffffff821117610af957604052565b919080601f84011215610a705782519067ffffffffffffffff8211610af95760405191602091610b6a601f8301601f1916840185610b0f565b818452828287010111610a705760005b818110610b8f57508260009394955001015290565b8581018301518482018401528201610b7a565b51908115158203610a7057565b9081549168010000000000000000831015610af9578261039a916001610bd795018155610a8b565b565b6000198114610be85760010190565b634e487b7160e01b600052601160045260246000fd5b67ffffffffffffffff8111610af95760051b60200190565b8051821015610aa35760209160051b01019056fea264697066735822122090eb4a82c71a51433e9b593ae3bd13a7a336d720a6c643b79ab3e9aac3abf99264736f6c63430008140033","opcodes":"PUSH1 0x80 CALLVALUE PUSH2 0xC6 JUMPI PUSH1 0x1F PUSH2 0xD42 CODESIZE DUP2 SWAP1 SUB SWAP2 DUP3 ADD PUSH1 0x1F NOT AND DUP4 ADD SWAP2 PUSH1 0x1 PUSH1 0x1 PUSH1 0x40 SHL SUB DUP4 GT DUP5 DUP5 LT OR PUSH2 0xCB JUMPI DUP1 DUP5 SWAP3 PUSH1 0x20 SWAP5 PUSH1 0x40 MSTORE DUP4 CODECOPY DUP2 ADD SUB SLT PUSH2 0xC6 JUMPI MLOAD PUSH1 0x1 PUSH1 0x1 PUSH1 0xA0 SHL SUB SWAP1 DUP2 DUP2 AND SWAP1 DUP2 SWAP1 SUB PUSH2 0xC6 JUMPI CALLER ISZERO PUSH2 0xAD JUMPI PUSH1 0x0 SLOAD PUSH1 0x1 DUP1 PUSH1 0xA0 SHL SUB NOT SWAP1 CALLER DUP3 DUP3 AND OR PUSH1 0x0 SSTORE PUSH1 0x40 MLOAD SWAP4 CALLER SWAP2 AND PUSH32 0x8BE0079C531659141344CD1FD0A4F28419497F9722A3DAAFE3B4186F6B6457E0 PUSH1 0x0 DUP1 LOG3 PUSH1 0x3 SLOAD AND OR PUSH1 0x3 SSTORE PUSH2 0xC60 SWAP1 DUP2 PUSH2 0xE2 DUP3 CODECOPY RETURN JUMPDEST PUSH1 0x40 MLOAD PUSH4 0x1E4FBDF7 PUSH1 0xE0 SHL DUP2 MSTORE PUSH1 0x0 PUSH1 0x4 DUP3 ADD MSTORE PUSH1 0x24 SWAP1 REVERT JUMPDEST PUSH1 0x0 DUP1 REVERT JUMPDEST PUSH4 0x4E487B71 PUSH1 0xE0 SHL PUSH1 0x0 MSTORE PUSH1 0x41 PUSH1 0x4 MSTORE PUSH1 0x24 PUSH1 0x0 REVERT INVALID PUSH1 0x80 DUP1 PUSH1 0x40 MSTORE PUSH1 0x4 CALLDATASIZE LT ISZERO PUSH2 0x13 JUMPI PUSH1 0x0 DUP1 REVERT JUMPDEST PUSH1 0x0 SWAP1 DUP2 CALLDATALOAD PUSH1 0xE0 SHR SWAP1 DUP2 PUSH4 0xBAE1BD0 EQ PUSH2 0xA1B JUMPI POP DUP1 PUSH4 0xE1AF57B EQ PUSH2 0x9D5 JUMPI DUP1 PUSH4 0x1B7BC713 EQ PUSH2 0x9FF JUMPI DUP1 PUSH4 0x2EE691A3 EQ PUSH2 0x9D5 JUMPI DUP1 PUSH4 0x6817031B EQ PUSH2 0x990 JUMPI DUP1 PUSH4 0x711BF9B2 EQ PUSH2 0x93D JUMPI DUP1 PUSH4 0x715018A6 EQ PUSH2 0x8E3 JUMPI DUP1 PUSH4 0x7B103999 EQ PUSH2 0x8BA JUMPI DUP1 PUSH4 0x817695AC EQ PUSH2 0x855 JUMPI DUP1 PUSH4 0x8596AE7C EQ PUSH2 0x815 JUMPI DUP1 PUSH4 0x8DA5CB5B EQ PUSH2 0x7EE JUMPI DUP1 PUSH4 0x8E852042 EQ PUSH2 0x7D2 JUMPI DUP1 PUSH4 0xB9181611 EQ PUSH2 0x793 JUMPI DUP1 PUSH4 0xD6376A84 EQ PUSH2 0x63C JUMPI DUP1 PUSH4 0xF2FDE38B EQ PUSH2 0x5B6 JUMPI DUP1 PUSH4 0xF853E34D EQ PUSH2 0x107 JUMPI PUSH4 0xFBFA77CF EQ PUSH2 0xDC JUMPI PUSH1 0x0 DUP1 REVERT JUMPDEST CALLVALUE PUSH2 0x104 JUMPI DUP1 PUSH1 0x3 NOT CALLDATASIZE ADD SLT PUSH2 0x104 JUMPI PUSH1 0x4 SLOAD PUSH1 0x40 MLOAD PUSH1 0x1 PUSH1 0x1 PUSH1 0xA0 SHL SUB SWAP1 SWAP2 AND DUP2 MSTORE PUSH1 0x20 SWAP1 RETURN JUMPDEST DUP1 REVERT JUMPDEST POP CALLVALUE PUSH2 0x104 JUMPI PUSH1 0x20 CALLDATASIZE PUSH1 0x3 NOT ADD SLT PUSH2 0x104 JUMPI CALLER DUP2 MSTORE PUSH1 0x5 PUSH1 0x20 MSTORE PUSH1 0xFF PUSH1 0x40 DUP3 KECCAK256 SLOAD AND DUP1 ISZERO PUSH2 0x5A3 JUMPI JUMPDEST ISZERO PUSH2 0x56D JUMPI PUSH1 0x3 SLOAD PUSH1 0x40 MLOAD PUSH4 0xA270AD9 PUSH1 0xE3 SHL DUP2 MSTORE PUSH1 0x4 DUP1 CALLDATALOAD SWAP1 DUP3 ADD MSTORE SWAP1 DUP3 SWAP1 DUP3 SWAP1 PUSH1 0x24 SWAP1 DUP3 SWAP1 PUSH1 0x1 PUSH1 0x1 PUSH1 0xA0 SHL SUB AND GAS STATICCALL SWAP1 DUP2 ISZERO PUSH2 0x285 JUMPI DUP3 SWAP1 DUP4 SWAP3 PUSH2 0x46F JUMPI JUMPDEST POP DUP3 SWAP2 DUP2 ISZERO DUP1 ISZERO PUSH2 0x437 JUMPI JUMPDEST POP POP POP PUSH1 0x4 CALLDATALOAD DUP3 MSTORE PUSH1 0x1 PUSH1 0x20 MSTORE DUP1 PUSH1 0x40 DUP4 KECCAK256 SSTORE PUSH1 0x2 PUSH1 0x20 MSTORE PUSH2 0x1A3 DUP2 PUSH1 0x40 DUP5 KECCAK256 PUSH2 0xBAF JUMP JUMPDEST PUSH1 0x4 CALLDATALOAD DUP3 MSTORE PUSH1 0x2 PUSH1 0x20 MSTORE PUSH1 0x40 DUP3 KECCAK256 SLOAD PUSH1 0x1E DUP2 GT PUSH2 0x335 JUMPI JUMPDEST POP PUSH1 0x40 MLOAD DUP2 DUP2 MSTORE PUSH32 0xEFD5A7F141AE02CD40BC84FFE6EBB58811CB61DFD017746842A005C78BFED852 PUSH1 0x20 PUSH1 0x4 CALLDATALOAD SWAP3 LOG2 DUP1 ISZERO ISZERO DUP1 DUP1 PUSH2 0x32B JUMPI JUMPDEST ISZERO PUSH2 0x290 JUMPI POP PUSH1 0x3 SLOAD DUP3 SWAP1 PUSH1 0x1 PUSH1 0x1 PUSH1 0xA0 SHL SUB AND DUP1 EXTCODESIZE ISZERO PUSH2 0x281 JUMPI DUP2 DUP1 SWAP2 PUSH1 0x24 PUSH1 0x40 MLOAD DUP1 SWAP5 DUP2 SWAP4 PUSH4 0x2AB165AF PUSH1 0xE2 SHL DUP4 MSTORE PUSH1 0x4 CALLDATALOAD PUSH1 0x4 DUP5 ADD MSTORE GAS CALL DUP1 ISZERO PUSH2 0x285 JUMPI PUSH2 0x26D JUMPI JUMPDEST POP POP PUSH1 0x40 MLOAD SWAP1 DUP2 MSTORE PUSH32 0x44868704186CB830AC2F43485A23B7605B3907DBAB3CBE56FD95AB228C84D336 PUSH1 0x20 PUSH1 0x4 CALLDATALOAD SWAP3 LOG2 DUP1 RETURN JUMPDEST PUSH2 0x276 SWAP1 PUSH2 0xAE5 JUMP JUMPDEST PUSH2 0x281 JUMPI DUP2 CODESIZE PUSH2 0x23A JUMP JUMPDEST POP DUP1 REVERT JUMPDEST PUSH1 0x40 MLOAD RETURNDATASIZE DUP5 DUP3 RETURNDATACOPY RETURNDATASIZE SWAP1 REVERT JUMPDEST DUP1 PUSH2 0x321 JUMPI JUMPDEST PUSH2 0x29E JUMPI POP DUP1 RETURN JUMPDEST PUSH1 0x3 SLOAD SWAP1 SWAP2 SWAP1 PUSH1 0x1 PUSH1 0x1 PUSH1 0xA0 SHL SUB AND DUP1 EXTCODESIZE ISZERO PUSH2 0x281 JUMPI DUP2 DUP1 SWAP2 PUSH1 0x24 PUSH1 0x40 MLOAD DUP1 SWAP5 DUP2 SWAP4 PUSH4 0x2AB165AF PUSH1 0xE2 SHL DUP4 MSTORE PUSH1 0x4 CALLDATALOAD PUSH1 0x4 DUP5 ADD MSTORE GAS CALL DUP1 ISZERO PUSH2 0x285 JUMPI PUSH2 0x312 JUMPI JUMPDEST POP SWAP1 PUSH1 0x40 MLOAD SWAP1 DUP2 MSTORE PUSH32 0x6CF5B029D39A9880C3476F19D2F95C4E2F3FCD6AB171529E9142F43DE8A225DE PUSH1 0x20 PUSH1 0x4 CALLDATALOAD SWAP3 LOG2 DUP1 RETURN JUMPDEST PUSH2 0x31B SWAP1 PUSH2 0xAE5 JUMP JUMPDEST CODESIZE PUSH2 0x2DF JUMP JUMPDEST POP PUSH1 0x28 DUP2 LT PUSH2 0x296 JUMP JUMPDEST POP PUSH1 0x14 DUP3 LT PUSH2 0x1F4 JUMP JUMPDEST SWAP1 DUP3 JUMPDEST DUP3 PUSH1 0x0 NOT DUP2 ADD GT PUSH2 0x423 JUMPI PUSH1 0x0 NOT DUP4 ADD DUP2 LT ISZERO PUSH2 0x3D1 JUMPI PUSH1 0x4 CALLDATALOAD DUP5 MSTORE PUSH1 0x2 PUSH1 0x20 MSTORE PUSH1 0x40 DUP5 KECCAK256 PUSH1 0x1 DUP3 ADD DUP3 GT PUSH2 0x3BD JUMPI SWAP1 PUSH2 0x3B3 PUSH2 0x37C PUSH2 0x3B8 SWAP4 PUSH1 0x1 DUP5 ADD SWAP1 PUSH2 0xA8B JUMP JUMPDEST SWAP1 SLOAD SWAP1 PUSH1 0x3 SHL SHR PUSH1 0x4 CALLDATALOAD DUP8 MSTORE PUSH1 0x2 PUSH1 0x20 MSTORE PUSH2 0x39A DUP4 PUSH1 0x40 DUP10 KECCAK256 PUSH2 0xA8B JUMP JUMPDEST SWAP1 SWAP2 SWAP1 DUP3 SLOAD SWAP1 PUSH1 0x3 SHL SWAP2 DUP3 SHL SWAP2 PUSH1 0x0 NOT SWAP1 SHL NOT AND OR SWAP1 SSTORE JUMP JUMPDEST PUSH2 0xBD9 JUMP JUMPDEST PUSH2 0x338 JUMP JUMPDEST PUSH4 0x4E487B71 PUSH1 0xE0 SHL DUP6 MSTORE PUSH1 0x11 PUSH1 0x4 MSTORE PUSH1 0x24 DUP6 REVERT JUMPDEST POP SWAP1 POP PUSH1 0x4 CALLDATALOAD DUP3 MSTORE PUSH1 0x2 PUSH1 0x20 MSTORE PUSH1 0x40 DUP3 KECCAK256 DUP1 SLOAD DUP1 ISZERO PUSH2 0x40F JUMPI PUSH1 0x0 NOT ADD SWAP1 PUSH2 0x3F9 DUP3 DUP3 PUSH2 0xA8B JUMP JUMPDEST DUP2 SLOAD SWAP1 PUSH1 0x0 NOT SWAP1 PUSH1 0x3 SHL SHL NOT AND SWAP1 SSTORE SSTORE CODESIZE PUSH2 0x1BB JUMP JUMPDEST PUSH4 0x4E487B71 PUSH1 0xE0 SHL DUP5 MSTORE PUSH1 0x31 PUSH1 0x4 MSTORE PUSH1 0x24 DUP5 REVERT JUMPDEST PUSH4 0x4E487B71 PUSH1 0xE0 SHL DUP5 MSTORE PUSH1 0x11 PUSH1 0x4 MSTORE PUSH1 0x24 DUP5 REVERT JUMPDEST SWAP1 SWAP2 SWAP3 POP PUSH1 0x64 DUP3 MUL SWAP2 DUP1 DUP4 DIV PUSH1 0x64 EQ SWAP1 ISZERO OR ISZERO PUSH2 0x423 JUMPI PUSH2 0x45B JUMPI DIV CODESIZE DUP1 DUP1 PUSH2 0x17E JUMP JUMPDEST PUSH4 0x4E487B71 PUSH1 0xE0 SHL DUP4 MSTORE PUSH1 0x12 PUSH1 0x4 MSTORE PUSH1 0x24 DUP4 REVERT JUMPDEST SWAP2 POP POP RETURNDATASIZE DUP1 DUP4 DUP4 RETURNDATACOPY PUSH2 0x481 DUP2 DUP4 PUSH2 0xB0F JUMP JUMPDEST DUP2 ADD PUSH2 0x1E0 DUP3 DUP3 SUB SLT PUSH2 0x569 JUMPI PUSH1 0x20 DUP3 ADD MLOAD SWAP2 PUSH8 0xFFFFFFFFFFFFFFFF SWAP3 DUP4 DUP2 GT PUSH2 0x565 JUMPI DUP3 PUSH2 0x4B1 SWAP2 DUP4 ADD PUSH2 0xB31 JUMP JUMPDEST POP PUSH1 0x40 DUP2 ADD MLOAD DUP4 DUP2 GT PUSH2 0x565 JUMPI DUP3 PUSH2 0x4CA SWAP2 DUP4 ADD PUSH2 0xB31 JUMP JUMPDEST POP PUSH1 0x60 DUP2 ADD MLOAD DUP4 DUP2 GT PUSH2 0x565 JUMPI DUP3 PUSH2 0x4E3 SWAP2 DUP4 ADD PUSH2 0xB31 JUMP JUMPDEST POP PUSH1 0xA0 DUP2 ADD MLOAD PUSH1 0x1 PUSH1 0x1 PUSH1 0xA0 SHL SUB DUP2 AND SUB PUSH2 0x561 JUMPI PUSH1 0xE0 DUP2 ADD MLOAD SWAP2 PUSH2 0x100 DUP3 ADD MLOAD SWAP4 PUSH2 0x512 PUSH2 0x120 DUP5 ADD PUSH2 0xBA2 JUMP JUMPDEST POP PUSH2 0x520 PUSH2 0x140 DUP5 ADD PUSH2 0xBA2 JUMP JUMPDEST POP PUSH2 0x180 DUP4 ADD MLOAD DUP2 DUP2 GT PUSH2 0x55D JUMPI DUP3 PUSH2 0x53A SWAP2 DUP6 ADD PUSH2 0xB31 JUMP JUMPDEST POP PUSH2 0x1A0 DUP4 ADD MLOAD SWAP1 DUP2 GT PUSH2 0x559 JUMPI PUSH2 0x552 SWAP3 ADD PUSH2 0xB31 JUMP JUMPDEST POP CODESIZE PUSH2 0x172 JUMP JUMPDEST DUP6 DUP1 REVERT JUMPDEST DUP7 DUP1 REVERT JUMPDEST DUP4 DUP1 REVERT JUMPDEST DUP5 DUP1 REVERT JUMPDEST DUP3 DUP1 REVERT JUMPDEST PUSH1 0x40 MLOAD PUSH3 0x461BCD PUSH1 0xE5 SHL DUP2 MSTORE PUSH1 0x20 PUSH1 0x4 DUP3 ADD MSTORE PUSH1 0xE PUSH1 0x24 DUP3 ADD MSTORE PUSH14 0x139BDD08185D5D1A1BDC9A5E9959 PUSH1 0x92 SHL PUSH1 0x44 DUP3 ADD MSTORE PUSH1 0x64 SWAP1 REVERT JUMPDEST POP DUP1 SLOAD PUSH1 0x1 PUSH1 0x1 PUSH1 0xA0 SHL SUB AND CALLER EQ PUSH2 0x130 JUMP JUMPDEST POP CALLVALUE PUSH2 0x104 JUMPI PUSH1 0x20 CALLDATASIZE PUSH1 0x3 NOT ADD SLT PUSH2 0x104 JUMPI PUSH2 0x5D0 PUSH2 0xA5A JUMP JUMPDEST PUSH2 0x5D8 PUSH2 0xAB9 JUMP JUMPDEST PUSH1 0x1 PUSH1 0x1 PUSH1 0xA0 SHL SUB SWAP1 DUP2 AND SWAP1 DUP2 ISZERO PUSH2 0x623 JUMPI DUP3 SLOAD PUSH1 0x1 PUSH1 0x1 PUSH1 0xA0 SHL SUB NOT DUP2 AND DUP4 OR DUP5 SSTORE AND PUSH32 0x8BE0079C531659141344CD1FD0A4F28419497F9722A3DAAFE3B4186F6B6457E0 DUP4 DUP1 LOG3 DUP1 RETURN JUMPDEST PUSH1 0x40 MLOAD PUSH4 0x1E4FBDF7 PUSH1 0xE0 SHL DUP2 MSTORE PUSH1 0x4 DUP2 ADD DUP5 SWAP1 MSTORE PUSH1 0x24 SWAP1 REVERT JUMPDEST POP CALLVALUE PUSH2 0x104 JUMPI PUSH1 0x20 DUP1 PUSH1 0x3 NOT CALLDATASIZE ADD SLT PUSH2 0x281 JUMPI PUSH1 0x4 CALLDATALOAD DUP3 MSTORE PUSH1 0x2 DUP2 MSTORE PUSH1 0x40 DUP3 KECCAK256 SWAP1 PUSH1 0x40 MLOAD DUP1 DUP4 DUP4 DUP3 SWAP6 SLOAD SWAP4 DUP5 DUP2 MSTORE ADD SWAP1 DUP7 MSTORE DUP4 DUP7 KECCAK256 SWAP3 DUP7 JUMPDEST DUP6 DUP3 DUP3 LT PUSH2 0x77D JUMPI POP POP POP PUSH2 0x68B SWAP3 POP SUB DUP4 PUSH2 0xB0F JUMP JUMPDEST DUP2 MLOAD SWAP1 PUSH1 0x1E DUP3 GT ISZERO PUSH2 0x777 JUMPI PUSH1 0x1D NOT DUP3 ADD DUP3 DUP2 GT PUSH2 0x3BD JUMPI JUMPDEST DUP1 DUP4 SUB SWAP3 DUP4 GT PUSH2 0x3BD JUMPI DUP5 DUP5 SWAP2 PUSH2 0x6BA DUP6 PUSH2 0xBFE JUMP JUMPDEST SWAP5 PUSH2 0x6C8 PUSH1 0x40 MLOAD SWAP7 DUP8 PUSH2 0xB0F JUMP JUMPDEST DUP1 DUP7 MSTORE PUSH2 0x6D4 DUP2 PUSH2 0xBFE JUMP JUMPDEST DUP7 DUP7 ADD SWAP5 SWAP1 PUSH1 0x1F NOT ADD CALLDATASIZE DUP7 CALLDATACOPY DUP4 JUMPDEST DUP3 DUP2 LT PUSH2 0x72B JUMPI POP POP POP POP PUSH1 0x40 MLOAD SWAP4 DUP4 DUP6 SWAP5 DUP6 ADD SWAP2 DUP2 DUP7 MSTORE MLOAD DUP1 SWAP3 MSTORE PUSH1 0x40 DUP6 ADD SWAP4 SWAP3 JUMPDEST DUP3 DUP2 LT PUSH2 0x714 JUMPI POP POP POP POP SUB SWAP1 RETURN JUMPDEST DUP4 MLOAD DUP6 MSTORE DUP7 SWAP6 POP SWAP4 DUP2 ADD SWAP4 SWAP3 DUP2 ADD SWAP3 PUSH1 0x1 ADD PUSH2 0x705 JUMP JUMPDEST DUP1 DUP5 SWAP9 SWAP7 SWAP8 SWAP6 SWAP9 ADD DUP1 DUP6 GT PUSH2 0x763 JUMPI SWAP1 PUSH2 0x748 PUSH2 0x759 SWAP3 DUP5 PUSH2 0xC16 JUMP JUMPDEST MLOAD PUSH2 0x753 DUP3 DUP10 PUSH2 0xC16 JUMP JUMPDEST MSTORE PUSH2 0xBD9 JUMP JUMPDEST SWAP7 SWAP4 SWAP6 SWAP5 SWAP7 PUSH2 0x6E2 JUMP JUMPDEST PUSH4 0x4E487B71 PUSH1 0xE0 SHL DUP10 MSTORE PUSH1 0x11 PUSH1 0x4 MSTORE PUSH1 0x24 DUP10 REVERT JUMPDEST DUP4 PUSH2 0x6A4 JUMP JUMPDEST DUP6 SLOAD DUP5 MSTORE PUSH1 0x1 SWAP6 DUP7 ADD SWAP6 DUP9 SWAP6 POP SWAP4 ADD SWAP3 ADD PUSH2 0x674 JUMP JUMPDEST POP CALLVALUE PUSH2 0x104 JUMPI PUSH1 0x20 CALLDATASIZE PUSH1 0x3 NOT ADD SLT PUSH2 0x104 JUMPI PUSH1 0x20 SWAP1 PUSH1 0xFF SWAP1 PUSH1 0x40 SWAP1 PUSH1 0x1 PUSH1 0x1 PUSH1 0xA0 SHL SUB PUSH2 0x7BE PUSH2 0xA5A JUMP JUMPDEST AND DUP2 MSTORE PUSH1 0x5 DUP5 MSTORE KECCAK256 SLOAD AND PUSH1 0x40 MLOAD SWAP1 ISZERO ISZERO DUP2 MSTORE RETURN JUMPDEST POP CALLVALUE PUSH2 0x104 JUMPI DUP1 PUSH1 0x3 NOT CALLDATASIZE ADD SLT PUSH2 0x104 JUMPI PUSH1 0x20 PUSH1 0x40 MLOAD PUSH1 0x14 DUP2 MSTORE RETURN JUMPDEST POP CALLVALUE PUSH2 0x104 JUMPI DUP1 PUSH1 0x3 NOT CALLDATASIZE ADD SLT PUSH2 0x104 JUMPI SLOAD PUSH1 0x40 MLOAD PUSH1 0x1 PUSH1 0x1 PUSH1 0xA0 SHL SUB SWAP1 SWAP2 AND DUP2 MSTORE PUSH1 0x20 SWAP1 RETURN JUMPDEST POP CALLVALUE PUSH2 0x104 JUMPI PUSH2 0x824 CALLDATASIZE PUSH2 0xA75 JUMP JUMPDEST SWAP2 SWAP1 DUP2 MSTORE PUSH1 0x2 PUSH1 0x20 MSTORE PUSH1 0x40 DUP2 KECCAK256 SWAP1 DUP2 SLOAD DUP4 LT ISZERO PUSH2 0x104 JUMPI PUSH1 0x20 PUSH2 0x847 DUP5 DUP5 PUSH2 0xA8B JUMP JUMPDEST SWAP1 SLOAD PUSH1 0x40 MLOAD SWAP2 PUSH1 0x3 SHL SHR DUP2 MSTORE RETURN JUMPDEST POP CALLVALUE PUSH2 0x104 JUMPI PUSH1 0x20 PUSH32 0xEFD5A7F141AE02CD40BC84FFE6EBB58811CB61DFD017746842A005C78BFED852 PUSH2 0x887 CALLDATASIZE PUSH2 0xA75 JUMP JUMPDEST PUSH2 0x892 SWAP4 SWAP2 SWAP4 PUSH2 0xAB9 JUMP JUMPDEST DUP4 DUP6 MSTORE PUSH1 0x1 DUP3 MSTORE DUP1 PUSH1 0x40 DUP7 KECCAK256 SSTORE PUSH1 0x2 DUP3 MSTORE PUSH2 0x8B0 DUP2 PUSH1 0x40 DUP8 KECCAK256 PUSH2 0xBAF JUMP JUMPDEST PUSH1 0x40 MLOAD SWAP1 DUP2 MSTORE LOG2 DUP1 RETURN JUMPDEST POP CALLVALUE PUSH2 0x104 JUMPI DUP1 PUSH1 0x3 NOT CALLDATASIZE ADD SLT PUSH2 0x104 JUMPI PUSH1 0x3 SLOAD PUSH1 0x40 MLOAD PUSH1 0x1 PUSH1 0x1 PUSH1 0xA0 SHL SUB SWAP1 SWAP2 AND DUP2 MSTORE PUSH1 0x20 SWAP1 RETURN JUMPDEST POP CALLVALUE PUSH2 0x104 JUMPI DUP1 PUSH1 0x3 NOT CALLDATASIZE ADD SLT PUSH2 0x104 JUMPI PUSH2 0x8FC PUSH2 0xAB9 JUMP JUMPDEST DUP1 SLOAD PUSH1 0x1 PUSH1 0x1 PUSH1 0xA0 SHL SUB NOT DUP2 AND DUP3 SSTORE DUP2 SWAP1 PUSH1 0x1 PUSH1 0x1 PUSH1 0xA0 SHL SUB AND PUSH32 0x8BE0079C531659141344CD1FD0A4F28419497F9722A3DAAFE3B4186F6B6457E0 DUP3 DUP1 LOG3 DUP1 RETURN JUMPDEST POP CALLVALUE PUSH2 0x104 JUMPI PUSH1 0x40 CALLDATASIZE PUSH1 0x3 NOT ADD SLT PUSH2 0x104 JUMPI PUSH2 0x957 PUSH2 0xA5A JUMP JUMPDEST PUSH1 0x24 CALLDATALOAD SWAP1 DUP2 ISZERO ISZERO DUP1 SWAP3 SUB PUSH2 0x569 JUMPI PUSH2 0x96D PUSH2 0xAB9 JUMP JUMPDEST PUSH1 0x1 DUP1 PUSH1 0xA0 SHL SUB AND DUP3 MSTORE PUSH1 0x5 PUSH1 0x20 MSTORE PUSH1 0x40 DUP3 KECCAK256 SWAP1 PUSH1 0xFF DUP1 NOT DUP4 SLOAD AND SWAP2 AND OR SWAP1 SSTORE DUP1 RETURN JUMPDEST POP CALLVALUE PUSH2 0x104 JUMPI PUSH1 0x20 CALLDATASIZE PUSH1 0x3 NOT ADD SLT PUSH2 0x104 JUMPI PUSH2 0x9AA PUSH2 0xA5A JUMP JUMPDEST PUSH2 0x9B2 PUSH2 0xAB9 JUMP JUMPDEST PUSH1 0x1 DUP1 PUSH1 0xA0 SHL SUB AND PUSH12 0xFFFFFFFFFFFFFFFFFFFFFFFF PUSH1 0xA0 SHL PUSH1 0x4 SLOAD AND OR PUSH1 0x4 SSTORE DUP1 RETURN JUMPDEST POP CALLVALUE PUSH2 0x104 JUMPI PUSH1 0x20 CALLDATASIZE PUSH1 0x3 NOT ADD SLT PUSH2 0x104 JUMPI PUSH1 0x40 PUSH1 0x20 SWAP2 PUSH1 0x4 CALLDATALOAD DUP2 MSTORE PUSH1 0x1 DUP4 MSTORE KECCAK256 SLOAD PUSH1 0x40 MLOAD SWAP1 DUP2 MSTORE RETURN JUMPDEST POP CALLVALUE PUSH2 0x104 JUMPI DUP1 PUSH1 0x3 NOT CALLDATASIZE ADD SLT PUSH2 0x104 JUMPI PUSH1 0x20 PUSH1 0x40 MLOAD PUSH1 0x28 DUP2 MSTORE RETURN JUMPDEST SWAP1 POP CALLVALUE PUSH2 0x281 JUMPI PUSH1 0x20 CALLDATASIZE PUSH1 0x3 NOT ADD SLT PUSH2 0x281 JUMPI PUSH1 0x40 PUSH1 0x20 SWAP3 PUSH1 0x4 CALLDATALOAD DUP2 MSTORE PUSH1 0x1 DUP5 MSTORE KECCAK256 SLOAD DUP1 ISZERO ISZERO SWAP1 DUP2 PUSH2 0xA4F JUMPI JUMPDEST POP ISZERO ISZERO DUP2 MSTORE RETURN JUMPDEST PUSH1 0x28 SWAP2 POP LT CODESIZE PUSH2 0xA48 JUMP JUMPDEST PUSH1 0x4 CALLDATALOAD SWAP1 PUSH1 0x1 PUSH1 0x1 PUSH1 0xA0 SHL SUB DUP3 AND DUP3 SUB PUSH2 0xA70 JUMPI JUMP JUMPDEST PUSH1 0x0 DUP1 REVERT JUMPDEST PUSH1 0x40 SWAP1 PUSH1 0x3 NOT ADD SLT PUSH2 0xA70 JUMPI PUSH1 0x4 CALLDATALOAD SWAP1 PUSH1 0x24 CALLDATALOAD SWAP1 JUMP JUMPDEST DUP1 SLOAD DUP3 LT ISZERO PUSH2 0xAA3 JUMPI PUSH1 0x0 MSTORE PUSH1 0x20 PUSH1 0x0 KECCAK256 ADD SWAP1 PUSH1 0x0 SWAP1 JUMP JUMPDEST PUSH4 0x4E487B71 PUSH1 0xE0 SHL PUSH1 0x0 MSTORE PUSH1 0x32 PUSH1 0x4 MSTORE PUSH1 0x24 PUSH1 0x0 REVERT JUMPDEST PUSH1 0x0 SLOAD PUSH1 0x1 PUSH1 0x1 PUSH1 0xA0 SHL SUB AND CALLER SUB PUSH2 0xACD JUMPI JUMP JUMPDEST PUSH1 0x40 MLOAD PUSH4 0x118CDAA7 PUSH1 0xE0 SHL DUP2 MSTORE CALLER PUSH1 0x4 DUP3 ADD MSTORE PUSH1 0x24 SWAP1 REVERT JUMPDEST PUSH8 0xFFFFFFFFFFFFFFFF DUP2 GT PUSH2 0xAF9 JUMPI PUSH1 0x40 MSTORE JUMP JUMPDEST PUSH4 0x4E487B71 PUSH1 0xE0 SHL PUSH1 0x0 MSTORE PUSH1 0x41 PUSH1 0x4 MSTORE PUSH1 0x24 PUSH1 0x0 REVERT JUMPDEST SWAP1 PUSH1 0x1F DUP1 NOT SWAP2 ADD AND DUP2 ADD SWAP1 DUP2 LT PUSH8 0xFFFFFFFFFFFFFFFF DUP3 GT OR PUSH2 0xAF9 JUMPI PUSH1 0x40 MSTORE JUMP JUMPDEST SWAP2 SWAP1 DUP1 PUSH1 0x1F DUP5 ADD SLT ISZERO PUSH2 0xA70 JUMPI DUP3 MLOAD SWAP1 PUSH8 0xFFFFFFFFFFFFFFFF DUP3 GT PUSH2 0xAF9 JUMPI PUSH1 0x40 MLOAD SWAP2 PUSH1 0x20 SWAP2 PUSH2 0xB6A PUSH1 0x1F DUP4 ADD PUSH1 0x1F NOT AND DUP5 ADD DUP6 PUSH2 0xB0F JUMP JUMPDEST DUP2 DUP5 MSTORE DUP3 DUP3 DUP8 ADD ADD GT PUSH2 0xA70 JUMPI PUSH1 0x0 JUMPDEST DUP2 DUP2 LT PUSH2 0xB8F JUMPI POP DUP3 PUSH1 0x0 SWAP4 SWAP5 SWAP6 POP ADD ADD MSTORE SWAP1 JUMP JUMPDEST DUP6 DUP2 ADD DUP4 ADD MLOAD DUP5 DUP3 ADD DUP5 ADD MSTORE DUP3 ADD PUSH2 0xB7A JUMP JUMPDEST MLOAD SWAP1 DUP2 ISZERO ISZERO DUP3 SUB PUSH2 0xA70 JUMPI JUMP JUMPDEST SWAP1 DUP2 SLOAD SWAP2 PUSH9 0x10000000000000000 DUP4 LT ISZERO PUSH2 0xAF9 JUMPI DUP3 PUSH2 0x39A SWAP2 PUSH1 0x1 PUSH2 0xBD7 SWAP6 ADD DUP2 SSTORE PUSH2 0xA8B JUMP JUMPDEST JUMP JUMPDEST PUSH1 0x0 NOT DUP2 EQ PUSH2 0xBE8 JUMPI PUSH1 0x1 ADD SWAP1 JUMP JUMPDEST PUSH4 0x4E487B71 PUSH1 0xE0 SHL PUSH1 0x0 MSTORE PUSH1 0x11 PUSH1 0x4 MSTORE PUSH1 0x24 PUSH1 0x0 REVERT JUMPDEST PUSH8 0xFFFFFFFFFFFFFFFF DUP2 GT PUSH2 0xAF9 JUMPI PUSH1 0x5 SHL PUSH1 0x20 ADD SWAP1 JUMP JUMPDEST DUP1 MLOAD DUP3 LT ISZERO PUSH2 0xAA3 JUMPI PUSH1 0x20 SWAP2 PUSH1 0x5 SHL ADD ADD SWAP1 JUMP INVALID LOG2 PUSH5 0x6970667358 0x22 SLT KECCAK256 SWAP1 0xEB 0x4A DUP3 0xC7 BYTE MLOAD NUMBER RETURNDATACOPY SWAP12 MSIZE GASPRICE 0xE3 0xBD SGT 0xA7 LOG3 CALLDATASIZE 0xD7 KECCAK256 0xA6 0xC6 NUMBER 0xB7 SWAP11 0xB3 0xE9 0xAA 0xC3 0xAB 0xF9 SWAP3 PUSH5 0x736F6C6343 STOP ADDMOD EQ STOP CALLER "},"methodIdentifiers":{"REMOVAL_THRESHOLD()":"8e852042","SUSPENSION_THRESHOLD()":"1b7bc713","authorized(address)":"b9181611","getScore(uint256)":"0e1af57b","getScoreHistory(uint256)":"d6376a84","isSuspended(uint256)":"0bae1bd0","owner()":"8da5cb5b","registry()":"7b103999","renounceOwnership()":"715018a6","scoreHistory(uint256,uint256)":"8596ae7c","scores(uint256)":"2ee691a3","setAuthorized(address,bool)":"711bf9b2","setMockScore(uint256,uint256)":"817695ac","setVault(address)":"6817031b","transferOwnership(address)":"f2fde38b","updateScore(uint256)":"f853e34d","vault()":"fbfa77cf"}}}}}