{
  "_format": "hh-sol-artifact-1",
  "contractName": "ReputationEngine",
  "sourceName": "contracts/ReputationEngine.sol",
  "abi": [
    {
      "inputs": [
        {
          "internalType": "address",
          "name": "_registry",
          "type": "address"
        }
      ],
      "stateMutability": "nonpayable",
      "type": "constructor"
    },
    {
      "inputs": [
        {
          "internalType": "address",
          "name": "owner",
          "type": "address"
        }
      ],
      "name": "OwnableInvalidOwner",
      "type": "error"
    },
    {
      "inputs": [
        {
          "internalType": "address",
          "name": "account",
          "type": "address"
        }
      ],
      "name": "OwnableUnauthorizedAccount",
      "type": "error"
    },
    {
      "anonymous": false,
      "inputs": [
        {
          "indexed": true,
          "internalType": "uint256",
          "name": "agentId",
          "type": "uint256"
        },
        {
          "indexed": false,
          "internalType": "uint256",
          "name": "score",
          "type": "uint256"
        }
      ],
      "name": "AgentAutoRemoved",
      "type": "event"
    },
    {
      "anonymous": false,
      "inputs": [
        {
          "indexed": true,
          "internalType": "uint256",
          "name": "agentId",
          "type": "uint256"
        },
        {
          "indexed": false,
          "internalType": "uint256",
          "name": "score",
          "type": "uint256"
        }
      ],
      "name": "AgentAutoSuspended",
      "type": "event"
    },
    {
      "anonymous": false,
      "inputs": [
        {
          "indexed": true,
          "internalType": "address",
          "name": "previousOwner",
          "type": "address"
        },
        {
          "indexed": true,
          "internalType": "address",
          "name": "newOwner",
          "type": "address"
        }
      ],
      "name": "OwnershipTransferred",
      "type": "event"
    },
    {
      "anonymous": false,
      "inputs": [
        {
          "indexed": true,
          "internalType": "uint256",
          "name": "agentId",
          "type": "uint256"
        },
        {
          "indexed": false,
          "internalType": "uint256",
          "name": "newScore",
          "type": "uint256"
        }
      ],
      "name": "ScoreUpdated",
      "type": "event"
    },
    {
      "inputs": [],
      "name": "REMOVAL_THRESHOLD",
      "outputs": [
        {
          "internalType": "uint256",
          "name": "",
          "type": "uint256"
        }
      ],
      "stateMutability": "view",
      "type": "function"
    },
    {
      "inputs": [],
      "name": "SUSPENSION_THRESHOLD",
      "outputs": [
        {
          "internalType": "uint256",
          "name": "",
          "type": "uint256"
        }
      ],
      "stateMutability": "view",
      "type": "function"
    },
    {
      "inputs": [
        {
          "internalType": "address",
          "name": "",
          "type": "address"
        }
      ],
      "name": "authorized",
      "outputs": [
        {
          "internalType": "bool",
          "name": "",
          "type": "bool"
        }
      ],
      "stateMutability": "view",
      "type": "function"
    },
    {
      "inputs": [
        {
          "internalType": "uint256",
          "name": "_agentId",
          "type": "uint256"
        }
      ],
      "name": "getScore",
      "outputs": [
        {
          "internalType": "uint256",
          "name": "",
          "type": "uint256"
        }
      ],
      "stateMutability": "view",
      "type": "function"
    },
    {
      "inputs": [
        {
          "internalType": "uint256",
          "name": "_agentId",
          "type": "uint256"
        }
      ],
      "name": "getScoreHistory",
      "outputs": [
        {
          "internalType": "uint256[]",
          "name": "",
          "type": "uint256[]"
        }
      ],
      "stateMutability": "view",
      "type": "function"
    },
    {
      "inputs": [
        {
          "internalType": "uint256",
          "name": "_agentId",
          "type": "uint256"
        }
      ],
      "name": "isSuspended",
      "outputs": [
        {
          "internalType": "bool",
          "name": "",
          "type": "bool"
        }
      ],
      "stateMutability": "view",
      "type": "function"
    },
    {
      "inputs": [],
      "name": "owner",
      "outputs": [
        {
          "internalType": "address",
          "name": "",
          "type": "address"
        }
      ],
      "stateMutability": "view",
      "type": "function"
    },
    {
      "inputs": [],
      "name": "registry",
      "outputs": [
        {
          "internalType": "contract IAgentRegistryForRep",
          "name": "",
          "type": "address"
        }
      ],
      "stateMutability": "view",
      "type": "function"
    },
    {
      "inputs": [],
      "name": "renounceOwnership",
      "outputs": [],
      "stateMutability": "nonpayable",
      "type": "function"
    },
    {
      "inputs": [
        {
          "internalType": "uint256",
          "name": "",
          "type": "uint256"
        },
        {
          "internalType": "uint256",
          "name": "",
          "type": "uint256"
        }
      ],
      "name": "scoreHistory",
      "outputs": [
        {
          "internalType": "uint256",
          "name": "",
          "type": "uint256"
        }
      ],
      "stateMutability": "view",
      "type": "function"
    },
    {
      "inputs": [
        {
          "internalType": "uint256",
          "name": "",
          "type": "uint256"
        }
      ],
      "name": "scores",
      "outputs": [
        {
          "internalType": "uint256",
          "name": "",
          "type": "uint256"
        }
      ],
      "stateMutability": "view",
      "type": "function"
    },
    {
      "inputs": [
        {
          "internalType": "address",
          "name": "_contract",
          "type": "address"
        },
        {
          "internalType": "bool",
          "name": "_status",
          "type": "bool"
        }
      ],
      "name": "setAuthorized",
      "outputs": [],
      "stateMutability": "nonpayable",
      "type": "function"
    },
    {
      "inputs": [
        {
          "internalType": "uint256",
          "name": "_agentId",
          "type": "uint256"
        },
        {
          "internalType": "uint256",
          "name": "_score",
          "type": "uint256"
        }
      ],
      "name": "setMockScore",
      "outputs": [],
      "stateMutability": "nonpayable",
      "type": "function"
    },
    {
      "inputs": [
        {
          "internalType": "address",
          "name": "_vault",
          "type": "address"
        }
      ],
      "name": "setVault",
      "outputs": [],
      "stateMutability": "nonpayable",
      "type": "function"
    },
    {
      "inputs": [
        {
          "internalType": "address",
          "name": "newOwner",
          "type": "address"
        }
      ],
      "name": "transferOwnership",
      "outputs": [],
      "stateMutability": "nonpayable",
      "type": "function"
    },
    {
      "inputs": [
        {
          "internalType": "uint256",
          "name": "_agentId",
          "type": "uint256"
        }
      ],
      "name": "updateScore",
      "outputs": [],
      "stateMutability": "nonpayable",
      "type": "function"
    },
    {
      "inputs": [],
      "name": "vault",
      "outputs": [
        {
          "internalType": "address",
          "name": "",
          "type": "address"
        }
      ],
      "stateMutability": "view",
      "type": "function"
    }
  ],
  "bytecode": "0x6080346100c657601f610d4238819003918201601f19168301916001600160401b038311848410176100cb578084926020946040528339810103126100c657516001600160a01b0390818116908190036100c65733156100ad5760005460018060a01b0319903382821617600055604051933391167f8be0079c531659141344cd1fd0a4f28419497f9722a3daafe3b4186f6b6457e0600080a36003541617600355610c6090816100e28239f35b604051631e4fbdf760e01b815260006004820152602490fd5b600080fd5b634e487b7160e01b600052604160045260246000fdfe608080604052600436101561001357600080fd5b600090813560e01c9081630bae1bd014610a1b575080630e1af57b146109d55780631b7bc713146109ff5780632ee691a3146109d55780636817031b14610990578063711bf9b21461093d578063715018a6146108e35780637b103999146108ba578063817695ac146108555780638596ae7c146108155780638da5cb5b146107ee5780638e852042146107d2578063b918161114610793578063d6376a841461063c578063f2fde38b146105b6578063f853e34d146101075763fbfa77cf146100dc57600080fd5b346101045780600319360112610104576004546040516001600160a01b039091168152602090f35b80fd5b503461010457602036600319011261010457338152600560205260ff60408220541680156105a3575b1561056d57600354604051630a270ad960e31b81526004803590820152908290829060249082906001600160a01b03165afa908115610285578290839261046f575b50829181158015610437575b5050506004358252600160205280604083205560026020526101a38160408420610baf565b600435825260026020526040822054601e8111610335575b506040518181527fefd5a7f141ae02cd40bc84ffe6ebb58811cb61dfd017746842a005c78bfed852602060043592a2801515808061032b575b15610290575060035482906001600160a01b0316803b1561028157818091602460405180948193632ab165af60e21b835260043560048401525af180156102855761026d575b50506040519081527f44868704186cb830ac2f43485a23b7605b3907dbab3cbe56fd95ab228c84d336602060043592a280f35b61027690610ae5565b61028157813861023a565b5080fd5b6040513d84823e3d90fd5b80610321575b61029e575080f35b6003549091906001600160a01b0316803b1561028157818091602460405180948193632ab165af60e21b835260043560048401525af1801561028557610312575b50906040519081527f6cf5b029d39a9880c3476f19d2f95c4e2f3fcd6ab171529e9142f43de8a225de602060043592a280f35b61031b90610ae5565b386102df565b5060288110610296565b50601482106101f4565b90825b826000198101116104235760001983018110156103d15760043584526002602052604084206001820182116103bd57906103b361037c6103b8936001840190610a8b565b90549060031b1c6004358752600260205261039a8360408920610a8b565b90919082549060031b91821b91600019901b1916179055565b610bd9565b610338565b634e487b7160e01b85526011600452602485fd5b50905060043582526002602052604082208054801561040f5760001901906103f98282610a8b565b8154906000199060031b1b1916905555386101bb565b634e487b7160e01b84526031600452602484fd5b634e487b7160e01b84526011600452602484fd5b909192506064820291808304606414901517156104235761045b570438808061017e565b634e487b7160e01b83526012600452602483fd5b9150503d8083833e6104818183610b0f565b81016101e0828203126105695760208201519167ffffffffffffffff9283811161056557826104b1918301610b31565b50604081015183811161056557826104ca918301610b31565b50606081015183811161056557826104e3918301610b31565b5060a08101516001600160a01b038116036105615760e081015191610100820151936105126101208401610ba2565b506105206101408401610ba2565b5061018083015181811161055d578261053a918501610b31565b506101a0830151908111610559576105529201610b31565b5038610172565b8580fd5b8680fd5b8380fd5b8480fd5b8280fd5b60405162461bcd60e51b815260206004820152600e60248201526d139bdd08185d5d1a1bdc9a5e995960921b6044820152606490fd5b5080546001600160a01b03163314610130565b5034610104576020366003190112610104576105d0610a5a565b6105d8610ab9565b6001600160a01b039081169081156106235782546001600160a01b0319811683178455167f8be0079c531659141344cd1fd0a4f28419497f9722a3daafe3b4186f6b6457e08380a380f35b604051631e4fbdf760e01b815260048101849052602490fd5b503461010457602080600319360112610281576004358252600281526040822090604051808383829554938481520190865283862092865b8582821061077d5750505061068b92500383610b0f565b815190601e82111561077757601d1982018281116103bd575b8083039283116103bd578484916106ba85610bfe565b946106c86040519687610b0f565b8086526106d481610bfe565b8686019490601f1901368637835b82811061072b575050505060405193838594850191818652518092526040850193925b82811061071457505050500390f35b835185528695509381019392810192600101610705565b808498969795980180851161076357906107486107599284610c16565b516107538289610c16565b52610bd9565b96939594966106e2565b634e487b7160e01b89526011600452602489fd5b836106a4565b8554845260019586019588955093019201610674565b50346101045760203660031901126101045760209060ff906040906001600160a01b036107be610a5a565b168152600584522054166040519015158152f35b5034610104578060031936011261010457602060405160148152f35b5034610104578060031936011261010457546040516001600160a01b039091168152602090f35b50346101045761082436610a75565b919081526002602052604081209081548310156101045760206108478484610a8b565b90546040519160031b1c8152f35b50346101045760207fefd5a7f141ae02cd40bc84ffe6ebb58811cb61dfd017746842a005c78bfed85261088736610a75565b610892939193610ab9565b83855260018252806040862055600282526108b08160408720610baf565b604051908152a280f35b50346101045780600319360112610104576003546040516001600160a01b039091168152602090f35b50346101045780600319360112610104576108fc610ab9565b80546001600160a01b03198116825581906001600160a01b03167f8be0079c531659141344cd1fd0a4f28419497f9722a3daafe3b4186f6b6457e08280a380f35b503461010457604036600319011261010457610957610a5a565b602435908115158092036105695761096d610ab9565b60018060a01b031682526005602052604082209060ff8019835416911617905580f35b5034610104576020366003190112610104576109aa610a5a565b6109b2610ab9565b60018060a01b03166bffffffffffffffffffffffff60a01b600454161760045580f35b50346101045760203660031901126101045760406020916004358152600183522054604051908152f35b5034610104578060031936011261010457602060405160288152f35b90503461028157602036600319011261028157604060209260043581526001845220548015159081610a4f575b5015158152f35b602891501038610a48565b600435906001600160a01b0382168203610a7057565b600080fd5b6040906003190112610a70576004359060243590565b8054821015610aa35760005260206000200190600090565b634e487b7160e01b600052603260045260246000fd5b6000546001600160a01b03163303610acd57565b60405163118cdaa760e01b8152336004820152602490fd5b67ffffffffffffffff8111610af957604052565b634e487b7160e01b600052604160045260246000fd5b90601f8019910116810190811067ffffffffffffffff821117610af957604052565b919080601f84011215610a705782519067ffffffffffffffff8211610af95760405191602091610b6a601f8301601f1916840185610b0f565b818452828287010111610a705760005b818110610b8f57508260009394955001015290565b8581018301518482018401528201610b7a565b51908115158203610a7057565b9081549168010000000000000000831015610af9578261039a916001610bd795018155610a8b565b565b6000198114610be85760010190565b634e487b7160e01b600052601160045260246000fd5b67ffffffffffffffff8111610af95760051b60200190565b8051821015610aa35760209160051b01019056fea264697066735822122090eb4a82c71a51433e9b593ae3bd13a7a336d720a6c643b79ab3e9aac3abf99264736f6c63430008140033",
  "linkReferences": {},
  "deployedLinkReferences": {}
}