{
  "_format": "hh-sol-artifact-1",
  "contractName": "DisputeResolver",
  "sourceName": "contracts/DisputeResolver.sol",
  "abi": [
    {
      "inputs": [
        {
          "internalType": "address",
          "name": "_taskLedger",
          "type": "address"
        },
        {
          "internalType": "address",
          "name": "_vault",
          "type": "address"
        },
        {
          "internalType": "address",
          "name": "_registry",
          "type": "address"
        }
      ],
      "stateMutability": "nonpayable",
      "type": "constructor"
    },
    {
      "inputs": [
        {
          "internalType": "address",
          "name": "owner",
          "type": "address"
        }
      ],
      "name": "OwnableInvalidOwner",
      "type": "error"
    },
    {
      "inputs": [
        {
          "internalType": "address",
          "name": "account",
          "type": "address"
        }
      ],
      "name": "OwnableUnauthorizedAccount",
      "type": "error"
    },
    {
      "anonymous": false,
      "inputs": [
        {
          "indexed": true,
          "internalType": "uint256",
          "name": "taskId",
          "type": "uint256"
        },
        {
          "indexed": true,
          "internalType": "address",
          "name": "user",
          "type": "address"
        },
        {
          "indexed": true,
          "internalType": "uint256",
          "name": "agentId",
          "type": "uint256"
        }
      ],
      "name": "DisputeOpened",
      "type": "event"
    },
    {
      "anonymous": false,
      "inputs": [
        {
          "indexed": true,
          "internalType": "uint256",
          "name": "taskId",
          "type": "uint256"
        },
        {
          "indexed": false,
          "internalType": "enum DisputeResolver.DisputeOutcome",
          "name": "outcome",
          "type": "uint8"
        }
      ],
      "name": "DisputeResolved",
      "type": "event"
    },
    {
      "anonymous": false,
      "inputs": [
        {
          "indexed": true,
          "internalType": "uint256",
          "name": "taskId",
          "type": "uint256"
        },
        {
          "indexed": true,
          "internalType": "uint256",
          "name": "agentId",
          "type": "uint256"
        }
      ],
      "name": "DisputeResponse",
      "type": "event"
    },
    {
      "anonymous": false,
      "inputs": [
        {
          "indexed": true,
          "internalType": "address",
          "name": "previousOwner",
          "type": "address"
        },
        {
          "indexed": true,
          "internalType": "address",
          "name": "newOwner",
          "type": "address"
        }
      ],
      "name": "OwnershipTransferred",
      "type": "event"
    },
    {
      "inputs": [
        {
          "internalType": "uint256",
          "name": "",
          "type": "uint256"
        }
      ],
      "name": "disputes",
      "outputs": [
        {
          "internalType": "uint256",
          "name": "taskId",
          "type": "uint256"
        },
        {
          "internalType": "address",
          "name": "user",
          "type": "address"
        },
        {
          "internalType": "uint256",
          "name": "agentId",
          "type": "uint256"
        },
        {
          "internalType": "string",
          "name": "userEvidence",
          "type": "string"
        },
        {
          "internalType": "string",
          "name": "agentResponse",
          "type": "string"
        },
        {
          "internalType": "enum DisputeResolver.DisputeStatus",
          "name": "status",
          "type": "uint8"
        },
        {
          "internalType": "enum DisputeResolver.DisputeOutcome",
          "name": "outcome",
          "type": "uint8"
        },
        {
          "internalType": "uint256",
          "name": "openedAt",
          "type": "uint256"
        },
        {
          "internalType": "uint256",
          "name": "resolvedAt",
          "type": "uint256"
        }
      ],
      "stateMutability": "view",
      "type": "function"
    },
    {
      "inputs": [
        {
          "internalType": "uint256",
          "name": "_taskId",
          "type": "uint256"
        }
      ],
      "name": "getDispute",
      "outputs": [
        {
          "components": [
            {
              "internalType": "uint256",
              "name": "taskId",
              "type": "uint256"
            },
            {
              "internalType": "address",
              "name": "user",
              "type": "address"
            },
            {
              "internalType": "uint256",
              "name": "agentId",
              "type": "uint256"
            },
            {
              "internalType": "string",
              "name": "userEvidence",
              "type": "string"
            },
            {
              "internalType": "string",
              "name": "agentResponse",
              "type": "string"
            },
            {
              "internalType": "enum DisputeResolver.DisputeStatus",
              "name": "status",
              "type": "uint8"
            },
            {
              "internalType": "enum DisputeResolver.DisputeOutcome",
              "name": "outcome",
              "type": "uint8"
            },
            {
              "internalType": "uint256",
              "name": "openedAt",
              "type": "uint256"
            },
            {
              "internalType": "uint256",
              "name": "resolvedAt",
              "type": "uint256"
            }
          ],
          "internalType": "struct DisputeResolver.Dispute",
          "name": "",
          "type": "tuple"
        }
      ],
      "stateMutability": "view",
      "type": "function"
    },
    {
      "inputs": [],
      "name": "getOpenDisputes",
      "outputs": [
        {
          "components": [
            {
              "internalType": "uint256",
              "name": "taskId",
              "type": "uint256"
            },
            {
              "internalType": "address",
              "name": "user",
              "type": "address"
            },
            {
              "internalType": "uint256",
              "name": "agentId",
              "type": "uint256"
            },
            {
              "internalType": "string",
              "name": "userEvidence",
              "type": "string"
            },
            {
              "internalType": "string",
              "name": "agentResponse",
              "type": "string"
            },
            {
              "internalType": "enum DisputeResolver.DisputeStatus",
              "name": "status",
              "type": "uint8"
            },
            {
              "internalType": "enum DisputeResolver.DisputeOutcome",
              "name": "outcome",
              "type": "uint8"
            },
            {
              "internalType": "uint256",
              "name": "openedAt",
              "type": "uint256"
            },
            {
              "internalType": "uint256",
              "name": "resolvedAt",
              "type": "uint256"
            }
          ],
          "internalType": "struct DisputeResolver.Dispute[]",
          "name": "",
          "type": "tuple[]"
        }
      ],
      "stateMutability": "view",
      "type": "function"
    },
    {
      "inputs": [
        {
          "internalType": "uint256",
          "name": "",
          "type": "uint256"
        }
      ],
      "name": "hasDispute",
      "outputs": [
        {
          "internalType": "bool",
          "name": "",
          "type": "bool"
        }
      ],
      "stateMutability": "view",
      "type": "function"
    },
    {
      "inputs": [
        {
          "internalType": "uint256",
          "name": "_taskId",
          "type": "uint256"
        },
        {
          "internalType": "string",
          "name": "_evidence",
          "type": "string"
        }
      ],
      "name": "openDispute",
      "outputs": [],
      "stateMutability": "nonpayable",
      "type": "function"
    },
    {
      "inputs": [
        {
          "internalType": "uint256",
          "name": "",
          "type": "uint256"
        }
      ],
      "name": "openDisputeIds",
      "outputs": [
        {
          "internalType": "uint256",
          "name": "",
          "type": "uint256"
        }
      ],
      "stateMutability": "view",
      "type": "function"
    },
    {
      "inputs": [],
      "name": "owner",
      "outputs": [
        {
          "internalType": "address",
          "name": "",
          "type": "address"
        }
      ],
      "stateMutability": "view",
      "type": "function"
    },
    {
      "inputs": [],
      "name": "registry",
      "outputs": [
        {
          "internalType": "contract IAgentRegistryForDispute",
          "name": "",
          "type": "address"
        }
      ],
      "stateMutability": "view",
      "type": "function"
    },
    {
      "inputs": [],
      "name": "renounceOwnership",
      "outputs": [],
      "stateMutability": "nonpayable",
      "type": "function"
    },
    {
      "inputs": [
        {
          "internalType": "uint256",
          "name": "_taskId",
          "type": "uint256"
        },
        {
          "internalType": "bool",
          "name": "_userWins",
          "type": "bool"
        }
      ],
      "name": "resolveDispute",
      "outputs": [],
      "stateMutability": "nonpayable",
      "type": "function"
    },
    {
      "inputs": [
        {
          "internalType": "uint256",
          "name": "_taskId",
          "type": "uint256"
        },
        {
          "internalType": "string",
          "name": "_response",
          "type": "string"
        }
      ],
      "name": "respondToDispute",
      "outputs": [],
      "stateMutability": "nonpayable",
      "type": "function"
    },
    {
      "inputs": [],
      "name": "taskLedger",
      "outputs": [
        {
          "internalType": "contract ITaskLedgerForDispute",
          "name": "",
          "type": "address"
        }
      ],
      "stateMutability": "view",
      "type": "function"
    },
    {
      "inputs": [
        {
          "internalType": "address",
          "name": "newOwner",
          "type": "address"
        }
      ],
      "name": "transferOwnership",
      "outputs": [],
      "stateMutability": "nonpayable",
      "type": "function"
    },
    {
      "inputs": [],
      "name": "vault",
      "outputs": [
        {
          "internalType": "contract IAgentVaultForDispute",
          "name": "",
          "type": "address"
        }
      ],
      "stateMutability": "view",
      "type": "function"
    }
  ],
  "bytecode": "0x6080346200010957601f620017c338819003918201601f19168301916001600160401b038311848410176200010e5780849260609460405283398101031262000109576200004d8162000124565b620000696040620000616020850162000124565b930162000124565b903315620000f057600080546001600160a01b03198082163390811784556040519691956001600160a01b039590948694859391908416907f8be0079c531659141344cd1fd0a4f28419497f9722a3daafe3b4186f6b6457e09080a316856004541617600455168360055416176005551690600654161760065561168990816200013a8239f35b604051631e4fbdf760e01b815260006004820152602490fd5b600080fd5b634e487b7160e01b600052604160045260246000fd5b51906001600160a01b0382168203620001095756fe6080604052600436101561001257600080fd5b600060e08135811c90816334b25ee214610f7057816336f691c4146109c65781635243a9241461098c578163564a565d146108bd578163715018a6146108635781637b1039991461083a5781637ea62c871461080b578163857dbac9146104fb5781638da5cb5b146104d45781639c0912fe146104ab5781639d28c0261461025f578163e3a96cbd1461017b57508063f2fde38b146100e55763fbfa77cf146100ba57600080fd5b346100e257806003193601126100e2576005546040516001600160a01b039091168152602090f35b80fd5b50346100e25760203660031901126100e2576004356001600160a01b038181169182900361017757610115611551565b811561015e57600054826bffffffffffffffffffffffff60a01b821617600055167f8be0079c531659141344cd1fd0a4f28419497f9722a3daafe3b4186f6b6457e0600080a380f35b604051631e4fbdf760e01b815260048101849052602490fd5b8280fd5b82346100e257602090816003193601126100e257604060079160043561019f6115bc565b50808252600285526101b660ff848420541661157d565b81526001845220604051936101ca8561127d565b8154855260018201546001600160a01b031684860152600282015460408601526101f6600383016113be565b6060860152610207600483016113be565b608086015260ff600583015481811661021f816114a4565b60a088015260081c16610231816114a4565b60c0860152600682015490850152015461010083015261025b6040519282849384528301906114c4565b0390f35b9050346104a757816003193601126104a7578190829060038054925b838110610452575061028c84611627565b9361029a604051958661129a565b8085526102a9601f1991611627565b01855b81811061043b5750508491855b84811061031e5760408051602080825288518183018190528a93600582901b8401810192808c01929185015b8287106102f25785850386f35b90919293828061030e600193603f198a820301865288516114c4565b96019201960195929190926102e5565b61032781611337565b905490841b1c87526001602081815260ff6005818160408d2001541661034c816114a4565b8b600280920361036b575b50505050505061036690611602565b6102b9565b92600792879a9592604061042f98968c6103876103669c611337565b9054911b1c81528786522093604051966103a08861127d565b855488528501546001600160a01b03169087015283015460408601526103c78a84016113be565b60608601526103d8600484016113be565b60808601528201548181166103ec816114a4565b60a086015260081c166103fe816114a4565b60c0840152600681015487840152015461010082015261041e828a61163f565b52610429818961163f565b50611602565b9390388080808b610357565b6020906104466115bc565b828289010152016102ac565b61045b81611337565b905490831b1c86526001602052600260ff60056040892001541661047e816114a4565b03610492575b61048d90611602565b61027b565b9361049f61048d91611602565b949050610484565b5080fd5b82346100e257806003193601126100e2576004546040516001600160a01b039091168152602090f35b82346100e257806003193601126100e257546040516001600160a01b039091168152602090f35b82346100e25761050a366112bc565b81835260019060209180835260408520926002815261052f60ff60408820541661157d565b600584019260ff845416610542816114a4565b6107d35760018060a01b039485600654169560028201968488546024604051809481936233950960e01b835260048301525afa9081156107c8578a9161078e575b5016330361075757600681015461a8c081018091116107435742116106fe576004019181519167ffffffffffffffff83116106ea579082916105c58554611384565b601f8111610697575b5081601f841160011461063457508992610629575b5050600019600383901b1c191690831b1790555b815460ff191617905554907f58fe1c607de48a89e09bfc7d3edb66c4ce93ac612db3b0838b98a096ff5b17478380a380f35b0151905088806105e3565b9190869450601f198416868c52838c20938c905b82821061067e5750508411610665575b505050811b0190556105f7565b015160001960f88460031b161c19169055888080610658565b8484015186558997909501949384019390810190610648565b90919250848a52828a20601f850160051c8101918486106106e0575b8594939291601f89920160051c01915b8281106106d15750506105ce565b600081558695508891016106c3565b90915081906106b3565b634e487b7160e01b89526041600452602489fd5b60405162461bcd60e51b815260048101849052601760248201527f526573706f6e73652077696e646f7720657870697265640000000000000000006044820152606490fd5b634e487b7160e01b89526011600452602489fd5b60405162461bcd60e51b815260048101849052600f60248201526e2737ba1030b3b2b73a1037bbb732b960891b6044820152606490fd5b90508481813d83116107c1575b6107a5818361129a565b810103126107bd575181811681036107bd578a610583565b8980fd5b503d61079b565b6040513d8c823e3d90fd5b60405162461bcd60e51b815260048101839052601060248201526f2234b9b83aba32903737ba1037b832b760811b6044820152606490fd5b82346100e25760203660031901126100e25760ff60406020926004358152600284522054166040519015158152f35b82346100e257806003193601126100e2576006546040516001600160a01b039091168152602090f35b82346100e257806003193601126100e25761087c611551565b600080546001600160a01b0319811682556001600160a01b03167f8be0079c531659141344cd1fd0a4f28419497f9722a3daafe3b4186f6b6457e08280a380f35b82346100e25760203660031901126100e25760409060043581526001602052209081549060018060a01b0360018401541692600281015490610901600382016113be565b9261090e600483016113be565b9361096260058401549561095460ff8089169860081c169360076006880154970154976040519b8c9b8c5260208c015260408b01526101208060608c01528a0190611464565b9088820360808a0152611464565b9461096c816114a4565b60a087015261097a816114a4565b60c08601528401526101008301520390f35b82346100e25760203660031901126100e257600435906003548210156100e25760206109b783611337565b90549060031b1c604051908152f35b9050346104a7576109d6366112bc565b60048054604051633bfd281160e01b81529182018490526001600160a01b0316939190602081602481885afa908115610f65578691610f1f575b506001600160a01b03163303610ee957828552600260205260ff604086205416610eab57602060249460405195868092631f5c479b60e01b82528760048301525afa938415610ea0578594610e68575b5060405190610a6e8261127d565b83825233602083015284604083015260608201526040516020810181811067ffffffffffffffff821117610e525760405285815260808201528460a08201528460c082015242828201528461010082015282855260016020526040852091815183556001830160018060a01b036020840151166bffffffffffffffffffffffff60a01b82541617905560408201516002840155606082015180519067ffffffffffffffff8211610d73578190610b276003870154611384565b601f8111610e01575b50602090601f8311600114610d92578992610d87575b50508160011b916000199060031b1c19161760038401555b608082015180519067ffffffffffffffff8211610d7357610b826004860154611384565b601f8111610d2e575b50602090601f8311600114610cba5791806101009492600796948b92610caf575b50508160011b916000199060031b1c19161760048601555b6005850160a0830151610bd6816114a4565b610bdf816114a4565b815460ff61ff0060c0870151610bf4816114a4565b610bfd816114a4565b60081b1692169061ffff19161717905581015160068501550151910155808352600260205260408320600160ff1982541617905560035468010000000000000000811015610c9b5781610c59826001610c729401600355611337565b90919082549060031b91821b91600019901b1916179055565b33907f45c6ef09865025319c9f2a574b08ae087defce1c8b3640347d830c463909ce7b8480a480f35b634e487b7160e01b84526041600452602484fd5b015190503880610bac565b906004860189526020892091895b601f1985168110610d1657509261010094926001926007979583601f19811610610cfd575b505050811b016004860155610bc4565b015160001960f88460031b161c19169055388080610ced565b91926020600181928685015181550194019201610cc8565b60048601895260208920601f840160051c810160208510610d6c575b601f830160051c82018110610d60575050610b8b565b60008155600101610d4a565b5080610d4a565b634e487b7160e01b88526041600452602488fd5b015190503880610b46565b9250600386018952602089209089935b601f1984168510610de6576001945083601f19811610610dcd575b505050811b016003840155610b5e565b015160001960f88460031b161c19169055388080610dbd565b81810151835560209485019460019093019290910190610da2565b90915060038601895260208920601f840160051c810160208510610e4b575b90849392915b601f830160051c82018110610e3c575050610b30565b60008155859450600101610e26565b5080610e20565b634e487b7160e01b600052604160045260246000fd5b9093506020813d602011610e98575b81610e846020938361129a565b81010312610e9457519238610a60565b8480fd5b3d9150610e77565b6040513d87823e3d90fd5b60405162461bcd60e51b81526020600482015260166024820152754469737075746520616c72656164792065786973747360501b6044820152606490fd5b60405162461bcd60e51b815260206004820152600e60248201526d2737ba103a30b9b59037bbb732b960911b6044820152606490fd5b90506020813d602011610f5d575b81610f3a6020938361129a565b81010312610f5957516001600160a01b0381168103610f595738610a10565b8580fd5b3d9150610f2d565b6040513d88823e3d90fd5b82346100e25760403660031901126100e2576024600435813580151581036111ae57610f9a611551565b81845260019283602052604085206002602052610fbd60ff60408820541661157d565b600581019283549060ff8216610fd2816114a4565b878115918215611255575b50501561121e5742600784015560ff198216600217855587929190156111b25750835461ff0019166101001784556005546002820154918701546001600160a01b03918216929116823b156111ae576064849283604051958694859363f018558160e01b855260048501528b8a85015260448401525af180156111a35761118f575b50505b84845b6110aa575b85847f2ffcfee146bc0d5ff304c6b65111a0d485af9456dc64eee7d66ebdcc90b223ea602060ff875460081c16604051906110a4816114a4565b8152a280f35b60038054908183101561118857856110c184611337565b905490831b1c146110dd5750506110d790611602565b84611065565b92919093949550600019938481019081116111755790610c5961110261110e93611337565b905490861b1c91611337565b81549081156111635750928260ff926020947f2ffcfee146bc0d5ff304c6b65111a0d485af9456dc64eee7d66ebdcc90b223ea96019161114d83611337565b9091825491841b1b19169055559184935061106a565b634e487b7160e01b8752603160045286fd5b634e487b7160e01b885260116004528288fd5b505061106a565b61119890611269565b610e9457848661105f565b6040513d84823e3d90fd5b8380fd5b61ffff191661020217845560055460029190910154906001600160a01b0316803b156101775760448392604051948593849263012fd33560e71b84528a6004850152888401525af18015610f655761120b575b50611062565b61121790959195611269565b9385611205565b60405162461bcd60e51b8152602060048201526010818601526f105b1c9958591e481c995cdbdb1d995960821b6044820152606490fd5b909150611261816114a4565b14878a610fdd565b67ffffffffffffffff8111610e5257604052565b610120810190811067ffffffffffffffff821117610e5257604052565b90601f8019910116810190811067ffffffffffffffff821117610e5257604052565b906040600319830112611332576004359167ffffffffffffffff6024358181116113325782602382011215611332578060040135918211610e52576040519261130f601f8401601f19166020018561129a565b828452602483830101116113325781600092602460209301838601378301015290565b600080fd5b60035481101561136e5760036000527fc2575a0e9e593c00f959f8c92f12db2869c3395a3b0502d05e2516446f71f85b0190600090565b634e487b7160e01b600052603260045260246000fd5b90600182811c921680156113b4575b602083101461139e57565b634e487b7160e01b600052602260045260246000fd5b91607f1691611393565b90604051918260008254926113d284611384565b90818452600194858116908160001461144157506001146113fe575b50506113fc9250038361129a565b565b9093915060005260209081600020936000915b8183106114295750506113fc935082010138806113ee565b85548884018501529485019487945091830191611411565b9150506113fc94506020925060ff191682840152151560051b82010138806113ee565b919082519283825260005b848110611490575050826000602080949584010152601f8019910116010190565b60208183018101518483018201520161146f565b600311156114ae57565b634e487b7160e01b600052602160045260246000fd5b908151815260018060a01b036020830151166020820152604082015160408201526115136115016060840151610120806060860152840190611464565b60808401518382036080850152611464565b9160a0810151611522816114a4565b60a083015260c0810151611535816114a4565b60c083015260e081015160e08301526101008091015191015290565b6000546001600160a01b0316330361156557565b60405163118cdaa760e01b8152336004820152602490fd5b1561158457565b60405162461bcd60e51b815260206004820152601060248201526f139bc8191a5cdc1d5d1948199bdd5b9960821b6044820152606490fd5b604051906115c98261127d565b81610100600091828152826020820152826040820152606080820152606060808201528260a08201528260c08201528260e08201520152565b60001981146116115760010190565b634e487b7160e01b600052601160045260246000fd5b67ffffffffffffffff8111610e525760051b60200190565b805182101561136e5760209160051b01019056fea2646970667358221220a979f0825dfeced4d88850b51a3b7f8c8a6cad550362ec5b1b678856fde139f964736f6c63430008140033",
  "linkReferences": {},
  "deployedLinkReferences": {}
}