{
  "_format": "hh-sol-artifact-1",
  "contractName": "TaskLedger",
  "sourceName": "contracts/TaskLedger.sol",
  "abi": [
    {
      "inputs": [
        {
          "internalType": "address",
          "name": "_registry",
          "type": "address"
        },
        {
          "internalType": "address",
          "name": "_vault",
          "type": "address"
        }
      ],
      "stateMutability": "nonpayable",
      "type": "constructor"
    },
    {
      "inputs": [
        {
          "internalType": "address",
          "name": "owner",
          "type": "address"
        }
      ],
      "name": "OwnableInvalidOwner",
      "type": "error"
    },
    {
      "inputs": [
        {
          "internalType": "address",
          "name": "account",
          "type": "address"
        }
      ],
      "name": "OwnableUnauthorizedAccount",
      "type": "error"
    },
    {
      "anonymous": false,
      "inputs": [
        {
          "indexed": true,
          "internalType": "address",
          "name": "previousOwner",
          "type": "address"
        },
        {
          "indexed": true,
          "internalType": "address",
          "name": "newOwner",
          "type": "address"
        }
      ],
      "name": "OwnershipTransferred",
      "type": "event"
    },
    {
      "anonymous": false,
      "inputs": [
        {
          "indexed": true,
          "internalType": "uint256",
          "name": "taskId",
          "type": "uint256"
        },
        {
          "indexed": true,
          "internalType": "uint256",
          "name": "agentId",
          "type": "uint256"
        },
        {
          "indexed": false,
          "internalType": "bytes32",
          "name": "outputHash",
          "type": "bytes32"
        }
      ],
      "name": "TaskCompleted",
      "type": "event"
    },
    {
      "anonymous": false,
      "inputs": [
        {
          "indexed": true,
          "internalType": "uint256",
          "name": "taskId",
          "type": "uint256"
        },
        {
          "indexed": true,
          "internalType": "uint256",
          "name": "agentId",
          "type": "uint256"
        },
        {
          "indexed": true,
          "internalType": "address",
          "name": "user",
          "type": "address"
        }
      ],
      "name": "TaskCreated",
      "type": "event"
    },
    {
      "anonymous": false,
      "inputs": [
        {
          "indexed": true,
          "internalType": "uint256",
          "name": "taskId",
          "type": "uint256"
        },
        {
          "indexed": true,
          "internalType": "address",
          "name": "user",
          "type": "address"
        }
      ],
      "name": "TaskDisputed",
      "type": "event"
    },
    {
      "anonymous": false,
      "inputs": [
        {
          "indexed": true,
          "internalType": "uint256",
          "name": "taskId",
          "type": "uint256"
        },
        {
          "indexed": true,
          "internalType": "uint256",
          "name": "agentId",
          "type": "uint256"
        },
        {
          "indexed": false,
          "internalType": "string",
          "name": "reason",
          "type": "string"
        }
      ],
      "name": "TaskFailed",
      "type": "event"
    },
    {
      "inputs": [
        {
          "internalType": "uint256",
          "name": "",
          "type": "uint256"
        },
        {
          "internalType": "uint256",
          "name": "",
          "type": "uint256"
        }
      ],
      "name": "agentTasks",
      "outputs": [
        {
          "internalType": "uint256",
          "name": "",
          "type": "uint256"
        }
      ],
      "stateMutability": "view",
      "type": "function"
    },
    {
      "inputs": [
        {
          "internalType": "address",
          "name": "",
          "type": "address"
        }
      ],
      "name": "authorized",
      "outputs": [
        {
          "internalType": "bool",
          "name": "",
          "type": "bool"
        }
      ],
      "stateMutability": "view",
      "type": "function"
    },
    {
      "inputs": [
        {
          "internalType": "uint256",
          "name": "_taskId",
          "type": "uint256"
        },
        {
          "internalType": "bytes32",
          "name": "_outputHash",
          "type": "bytes32"
        },
        {
          "internalType": "string",
          "name": "_resultSummary",
          "type": "string"
        }
      ],
      "name": "completeTask",
      "outputs": [],
      "stateMutability": "nonpayable",
      "type": "function"
    },
    {
      "inputs": [
        {
          "internalType": "uint256",
          "name": "_agentId",
          "type": "uint256"
        },
        {
          "internalType": "address",
          "name": "_user",
          "type": "address"
        },
        {
          "internalType": "string",
          "name": "_taskType",
          "type": "string"
        },
        {
          "internalType": "uint256",
          "name": "_paidAmount",
          "type": "uint256"
        },
        {
          "internalType": "bool",
          "name": "_isArena",
          "type": "bool"
        },
        {
          "internalType": "bytes32",
          "name": "_inputHash",
          "type": "bytes32"
        }
      ],
      "name": "createTask",
      "outputs": [
        {
          "internalType": "uint256",
          "name": "",
          "type": "uint256"
        }
      ],
      "stateMutability": "nonpayable",
      "type": "function"
    },
    {
      "inputs": [
        {
          "internalType": "uint256",
          "name": "_taskId",
          "type": "uint256"
        }
      ],
      "name": "disputeTask",
      "outputs": [],
      "stateMutability": "nonpayable",
      "type": "function"
    },
    {
      "inputs": [
        {
          "internalType": "uint256",
          "name": "_taskId",
          "type": "uint256"
        },
        {
          "internalType": "string",
          "name": "_reason",
          "type": "string"
        }
      ],
      "name": "failTask",
      "outputs": [],
      "stateMutability": "nonpayable",
      "type": "function"
    },
    {
      "inputs": [
        {
          "internalType": "uint256",
          "name": "_agentId",
          "type": "uint256"
        }
      ],
      "name": "getAgentSuccessRate",
      "outputs": [
        {
          "internalType": "uint256",
          "name": "",
          "type": "uint256"
        }
      ],
      "stateMutability": "view",
      "type": "function"
    },
    {
      "inputs": [
        {
          "internalType": "uint256",
          "name": "_agentId",
          "type": "uint256"
        }
      ],
      "name": "getAgentTasks",
      "outputs": [
        {
          "components": [
            {
              "internalType": "uint256",
              "name": "id",
              "type": "uint256"
            },
            {
              "internalType": "uint256",
              "name": "agentId",
              "type": "uint256"
            },
            {
              "internalType": "address",
              "name": "user",
              "type": "address"
            },
            {
              "internalType": "string",
              "name": "taskType",
              "type": "string"
            },
            {
              "internalType": "enum TaskLedger.TaskStatus",
              "name": "status",
              "type": "uint8"
            },
            {
              "internalType": "uint256",
              "name": "paidAmount",
              "type": "uint256"
            },
            {
              "internalType": "bool",
              "name": "isArena",
              "type": "bool"
            },
            {
              "internalType": "uint256",
              "name": "createdAt",
              "type": "uint256"
            },
            {
              "internalType": "uint256",
              "name": "completedAt",
              "type": "uint256"
            },
            {
              "internalType": "bytes32",
              "name": "inputHash",
              "type": "bytes32"
            },
            {
              "internalType": "bytes32",
              "name": "outputHash",
              "type": "bytes32"
            },
            {
              "internalType": "string",
              "name": "resultSummary",
              "type": "string"
            }
          ],
          "internalType": "struct TaskLedger.Task[]",
          "name": "",
          "type": "tuple[]"
        }
      ],
      "stateMutability": "view",
      "type": "function"
    },
    {
      "inputs": [
        {
          "internalType": "uint256",
          "name": "_taskId",
          "type": "uint256"
        }
      ],
      "name": "getTask",
      "outputs": [
        {
          "components": [
            {
              "internalType": "uint256",
              "name": "id",
              "type": "uint256"
            },
            {
              "internalType": "uint256",
              "name": "agentId",
              "type": "uint256"
            },
            {
              "internalType": "address",
              "name": "user",
              "type": "address"
            },
            {
              "internalType": "string",
              "name": "taskType",
              "type": "string"
            },
            {
              "internalType": "enum TaskLedger.TaskStatus",
              "name": "status",
              "type": "uint8"
            },
            {
              "internalType": "uint256",
              "name": "paidAmount",
              "type": "uint256"
            },
            {
              "internalType": "bool",
              "name": "isArena",
              "type": "bool"
            },
            {
              "internalType": "uint256",
              "name": "createdAt",
              "type": "uint256"
            },
            {
              "internalType": "uint256",
              "name": "completedAt",
              "type": "uint256"
            },
            {
              "internalType": "bytes32",
              "name": "inputHash",
              "type": "bytes32"
            },
            {
              "internalType": "bytes32",
              "name": "outputHash",
              "type": "bytes32"
            },
            {
              "internalType": "string",
              "name": "resultSummary",
              "type": "string"
            }
          ],
          "internalType": "struct TaskLedger.Task",
          "name": "",
          "type": "tuple"
        }
      ],
      "stateMutability": "view",
      "type": "function"
    },
    {
      "inputs": [
        {
          "internalType": "uint256",
          "name": "_taskId",
          "type": "uint256"
        }
      ],
      "name": "getTaskAgentId",
      "outputs": [
        {
          "internalType": "uint256",
          "name": "",
          "type": "uint256"
        }
      ],
      "stateMutability": "view",
      "type": "function"
    },
    {
      "inputs": [
        {
          "internalType": "uint256",
          "name": "_taskId",
          "type": "uint256"
        }
      ],
      "name": "getTaskUser",
      "outputs": [
        {
          "internalType": "address",
          "name": "",
          "type": "address"
        }
      ],
      "stateMutability": "view",
      "type": "function"
    },
    {
      "inputs": [
        {
          "internalType": "address",
          "name": "_user",
          "type": "address"
        }
      ],
      "name": "getUserTasks",
      "outputs": [
        {
          "components": [
            {
              "internalType": "uint256",
              "name": "id",
              "type": "uint256"
            },
            {
              "internalType": "uint256",
              "name": "agentId",
              "type": "uint256"
            },
            {
              "internalType": "address",
              "name": "user",
              "type": "address"
            },
            {
              "internalType": "string",
              "name": "taskType",
              "type": "string"
            },
            {
              "internalType": "enum TaskLedger.TaskStatus",
              "name": "status",
              "type": "uint8"
            },
            {
              "internalType": "uint256",
              "name": "paidAmount",
              "type": "uint256"
            },
            {
              "internalType": "bool",
              "name": "isArena",
              "type": "bool"
            },
            {
              "internalType": "uint256",
              "name": "createdAt",
              "type": "uint256"
            },
            {
              "internalType": "uint256",
              "name": "completedAt",
              "type": "uint256"
            },
            {
              "internalType": "bytes32",
              "name": "inputHash",
              "type": "bytes32"
            },
            {
              "internalType": "bytes32",
              "name": "outputHash",
              "type": "bytes32"
            },
            {
              "internalType": "string",
              "name": "resultSummary",
              "type": "string"
            }
          ],
          "internalType": "struct TaskLedger.Task[]",
          "name": "",
          "type": "tuple[]"
        }
      ],
      "stateMutability": "view",
      "type": "function"
    },
    {
      "inputs": [],
      "name": "owner",
      "outputs": [
        {
          "internalType": "address",
          "name": "",
          "type": "address"
        }
      ],
      "stateMutability": "view",
      "type": "function"
    },
    {
      "inputs": [],
      "name": "registry",
      "outputs": [
        {
          "internalType": "contract IAgentRegistry",
          "name": "",
          "type": "address"
        }
      ],
      "stateMutability": "view",
      "type": "function"
    },
    {
      "inputs": [],
      "name": "renounceOwnership",
      "outputs": [],
      "stateMutability": "nonpayable",
      "type": "function"
    },
    {
      "inputs": [
        {
          "internalType": "address",
          "name": "_contract",
          "type": "address"
        },
        {
          "internalType": "bool",
          "name": "_status",
          "type": "bool"
        }
      ],
      "name": "setAuthorized",
      "outputs": [],
      "stateMutability": "nonpayable",
      "type": "function"
    },
    {
      "inputs": [
        {
          "internalType": "uint256",
          "name": "_taskId",
          "type": "uint256"
        },
        {
          "internalType": "enum TaskLedger.TaskStatus",
          "name": "_status",
          "type": "uint8"
        }
      ],
      "name": "setTaskStatus",
      "outputs": [],
      "stateMutability": "nonpayable",
      "type": "function"
    },
    {
      "inputs": [
        {
          "internalType": "address",
          "name": "_vault",
          "type": "address"
        }
      ],
      "name": "setVault",
      "outputs": [],
      "stateMutability": "nonpayable",
      "type": "function"
    },
    {
      "inputs": [],
      "name": "taskCount",
      "outputs": [
        {
          "internalType": "uint256",
          "name": "",
          "type": "uint256"
        }
      ],
      "stateMutability": "view",
      "type": "function"
    },
    {
      "inputs": [
        {
          "internalType": "uint256",
          "name": "",
          "type": "uint256"
        }
      ],
      "name": "tasks",
      "outputs": [
        {
          "internalType": "uint256",
          "name": "id",
          "type": "uint256"
        },
        {
          "internalType": "uint256",
          "name": "agentId",
          "type": "uint256"
        },
        {
          "internalType": "address",
          "name": "user",
          "type": "address"
        },
        {
          "internalType": "string",
          "name": "taskType",
          "type": "string"
        },
        {
          "internalType": "enum TaskLedger.TaskStatus",
          "name": "status",
          "type": "uint8"
        },
        {
          "internalType": "uint256",
          "name": "paidAmount",
          "type": "uint256"
        },
        {
          "internalType": "bool",
          "name": "isArena",
          "type": "bool"
        },
        {
          "internalType": "uint256",
          "name": "createdAt",
          "type": "uint256"
        },
        {
          "internalType": "uint256",
          "name": "completedAt",
          "type": "uint256"
        },
        {
          "internalType": "bytes32",
          "name": "inputHash",
          "type": "bytes32"
        },
        {
          "internalType": "bytes32",
          "name": "outputHash",
          "type": "bytes32"
        },
        {
          "internalType": "string",
          "name": "resultSummary",
          "type": "string"
        }
      ],
      "stateMutability": "view",
      "type": "function"
    },
    {
      "inputs": [
        {
          "internalType": "address",
          "name": "newOwner",
          "type": "address"
        }
      ],
      "name": "transferOwnership",
      "outputs": [],
      "stateMutability": "nonpayable",
      "type": "function"
    },
    {
      "inputs": [
        {
          "internalType": "address",
          "name": "",
          "type": "address"
        },
        {
          "internalType": "uint256",
          "name": "",
          "type": "uint256"
        }
      ],
      "name": "userTasks",
      "outputs": [
        {
          "internalType": "uint256",
          "name": "",
          "type": "uint256"
        }
      ],
      "stateMutability": "view",
      "type": "function"
    },
    {
      "inputs": [],
      "name": "vault",
      "outputs": [
        {
          "internalType": "contract IAgentVault",
          "name": "",
          "type": "address"
        }
      ],
      "stateMutability": "view",
      "type": "function"
    }
  ],
  "bytecode": "0x608034620000ec57601f62001dc938819003918201601f19168301916001600160401b03831184841017620000f1578084926040948552833981010312620000ec576200005a6020620000528362000107565b920162000107565b3315620000d35760008054336001600160a01b0319808316821784556040519590946001600160a01b03949093859391908416907f8be0079c531659141344cd1fd0a4f28419497f9722a3daafe3b4186f6b6457e09080a31683600554161760055516906006541617600655611cac90816200011d8239f35b604051631e4fbdf760e01b815260006004820152602490fd5b600080fd5b634e487b7160e01b600052604160045260246000fd5b51906001600160a01b0382168203620000ec5756fe6080604052600436101561001257600080fd5b600060e08135811c90816302284192146115b557816309efa53e146114525781630ead6f3b1461117f5781631d65e77e146110865781631f5c479b1461105a578163304d3ebe14611011578163324df36d14610fa65781633bfd281114610f705781636469038f14610a4257816366873a55146109ec5781636817031b146109ac578163711bf9b21461094e578163715018a6146108f45781637b103999146108cb5781638d977672146107e15781638da5cb5b146107ba57816395d57660146106455750806397d9c23e146104bb578063b6cb58a51461049d578063b91816111461045e578063e1df68c8146101d3578063f2fde38b146101485763fbfa77cf1461011d57600080fd5b346101455780600319360112610145576006546040516001600160a01b039091168152602090f35b80fd5b503461014557602036600319011261014557610162611821565b61016a611917565b6001600160a01b039081169081156101ba57600054826001600160601b0360a01b821617600055167f8be0079c531659141344cd1fd0a4f28419497f9722a3daafe3b4186f6b6457e0600080a380f35b604051631e4fbdf760e01b815260048101849052602490fd5b50346101455760403660031901126101455767ffffffffffffffff60043560243582811161045a5761020990369060040161179c565b913384526020926007845260ff6040862054168015610447575b61022c90611943565b8285526001808552604086209261024584541515611a03565b60048401805460ff81166004811015610433579061026560029215611a40565b60ff19161790554260088501558251600b850191811161041f576102898254611837565b601f81116103d8575b508087601f821160011461037b578991610370575b50600019600383901b1c191690831b1790555b600654600284015487916001600160a01b039081169116813b1561036c5782916044839260405194859384926351a9259b60e01b84528c600485015260248401525af1801561036157610349575b50507fb7d26c54dd42caec28cde154685cde378c046d6729a3ffcb28dcba3c10fb93db920154936103436040519282849384528301906115dc565b0390a380f35b61035290611766565b61035d578538610308565b8580fd5b6040513d84823e3d90fd5b8280fd5b9050840151386102a7565b838a52888a2085935090601f1983168b5b8b8282106103c257505083116103a9575b5050811b0190556102ba565b86015160001960f88460031b161c19169055388061039d565b838a01518555889690940193928301920161038c565b828952878920601f830160051c810191898410610415575b601f0160051c019084905b828110610409575050610292565b600081550184906103fb565b90915081906103f0565b634e487b7160e01b88526041600452602488fd5b634e487b7160e01b8a52602160045260248afd5b5084546001600160a01b03163314610223565b8380fd5b50346101455760203660031901126101455760209060ff906040906001600160a01b03610489611821565b168152600784522054166040519015158152f35b50346101455780600319360112610145576020600454604051908152f35b503461014557602080600319360112610641576004359081835260018152604083206104e981541515611a03565b60028101546001600160a01b0316330361060b57600481019182549160ff831660048110156105f7576001036105b457600801546201518081018091116105a0574211610563575060ff1916600317905533907f4c876e9aba8144edd2840298ef3fd0d8735009124d7a0185a41b12680c0937828380a380f35b6064906040519062461bcd60e51b825260048201526016602482015275111a5cdc1d5d19481dda5b991bddc8195e1c1a5c995960521b6044820152fd5b634e487b7160e01b86526011600452602486fd5b6064826040519062461bcd60e51b825280600483015260248201527f43616e206f6e6c79206469737075746520636f6d706c65746564207461736b736044820152fd5b634e487b7160e01b87526021600452602487fd5b60405162461bcd60e51b815260048101839052600e60248201526d2737ba103a30b9b59037bbb732b960911b6044820152606490fd5b5080fd5b82346101455760209081600319360112610145576001600160a01b03918261066b611821565b1682526002938482526040832093604051808685829854938481520190875285872092875b878282106107a4575050506106a79250038661177a565b6106b18551611af0565b95845b865181101561079257806106cb61078d9289611b40565b518752600180875261076c600b60408a20604051936106e985611749565b815485528101548a850152878782015416604085015261070b60038201611871565b606085015260ff61072581600484015416608087016119a5565b600582015460a0860152600682015416151560c085015260078101548985015260088101546101008501526009810154610120850152600a81015461014085015201611871565b61016082015261077c828b611b40565b52610787818a611b40565b50611980565b6106b4565b604051806107a08a826116e7565b0390f35b855484526001958601958b955093019201610690565b8234610145578060031936011261014557546040516001600160a01b039091168152602090f35b8234610145576020366003190112610145576004358152600160205260409020805490600181015492600160a01b60019003600283015416916003810161082790611871565b600482015460ff1692600583015490600684015460ff1690600785015491600886015493600987015495600a88015497600b0161086390611871565b996040519c8d9c8d5260208d015260408c01526101808060608d01528b0161088a916115dc565b9760808b016108989161161c565b60a08a0152151560c08901528701526101008601526101208501526101408401528281036101608401526107a0916115dc565b82346101455780600319360112610145576005546040516001600160a01b039091168152602090f35b823461014557806003193601126101455761090d611917565b600080546001600160a01b0319811682556001600160a01b03167f8be0079c531659141344cd1fd0a4f28419497f9722a3daafe3b4186f6b6457e08280a380f35b823461014557604036600319011261014557610968611821565b60243580151581036109a7576109a491610980611917565b60018060a01b031683526007602052604083209060ff801983541691151516179055565b80f35b600080fd5b8234610145576020366003190112610145576109c6611821565b6109ce611917565b60018060a01b03166001600160601b0360a01b600654161760065580f35b823461014557604036600319011261014557610a06611821565b6001600160a01b0316815260026020526040812080546024359290831015610145576020610a3484846117f3565b90546040519160031b1c8152f35b82346101455760c0366003190112610145576024356001600160a01b03811681036109a75760443567ffffffffffffffff811161036c57610a8790369060040161179c565b926084358015158091036109a757338452600760205260ff6040852054168015610f5d575b610ab590611943565b610ac0600454611980565b908160045560405195610ad287611749565b828752600435602088015260018060a01b0385166040880152606087015284608087015260643560a087015260c086015242828601528361010086015260a4356101208601528361014086015260405180602081011067ffffffffffffffff602083011117610f47576020810160405284815261016086015283526001602052604083209084518255602085015160018301556002820160018060a01b036040870151166001600160601b0360a01b825416179055606085015180519067ffffffffffffffff8211610f33578190610bad6003860154611837565b601f8111610ee2575b50602090601f8311600114610e73578792610e68575b50508160011b916000199060031b1c19161760038301555b60808501516004811015610e545791600b91610c0661016094600484016119b1565b60a08701516005830155610c2f60c08801511515600684019060ff801983541691151516179055565b860151600782015561010086015160088201556101208601516009820155610140860151600a8201550193015192835167ffffffffffffffff8111610e4057610c788254611837565b601f8111610dfa575b50602094601f8211600114610d97579484958293949592610d8c575b50508160011b916000199060031b1c19161790555b6001600160a01b0381168252600260205260408220600454610cd3916119c9565b60043582526003602052610ced60408320600454906119c9565b60055482906001600160a01b0316803b156106415781906024604051809481936327b4dd2360e21b835260043560048401525af18015610d8157610d6d575b50602091600454906040519260018060a01b031690827f608625ab6f77a46173f4140d5795b7128dc6e75d7ae867d32b5e49ae02cde6526004359280a48152f35b610d778391611766565b6106415782610d2c565b6040513d85823e3d90fd5b015190508580610c9d565b601f198216958386526020862091865b888110610de257508360019596979810610dc9575b505050811b019055610cb2565b015160001960f88460031b161c19169055858080610dbc565b91926020600181928685015181550194019201610da7565b82855260208520601f830160051c81019160208410610e36575b601f0160051c01905b818110610e2a5750610c81565b60008155600101610e1d565b9091508190610e14565b634e487b7160e01b84526041600452602484fd5b634e487b7160e01b85526021600452602485fd5b015190508780610bcc565b9250600385018752602087209087935b601f1984168510610ec7576001945083601f19811610610eae575b505050811b016003830155610be4565b015160001960f88460031b161c19169055878080610e9e565b81810151835560209485019460019093019290910190610e83565b90915060038501875260208720601f840160051c810160208510610f2c575b90849392915b601f830160051c82018110610f1d575050610bb6565b60008155859450600101610f07565b5080610f01565b634e487b7160e01b86526041600452602486fd5b634e487b7160e01b600052604160045260246000fd5b5083546001600160a01b03163314610aac565b8234610145576020366003190112610145576020906004358152600182526002604060018060a01b039220015416604051908152f35b8234610145576040366003190112610145576024356004811015610641576109a490338352600760205260ff6040842054168015610ffe575b610fe890611943565b60043583526001602052600460408420016119b1565b5082546001600160a01b03163314610fdf565b82346101455760403660031901126101455760243590600435815260036020526040812090815483101561014557602061104b84846117f3565b90549060031b1c604051908152f35b823461014557602036600319011261014557600160406020926004358152828452200154604051908152f35b8234610145576020908160031936011261014557600b6040611165926004356110ad611a7f565b50808252600186526110c3838320541515611a03565b81526001855220604051946110d786611749565b8154865260018201548587015260028201546001600160a01b0316604087015261110360038301611871565b606087015261111c60ff600484015416608088016119a5565b600582015460a087015260ff600683015416151560c087015260078201549086015260088101546101008601526009810154610120860152600a81015461014086015201611871565b6101608301526107a060405192828493845283019061163f565b82346101455760603660031901126101455760243560043567ffffffffffffffff60443581811161133b576111b890369060040161179c565b3385526020906007825260ff604087205416801561143f575b6111da90611943565b83865260019081835260408720936111f485541515611a03565b60048501805460ff8116600481101561142b5790611213869215611a40565b60ff191617905542600886015586600a860155600b85019180519182116114175781906112408454611837565b601f81116113c7575b508590601f8311600114611368578a9261135d575b5050600019600383901b1c191690831b1790555b6005549201805490926001600160a01b039187918316803b1561036c576024839260405194859384926386dfbcd160e01b845260048401525af180156113525761133f575b508590600654168354813b1561036c57829160448392604051948593849263012fd33560e71b84528b600485015260248401525af1801561036157611327575b50507f339ba61d0494cd9480ac692252c889cdd0184f891856a80a25fc39c7d9f88f7e915493604051908152a380f35b61133090611766565b61133b5784866112f7565b8480fd5b61134b90969196611766565b94866112b7565b6040513d89823e3d90fd5b01519050898061125e565b848b52868b208694509190601f1984168c5b898282106113b15750508411611398575b505050811b019055611272565b015160001960f88460031b161c1916905589808061138b565b838501518655899790950194938401930161137a565b909150838a52858a20601f840160051c81019187851061140d575b84939291601f88920160051c01915b8281106113ff575050611249565b8c81558594508791016113f1565b90915081906113e2565b634e487b7160e01b89526041600452602489fd5b634e487b7160e01b8b52602160045260248bfd5b5085546001600160a01b031633146111d1565b90503461064157602091826003193601126101455760043581526003928381526040822092604051808584829754938481520190865284862092865b8682821061159f575050506114a59250038561177a565b6114af8451611af0565b94835b855181101561159157806114c961158c9288611b40565b5186526001808652611571600b60408920604051936114e785611749565b815485528101548985015260028101546001600160a01b03166040850152611510878201611871565b606085015260ff61152a81600484015416608087016119a5565b600582015460a0860152600682015416151560c085015260078101548885015260088101546101008501526009810154610120850152600a81015461014085015201611871565b610160820152611581828a611b40565b526107878189611b40565b6114b2565b604051806107a089826116e7565b855484526001958601958a95509301920161148e565b82346101455760203660031901126101455760206115d4600435611b54565b604051908152f35b919082519283825260005b848110611608575050826000602080949584010152601f8019910116010190565b6020818301810151848301820152016115e7565b9060048210156116295752565b634e487b7160e01b600052602160045260246000fd5b906116e491805182526020810151602083015260018060a01b03604082015116604083015261167d60608201516101808060608601528401906115dc565b916116906080830151608083019061161c565b60a082015160a082015260c0820151151560c082015260e082015160e082015261010080830151908201526101208083015190820152610140808301519082015261016080920151918184039101526115dc565b90565b602080820190808352835180925260408301928160408460051b8301019501936000915b84831061171b5750505050505090565b9091929394958480611739600193603f198682030187528a5161163f565b980193019301919493929061170b565b610180810190811067ffffffffffffffff821117610f4757604052565b67ffffffffffffffff8111610f4757604052565b90601f8019910116810190811067ffffffffffffffff821117610f4757604052565b81601f820112156109a75780359067ffffffffffffffff8211610f4757604051926117d1601f8401601f19166020018561177a565b828452602083830101116109a757816000926020809301838601378301015290565b805482101561180b5760005260206000200190600090565b634e487b7160e01b600052603260045260246000fd5b600435906001600160a01b03821682036109a757565b90600182811c92168015611867575b602083101461185157565b634e487b7160e01b600052602260045260246000fd5b91607f1691611846565b906040519182600082549261188584611837565b9081845260019485811690816000146118f457506001146118b1575b50506118af9250038361177a565b565b9093915060005260209081600020936000915b8183106118dc5750506118af935082010138806118a1565b855488840185015294850194879450918301916118c4565b9150506118af94506020925060ff191682840152151560051b82010138806118a1565b6000546001600160a01b0316330361192b57565b60405163118cdaa760e01b8152336004820152602490fd5b1561194a57565b60405162461bcd60e51b815260206004820152600e60248201526d139bdd08185d5d1a1bdc9a5e995960921b6044820152606490fd5b600019811461198f5760010190565b634e487b7160e01b600052601160045260246000fd5b60048210156116295752565b9060048110156116295760ff80198354169116179055565b805468010000000000000000811015610f47576119eb916001820181556117f3565b819291549060031b91821b91600019901b1916179055565b15611a0a57565b60405162461bcd60e51b815260206004820152600e60248201526d15185cdac81b9bdd08199bdd5b9960921b6044820152606490fd5b15611a4757565b60405162461bcd60e51b815260206004820152601060248201526f5461736b206e6f742070656e64696e6760801b6044820152606490fd5b60405190611a8c82611749565b606061016083600080825280602083015280604083015283808301528060808301528060a08301528060c08301528060e083015280610100830152806101208301526101408201520152565b67ffffffffffffffff8111610f475760051b60200190565b90611afa82611ad8565b611b07604051918261177a565b8281528092611b18601f1991611ad8565b019060005b828110611b2957505050565b602090611b34611a7f565b82828501015201611b1d565b805182101561180b5760209160051b010190565b90600091825260209160038352604092838220918451808484829654938481520190845284842092845b86828210611c6057505050611b959250038461177a565b825115611c5a578092815b8151811015611c0c57611bb38183611b40565b5183526001808552600460ff818a87200154169080821015611bf9575014611be4575b611bdf90611980565b611ba0565b93611bf1611bdf91611980565b949050611bd6565b634e487b7160e01b865260219052602485fd5b509150929350606482029180830460641490151715611c465751918215611c3257500490565b634e487b7160e01b81526012600452602490fd5b634e487b7160e01b83526011600452602483fd5b93505050565b8554845260019586019589955093019201611b7e56fea26469706673582212205b68894c1646e3f157fe4f2dc837a2f926fc38b634f438a7b09844e48090f52364736f6c63430008140033",
  "linkReferences": {},
  "deployedLinkReferences": {}
}