{
  "_format": "hh-sol-artifact-1",
  "contractName": "ArenaEngine",
  "sourceName": "contracts/ArenaEngine.sol",
  "abi": [
    {
      "inputs": [
        {
          "internalType": "address",
          "name": "_hlusd",
          "type": "address"
        },
        {
          "internalType": "address",
          "name": "_registry",
          "type": "address"
        },
        {
          "internalType": "address",
          "name": "_vault",
          "type": "address"
        },
        {
          "internalType": "address",
          "name": "_taskLedger",
          "type": "address"
        }
      ],
      "stateMutability": "nonpayable",
      "type": "constructor"
    },
    {
      "inputs": [
        {
          "internalType": "address",
          "name": "owner",
          "type": "address"
        }
      ],
      "name": "OwnableInvalidOwner",
      "type": "error"
    },
    {
      "inputs": [
        {
          "internalType": "address",
          "name": "account",
          "type": "address"
        }
      ],
      "name": "OwnableUnauthorizedAccount",
      "type": "error"
    },
    {
      "inputs": [],
      "name": "ReentrancyGuardReentrantCall",
      "type": "error"
    },
    {
      "anonymous": false,
      "inputs": [
        {
          "indexed": true,
          "internalType": "uint256",
          "name": "arenaId",
          "type": "uint256"
        }
      ],
      "name": "ArenaCancelled",
      "type": "event"
    },
    {
      "anonymous": false,
      "inputs": [
        {
          "indexed": true,
          "internalType": "uint256",
          "name": "arenaId",
          "type": "uint256"
        },
        {
          "indexed": true,
          "internalType": "address",
          "name": "user",
          "type": "address"
        },
        {
          "indexed": false,
          "internalType": "string",
          "name": "category",
          "type": "string"
        },
        {
          "indexed": false,
          "internalType": "uint256",
          "name": "maxBudget",
          "type": "uint256"
        }
      ],
      "name": "ArenaCreated",
      "type": "event"
    },
    {
      "anonymous": false,
      "inputs": [
        {
          "indexed": true,
          "internalType": "uint256",
          "name": "arenaId",
          "type": "uint256"
        },
        {
          "indexed": true,
          "internalType": "uint256",
          "name": "agentId",
          "type": "uint256"
        },
        {
          "indexed": false,
          "internalType": "uint256",
          "name": "bidAmount",
          "type": "uint256"
        }
      ],
      "name": "BidSubmitted",
      "type": "event"
    },
    {
      "anonymous": false,
      "inputs": [
        {
          "indexed": true,
          "internalType": "address",
          "name": "previousOwner",
          "type": "address"
        },
        {
          "indexed": true,
          "internalType": "address",
          "name": "newOwner",
          "type": "address"
        }
      ],
      "name": "OwnershipTransferred",
      "type": "event"
    },
    {
      "anonymous": false,
      "inputs": [
        {
          "indexed": true,
          "internalType": "uint256",
          "name": "arenaId",
          "type": "uint256"
        },
        {
          "indexed": true,
          "internalType": "uint256",
          "name": "agentId",
          "type": "uint256"
        },
        {
          "indexed": false,
          "internalType": "uint256",
          "name": "bidAmount",
          "type": "uint256"
        }
      ],
      "name": "WinnerSelected",
      "type": "event"
    },
    {
      "inputs": [],
      "name": "ARENA_FEE_PREMIUM",
      "outputs": [
        {
          "internalType": "uint256",
          "name": "",
          "type": "uint256"
        }
      ],
      "stateMutability": "view",
      "type": "function"
    },
    {
      "inputs": [
        {
          "internalType": "uint256",
          "name": "",
          "type": "uint256"
        },
        {
          "internalType": "uint256",
          "name": "",
          "type": "uint256"
        }
      ],
      "name": "agentHasBid",
      "outputs": [
        {
          "internalType": "bool",
          "name": "",
          "type": "bool"
        }
      ],
      "stateMutability": "view",
      "type": "function"
    },
    {
      "inputs": [
        {
          "internalType": "uint256",
          "name": "",
          "type": "uint256"
        },
        {
          "internalType": "uint256",
          "name": "",
          "type": "uint256"
        }
      ],
      "name": "arenaBids",
      "outputs": [
        {
          "internalType": "uint256",
          "name": "agentId",
          "type": "uint256"
        },
        {
          "internalType": "uint256",
          "name": "amount",
          "type": "uint256"
        },
        {
          "internalType": "uint256",
          "name": "submittedAt",
          "type": "uint256"
        },
        {
          "internalType": "bool",
          "name": "selected",
          "type": "bool"
        }
      ],
      "stateMutability": "view",
      "type": "function"
    },
    {
      "inputs": [],
      "name": "arenaCount",
      "outputs": [
        {
          "internalType": "uint256",
          "name": "",
          "type": "uint256"
        }
      ],
      "stateMutability": "view",
      "type": "function"
    },
    {
      "inputs": [
        {
          "internalType": "uint256",
          "name": "",
          "type": "uint256"
        }
      ],
      "name": "arenas",
      "outputs": [
        {
          "internalType": "uint256",
          "name": "id",
          "type": "uint256"
        },
        {
          "internalType": "address",
          "name": "user",
          "type": "address"
        },
        {
          "internalType": "string",
          "name": "taskDescription",
          "type": "string"
        },
        {
          "internalType": "string",
          "name": "category",
          "type": "string"
        },
        {
          "internalType": "uint256",
          "name": "maxBudget",
          "type": "uint256"
        },
        {
          "internalType": "uint256",
          "name": "deadline",
          "type": "uint256"
        },
        {
          "internalType": "enum ArenaEngine.ArenaStatus",
          "name": "status",
          "type": "uint8"
        },
        {
          "internalType": "uint256",
          "name": "winnerAgentId",
          "type": "uint256"
        },
        {
          "internalType": "uint256",
          "name": "winningBid",
          "type": "uint256"
        },
        {
          "internalType": "uint256",
          "name": "createdAt",
          "type": "uint256"
        }
      ],
      "stateMutability": "view",
      "type": "function"
    },
    {
      "inputs": [
        {
          "internalType": "uint256",
          "name": "_arenaId",
          "type": "uint256"
        }
      ],
      "name": "cancelArena",
      "outputs": [],
      "stateMutability": "nonpayable",
      "type": "function"
    },
    {
      "inputs": [
        {
          "internalType": "string",
          "name": "_taskDescription",
          "type": "string"
        },
        {
          "internalType": "string",
          "name": "_category",
          "type": "string"
        },
        {
          "internalType": "uint256",
          "name": "_maxBudget",
          "type": "uint256"
        },
        {
          "internalType": "uint256",
          "name": "_durationSeconds",
          "type": "uint256"
        }
      ],
      "name": "createArena",
      "outputs": [
        {
          "internalType": "uint256",
          "name": "",
          "type": "uint256"
        }
      ],
      "stateMutability": "nonpayable",
      "type": "function"
    },
    {
      "inputs": [
        {
          "internalType": "uint256",
          "name": "_arenaId",
          "type": "uint256"
        }
      ],
      "name": "getArena",
      "outputs": [
        {
          "components": [
            {
              "internalType": "uint256",
              "name": "id",
              "type": "uint256"
            },
            {
              "internalType": "address",
              "name": "user",
              "type": "address"
            },
            {
              "internalType": "string",
              "name": "taskDescription",
              "type": "string"
            },
            {
              "internalType": "string",
              "name": "category",
              "type": "string"
            },
            {
              "internalType": "uint256",
              "name": "maxBudget",
              "type": "uint256"
            },
            {
              "internalType": "uint256",
              "name": "deadline",
              "type": "uint256"
            },
            {
              "internalType": "enum ArenaEngine.ArenaStatus",
              "name": "status",
              "type": "uint8"
            },
            {
              "internalType": "uint256",
              "name": "winnerAgentId",
              "type": "uint256"
            },
            {
              "internalType": "uint256",
              "name": "winningBid",
              "type": "uint256"
            },
            {
              "internalType": "uint256",
              "name": "createdAt",
              "type": "uint256"
            }
          ],
          "internalType": "struct ArenaEngine.Arena",
          "name": "",
          "type": "tuple"
        }
      ],
      "stateMutability": "view",
      "type": "function"
    },
    {
      "inputs": [
        {
          "internalType": "uint256",
          "name": "_arenaId",
          "type": "uint256"
        }
      ],
      "name": "getArenaBidCount",
      "outputs": [
        {
          "internalType": "uint256",
          "name": "",
          "type": "uint256"
        }
      ],
      "stateMutability": "view",
      "type": "function"
    },
    {
      "inputs": [
        {
          "internalType": "uint256",
          "name": "_arenaId",
          "type": "uint256"
        }
      ],
      "name": "getArenaBids",
      "outputs": [
        {
          "components": [
            {
              "internalType": "uint256",
              "name": "agentId",
              "type": "uint256"
            },
            {
              "internalType": "uint256",
              "name": "amount",
              "type": "uint256"
            },
            {
              "internalType": "uint256",
              "name": "submittedAt",
              "type": "uint256"
            },
            {
              "internalType": "bool",
              "name": "selected",
              "type": "bool"
            }
          ],
          "internalType": "struct ArenaEngine.Bid[]",
          "name": "",
          "type": "tuple[]"
        }
      ],
      "stateMutability": "view",
      "type": "function"
    },
    {
      "inputs": [],
      "name": "getOpenArenas",
      "outputs": [
        {
          "components": [
            {
              "internalType": "uint256",
              "name": "id",
              "type": "uint256"
            },
            {
              "internalType": "address",
              "name": "user",
              "type": "address"
            },
            {
              "internalType": "string",
              "name": "taskDescription",
              "type": "string"
            },
            {
              "internalType": "string",
              "name": "category",
              "type": "string"
            },
            {
              "internalType": "uint256",
              "name": "maxBudget",
              "type": "uint256"
            },
            {
              "internalType": "uint256",
              "name": "deadline",
              "type": "uint256"
            },
            {
              "internalType": "enum ArenaEngine.ArenaStatus",
              "name": "status",
              "type": "uint8"
            },
            {
              "internalType": "uint256",
              "name": "winnerAgentId",
              "type": "uint256"
            },
            {
              "internalType": "uint256",
              "name": "winningBid",
              "type": "uint256"
            },
            {
              "internalType": "uint256",
              "name": "createdAt",
              "type": "uint256"
            }
          ],
          "internalType": "struct ArenaEngine.Arena[]",
          "name": "",
          "type": "tuple[]"
        }
      ],
      "stateMutability": "view",
      "type": "function"
    },
    {
      "inputs": [],
      "name": "hlusd",
      "outputs": [
        {
          "internalType": "contract IERC20",
          "name": "",
          "type": "address"
        }
      ],
      "stateMutability": "view",
      "type": "function"
    },
    {
      "inputs": [],
      "name": "owner",
      "outputs": [
        {
          "internalType": "address",
          "name": "",
          "type": "address"
        }
      ],
      "stateMutability": "view",
      "type": "function"
    },
    {
      "inputs": [],
      "name": "registry",
      "outputs": [
        {
          "internalType": "contract IAgentRegistryForArena",
          "name": "",
          "type": "address"
        }
      ],
      "stateMutability": "view",
      "type": "function"
    },
    {
      "inputs": [],
      "name": "renounceOwnership",
      "outputs": [],
      "stateMutability": "nonpayable",
      "type": "function"
    },
    {
      "inputs": [
        {
          "internalType": "uint256",
          "name": "_arenaId",
          "type": "uint256"
        },
        {
          "internalType": "uint256",
          "name": "_agentId",
          "type": "uint256"
        }
      ],
      "name": "selectWinner",
      "outputs": [],
      "stateMutability": "nonpayable",
      "type": "function"
    },
    {
      "inputs": [
        {
          "internalType": "uint256",
          "name": "_arenaId",
          "type": "uint256"
        },
        {
          "internalType": "uint256",
          "name": "_agentId",
          "type": "uint256"
        },
        {
          "internalType": "uint256",
          "name": "_bidAmount",
          "type": "uint256"
        }
      ],
      "name": "submitBid",
      "outputs": [],
      "stateMutability": "nonpayable",
      "type": "function"
    },
    {
      "inputs": [],
      "name": "taskLedger",
      "outputs": [
        {
          "internalType": "address",
          "name": "",
          "type": "address"
        }
      ],
      "stateMutability": "view",
      "type": "function"
    },
    {
      "inputs": [
        {
          "internalType": "address",
          "name": "newOwner",
          "type": "address"
        }
      ],
      "name": "transferOwnership",
      "outputs": [],
      "stateMutability": "nonpayable",
      "type": "function"
    },
    {
      "inputs": [],
      "name": "vault",
      "outputs": [
        {
          "internalType": "address",
          "name": "",
          "type": "address"
        }
      ],
      "stateMutability": "view",
      "type": "function"
    }
  ],
  "bytecode": "0x6080346200014057601f62001d9638819003918201601f19168301916001600160401b03831184841017620001455780849260809460405283398101031262000140576200004d816200015b565b906200005c602082016200015b565b62000078606062000070604085016200015b565b93016200015b565b331562000127576000549360018060a01b03199333858716176000556040519560018060a01b03948580948193823391167f8be0079c531659141344cd1fd0a4f28419497f9722a3daafe3b4186f6b6457e0600080a360017f9b779b17422d0df92223018b32b4d1fa46e071723d6817e2486d003becc55f005516876005541617600555168560065416176006551683600754161760075516906008541617600855611c259081620001718239f35b604051631e4fbdf760e01b815260006004820152602490fd5b600080fd5b634e487b7160e01b600052604160045260246000fd5b51906001600160a01b0382168203620001405756fe6080604052600436101561001257600080fd5b60003560e01c80631a8425b414611626578063416f222a146112505780634a2327dd146111ee5780635ed38ca1146110565780636b841aa41461103a578063715018a614610fe157806374b0693814610fc35780637b10399914610f9a57806384f4319c14610eca5780638da5cb5b14610ea157806395fe2b8e14610c835780639c0912fe14610c5a578063c39e551d14610c22578063dfc23bc614610b2d578063e1f0cadb14610b04578063e6fa020914610771578063f26e2e6f146101e2578063f2fde38b14610152578063f7b7e6e0146101265763fbfa77cf146100f857600080fd5b34610121576000366003190112610121576007546040516001600160a01b039091168152602090f35b600080fd5b346101215760203660031901126101215760043560005260026020526020604060002054604051908152f35b34610121576020366003190112610121576004356001600160a01b0381811691829003610121576101816119d6565b81156101c957600054826bffffffffffffffffffffffff60a01b821617600055167f8be0079c531659141344cd1fd0a4f28419497f9722a3daafe3b4186f6b6457e0600080a3005b604051631e4fbdf760e01b815260006004820152602490fd5b346101215760803660031901126101215760043567ffffffffffffffff81116101215761021390369060040161198f565b60243567ffffffffffffffff81116101215761023390369060040161198f565b9060643561023f611a2a565b6044351561073757601e81106106ff576005546040516323b872dd60e01b8152336004820152306024820152604480359082015290602090829060649082906000906001600160a01b03165af19081156106f3576000916106b9575b501561067b576102ac600454611a0f565b9081600455420180421161066557604051926102c784611872565b8284523360208501526040840152836060840152604435608084015260a0830152600060c0830152600060e08301526000610100830152426101208301526000526001602052604060002090805182556001820160018060a01b036020830151166bffffffffffffffffffffffff60a01b825416179055604081015192835167ffffffffffffffff811161058e576103626002850154611838565b601f811161061e575b506020601f82116001146105af5781929394956000926105a4575b50508160011b916000199060031b1c19161760028401555b606082015192835167ffffffffffffffff811161058e576103c26003830154611838565b601f8111610547575b506020601f82116001146104d85781929394956000926104cd575b50508160011b916000199060031b1c19161760038201555b6080830151600482015560a083015160058201556006810160c084015160048110156104b7576020946009926101209260ff8019835416911617905560e081015160078501556101008101516008850155015191015560045490817f2cf7be0fae0ba3357f95b40f09f9711e547b43ed456ea4463c48988727d914de61048f60405193604085526040850190611730565b92604435868201528033940390a36001600080516020611bd083398151915255604051908152f35b634e487b7160e01b600052602160045260246000fd5b0151905085806103e6565b6003830160005260206000209060005b601f198416811061052f575060019394959683601f19811610610516575b505050811b0160038201556103fe565b015160001960f88460031b161c19169055858080610506565b9091602060018192858b0151815501930191016104e8565b600383016000526020600020601f830160051c810160208410610587575b601f830160051c8201811061057b5750506103cb565b60008155600101610565565b5080610565565b634e487b7160e01b600052604160045260246000fd5b015190508580610386565b6002850160005260206000209060005b601f1984168110610606575060019394959683601f198116106105ed575b505050811b01600284015561039e565b015160001960f88460031b161c191690558580806105dd565b9091602060018192858b0151815501930191016105bf565b600285016000526020600020601f830160051c81016020841061065e575b601f830160051c8201811061065257505061036b565b6000815560010161063c565b508061063c565b634e487b7160e01b600052601160045260246000fd5b60405162461bcd60e51b8152602060048201526016602482015275109d5919d95d081d1c985b9cd9995c8819985a5b195960521b6044820152606490fd5b90506020813d6020116106eb575b816106d4602093836118ab565b81010312610121576106e590611a02565b8461029b565b3d91506106c7565b6040513d6000823e3d90fd5b60405162461bcd60e51b815260206004820152601060248201526f4d696e206475726174696f6e2033307360801b6044820152606490fd5b60405162461bcd60e51b81526020600482015260126024820152710427564676574206d757374206265203e20360741b6044820152606490fd5b346101215761077f366117f0565b610787611a2a565b81600052600191602083815260406000206107a481541515611a5a565b80850180546001600160a01b03919082163303610acb57600683019260ff84541660048110156104b757888115918215610ac1575b505015610a85578560005260028552604060002093600089600096816000905b610a23575b505050156109eb57805460ff1916600217905560078101879055600881018490556004015483810381811161066557859285809303610943575b505060055460075460405163a9059cbb60e01b81529085166001600160a01b031660048201526024810192909252909283911681600081604481015b03925af19081156106f35760009161090e575b50156108c957907fbc60b4ddaf6218ef27c409e11db4650da92d0e629854fdce8e5604c9611ad00091604051908152a3600080516020611bd083398151915255005b60405162461bcd60e51b815260048101839052601860248201527f5472616e7366657220746f207661756c74206661696c656400000000000000006044820152606490fd5b90508281813d831161093c575b61092581836118ab565b810103126101215761093690611a02565b86610887565b503d61091b565b600554905460405163a9059cbb60e01b81529086166001600160a01b031660048201526024810192909252909392915083908316816000816044810103925af19182156106f357849184916000946109aa575b506109a361087494611b1a565b9289610838565b935091905082813d83116109e4575b6109c381836118ab565b81010312610121578284916109a36109dd61087495611a02565b9450610996565b503d6109b9565b60405162461bcd60e51b815260048101879052601060248201526f1059d95b9d081a185cc81b9bc8189a5960821b6044820152606490fd5b8154811015610a80578b610a378284611806565b505414610a4d57610a4790611a0f565b826107f9565b91939750610a7392506003610a628383611806565b5001805460ff191685179055611806565b5001549388898b806107fe565b6107fe565b60405162461bcd60e51b81526004810186905260146024820152734172656e61206e6f742073656c65637461626c6560601b6044820152606490fd5b149050888a6107d9565b60405162461bcd60e51b81526004810185905260116024820152702737ba1030b932b7309031b932b0ba37b960791b6044820152606490fd5b34610121576000366003190112610121576005546040516001600160a01b039091168152602090f35b3461012157602080600319360112610121576004356000526002908181526040600020918254610b5c81611ba3565b91610b6a60405193846118ab565b81835260009485528385208484019591865b848410610bde57604080518881528751818a018190528a928201908a60005b828110610ba85784840385f35b85518051855280830151858401526040808201519086015260609081015115159085015294810194608090930192600101610b9b565b600487600192604051610bf08161188f565b86548152848701548382015285870154604082015260ff60038801541615156060820152815201930193019291610b7c565b3461012157610c30366117f0565b906000526003602052604060002090600052602052602060ff604060002054166040519015158152f35b34610121576000366003190112610121576008546040516001600160a01b039091168152602090f35b346101215760003660031901126101215760006001600454905b81811115610e5a5750610caf82611ba3565b91610cbd60405193846118ab565b808352610ccc601f1991611ba3565b0160005b818110610e43575050600060015b82811115610d45576040805160208082528651818301819052600093600582901b8401810192808a01929185015b828710610d195785850386f35b909192938280610d35600193603f198a82030186528851611762565b9601920196019592919092610d0c565b8060005260206001815260ff6006908082604060002001541660048110156104b75715610d7e575b505050610d7990611a0f565b610cde565b916009849592610e02610e3a95610d79976000526001855260406000209260405195610da987611872565b8454875260018501546001600160a01b031690870152610dcb600285016118cd565b6040870152610ddc600385016118cd565b606087015260048401546080870152600584015460a08701528301541660c08501611a1e565b600781015460e084015260088101546101008401520154610120820152610e298288611bbb565b52610e348187611bbb565b50611a0f565b91908580610d6d565b602090610e4e611b56565b82828701015201610cd0565b80600052600160205260ff6006604060002001541660048110156104b75715610e8c575b610e8790611a0f565b610c9d565b91610e99610e8791611a0f565b929050610e7e565b34610121576000366003190112610121576000546040516001600160a01b039091168152602090f35b346101215760203660031901126101215760043560005260016020526040600020805460018060a01b0360018301541691610f07600282016118cd565b610f13600383016118cd565b91600481015492610f85600583015460ff60068501541690610f70600786015494610f6260096008890154980154986040519c8d9c8d5260208d015260408c61014091829101528c0190611730565b908a820360608c0152611730565b96608089015260a088015260c0870190611755565b60e08501526101008401526101208301520390f35b34610121576000366003190112610121576006546040516001600160a01b039091168152602090f35b34610121576000366003190112610121576020600454604051908152f35b3461012157600036600319011261012157610ffa6119d6565b600080546001600160a01b0319811682556001600160a01b03167f8be0079c531659141344cd1fd0a4f28419497f9722a3daafe3b4186f6b6457e08280a3005b3461012157600036600319011261012157602060405160028152f35b34610121576020806003193601126101215760043590611074611a2a565b816000526001815260406000209061108e82541515611a5a565b60018201546001600160a01b0390811633811480156111e1575b156111ab576006840193845460ff81169360048510156104b75761111e9660036004936110d6899815611a98565b60ff1916179055600554919092015460405163a9059cbb60e01b81526001600160a01b0390941660048501526024840152919485929190911690829060009082906044820190565b03925af19081156106f357600091611174575b8361113b83611b1a565b7f2e7be128b3e773183aa564d86ef3cbd2d6e9d7b3c667c98b0c35eef01164f963600080a26001600080516020611bd083398151915255005b905081813d83116111a4575b61118a81836118ab565b810103126101215761119e61113b91611a02565b83611131565b503d611180565b60405162461bcd60e51b815260048101849052600e60248201526d139bdd08185d5d1a1bdc9a5e995960921b6044820152606490fd5b50600584015442116110a8565b34610121576111fc366117f0565b906000526002602052604060002080548210156101215760809161121f91611806565b5080549060018101549060ff6003600283015492015416916040519384526020840152604083015215156060820152f35b3461012157606036600319011261012157600435602490813590604480358260005260209160018352604060002061128a81541515611a5a565b60ff6006820154166004811015611611576112a59015611a98565b600581015442116115d65760040154821161159f578360005260038352604060002085600052835260ff6040600020541661156957600654604051630a270ad960e31b8152600481018790526001600160a01b039160009082908a90829086165afa9182156106f35760009160009361148d575b5050156114585715611423575082600052600382526040600020846000528252604060002060ff199060018282541617905583600052600283526040600020906040516113658161188f565b868152848101848152604082019142835260608101946000865280546801000000000000000081101561140e576113a191600182018155611806565b9a909a6113fa57509860ff926003927f3e763751ca037819353b0f03196c95df3625fecade7eecac7a2af7c8fb7615f1999a9b5183555160018301555160028201550192511515918354169116179055604051908152a3005b634e487b7160e01b60005260006004526000fd5b8b634e487b7160e01b60005260416004526000fd5b826f4167656e74206e6f742061637469766560801b6064926010896040519462461bcd60e51b86526004860152840152820152fd5b60405162461bcd60e51b815260048101859052600f818901526e1059d95b9d081b9bdd08199bdd5b99608a1b81840152606490fd5b915091503d806000833e6114a181836118ab565b8101906101e08183031261012157805191868201519367ffffffffffffffff9485811161012157826114d4918501611ad5565b50604083015185811161012157826114ed918501611ad5565b5060608301518581116101215782611506918501611ad5565b5060a083015190811603610121576115216101208301611a02565b9361152f6101408401611a02565b506101808301518181116101215782611549918501611ad5565b506101a0830151908111610121576115619201611ad5565b508880611319565b82701059d95b9d08185b1c9958591e48189a59607a1b6064926011896040519462461bcd60e51b86526004860152840152820152fd5b8271109a5908195e18d959591cc8189d5919d95d60721b6064926012896040519462461bcd60e51b86526004860152840152820152fd5b60405162461bcd60e51b81526004810185905260158189015274105c995b9848191958591b1a5b99481c185cdcd959605a1b81840152606490fd5b87634e487b7160e01b60005260216004526000fd5b346101215760208060031936011261012157600435611643611b56565b50806000526001825261165c6040600020541515611a5a565b6000526001815260406000209060096040519261167884611872565b8054845260018101546001600160a01b03168385015261169a600282016118cd565b60408501526116ab600382016118cd565b606085015260048101546080850152600581015460a08501526116d860ff60068301541660c08601611a1e565b600781015460e085015260088101546101008501520154610120830152611709604051928284938452830190611762565b0390f35b60005b8381106117205750506000910152565b8181015183820152602001611710565b906020916117498151809281855285808601910161170d565b601f01601f1916010190565b9060048210156104b75752565b908151815260018060a01b0360208301511660208201526117a76117956040840151610140806040860152840190611730565b60608401518382036060850152611730565b916080810151608083015260a081015160a08301526117ce60c082015160c0840190611755565b60e081015160e083015261010080820151908301526101208091015191015290565b6040906003190112610121576004359060243590565b80548210156118225760005260206000209060021b0190600090565b634e487b7160e01b600052603260045260246000fd5b90600182811c92168015611868575b602083101461185257565b634e487b7160e01b600052602260045260246000fd5b91607f1691611847565b610140810190811067ffffffffffffffff82111761058e57604052565b6080810190811067ffffffffffffffff82111761058e57604052565b90601f8019910116810190811067ffffffffffffffff82111761058e57604052565b90604051918260008254926118e184611838565b908184526001948581169081600014611950575060011461190d575b505061190b925003836118ab565b565b9093915060005260209081600020936000915b81831061193857505061190b935082010138806118fd565b85548884018501529485019487945091830191611920565b91505061190b94506020925060ff191682840152151560051b82010138806118fd565b67ffffffffffffffff811161058e57601f01601f191660200190565b81601f82011215610121578035906119a682611973565b926119b460405194856118ab565b8284526020838301011161012157816000926020809301838601378301015290565b6000546001600160a01b031633036119ea57565b60405163118cdaa760e01b8152336004820152602490fd5b5190811515820361012157565b60001981146106655760010190565b60048210156104b75752565b600080516020611bd08339815191526002815414611a485760029055565b604051633ee5aeb560e01b8152600490fd5b15611a6157565b60405162461bcd60e51b815260206004820152600f60248201526e105c995b98481b9bdd08199bdd5b99608a1b6044820152606490fd5b15611a9f57565b60405162461bcd60e51b815260206004820152600e60248201526d20b932b730903737ba1037b832b760911b6044820152606490fd5b81601f82011215610121578051611aeb81611973565b92611af960405194856118ab565b8184526020828401011161012157611b17916020808501910161170d565b90565b15611b2157565b60405162461bcd60e51b815260206004820152600d60248201526c1499599d5b990819985a5b1959609a1b6044820152606490fd5b60405190611b6382611872565b81610120600091828152826020820152606060408201526060808201528260808201528260a08201528260c08201528260e0820152826101008201520152565b67ffffffffffffffff811161058e5760051b60200190565b80518210156118225760209160051b01019056fe9b779b17422d0df92223018b32b4d1fa46e071723d6817e2486d003becc55f00a26469706673582212207338c5e0455e97aefd42ba3c4911b45a79dc7eb0cc06c55cbafe1daab2b0eb0564736f6c63430008140033",
  "linkReferences": {},
  "deployedLinkReferences": {}
}