{
  "_format": "hh-sol-artifact-1",
  "contractName": "AgentVault",
  "sourceName": "contracts/AgentVault.sol",
  "abi": [
    {
      "inputs": [
        {
          "internalType": "address",
          "name": "_hlusd",
          "type": "address"
        },
        {
          "internalType": "address",
          "name": "_treasury",
          "type": "address"
        }
      ],
      "stateMutability": "nonpayable",
      "type": "constructor"
    },
    {
      "inputs": [
        {
          "internalType": "address",
          "name": "owner",
          "type": "address"
        }
      ],
      "name": "OwnableInvalidOwner",
      "type": "error"
    },
    {
      "inputs": [
        {
          "internalType": "address",
          "name": "account",
          "type": "address"
        }
      ],
      "name": "OwnableUnauthorizedAccount",
      "type": "error"
    },
    {
      "inputs": [],
      "name": "ReentrancyGuardReentrantCall",
      "type": "error"
    },
    {
      "anonymous": false,
      "inputs": [
        {
          "indexed": true,
          "internalType": "uint256",
          "name": "agentId",
          "type": "uint256"
        },
        {
          "indexed": false,
          "internalType": "uint256",
          "name": "amount",
          "type": "uint256"
        },
        {
          "indexed": true,
          "internalType": "address",
          "name": "user",
          "type": "address"
        }
      ],
      "name": "AgentSlashed",
      "type": "event"
    },
    {
      "anonymous": false,
      "inputs": [
        {
          "indexed": true,
          "internalType": "uint256",
          "name": "agentId",
          "type": "uint256"
        },
        {
          "indexed": false,
          "internalType": "uint256",
          "name": "amount",
          "type": "uint256"
        }
      ],
      "name": "EarningsWithdrawn",
      "type": "event"
    },
    {
      "anonymous": false,
      "inputs": [
        {
          "indexed": true,
          "internalType": "address",
          "name": "previousOwner",
          "type": "address"
        },
        {
          "indexed": true,
          "internalType": "address",
          "name": "newOwner",
          "type": "address"
        }
      ],
      "name": "OwnershipTransferred",
      "type": "event"
    },
    {
      "anonymous": false,
      "inputs": [
        {
          "indexed": true,
          "internalType": "uint256",
          "name": "taskId",
          "type": "uint256"
        },
        {
          "indexed": true,
          "internalType": "uint256",
          "name": "agentId",
          "type": "uint256"
        },
        {
          "indexed": false,
          "internalType": "uint256",
          "name": "amount",
          "type": "uint256"
        }
      ],
      "name": "PaymentReleased",
      "type": "event"
    },
    {
      "anonymous": false,
      "inputs": [
        {
          "indexed": true,
          "internalType": "uint256",
          "name": "agentId",
          "type": "uint256"
        },
        {
          "indexed": false,
          "internalType": "uint256",
          "name": "amount",
          "type": "uint256"
        }
      ],
      "name": "StakeDeposited",
      "type": "event"
    },
    {
      "anonymous": false,
      "inputs": [
        {
          "indexed": true,
          "internalType": "uint256",
          "name": "agentId",
          "type": "uint256"
        },
        {
          "indexed": false,
          "internalType": "uint256",
          "name": "amount",
          "type": "uint256"
        }
      ],
      "name": "StakeWithdrawn",
      "type": "event"
    },
    {
      "anonymous": false,
      "inputs": [
        {
          "indexed": true,
          "internalType": "uint256",
          "name": "taskId",
          "type": "uint256"
        },
        {
          "indexed": true,
          "internalType": "uint256",
          "name": "agentId",
          "type": "uint256"
        },
        {
          "indexed": false,
          "internalType": "uint256",
          "name": "amount",
          "type": "uint256"
        },
        {
          "indexed": false,
          "internalType": "address",
          "name": "user",
          "type": "address"
        }
      ],
      "name": "TaskPaid",
      "type": "event"
    },
    {
      "anonymous": false,
      "inputs": [
        {
          "indexed": true,
          "internalType": "address",
          "name": "to",
          "type": "address"
        },
        {
          "indexed": false,
          "internalType": "uint256",
          "name": "amount",
          "type": "uint256"
        }
      ],
      "name": "TreasuryWithdrawn",
      "type": "event"
    },
    {
      "anonymous": false,
      "inputs": [
        {
          "indexed": true,
          "internalType": "uint256",
          "name": "taskId",
          "type": "uint256"
        },
        {
          "indexed": true,
          "internalType": "address",
          "name": "user",
          "type": "address"
        },
        {
          "indexed": false,
          "internalType": "uint256",
          "name": "amount",
          "type": "uint256"
        }
      ],
      "name": "UserRefunded",
      "type": "event"
    },
    {
      "inputs": [],
      "name": "AGENT_SHARE",
      "outputs": [
        {
          "internalType": "uint256",
          "name": "",
          "type": "uint256"
        }
      ],
      "stateMutability": "view",
      "type": "function"
    },
    {
      "inputs": [],
      "name": "ARENA_PREMIUM",
      "outputs": [
        {
          "internalType": "uint256",
          "name": "",
          "type": "uint256"
        }
      ],
      "stateMutability": "view",
      "type": "function"
    },
    {
      "inputs": [],
      "name": "BURN_ADDRESS",
      "outputs": [
        {
          "internalType": "address",
          "name": "",
          "type": "address"
        }
      ],
      "stateMutability": "view",
      "type": "function"
    },
    {
      "inputs": [],
      "name": "PROTOCOL_FEE",
      "outputs": [
        {
          "internalType": "uint256",
          "name": "",
          "type": "uint256"
        }
      ],
      "stateMutability": "view",
      "type": "function"
    },
    {
      "inputs": [],
      "name": "REPUTATION_POOL_FEE",
      "outputs": [
        {
          "internalType": "uint256",
          "name": "",
          "type": "uint256"
        }
      ],
      "stateMutability": "view",
      "type": "function"
    },
    {
      "inputs": [],
      "name": "SLASH_BURN",
      "outputs": [
        {
          "internalType": "uint256",
          "name": "",
          "type": "uint256"
        }
      ],
      "stateMutability": "view",
      "type": "function"
    },
    {
      "inputs": [],
      "name": "SLASH_TO_TREASURY",
      "outputs": [
        {
          "internalType": "uint256",
          "name": "",
          "type": "uint256"
        }
      ],
      "stateMutability": "view",
      "type": "function"
    },
    {
      "inputs": [],
      "name": "SLASH_TO_USER",
      "outputs": [
        {
          "internalType": "uint256",
          "name": "",
          "type": "uint256"
        }
      ],
      "stateMutability": "view",
      "type": "function"
    },
    {
      "inputs": [
        {
          "internalType": "uint256",
          "name": "",
          "type": "uint256"
        }
      ],
      "name": "agentEarnings",
      "outputs": [
        {
          "internalType": "uint256",
          "name": "",
          "type": "uint256"
        }
      ],
      "stateMutability": "view",
      "type": "function"
    },
    {
      "inputs": [
        {
          "internalType": "uint256",
          "name": "",
          "type": "uint256"
        }
      ],
      "name": "agentStakes",
      "outputs": [
        {
          "internalType": "uint256",
          "name": "",
          "type": "uint256"
        }
      ],
      "stateMutability": "view",
      "type": "function"
    },
    {
      "inputs": [
        {
          "internalType": "address",
          "name": "",
          "type": "address"
        }
      ],
      "name": "authorized",
      "outputs": [
        {
          "internalType": "bool",
          "name": "",
          "type": "bool"
        }
      ],
      "stateMutability": "view",
      "type": "function"
    },
    {
      "inputs": [
        {
          "internalType": "uint256",
          "name": "_agentId",
          "type": "uint256"
        },
        {
          "internalType": "uint256",
          "name": "_amount",
          "type": "uint256"
        }
      ],
      "name": "depositStake",
      "outputs": [],
      "stateMutability": "nonpayable",
      "type": "function"
    },
    {
      "inputs": [],
      "name": "hlusd",
      "outputs": [
        {
          "internalType": "contract IERC20",
          "name": "",
          "type": "address"
        }
      ],
      "stateMutability": "view",
      "type": "function"
    },
    {
      "inputs": [
        {
          "internalType": "uint256",
          "name": "_agentId",
          "type": "uint256"
        },
        {
          "internalType": "uint256",
          "name": "_amount",
          "type": "uint256"
        }
      ],
      "name": "initStake",
      "outputs": [],
      "stateMutability": "nonpayable",
      "type": "function"
    },
    {
      "inputs": [],
      "name": "owner",
      "outputs": [
        {
          "internalType": "address",
          "name": "",
          "type": "address"
        }
      ],
      "stateMutability": "view",
      "type": "function"
    },
    {
      "inputs": [
        {
          "internalType": "uint256",
          "name": "_agentId",
          "type": "uint256"
        },
        {
          "internalType": "uint256",
          "name": "_taskId",
          "type": "uint256"
        },
        {
          "internalType": "uint256",
          "name": "_amount",
          "type": "uint256"
        },
        {
          "internalType": "address",
          "name": "_user",
          "type": "address"
        },
        {
          "internalType": "bool",
          "name": "_isArena",
          "type": "bool"
        }
      ],
      "name": "payForTask",
      "outputs": [],
      "stateMutability": "nonpayable",
      "type": "function"
    },
    {
      "inputs": [
        {
          "internalType": "uint256",
          "name": "_taskId",
          "type": "uint256"
        },
        {
          "internalType": "address",
          "name": "_user",
          "type": "address"
        }
      ],
      "name": "refundUser",
      "outputs": [],
      "stateMutability": "nonpayable",
      "type": "function"
    },
    {
      "inputs": [
        {
          "internalType": "uint256",
          "name": "_taskId",
          "type": "uint256"
        },
        {
          "internalType": "uint256",
          "name": "_agentId",
          "type": "uint256"
        }
      ],
      "name": "releasePayment",
      "outputs": [],
      "stateMutability": "nonpayable",
      "type": "function"
    },
    {
      "inputs": [],
      "name": "renounceOwnership",
      "outputs": [],
      "stateMutability": "nonpayable",
      "type": "function"
    },
    {
      "inputs": [],
      "name": "reputationPool",
      "outputs": [
        {
          "internalType": "uint256",
          "name": "",
          "type": "uint256"
        }
      ],
      "stateMutability": "view",
      "type": "function"
    },
    {
      "inputs": [
        {
          "internalType": "address",
          "name": "_contract",
          "type": "address"
        },
        {
          "internalType": "bool",
          "name": "_status",
          "type": "bool"
        }
      ],
      "name": "setAuthorized",
      "outputs": [],
      "stateMutability": "nonpayable",
      "type": "function"
    },
    {
      "inputs": [
        {
          "internalType": "uint256",
          "name": "_agentId",
          "type": "uint256"
        },
        {
          "internalType": "uint256",
          "name": "_taskId",
          "type": "uint256"
        },
        {
          "internalType": "address",
          "name": "_user",
          "type": "address"
        }
      ],
      "name": "slashAgent",
      "outputs": [],
      "stateMutability": "nonpayable",
      "type": "function"
    },
    {
      "inputs": [
        {
          "internalType": "uint256",
          "name": "",
          "type": "uint256"
        }
      ],
      "name": "taskAgentId",
      "outputs": [
        {
          "internalType": "uint256",
          "name": "",
          "type": "uint256"
        }
      ],
      "stateMutability": "view",
      "type": "function"
    },
    {
      "inputs": [
        {
          "internalType": "uint256",
          "name": "",
          "type": "uint256"
        }
      ],
      "name": "taskEscrow",
      "outputs": [
        {
          "internalType": "uint256",
          "name": "",
          "type": "uint256"
        }
      ],
      "stateMutability": "view",
      "type": "function"
    },
    {
      "inputs": [
        {
          "internalType": "uint256",
          "name": "",
          "type": "uint256"
        }
      ],
      "name": "taskPayer",
      "outputs": [
        {
          "internalType": "address",
          "name": "",
          "type": "address"
        }
      ],
      "stateMutability": "view",
      "type": "function"
    },
    {
      "inputs": [
        {
          "internalType": "address",
          "name": "newOwner",
          "type": "address"
        }
      ],
      "name": "transferOwnership",
      "outputs": [],
      "stateMutability": "nonpayable",
      "type": "function"
    },
    {
      "inputs": [],
      "name": "treasury",
      "outputs": [
        {
          "internalType": "address",
          "name": "",
          "type": "address"
        }
      ],
      "stateMutability": "view",
      "type": "function"
    },
    {
      "inputs": [],
      "name": "treasuryBalance",
      "outputs": [
        {
          "internalType": "uint256",
          "name": "",
          "type": "uint256"
        }
      ],
      "stateMutability": "view",
      "type": "function"
    },
    {
      "inputs": [
        {
          "internalType": "uint256",
          "name": "_agentId",
          "type": "uint256"
        }
      ],
      "name": "withdrawAgentEarnings",
      "outputs": [],
      "stateMutability": "nonpayable",
      "type": "function"
    },
    {
      "inputs": [
        {
          "internalType": "uint256",
          "name": "_agentId",
          "type": "uint256"
        },
        {
          "internalType": "uint256",
          "name": "_amount",
          "type": "uint256"
        }
      ],
      "name": "withdrawStake",
      "outputs": [],
      "stateMutability": "nonpayable",
      "type": "function"
    },
    {
      "inputs": [
        {
          "internalType": "address",
          "name": "_to",
          "type": "address"
        },
        {
          "internalType": "uint256",
          "name": "_amount",
          "type": "uint256"
        }
      ],
      "name": "withdrawTreasury",
      "outputs": [],
      "stateMutability": "nonpayable",
      "type": "function"
    }
  ],
  "bytecode": "0x60803461010657601f61154738819003918201601f19168301916001600160401b0383118484101761010b57808492604094855283398101031261010657610052602061004b83610121565b9201610121565b33156100ed5760008054336001600160a01b0319808316821784556040519590946001600160a01b03949093859391908416907f8be0079c531659141344cd1fd0a4f28419497f9722a3daafe3b4186f6b6457e09080a360017f9b779b17422d0df92223018b32b4d1fa46e071723d6817e2486d003becc55f0055168360015416176001551690600254161760025561141190816101368239f35b604051631e4fbdf760e01b815260006004820152602490fd5b600080fd5b634e487b7160e01b600052604160045260246000fd5b51906001600160a01b03821682036101065756fe6040608081526004908136101561001557600080fd5b600091823560e01c90816302016fd614610f9f5781630b4501fd146106615781630d86419a14610e645781632cebff6314610e3c578163313dab2014610e1d57816331efab6814610e01578163360c07c814610de55781633e50a5d714610db25781634864901b14610d935781634a13c7a114610d775781634c56386514610d4f57816351a9259b14610be157816361d027b314610bb8578163711bf9b214610b66578163715018a614610b0957816372d638cc14610aac5781637ec59eef146109ab578163879319291461098f5781638a4f1b0b146109675781638da5cb5b1461093f57816397e99a80146107f457816398041c6814610710578163b9181611146106d2578163cda08dd5146106ab578163e1f0cadb14610682578163e4c6906614610666578163ef5e094814610661578163f018558114610371578163f1fdf46914610222578163f2fde38b14610197575063fccc28131461017857600080fd5b346101935781600319360112610193576020905161dead8152f35b5080fd5b90503461021e57602036600319011261021e576101b2611195565b906101bb6111e2565b6001600160a01b0391821692831561020857505082546001600160a01b0319811683178455167f8be0079c531659141344cd1fd0a4f28419497f9722a3daafe3b4186f6b6457e08380a380f35b51631e4fbdf760e01b8152908101849052602490fd5b8280fd5b90503461021e57610232366111cc565b61023d9291926112dc565b828552602091600383528185872054106103395782826102a8928689526003835287892061026c838254611370565b9055600154885163a9059cbb60e01b8152339281019283526020830193909352919384926001600160a01b03169183918b918391604090910190565b03925af190811561032f577f3db0ca701d7c1106534c6003e5d65dae65a9cb891ad5bbb9be39c091df79d87e9495916102e8918891610302575b5061137d565b51908152a260016000805160206113bc8339815191525580f35b6103229150853d8711610328575b61031a818361128c565b8101906112c4565b386102e2565b503d610310565b85513d88823e3d90fd5b845162461bcd60e51b81529081018390526012602482015271496e73756666696369656e74207374616b6560701b6044820152606490fd5b90503461021e57606036600319011261021e576044356001600160a01b03818116938335939285810361065d57338752602093600a855260ff83892054168015610651575b6103bf9061120e565b6103c76112dc565b858852600385528288205491821561061a57601483029283046014036106075760648093049460468602908615928783046046148417156105f45760148802908882046014148517156105e157600a890294898604600a1417156105e15789868e610483938e8252600384528c6104428d8420918254611370565b90556001548c5163a9059cbb60e01b8082526001600160a01b03909316948101948552988c9004602085015290979485939188169284929091839160400190565b03925af19081156105d7578d916105ba575b50156105785788928c8795936104b1876044950460085461134d565b6008556001541689519687958694855261dead8a8601520460248401525af190811561056e578991610551575b5015610523575050519081527f0997641e2c667750bb85b1e74856eec6c0aacac2757967e285c4c2a64d0deb809190a360016000805160206113bc8339815191525580f35b825162461bcd60e51b8152908101859052600b60248201526a109d5c9b8819985a5b195960aa1b6044820152fd5b6105689150863d88116103285761031a818361128c565b386104de565b84513d8b823e3d90fd5b865162461bcd60e51b81528086018a9052601860248201527f5573657220636f6d70656e736174696f6e206661696c6564000000000000000060448201528690fd5b6105d191508a3d8c116103285761031a818361128c565b38610495565b88513d8f823e3d90fd5b634e487b7160e01b8d526011865260248dfd5b634e487b7160e01b8c526011855260248cfd5b634e487b7160e01b895260118252602489fd5b835162461bcd60e51b8152808301879052601160248201527009cde40e6e8c2d6ca40e8de40e6d8c2e6d607b1b6044820152606490fd5b508754841633146103b6565b8680fd5b6111b0565b5050346101935781600319360112610193576020905160058152f35b50503461019357816003193601126101935760015490516001600160a01b039091168152602090f35b90503461021e57602036600319011261021e57602092818392358252845220549051908152f35b5050346101935760203660031901126101935760209160ff9082906001600160a01b036106fd611195565b168152600a855220541690519015158152f35b90503461021e576020806003193601126107f05781359161072f6112dc565b828552808252838520549081156107bf57838652808352848620869055600154855163a9059cbb60e01b8152339281019283526020830184905291849183918290036040019082908a906001600160a01b03165af190811561032f577fd85af0deee5bae14c727b36baaaffda8555003264c3f2f4371b561788a44e2c69495916102e8918891610302575061137d565b845162461bcd60e51b8152908101839052600b60248201526a4e6f206561726e696e677360a81b6044820152606490fd5b8380fd5b9190503461021e57610805366111cc565b929091338552600a60205260ff8186205416801561092c575b6108279061120e565b61082f6112dc565b82855260056020528085205491821590610849821561130c565b6055840284810460551483171561091957600a850291858304600a148417156109065760058602938685046005141715610906577f3c70b1e8034b5738ec77fbfdaa4d28906a0b3160018d67a2dc7b534e53e33fe095936108d1606487956108dd956108c6838f9b8f9c829960209e82528e52209204825461134d565b90550460085461134d565b6008550460095461134d565b60095584875260058352868181205551908152a360016000805160206113bc8339815191525580f35b634e487b7160e01b895260119052602488fd5b634e487b7160e01b885260118252602488fd5b5084546001600160a01b0316331461081e565b505034610193578160031936011261019357905490516001600160a01b039091168152602090f35b90503461021e57602036600319011261021e5760209282913581526007845220549051908152f35b5050346101935781600319360112610193576020905160468152f35b9190503461021e57602090610a196109c2366111cc565b809491956109ce6112dc565b6109d982151561124b565b60015485516323b872dd60e01b8152339281019283523060208401526040830193909352919384926001600160a01b03169183918a918391606090910190565b03925af1908115610aa25791610a5a7fccb52a6d64de372476805d81d080c6f8d4d1bc9a7461111b98cb52502296359894926020948891610a8b575061137d565b84865260038352808620610a6f83825461134d565b905551908152a260016000805160206113bc8339815191525580f35b6103229150853d81116103285761031a818361128c565b82513d87823e3d90fd5b50503461019357610af1610abf366111cc565b9290338552600a60205260ff82862054168015610af6575b610ae09061120e565b84526003602052832091825461134d565b905580f35b5084546001600160a01b03163314610ad7565b8334610b635780600319360112610b6357610b226111e2565b80546001600160a01b03198116825581906001600160a01b03167f8be0079c531659141344cd1fd0a4f28419497f9722a3daafe3b4186f6b6457e08280a380f35b80fd5b505034610193578060031936011261019357610b80611195565b90602435918215158093036107f057610b976111e2565b60018060a01b03168352600a60205282209060ff8019835416911617905580f35b50503461019357816003193601126101935760025490516001600160a01b039091168152602090f35b9190503461021e578060031936011261021e576001600160a01b03602435818116938035939085830361065d57338752610c9560208095600a825260ff858b2054168015610d43575b610c339061120e565b610c3b6112dc565b878a5260058252848a2054958691610c5483151561130c565b898c52600584528b8781205560015416908b875180968195829463a9059cbb60e01b84528a840160209093929193604081019460018060a01b031681520152565b03925af1908115610d39578891610d1c575b5015610ceb5750519081527fcb528fcde812ac8afd931070257cc24789e622614ede1ffd81c7a38beacf3f7b9190a360016000805160206113bc8339815191525580f35b83606492519162461bcd60e51b8352820152600d60248201526c1499599d5b990819985a5b1959609a1b6044820152fd5b610d339150853d87116103285761031a818361128c565b38610ca7565b83513d8a823e3d90fd5b50895481163314610c2a565b90503461021e57602036600319011261021e5760209282913581526005845220549051908152f35b5050346101935781600319360112610193576020905160558152f35b5050346101935781600319360112610193576020906009549051908152f35b90503461021e57602036600319011261021e5735825260066020908152918190205490516001600160a01b039091168152f35b5050346101935781600319360112610193576020905160028152f35b5050346101935781600319360112610193576020905160148152f35b5050346101935781600319360112610193576020906008549051908152f35b90503461021e57602036600319011261021e5760209282913581526003845220549051908152f35b90503461021e578160031936011261021e57610e7e611195565b60243592610e8a6111e2565b610e926112dc565b600854808511610f645784610ea691611370565b600855600154815163a9059cbb60e01b81526001600160a01b038481169582019586526020868101889052909591929091839187169082908a90829060400103925af1908115610f5a5791610f27602094927f41fdd680478135993bc53fb2ffaf9560951b57ef62ff6badd02b61e018b4f17f96948991610f43575061137d565b519485521692a260016000805160206113bc8339815191525580f35b6103229150863d81116103285761031a818361128c565b82513d88823e3d90fd5b815162461bcd60e51b81526020818601526015602482015274496e73756666696369656e7420747265617375727960581b6044820152606490fd5b90503461021e5760a036600319011261021e5780359160243591604435906001600160a01b036064358181169290838103611191576084358015150361119157338952602092600a845260ff878b2054168015611185575b6110009061120e565b6110086112dc565b61101386151561124b565b878a5260058452868a205461114e5760015487516323b872dd60e01b81526001600160a01b039093168484019081523060208201526040810188905285928492169082908d90829060600103925af1908115611144578991611127575b50156110e65750848752600581528387208390556006815283872080546001600160a01b031916831790556007815283872086905583519283528201527fc44d83b836942aa10cbca463ef0796f2e43adf7e30b63f0cb3b2a739e220c7939190a360016000805160206113bc8339815191525580f35b60649185519162461bcd60e51b8352820152601760248201527f5061796d656e74207472616e73666572206661696c65640000000000000000006044820152fd5b61113e9150833d85116103285761031a818361128c565b38611070565b86513d8b823e3d90fd5b865162461bcd60e51b8152808401859052601160248201527015185cdac8185b1c9958591e481c185a59607a1b6044820152606490fd5b50895481163314610ff7565b8880fd5b600435906001600160a01b03821682036111ab57565b600080fd5b346111ab5760003660031901126111ab576020604051600a8152f35b60409060031901126111ab576004359060243590565b6000546001600160a01b031633036111f657565b60405163118cdaa760e01b8152336004820152602490fd5b1561121557565b60405162461bcd60e51b815260206004820152600e60248201526d139bdd08185d5d1a1bdc9a5e995960921b6044820152606490fd5b1561125257565b60405162461bcd60e51b81526020600482015260126024820152710416d6f756e74206d757374206265203e20360741b6044820152606490fd5b90601f8019910116810190811067ffffffffffffffff8211176112ae57604052565b634e487b7160e01b600052604160045260246000fd5b908160209103126111ab575180151581036111ab5790565b6000805160206113bc83398151915260028154146112fa5760029055565b604051633ee5aeb560e01b8152600490fd5b1561131357565b60405162461bcd60e51b8152602060048201526012602482015271139bc8195cd8dc9bddd95908185b5bdd5b9d60721b6044820152606490fd5b9190820180921161135a57565b634e487b7160e01b600052601160045260246000fd5b9190820391821161135a57565b1561138457565b60405162461bcd60e51b815260206004820152600f60248201526e151c985b9cd9995c8819985a5b1959608a1b6044820152606490fdfe9b779b17422d0df92223018b32b4d1fa46e071723d6817e2486d003becc55f00a2646970667358221220adca7778c5747a2f13dfd485710a9886895bb20de83db12f64f62f06bf97e68d64736f6c63430008140033",
  "linkReferences": {},
  "deployedLinkReferences": {}
}